{
  "contractName": "CTokenManager",
  "abi": [
    {
      "constant": true,
      "inputs": [],
      "name": "owner",
      "outputs": [
        {
          "internalType": "address",
          "name": "",
          "type": "address"
        }
      ],
      "payable": false,
      "stateMutability": "view",
      "type": "function"
    },
    {
      "constant": true,
      "inputs": [],
      "name": "isOwner",
      "outputs": [
        {
          "internalType": "bool",
          "name": "",
          "type": "bool"
        }
      ],
      "payable": false,
      "stateMutability": "view",
      "type": "function"
    },
    {
      "constant": false,
      "inputs": [
        {
          "internalType": "address",
          "name": "sender",
          "type": "address"
        }
      ],
      "name": "initialize",
      "outputs": [],
      "payable": false,
      "stateMutability": "nonpayable",
      "type": "function"
    },
    {
      "constant": false,
      "inputs": [
        {
          "internalType": "address",
          "name": "newOwner",
          "type": "address"
        }
      ],
      "name": "transferOwnership",
      "outputs": [],
      "payable": false,
      "stateMutability": "nonpayable",
      "type": "function"
    },
    {
      "inputs": [],
      "payable": false,
      "stateMutability": "nonpayable",
      "type": "constructor"
    },
    {
      "anonymous": false,
      "inputs": [
        {
          "indexed": true,
          "internalType": "address",
          "name": "previousOwner",
          "type": "address"
        },
        {
          "indexed": true,
          "internalType": "address",
          "name": "newOwner",
          "type": "address"
        }
      ],
      "name": "OwnershipTransferred",
      "type": "event"
    },
    {
      "anonymous": false,
      "inputs": [
        {
          "indexed": true,
          "internalType": "address",
          "name": "tokenAddress",
          "type": "address"
        }
      ],
      "name": "DiscardCToken",
      "type": "event"
    },
    {
      "anonymous": false,
      "inputs": [
        {
          "indexed": true,
          "internalType": "address",
          "name": "tokenAddress",
          "type": "address"
        }
      ],
      "name": "WhitelistCToken",
      "type": "event"
    },
    {
      "constant": false,
      "inputs": [
        {
          "internalType": "address",
          "name": "tokenAddress",
          "type": "address"
        }
      ],
      "name": "whitelistCToken",
      "outputs": [],
      "payable": false,
      "stateMutability": "nonpayable",
      "type": "function"
    },
    {
      "constant": false,
      "inputs": [
        {
          "internalType": "address",
          "name": "tokenAddress",
          "type": "address"
        }
      ],
      "name": "discardCToken",
      "outputs": [],
      "payable": false,
      "stateMutability": "nonpayable",
      "type": "function"
    },
    {
      "constant": true,
      "inputs": [
        {
          "internalType": "address",
          "name": "tokenAddress",
          "type": "address"
        }
      ],
      "name": "isCToken",
      "outputs": [
        {
          "internalType": "bool",
          "name": "",
          "type": "bool"
        }
      ],
      "payable": false,
      "stateMutability": "view",
      "type": "function"
    }
  ],
  "bytecode": "0x608060405234801561001057600080fd5b506100243361002960201b6103431760201c565b610144565b600054610100900460ff168061004b575061004b6001600160e01b0361013e16565b80610059575060005460ff16155b6100ae576040517f08c379a000000000000000000000000000000000000000000000000000000000815260040180806020018281038252602e815260200180610765602e913960400191505060405180910390fd5b600054610100900460ff161580156100d9576000805460ff1961ff0019909116610100171660011790555b603380546001600160a01b0319166001600160a01b0384811691909117918290556040519116906000907f8be0079c531659141344cd1fd0a4f28419497f9722a3daafe3b4186f6b6457e0908290a3801561013a576000805461ff00191690555b5050565b303b1590565b610612806101536000396000f3fe608060405234801561001057600080fd5b506004361061007d5760003560e01c80638f32d59b1161005b5780638f32d59b14610108578063c4d66de814610110578063dd21963514610136578063f2fde38b1461015c5761007d565b80630a7d2e1d146100825780632f52e595146100aa5780638da5cb5b146100e4575b600080fd5b6100a86004803603602081101561009857600080fd5b50356001600160a01b0316610182565b005b6100d0600480360360208110156100c057600080fd5b50356001600160a01b03166102f0565b604080519115158252519081900360200190f35b6100ec61030e565b604080516001600160a01b039092168252519081900360200190f35b6100d061031d565b6100a86004803603602081101561012657600080fd5b50356001600160a01b0316610343565b6100a86004803603602081101561014c57600080fd5b50356001600160a01b031661044d565b6100a86004803603602081101561017257600080fd5b50356001600160a01b0316610501565b61018a61031d565b61019357600080fd5b61019c816102f0565b156101ee576040805162461bcd60e51b815260206004820152601560248201527f63546f6b656e2069732077686974656c69737465640000000000000000000000604482015290519081900360640190fd5b806001600160a01b031663fe9c44ae6040518163ffffffff1660e01b815260040160206040518083038186803b15801561022757600080fd5b505afa15801561023b573d6000803e3d6000fd5b505050506040513d602081101561025157600080fd5b50516102a4576040805162461bcd60e51b815260206004820152601360248201527f746f6b656e206973206e6f742063546f6b656e00000000000000000000000000604482015290519081900360640190fd5b6001600160a01b038116600081815260666020526040808220805460ff19166001179055517f6b059312af62bbe5ac6a9a59761eaf444083ad356cdbf3761bc98857e061ecb59190a250565b6001600160a01b031660009081526066602052604090205460ff1690565b6033546001600160a01b031690565b6033546000906001600160a01b031661033461051e565b6001600160a01b031614905090565b600054610100900460ff168061035c575061035c610522565b8061036a575060005460ff16155b6103a55760405162461bcd60e51b815260040180806020018281038252602e8152602001806105b0602e913960400191505060405180910390fd5b600054610100900460ff161580156103d0576000805460ff1961ff0019909116610100171660011790555b603380547fffffffffffffffffffffffff0000000000000000000000000000000000000000166001600160a01b0384811691909117918290556040519116906000907f8be0079c531659141344cd1fd0a4f28419497f9722a3daafe3b4186f6b6457e0908290a38015610449576000805461ff00191690555b5050565b61045561031d565b61045e57600080fd5b610467816102f0565b6104b8576040805162461bcd60e51b815260206004820152601960248201527f63546f6b656e206973206e6f742077686974656c697374656400000000000000604482015290519081900360640190fd5b6001600160a01b038116600081815260666020526040808220805460ff19169055517f59699d7c9076678da939b1a98c86f40d8780564966fb30bf84d01b686dbb24c99190a250565b61050961031d565b61051257600080fd5b61051b81610528565b50565b3390565b303b1590565b6001600160a01b03811661053b57600080fd5b6033546040516001600160a01b038084169216907f8be0079c531659141344cd1fd0a4f28419497f9722a3daafe3b4186f6b6457e090600090a3603380547fffffffffffffffffffffffff0000000000000000000000000000000000000000166001600160a01b039290921691909117905556fe436f6e747261637420696e7374616e63652068617320616c7265616479206265656e20696e697469616c697a6564a265627a7a723158200165337341ad5da0d83c408f106c048bb461be6bb90cbef1425f81fbfcafc6ca64736f6c634300050b0032436f6e747261637420696e7374616e63652068617320616c7265616479206265656e20696e697469616c697a6564",
  "source": "pragma solidity 0.5.11;\n\nimport \"./interfaces/ICERC20.sol\";\nimport \"./lifecycle/OwnableWithoutRenounce.sol\";\nimport \"./interfaces/ICTokenManager.sol\";\n\n/**\n * @title CTokenManager\n * @author Sablier\n */\ncontract CTokenManager is ICTokenManager, OwnableWithoutRenounce {\n    /*** Storage Properties ***/\n\n    /**\n     * @notice Mapping of cTokens which can be used\n     */\n    mapping(address => bool) private cTokens;\n\n    /*** Contract Logic Starts Here */\n\n    constructor() public {\n        OwnableWithoutRenounce.initialize(msg.sender);\n    }\n\n    /*** Owner Functions ***/\n\n    /**\n     * @notice Whitelists a cToken for compounding streams.\n     * @dev Throws if the caller is not the owner of the contract.\n     *  Throws is the token is whitelisted.\n     *  Throws if the given address is not a `cToken`.\n     * @param tokenAddress The address of the cToken to whitelist.\n     */\n    function whitelistCToken(address tokenAddress) external onlyOwner {\n        require(!isCToken(tokenAddress), \"cToken is whitelisted\");\n        require(ICERC20(tokenAddress).isCToken(), \"token is not cToken\");\n        cTokens[tokenAddress] = true;\n        emit WhitelistCToken(tokenAddress);\n    }\n\n    /**\n     * @notice Discards a previously whitelisted cToken.\n     * @dev Throws if the caller is not the owner of the contract.\n     *  Throws if token is not whitelisted.\n     * @param tokenAddress The address of the cToken to discard.\n     */\n    function discardCToken(address tokenAddress) external onlyOwner {\n        require(isCToken(tokenAddress), \"cToken is not whitelisted\");\n        cTokens[tokenAddress] = false;\n        emit DiscardCToken(tokenAddress);\n    }\n\n    /*** View Functions ***/\n    /**\n     * @notice Checks if the given token address is one of the whitelisted cTokens.\n     * @param tokenAddress The address of the token to check.\n     * @return bool true=it is cToken, otherwise false.\n     */\n    function isCToken(address tokenAddress) public view returns (bool) {\n        return cTokens[tokenAddress];\n    }\n}\n",
  "sourcePath": "/media/dhiraj/code/hackfs/shopfs/dapp/contracts/sablier/CTokenManager.sol",
  "compiler": {
    "name": "solc",
    "version": "0.5.11+commit.c082d0b4.Emscripten.clang"
  },
  "schemaVersion": "3.2.3",
  "updatedAt": "2020-08-02T09:22:18.501Z",
  "devdoc": {
    "author": "Sablier",
    "methods": {
      "discardCToken(address)": {
        "details": "Throws if the caller is not the owner of the contract. Throws if token is not whitelisted.",
        "params": {
          "tokenAddress": "The address of the cToken to discard."
        }
      },
      "initialize(address)": {
        "details": "The Ownable constructor sets the original `owner` of the contract to the sender account."
      },
      "isCToken(address)": {
        "params": {
          "tokenAddress": "The address of the token to check."
        },
        "return": "bool true=it is cToken, otherwise false."
      },
      "isOwner()": {
        "return": "true if `msg.sender` is the owner of the contract."
      },
      "owner()": {
        "return": "the address of the owner."
      },
      "transferOwnership(address)": {
        "details": "Allows the current owner to transfer control of the contract to a newOwner.",
        "params": {
          "newOwner": "The address to transfer ownership to."
        }
      },
      "whitelistCToken(address)": {
        "details": "Throws if the caller is not the owner of the contract. Throws is the token is whitelisted. Throws if the given address is not a `cToken`.",
        "params": {
          "tokenAddress": "The address of the cToken to whitelist."
        }
      }
    },
    "title": "CTokenManager"
  },
  "userdoc": {
    "methods": {
      "constructor": "* Contract Logic Starts Here ",
      "discardCToken(address)": {
        "notice": "Discards a previously whitelisted cToken."
      },
      "isCToken(address)": {
        "notice": "Checks if the given token address is one of the whitelisted cTokens."
      },
      "whitelistCToken(address)": {
        "notice": "Whitelists a cToken for compounding streams."
      }
    }
  }
}