{
  "contractName": "OwnableWithoutRenounce",
  "abi": [
    {
      "anonymous": false,
      "inputs": [
        {
          "indexed": true,
          "internalType": "address",
          "name": "previousOwner",
          "type": "address"
        },
        {
          "indexed": true,
          "internalType": "address",
          "name": "newOwner",
          "type": "address"
        }
      ],
      "name": "OwnershipTransferred",
      "type": "event"
    },
    {
      "constant": false,
      "inputs": [
        {
          "internalType": "address",
          "name": "sender",
          "type": "address"
        }
      ],
      "name": "initialize",
      "outputs": [],
      "payable": false,
      "stateMutability": "nonpayable",
      "type": "function"
    },
    {
      "constant": true,
      "inputs": [],
      "name": "owner",
      "outputs": [
        {
          "internalType": "address",
          "name": "",
          "type": "address"
        }
      ],
      "payable": false,
      "stateMutability": "view",
      "type": "function"
    },
    {
      "constant": true,
      "inputs": [],
      "name": "isOwner",
      "outputs": [
        {
          "internalType": "bool",
          "name": "",
          "type": "bool"
        }
      ],
      "payable": false,
      "stateMutability": "view",
      "type": "function"
    },
    {
      "constant": false,
      "inputs": [
        {
          "internalType": "address",
          "name": "newOwner",
          "type": "address"
        }
      ],
      "name": "transferOwnership",
      "outputs": [],
      "payable": false,
      "stateMutability": "nonpayable",
      "type": "function"
    }
  ],
  "bytecode": "0x6080604052610349806100136000396000f3fe608060405234801561001057600080fd5b506004361061004c5760003560e01c80638da5cb5b146100515780638f32d59b14610075578063c4d66de814610091578063f2fde38b146100b9575b600080fd5b6100596100df565b604080516001600160a01b039092168252519081900360200190f35b61007d6100ee565b604080519115158252519081900360200190f35b6100b7600480360360208110156100a757600080fd5b50356001600160a01b0316610114565b005b6100b7600480360360208110156100cf57600080fd5b50356001600160a01b0316610238565b6033546001600160a01b031690565b6033546000906001600160a01b0316610105610255565b6001600160a01b031614905090565b600054610100900460ff168061012d575061012d610259565b8061013b575060005460ff16155b610190576040517f08c379a000000000000000000000000000000000000000000000000000000000815260040180806020018281038252602e8152602001806102e7602e913960400191505060405180910390fd5b600054610100900460ff161580156101bb576000805460ff1961ff0019909116610100171660011790555b603380547fffffffffffffffffffffffff0000000000000000000000000000000000000000166001600160a01b0384811691909117918290556040519116906000907f8be0079c531659141344cd1fd0a4f28419497f9722a3daafe3b4186f6b6457e0908290a38015610234576000805461ff00191690555b5050565b6102406100ee565b61024957600080fd5b6102528161025f565b50565b3390565b303b1590565b6001600160a01b03811661027257600080fd5b6033546040516001600160a01b038084169216907f8be0079c531659141344cd1fd0a4f28419497f9722a3daafe3b4186f6b6457e090600090a3603380547fffffffffffffffffffffffff0000000000000000000000000000000000000000166001600160a01b039290921691909117905556fe436f6e747261637420696e7374616e63652068617320616c7265616479206265656e20696e697469616c697a6564a265627a7a723158204a1e7b47517bc3c79b1b6379572d80b1d4d5ef2887404560a249cb4ed38f5cc764736f6c634300050b0032",
  "source": "pragma solidity 0.5.11;\n\nimport \"@openzeppelin/contracts-ethereum-package/contracts/GSN/Context.sol\";\nimport \"@openzeppelin/upgrades/contracts/Initializable.sol\";\n\n/**\n * @title OwnableWithoutRenounce\n * @author Sablier\n * @dev Fork of OpenZeppelin's Ownable contract, which provides basic authorization control, but with\n *  the `renounceOwnership` function removed to avoid fat-finger errors.\n *  We inherit from `Context` to keep this contract compatible with the Gas Station Network.\n * See https://github.com/OpenZeppelin/openzeppelin-contracts-ethereum-package/blob/master/contracts/ownership/Ownable.sol\n * See https://forum.openzeppelin.com/t/contract-request-ownable-without-renounceownership/1400\n * See https://docs.openzeppelin.com/contracts/2.x/gsn#_msg_sender_and_msg_data\n */\ncontract OwnableWithoutRenounce is Initializable, Context {\n    address private _owner;\n\n    event OwnershipTransferred(address indexed previousOwner, address indexed newOwner);\n\n    /**\n     * @dev The Ownable constructor sets the original `owner` of the contract to the sender\n     * account.\n     */\n    function initialize(address sender) public initializer {\n        _owner = sender;\n        emit OwnershipTransferred(address(0), _owner);\n    }\n\n    /**\n     * @return the address of the owner.\n     */\n    function owner() public view returns (address) {\n        return _owner;\n    }\n\n    /**\n     * @dev Throws if called by any account other than the owner.\n     */\n    modifier onlyOwner() {\n        require(isOwner());\n        _;\n    }\n\n    /**\n     * @return true if `msg.sender` is the owner of the contract.\n     */\n    function isOwner() public view returns (bool) {\n        return _msgSender() == _owner;\n    }\n\n    /**\n     * @dev Allows the current owner to transfer control of the contract to a newOwner.\n     * @param newOwner The address to transfer ownership to.\n     */\n    function transferOwnership(address newOwner) public onlyOwner {\n        _transferOwnership(newOwner);\n    }\n\n    /**\n     * @dev Transfers control of the contract to a newOwner.\n     * @param newOwner The address to transfer ownership to.\n     */\n    function _transferOwnership(address newOwner) internal {\n        require(newOwner != address(0));\n        emit OwnershipTransferred(_owner, newOwner);\n        _owner = newOwner;\n    }\n\n    uint256[50] private ______gap;\n}\n",
  "sourcePath": "/media/dhiraj/code/hackfs/shopfs/dapp/contracts/sablier/lifecycle/OwnableWithoutRenounce.sol",
  "compiler": {
    "name": "solc",
    "version": "0.5.11+commit.c082d0b4.Emscripten.clang"
  },
  "schemaVersion": "3.2.3",
  "updatedAt": "2020-08-03T09:02:58.587Z",
  "devdoc": {
    "author": "Sablier",
    "details": "Fork of OpenZeppelin's Ownable contract, which provides basic authorization control, but with the `renounceOwnership` function removed to avoid fat-finger errors. We inherit from `Context` to keep this contract compatible with the Gas Station Network. See https://github.com/OpenZeppelin/openzeppelin-contracts-ethereum-package/blob/master/contracts/ownership/Ownable.sol See https://forum.openzeppelin.com/t/contract-request-ownable-without-renounceownership/1400 See https://docs.openzeppelin.com/contracts/2.x/gsn#_msg_sender_and_msg_data",
    "methods": {
      "initialize(address)": {
        "details": "The Ownable constructor sets the original `owner` of the contract to the sender account."
      },
      "isOwner()": {
        "return": "true if `msg.sender` is the owner of the contract."
      },
      "owner()": {
        "return": "the address of the owner."
      },
      "transferOwnership(address)": {
        "details": "Allows the current owner to transfer control of the contract to a newOwner.",
        "params": {
          "newOwner": "The address to transfer ownership to."
        }
      }
    },
    "title": "OwnableWithoutRenounce"
  },
  "userdoc": {
    "methods": {}
  }
}