{
  "contractName": "PauserRoleWithoutRenounce",
  "abi": [
    {
      "anonymous": false,
      "inputs": [
        {
          "indexed": true,
          "internalType": "address",
          "name": "account",
          "type": "address"
        }
      ],
      "name": "PauserAdded",
      "type": "event"
    },
    {
      "anonymous": false,
      "inputs": [
        {
          "indexed": true,
          "internalType": "address",
          "name": "account",
          "type": "address"
        }
      ],
      "name": "PauserRemoved",
      "type": "event"
    },
    {
      "constant": false,
      "inputs": [
        {
          "internalType": "address",
          "name": "sender",
          "type": "address"
        }
      ],
      "name": "initialize",
      "outputs": [],
      "payable": false,
      "stateMutability": "nonpayable",
      "type": "function"
    },
    {
      "constant": true,
      "inputs": [
        {
          "internalType": "address",
          "name": "account",
          "type": "address"
        }
      ],
      "name": "isPauser",
      "outputs": [
        {
          "internalType": "bool",
          "name": "",
          "type": "bool"
        }
      ],
      "payable": false,
      "stateMutability": "view",
      "type": "function"
    },
    {
      "constant": false,
      "inputs": [
        {
          "internalType": "address",
          "name": "account",
          "type": "address"
        }
      ],
      "name": "addPauser",
      "outputs": [],
      "payable": false,
      "stateMutability": "nonpayable",
      "type": "function"
    }
  ],
  "bytecode": "0x608060405261035d806100136000396000f3fe608060405234801561001057600080fd5b50600436106100415760003560e01c806346fbf68e1461004657806382dc1ec414610080578063c4d66de8146100a8575b600080fd5b61006c6004803603602081101561005c57600080fd5b50356001600160a01b03166100ce565b604080519115158252519081900360200190f35b6100a66004803603602081101561009657600080fd5b50356001600160a01b03166100e7565b005b6100a6600480360360208110156100be57600080fd5b50356001600160a01b031661013e565b60006100e160338363ffffffff6101f716565b92915050565b6100f76100f261022c565b6100ce565b6101325760405162461bcd60e51b81526004018080602001828103825260308152602001806102cb6030913960400191505060405180910390fd5b61013b81610230565b50565b600054610100900460ff16806101575750610157610278565b80610165575060005460ff16155b6101a05760405162461bcd60e51b815260040180806020018281038252602e8152602001806102fb602e913960400191505060405180910390fd5b600054610100900460ff161580156101cb576000805460ff1961ff0019909116610100171660011790555b6101d4826100ce565b6101e1576101e182610230565b80156101f3576000805461ff00191690555b5050565b60006001600160a01b03821661020c57600080fd5b506001600160a01b03166000908152602091909152604090205460ff1690565b3390565b61024160338263ffffffff61027e16565b6040516001600160a01b038216907f6719d08c1888103bea251a4ed56406bd0c3e69723c8a1686e017e7bbe159b6f890600090a250565b303b1590565b6001600160a01b03811661029157600080fd5b61029b82826101f7565b156102a557600080fd5b6001600160a01b0316600090815260209190915260409020805460ff1916600117905556fe506175736572526f6c653a2063616c6c657220646f6573206e6f742068617665207468652050617573657220726f6c65436f6e747261637420696e7374616e63652068617320616c7265616479206265656e20696e697469616c697a6564a265627a7a7231582090ef0f5f3e5904aa11fcc2a487bcdc1736a75ed3bf2283fd39317fe17c57377764736f6c634300050b0032",
  "source": "pragma solidity ^0.5.0;\n\nimport \"@openzeppelin/contracts-ethereum-package/contracts/GSN/Context.sol\";\nimport \"@openzeppelin/contracts-ethereum-package/contracts/access/Roles.sol\";\nimport \"@openzeppelin/upgrades/contracts/Initializable.sol\";\n\n/**\n * @title PauserRoleWithoutRenounce\n * @author Sablier\n * @notice Fork of OpenZeppelin's PauserRole, but with the `renouncePauser` function removed to avoid fat-finger errors.\n *  We inherit from `Context` to keep this contract compatible with the Gas Station Network.\n * See https://github.com/OpenZeppelin/openzeppelin-contracts-ethereum-package/blob/master/contracts/access/roles/PauserRole.sol\n */\n\ncontract PauserRoleWithoutRenounce is Initializable, Context {\n    using Roles for Roles.Role;\n\n    event PauserAdded(address indexed account);\n    event PauserRemoved(address indexed account);\n\n    Roles.Role private _pausers;\n\n    function initialize(address sender) public initializer {\n        if (!isPauser(sender)) {\n            _addPauser(sender);\n        }\n    }\n\n    modifier onlyPauser() {\n        require(isPauser(_msgSender()), \"PauserRole: caller does not have the Pauser role\");\n        _;\n    }\n\n    function isPauser(address account) public view returns (bool) {\n        return _pausers.has(account);\n    }\n\n    function addPauser(address account) public onlyPauser {\n        _addPauser(account);\n    }\n\n    function _addPauser(address account) internal {\n        _pausers.add(account);\n        emit PauserAdded(account);\n    }\n\n    function _removePauser(address account) internal {\n        _pausers.remove(account);\n        emit PauserRemoved(account);\n    }\n\n    uint256[50] private ______gap;\n}\n",
  "sourcePath": "/media/dhiraj/code/hackfs/shopfs/dapp/contracts/sablier/lifecycle/PauserRoleWithoutRenounce.sol",
  "compiler": {
    "name": "solc",
    "version": "0.5.11+commit.c082d0b4.Emscripten.clang"
  },
  "schemaVersion": "3.2.3",
  "updatedAt": "2020-08-02T11:29:34.374Z",
  "devdoc": {
    "author": "Sablier",
    "methods": {},
    "title": "PauserRoleWithoutRenounce"
  },
  "userdoc": {
    "methods": {},
    "notice": "Fork of OpenZeppelin's PauserRole, but with the `renouncePauser` function removed to avoid fat-finger errors. We inherit from `Context` to keep this contract compatible with the Gas Station Network. See https://github.com/OpenZeppelin/openzeppelin-contracts-ethereum-package/blob/master/contracts/access/roles/PauserRole.sol"
  }
}