{
  "contractName": "PausableWithoutRenounce",
  "abi": [
    {
      "constant": true,
      "inputs": [
        {
          "internalType": "address",
          "name": "account",
          "type": "address"
        }
      ],
      "name": "isPauser",
      "outputs": [
        {
          "internalType": "bool",
          "name": "",
          "type": "bool"
        }
      ],
      "payable": false,
      "stateMutability": "view",
      "type": "function"
    },
    {
      "constant": false,
      "inputs": [
        {
          "internalType": "address",
          "name": "account",
          "type": "address"
        }
      ],
      "name": "addPauser",
      "outputs": [],
      "payable": false,
      "stateMutability": "nonpayable",
      "type": "function"
    },
    {
      "anonymous": false,
      "inputs": [
        {
          "indexed": false,
          "internalType": "address",
          "name": "account",
          "type": "address"
        }
      ],
      "name": "Paused",
      "type": "event"
    },
    {
      "anonymous": false,
      "inputs": [
        {
          "indexed": false,
          "internalType": "address",
          "name": "account",
          "type": "address"
        }
      ],
      "name": "Unpaused",
      "type": "event"
    },
    {
      "anonymous": false,
      "inputs": [
        {
          "indexed": true,
          "internalType": "address",
          "name": "account",
          "type": "address"
        }
      ],
      "name": "PauserAdded",
      "type": "event"
    },
    {
      "anonymous": false,
      "inputs": [
        {
          "indexed": true,
          "internalType": "address",
          "name": "account",
          "type": "address"
        }
      ],
      "name": "PauserRemoved",
      "type": "event"
    },
    {
      "constant": false,
      "inputs": [
        {
          "internalType": "address",
          "name": "sender",
          "type": "address"
        }
      ],
      "name": "initialize",
      "outputs": [],
      "payable": false,
      "stateMutability": "nonpayable",
      "type": "function"
    },
    {
      "constant": true,
      "inputs": [],
      "name": "paused",
      "outputs": [
        {
          "internalType": "bool",
          "name": "",
          "type": "bool"
        }
      ],
      "payable": false,
      "stateMutability": "view",
      "type": "function"
    },
    {
      "constant": false,
      "inputs": [],
      "name": "pause",
      "outputs": [],
      "payable": false,
      "stateMutability": "nonpayable",
      "type": "function"
    },
    {
      "constant": false,
      "inputs": [],
      "name": "unpause",
      "outputs": [],
      "payable": false,
      "stateMutability": "nonpayable",
      "type": "function"
    }
  ],
  "bytecode": "0x6080604052610625806100136000396000f3fe608060405234801561001057600080fd5b50600436106100725760003560e01c806382dc1ec41161005057806382dc1ec4146100c35780638456cb59146100e9578063c4d66de8146100f157610072565b80633f4ba83a1461007757806346fbf68e146100815780635c975abb146100bb575b600080fd5b61007f610117565b005b6100a76004803603602081101561009757600080fd5b50356001600160a01b0316610209565b604080519115158252519081900360200190f35b6100a7610222565b61007f600480360360208110156100d957600080fd5b50356001600160a01b031661022b565b61007f61027d565b61007f6004803603602081101561010757600080fd5b50356001600160a01b0316610351565b610127610122610407565b610209565b6101625760405162461bcd60e51b81526004018080602001828103825260308152602001806105936030913960400191505060405180910390fd5b60665460ff166101b9576040805162461bcd60e51b815260206004820152601460248201527f5061757361626c653a206e6f7420706175736564000000000000000000000000604482015290519081900360640190fd5b6066805460ff191690557f5db9ee0a495bf2e6ff9c91a7834c1ba4fdd244a5e8aa4e537bd38aeae4b073aa6101ec610407565b604080516001600160a01b039092168252519081900360200190a1565b600061021c60338363ffffffff61040b16565b92915050565b60665460ff1690565b610236610122610407565b6102715760405162461bcd60e51b81526004018080602001828103825260308152602001806105936030913960400191505060405180910390fd5b61027a81610440565b50565b610288610122610407565b6102c35760405162461bcd60e51b81526004018080602001828103825260308152602001806105936030913960400191505060405180910390fd5b60665460ff161561031b576040805162461bcd60e51b815260206004820152601060248201527f5061757361626c653a2070617573656400000000000000000000000000000000604482015290519081900360640190fd5b6066805460ff191660011790557f62e78cea01bee320cd4e420270b5ea74000d11b0c9f74754ebdbfc544b05a2586101ec610407565b600054610100900460ff168061036a575061036a610488565b80610378575060005460ff16155b6103b35760405162461bcd60e51b815260040180806020018281038252602e8152602001806105c3602e913960400191505060405180910390fd5b600054610100900460ff161580156103de576000805460ff1961ff0019909116610100171660011790555b6103e78261048e565b6066805460ff191690558015610403576000805461ff00191690555b5050565b3390565b60006001600160a01b03821661042057600080fd5b506001600160a01b03166000908152602091909152604090205460ff1690565b61045160338263ffffffff61054616565b6040516001600160a01b038216907f6719d08c1888103bea251a4ed56406bd0c3e69723c8a1686e017e7bbe159b6f890600090a250565b303b1590565b600054610100900460ff16806104a757506104a7610488565b806104b5575060005460ff16155b6104f05760405162461bcd60e51b815260040180806020018281038252602e8152602001806105c3602e913960400191505060405180910390fd5b600054610100900460ff1615801561051b576000805460ff1961ff0019909116610100171660011790555b61052482610209565b6105315761053182610440565b8015610403576000805461ff00191690555050565b6001600160a01b03811661055957600080fd5b610563828261040b565b1561056d57600080fd5b6001600160a01b0316600090815260209190915260409020805460ff1916600117905556fe506175736572526f6c653a2063616c6c657220646f6573206e6f742068617665207468652050617573657220726f6c65436f6e747261637420696e7374616e63652068617320616c7265616479206265656e20696e697469616c697a6564a265627a7a72315820d13c0c28cd8c380accc554c71d20f9df19d898484da677e194efe9238b378e8d64736f6c634300050b0032",
  "source": "pragma solidity 0.5.11;\n\nimport \"@openzeppelin/contracts-ethereum-package/contracts/GSN/Context.sol\";\nimport \"@openzeppelin/upgrades/contracts/Initializable.sol\";\n\nimport \"./PauserRoleWithoutRenounce.sol\";\n\n/**\n * @title PausableWithoutRenounce\n * @author Sablier\n * @notice Fork of OpenZeppelin's Pausable, a contract module which allows children to implement an\n *  emergency stop mechanism that can be triggered by an authorized account, but with the `renouncePauser`\n *  function removed to avoid fat-finger errors.\n *  We inherit from `Context` to keep this contract compatible with the Gas Station Network.\n * See https://github.com/OpenZeppelin/openzeppelin-contracts-ethereum-package/blob/master/contracts/lifecycle/Pausable.sol\n * See https://docs.openzeppelin.com/contracts/2.x/gsn#_msg_sender_and_msg_data\n */\ncontract PausableWithoutRenounce is Initializable, Context, PauserRoleWithoutRenounce {\n    /**\n     * @dev Emitted when the pause is triggered by a pauser (`account`).\n     */\n    event Paused(address account);\n\n    /**\n     * @dev Emitted when the pause is lifted by a pauser (`account`).\n     */\n    event Unpaused(address account);\n\n    bool private _paused;\n\n    /**\n     * @dev Initializes the contract in unpaused state. Assigns the Pauser role\n     * to the deployer.\n     */\n    function initialize(address sender) public initializer {\n        PauserRoleWithoutRenounce.initialize(sender);\n        _paused = false;\n    }\n\n    /**\n     * @dev Returns true if the contract is paused, and false otherwise.\n     */\n    function paused() public view returns (bool) {\n        return _paused;\n    }\n\n    /**\n     * @dev Modifier to make a function callable only when the contract is not paused.\n     */\n    modifier whenNotPaused() {\n        require(!_paused, \"Pausable: paused\");\n        _;\n    }\n\n    /**\n     * @dev Modifier to make a function callable only when the contract is paused.\n     */\n    modifier whenPaused() {\n        require(_paused, \"Pausable: not paused\");\n        _;\n    }\n\n    /**\n     * @dev Called by a pauser to pause, triggers stopped state.\n     */\n    function pause() public onlyPauser whenNotPaused {\n        _paused = true;\n        emit Paused(_msgSender());\n    }\n\n    /**\n     * @dev Called by a pauser to unpause, returns to normal state.\n     */\n    function unpause() public onlyPauser whenPaused {\n        _paused = false;\n        emit Unpaused(_msgSender());\n    }\n}\n",
  "sourcePath": "/media/dhiraj/code/hackfs/shopfs/dapp/contracts/sablier/lifecycle/PausableWithoutRenounce.sol",
  "compiler": {
    "name": "solc",
    "version": "0.5.11+commit.c082d0b4.Emscripten.clang"
  },
  "schemaVersion": "3.2.3",
  "updatedAt": "2020-08-03T09:02:58.630Z",
  "devdoc": {
    "author": "Sablier",
    "methods": {
      "initialize(address)": {
        "details": "Initializes the contract in unpaused state. Assigns the Pauser role to the deployer."
      },
      "pause()": {
        "details": "Called by a pauser to pause, triggers stopped state."
      },
      "paused()": {
        "details": "Returns true if the contract is paused, and false otherwise."
      },
      "unpause()": {
        "details": "Called by a pauser to unpause, returns to normal state."
      }
    },
    "title": "PausableWithoutRenounce"
  },
  "userdoc": {
    "methods": {},
    "notice": "Fork of OpenZeppelin's Pausable, a contract module which allows children to implement an emergency stop mechanism that can be triggered by an authorized account, but with the `renouncePauser` function removed to avoid fat-finger errors. We inherit from `Context` to keep this contract compatible with the Gas Station Network. See https://github.com/OpenZeppelin/openzeppelin-contracts-ethereum-package/blob/master/contracts/lifecycle/Pausable.sol See https://docs.openzeppelin.com/contracts/2.x/gsn#_msg_sender_and_msg_data"
  }
}