{
    "contractName": "StorageMarketPlace",
    "abi": [
        {
            "inputs": [
                {
                    "internalType": "uint256",
                    "name": "_priceLimit",
                    "type": "uint256"
                }
            ],
            "stateMutability": "nonpayable",
            "type": "constructor"
        },
        {
            "inputs": [
                {
                    "internalType": "uint256",
                    "name": "",
                    "type": "uint256"
                }
            ],
            "name": "Files",
            "outputs": [
                {
                    "internalType": "address",
                    "name": "seller",
                    "type": "address"
                },
                {
                    "internalType": "address",
                    "name": "paymentAsset",
                    "type": "address"
                },
                {
                    "internalType": "string",
                    "name": "hash",
                    "type": "string"
                },
                {
                    "internalType": "string",
                    "name": "description",
                    "type": "string"
                },
                {
                    "internalType": "uint256",
                    "name": "price",
                    "type": "uint256"
                },
                {
                    "internalType": "uint256",
                    "name": "numRetriveals",
                    "type": "uint256"
                }
            ],
            "stateMutability": "view",
            "type": "function"
        },
        {
            "inputs": [],
            "name": "fileCount",
            "outputs": [
                {
                    "internalType": "uint256",
                    "name": "",
                    "type": "uint256"
                }
            ],
            "stateMutability": "view",
            "type": "function"
        },
        {
            "inputs": [
                {
                    "internalType": "string",
                    "name": "",
                    "type": "string"
                }
            ],
            "name": "hashExists",
            "outputs": [
                {
                    "internalType": "bool",
                    "name": "",
                    "type": "bool"
                }
            ],
            "stateMutability": "view",
            "type": "function"
        },
        {
            "inputs": [],
            "name": "priceLimit",
            "outputs": [
                {
                    "internalType": "uint256",
                    "name": "",
                    "type": "uint256"
                }
            ],
            "stateMutability": "view",
            "type": "function"
        },
        {
            "inputs": [
                {
                    "internalType": "address",
                    "name": "_paymentAsset",
                    "type": "address"
                },
                {
                    "internalType": "uint256",
                    "name": "_price",
                    "type": "uint256"
                },
                {
                    "internalType": "string",
                    "name": "_hash",
                    "type": "string"
                },
                {
                    "internalType": "string",
                    "name": "_description",
                    "type": "string"
                }
            ],
            "name": "sell",
            "outputs": [
                {
                    "internalType": "bool",
                    "name": "",
                    "type": "bool"
                }
            ],
            "stateMutability": "nonpayable",
            "type": "function"
        },
        {
            "inputs": [
                {
                    "internalType": "uint256",
                    "name": "_id",
                    "type": "uint256"
                }
            ],
            "name": "buy",
            "outputs": [
                {
                    "internalType": "bool",
                    "name": "",
                    "type": "bool"
                }
            ],
            "stateMutability": "nonpayable",
            "type": "function"
        }
    ],
    "bytecode": "0x608060405234801561001057600080fd5b50604051610cda380380610cda8339818101604052602081101561003357600080fd5b81019080805190602001909291905050508060028190555050610c7f8061005b6000396000f3fe608060405234801561001057600080fd5b50600436106100625760003560e01c8063439535191461006757806347d52ef2146100855780639871e5101461020c578063d96a094a146102df578063f0e1ba2c14610325578063f3eec7a714610343575b600080fd5b61006f610453565b6040518082815260200191505060405180910390f35b6100b16004803603602081101561009b57600080fd5b8101908080359060200190929190505050610459565b604051808773ffffffffffffffffffffffffffffffffffffffff1673ffffffffffffffffffffffffffffffffffffffff1681526020018673ffffffffffffffffffffffffffffffffffffffff1673ffffffffffffffffffffffffffffffffffffffff1681526020018060200180602001858152602001848152602001838103835287818151815260200191508051906020019080838360005b8381101561016557808201518184015260208101905061014a565b50505050905090810190601f1680156101925780820380516001836020036101000a031916815260200191505b50838103825286818151815260200191508051906020019080838360005b838110156101cb5780820151818401526020810190506101b0565b50505050905090810190601f1680156101f85780820380516001836020036101000a031916815260200191505b509850505050505050505060405180910390f35b6102c56004803603602081101561022257600080fd5b810190808035906020019064010000000081111561023f57600080fd5b82018360208201111561025157600080fd5b8035906020019184600183028401116401000000008311171561027357600080fd5b91908080601f016020809104026020016040519081016040528093929190818152602001838380828437600081840152601f19601f820116905080830192505050505050509192919290505050610605565b604051808215151515815260200191505060405180910390f35b61030b600480360360208110156102f557600080fd5b810190808035906020019092919050505061063b565b604051808215151515815260200191505060405180910390f35b61032d6107b3565b6040518082815260200191505060405180910390f35b6104396004803603608081101561035957600080fd5b81019080803573ffffffffffffffffffffffffffffffffffffffff16906020019092919080359060200190929190803590602001906401000000008111156103a057600080fd5b8201836020820111156103b257600080fd5b803590602001918460018302840111640100000000831117156103d457600080fd5b9091929391929390803590602001906401000000008111156103f557600080fd5b82018360208201111561040757600080fd5b8035906020019184600183028401116401000000008311171561042957600080fd5b90919293919293905050506107b9565b604051808215151515815260200191505060405180910390f35b60035481565b60006020528060005260406000206000915090508060000160009054906101000a900473ffffffffffffffffffffffffffffffffffffffff16908060010160009054906101000a900473ffffffffffffffffffffffffffffffffffffffff1690806002018054600181600116156101000203166002900480601f0160208091040260200160405190810160405280929190818152602001828054600181600116156101000203166002900480156105515780601f1061052657610100808354040283529160200191610551565b820191906000526020600020905b81548152906001019060200180831161053457829003601f168201915b505050505090806003018054600181600116156101000203166002900480601f0160208091040260200160405190810160405280929190818152602001828054600181600116156101000203166002900480156105ef5780601f106105c4576101008083540402835291602001916105ef565b820191906000526020600020905b8154815290600101906020018083116105d257829003601f168201915b5050505050908060040154908060050154905086565b6001818051602081018201805184825260208301602085012081835280955050505050506000915054906101000a900460ff1681565b60008060008084815260200190815260200160002090508060010160009054906101000a900473ffffffffffffffffffffffffffffffffffffffff1673ffffffffffffffffffffffffffffffffffffffff166323b872dd338360000160009054906101000a900473ffffffffffffffffffffffffffffffffffffffff1684600401546040518463ffffffff1660e01b8152600401808473ffffffffffffffffffffffffffffffffffffffff1673ffffffffffffffffffffffffffffffffffffffff1681526020018373ffffffffffffffffffffffffffffffffffffffff1673ffffffffffffffffffffffffffffffffffffffff1681526020018281526020019350505050602060405180830381600087803b15801561075957600080fd5b505af115801561076d573d6000803e3d6000fd5b505050506040513d602081101561078357600080fd5b81019080805190602001909291905050505080600501600081548092919060010191905055506001915050919050565b60025481565b600084848080601f016020809104026020016040519081016040528093929190818152602001838380828437600081840152601f19601f820116905080830192505050505050506001816040518082805190602001908083835b602083106108365780518252602082019150602081019050602083039250610813565b6001836020036101000a038019825116818451168082178552505050505050905001915050908152602001604051809103902060009054906101000a900460ff16156108ea576040517f08c379a000000000000000000000000000000000000000000000000000000000815260040180806020018281038252601b8152602001807f43616e6e6f742075706c6f6164206578697374696e672066696c65000000000081525060200191505060405180910390fd5b6002548710610944576040517f08c379a000000000000000000000000000000000000000000000000000000000815260040180806020018281038252602b815260200180610c1f602b913960400191505060405180910390fd5b6040518060c001604052803373ffffffffffffffffffffffffffffffffffffffff1681526020018973ffffffffffffffffffffffffffffffffffffffff16815260200187878080601f016020809104026020016040519081016040528093929190818152602001838380828437600081840152601f19601f82011690508083019250505050505050815260200185858080601f016020809104026020016040519081016040528093929190818152602001838380828437600081840152601f19601f8201169050808301925050505050505081526020018881526020016000815250600080600354815260200190815260200160002060008201518160000160006101000a81548173ffffffffffffffffffffffffffffffffffffffff021916908373ffffffffffffffffffffffffffffffffffffffff16021790555060208201518160010160006101000a81548173ffffffffffffffffffffffffffffffffffffffff021916908373ffffffffffffffffffffffffffffffffffffffff1602179055506040820151816002019080519060200190610ae4929190610b79565b506060820151816003019080519060200190610b01929190610b79565b506080820151816004015560a082015181600501559050506003600081548092919060010191905055506001808787604051808383808284378083019250505092505050908152602001604051809103902060006101000a81548160ff02191690831515021790555060019150509695505050505050565b828054600181600116156101000203166002900490600052602060002090601f016020900481019282601f10610bba57805160ff1916838001178555610be8565b82800160010185558215610be8579182015b82811115610be7578251825591602001919060010190610bcc565b5b509050610bf59190610bf9565b5090565b610c1b91905b80821115610c17576000816000905550600101610bff565b5090565b9056fe50726963652068617320746f206265206c657373207468616e206120736574207072696365206c696d6974a264697066735822122033aa5ca80bc3734240864296b98638a1e45c7a25c11d54539399d25b67e8687164736f6c63430006000033",
    "source": "pragma solidity ^0.6.0;\n\n\n/**\n * @title ERC20 interface\n * @dev see https://eips.ethereum.org/EIPS/eip-20\n */\ninterface IERC20 {\n    function transfer(address to, uint256 value) external returns (bool);\n\n    function approve(address spender, uint256 value) external returns (bool);\n\n    function transferFrom(address from, address to, uint256 value) external returns (bool);\n\n    function totalSupply() external view returns (uint256);\n\n    function balanceOf(address who) external view returns (uint256);\n\n    function allowance(address owner, address spender) external view returns (uint256);\n\n    event Transfer(address indexed from, address indexed to, uint256 value);\n\n    event Approval(address indexed owner, address indexed spender, uint256 value);\n}\n\ncontract StorageMarketPlace {\n   \n    modifier isUploaded(string memory _hash) {\n        require(!hashExists[_hash], \"Cannot upload existing file\");\n        _;\n    }\n   \n\n    struct File {\n        address seller;\n        address paymentAsset;\n        string hash;\n        string description;\n        uint price;\n        uint numRetriveals;\n    }\n    \n\n    mapping(uint => File) public Files;\n    mapping(string => bool) public hashExists;\n\n    uint public priceLimit;\n    uint public fileCount;\n\n\n    constructor(uint _priceLimit) public {\n        priceLimit = _priceLimit;\n    }\n   \n    function sell(address _paymentAsset, uint _price, string calldata _hash, string calldata _description) isUploaded(_hash) external returns(bool) {\n        require(_price < priceLimit, \"Price has to be less than a set price limit\");\n        Files[fileCount] = File(msg.sender, _paymentAsset, _hash, _description, _price, 0);\n        fileCount ++;\n        hashExists[_hash] = true;\n        return true;\n    }\n   \n    function buy(uint _id) external returns(bool) {\n        File storage file = Files[_id];\n        IERC20(file.paymentAsset).transferFrom(msg.sender, file.seller, file.price);\n        file.numRetriveals ++;\n        return true;\n    }\n   \n   \n}\n\n",
    "sourcePath": "/media/dhiraj/code/hackfs/IPFS-ETH-MarketPlace/contracts/StorageMarket.sol",
    "compiler": {
        "name": "solc",
        "version": "0.6.0+commit.26b70077.Emscripten.clang"
    },
    "schemaVersion": "3.2.1",
    "updatedAt": "2020-07-09T09:30:37.041Z",
    "devdoc": {
        "methods": {}
    },
    "userdoc": {
        "methods": {}
    }
}