{
  "contractName": "StorageMarketPlace",
  "abi": [
    {
      "constant": true,
      "inputs": [
        {
          "internalType": "address",
          "name": "tokenAddress",
          "type": "address"
        }
      ],
      "name": "getEarnings",
      "outputs": [
        {
          "internalType": "uint256",
          "name": "",
          "type": "uint256"
        }
      ],
      "payable": false,
      "stateMutability": "view",
      "type": "function"
    },
    {
      "constant": true,
      "inputs": [],
      "name": "nextStreamId",
      "outputs": [
        {
          "internalType": "uint256",
          "name": "",
          "type": "uint256"
        }
      ],
      "payable": false,
      "stateMutability": "view",
      "type": "function"
    },
    {
      "constant": true,
      "inputs": [
        {
          "internalType": "uint256",
          "name": "streamId",
          "type": "uint256"
        }
      ],
      "name": "getCompoundingStream",
      "outputs": [
        {
          "internalType": "address",
          "name": "sender",
          "type": "address"
        },
        {
          "internalType": "address",
          "name": "recipient",
          "type": "address"
        },
        {
          "internalType": "uint256",
          "name": "deposit",
          "type": "uint256"
        },
        {
          "internalType": "address",
          "name": "tokenAddress",
          "type": "address"
        },
        {
          "internalType": "uint256",
          "name": "startTime",
          "type": "uint256"
        },
        {
          "internalType": "uint256",
          "name": "stopTime",
          "type": "uint256"
        },
        {
          "internalType": "uint256",
          "name": "remainingBalance",
          "type": "uint256"
        },
        {
          "internalType": "uint256",
          "name": "ratePerSecond",
          "type": "uint256"
        },
        {
          "internalType": "uint256",
          "name": "exchangeRateInitial",
          "type": "uint256"
        },
        {
          "internalType": "uint256",
          "name": "senderSharePercentage",
          "type": "uint256"
        },
        {
          "internalType": "uint256",
          "name": "recipientSharePercentage",
          "type": "uint256"
        }
      ],
      "payable": false,
      "stateMutability": "view",
      "type": "function"
    },
    {
      "constant": true,
      "inputs": [
        {
          "internalType": "uint256",
          "name": "streamId",
          "type": "uint256"
        },
        {
          "internalType": "address",
          "name": "who",
          "type": "address"
        }
      ],
      "name": "balanceOf",
      "outputs": [
        {
          "internalType": "uint256",
          "name": "balance",
          "type": "uint256"
        }
      ],
      "payable": false,
      "stateMutability": "view",
      "type": "function"
    },
    {
      "constant": false,
      "inputs": [],
      "name": "unpause",
      "outputs": [],
      "payable": false,
      "stateMutability": "nonpayable",
      "type": "function"
    },
    {
      "constant": true,
      "inputs": [],
      "name": "fileCount",
      "outputs": [
        {
          "internalType": "uint256",
          "name": "",
          "type": "uint256"
        }
      ],
      "payable": false,
      "stateMutability": "view",
      "type": "function"
    },
    {
      "constant": true,
      "inputs": [
        {
          "internalType": "address",
          "name": "account",
          "type": "address"
        }
      ],
      "name": "isPauser",
      "outputs": [
        {
          "internalType": "bool",
          "name": "",
          "type": "bool"
        }
      ],
      "payable": false,
      "stateMutability": "view",
      "type": "function"
    },
    {
      "constant": true,
      "inputs": [
        {
          "internalType": "uint256",
          "name": "",
          "type": "uint256"
        }
      ],
      "name": "Files",
      "outputs": [
        {
          "internalType": "address",
          "name": "seller",
          "type": "address"
        },
        {
          "internalType": "address",
          "name": "paymentAsset",
          "type": "address"
        },
        {
          "internalType": "string",
          "name": "metadataHash",
          "type": "string"
        },
        {
          "internalType": "uint256",
          "name": "price",
          "type": "uint256"
        },
        {
          "internalType": "uint256",
          "name": "numRetrievals",
          "type": "uint256"
        }
      ],
      "payable": false,
      "stateMutability": "view",
      "type": "function"
    },
    {
      "constant": true,
      "inputs": [],
      "name": "paused",
      "outputs": [
        {
          "internalType": "bool",
          "name": "",
          "type": "bool"
        }
      ],
      "payable": false,
      "stateMutability": "view",
      "type": "function"
    },
    {
      "constant": false,
      "inputs": [
        {
          "internalType": "uint256",
          "name": "streamId",
          "type": "uint256"
        }
      ],
      "name": "cancelStream",
      "outputs": [
        {
          "internalType": "bool",
          "name": "",
          "type": "bool"
        }
      ],
      "payable": false,
      "stateMutability": "nonpayable",
      "type": "function"
    },
    {
      "constant": false,
      "inputs": [
        {
          "internalType": "uint256",
          "name": "streamId",
          "type": "uint256"
        },
        {
          "internalType": "uint256",
          "name": "amount",
          "type": "uint256"
        }
      ],
      "name": "withdrawFromStream",
      "outputs": [
        {
          "internalType": "bool",
          "name": "",
          "type": "bool"
        }
      ],
      "payable": false,
      "stateMutability": "nonpayable",
      "type": "function"
    },
    {
      "constant": false,
      "inputs": [],
      "name": "initialize",
      "outputs": [],
      "payable": false,
      "stateMutability": "nonpayable",
      "type": "function"
    },
    {
      "constant": false,
      "inputs": [
        {
          "internalType": "address",
          "name": "recipient",
          "type": "address"
        },
        {
          "internalType": "uint256",
          "name": "deposit",
          "type": "uint256"
        },
        {
          "internalType": "address",
          "name": "tokenAddress",
          "type": "address"
        },
        {
          "internalType": "uint256",
          "name": "startTime",
          "type": "uint256"
        },
        {
          "internalType": "uint256",
          "name": "stopTime",
          "type": "uint256"
        },
        {
          "internalType": "uint256",
          "name": "senderSharePercentage",
          "type": "uint256"
        },
        {
          "internalType": "uint256",
          "name": "recipientSharePercentage",
          "type": "uint256"
        }
      ],
      "name": "createCompoundingStream",
      "outputs": [
        {
          "internalType": "uint256",
          "name": "",
          "type": "uint256"
        }
      ],
      "payable": false,
      "stateMutability": "nonpayable",
      "type": "function"
    },
    {
      "constant": false,
      "inputs": [
        {
          "internalType": "address",
          "name": "account",
          "type": "address"
        }
      ],
      "name": "addPauser",
      "outputs": [],
      "payable": false,
      "stateMutability": "nonpayable",
      "type": "function"
    },
    {
      "constant": false,
      "inputs": [],
      "name": "pause",
      "outputs": [],
      "payable": false,
      "stateMutability": "nonpayable",
      "type": "function"
    },
    {
      "constant": true,
      "inputs": [
        {
          "internalType": "uint256",
          "name": "streamId",
          "type": "uint256"
        }
      ],
      "name": "getStream",
      "outputs": [
        {
          "internalType": "address",
          "name": "sender",
          "type": "address"
        },
        {
          "internalType": "address",
          "name": "recipient",
          "type": "address"
        },
        {
          "internalType": "uint256",
          "name": "deposit",
          "type": "uint256"
        },
        {
          "internalType": "address",
          "name": "tokenAddress",
          "type": "address"
        },
        {
          "internalType": "uint256",
          "name": "startTime",
          "type": "uint256"
        },
        {
          "internalType": "uint256",
          "name": "stopTime",
          "type": "uint256"
        },
        {
          "internalType": "uint256",
          "name": "remainingBalance",
          "type": "uint256"
        },
        {
          "internalType": "uint256",
          "name": "ratePerSecond",
          "type": "uint256"
        }
      ],
      "payable": false,
      "stateMutability": "view",
      "type": "function"
    },
    {
      "constant": false,
      "inputs": [
        {
          "internalType": "uint256",
          "name": "streamId",
          "type": "uint256"
        },
        {
          "internalType": "uint256",
          "name": "amount",
          "type": "uint256"
        }
      ],
      "name": "interestOf",
      "outputs": [
        {
          "internalType": "uint256",
          "name": "senderInterest",
          "type": "uint256"
        },
        {
          "internalType": "uint256",
          "name": "recipientInterest",
          "type": "uint256"
        },
        {
          "internalType": "uint256",
          "name": "sablierInterest",
          "type": "uint256"
        }
      ],
      "payable": false,
      "stateMutability": "nonpayable",
      "type": "function"
    },
    {
      "constant": true,
      "inputs": [],
      "name": "owner",
      "outputs": [
        {
          "internalType": "address",
          "name": "",
          "type": "address"
        }
      ],
      "payable": false,
      "stateMutability": "view",
      "type": "function"
    },
    {
      "constant": true,
      "inputs": [],
      "name": "isOwner",
      "outputs": [
        {
          "internalType": "bool",
          "name": "",
          "type": "bool"
        }
      ],
      "payable": false,
      "stateMutability": "view",
      "type": "function"
    },
    {
      "constant": false,
      "inputs": [
        {
          "internalType": "uint256",
          "name": "feePercentage",
          "type": "uint256"
        }
      ],
      "name": "updateFee",
      "outputs": [],
      "payable": false,
      "stateMutability": "nonpayable",
      "type": "function"
    },
    {
      "constant": true,
      "inputs": [
        {
          "internalType": "uint256",
          "name": "streamId",
          "type": "uint256"
        }
      ],
      "name": "isCompoundingStream",
      "outputs": [
        {
          "internalType": "bool",
          "name": "",
          "type": "bool"
        }
      ],
      "payable": false,
      "stateMutability": "view",
      "type": "function"
    },
    {
      "constant": true,
      "inputs": [
        {
          "internalType": "uint256",
          "name": "streamId",
          "type": "uint256"
        }
      ],
      "name": "deltaOf",
      "outputs": [
        {
          "internalType": "uint256",
          "name": "delta",
          "type": "uint256"
        }
      ],
      "payable": false,
      "stateMutability": "view",
      "type": "function"
    },
    {
      "constant": false,
      "inputs": [
        {
          "internalType": "address",
          "name": "tokenAddress",
          "type": "address"
        },
        {
          "internalType": "uint256",
          "name": "amount",
          "type": "uint256"
        }
      ],
      "name": "takeEarnings",
      "outputs": [],
      "payable": false,
      "stateMutability": "nonpayable",
      "type": "function"
    },
    {
      "constant": false,
      "inputs": [
        {
          "internalType": "address",
          "name": "sender",
          "type": "address"
        }
      ],
      "name": "initialize",
      "outputs": [],
      "payable": false,
      "stateMutability": "nonpayable",
      "type": "function"
    },
    {
      "constant": false,
      "inputs": [
        {
          "internalType": "address",
          "name": "recipient",
          "type": "address"
        },
        {
          "internalType": "uint256",
          "name": "deposit",
          "type": "uint256"
        },
        {
          "internalType": "address",
          "name": "tokenAddress",
          "type": "address"
        },
        {
          "internalType": "uint256",
          "name": "startTime",
          "type": "uint256"
        },
        {
          "internalType": "uint256",
          "name": "stopTime",
          "type": "uint256"
        }
      ],
      "name": "createStream",
      "outputs": [
        {
          "internalType": "uint256",
          "name": "",
          "type": "uint256"
        }
      ],
      "payable": false,
      "stateMutability": "nonpayable",
      "type": "function"
    },
    {
      "constant": true,
      "inputs": [],
      "name": "cTokenManager",
      "outputs": [
        {
          "internalType": "contract ICTokenManager",
          "name": "",
          "type": "address"
        }
      ],
      "payable": false,
      "stateMutability": "view",
      "type": "function"
    },
    {
      "constant": true,
      "inputs": [],
      "name": "fee",
      "outputs": [
        {
          "internalType": "uint256",
          "name": "mantissa",
          "type": "uint256"
        }
      ],
      "payable": false,
      "stateMutability": "view",
      "type": "function"
    },
    {
      "constant": true,
      "inputs": [
        {
          "internalType": "address",
          "name": "",
          "type": "address"
        }
      ],
      "name": "subscriptions",
      "outputs": [
        {
          "internalType": "bool",
          "name": "status",
          "type": "bool"
        }
      ],
      "payable": false,
      "stateMutability": "view",
      "type": "function"
    },
    {
      "constant": true,
      "inputs": [],
      "name": "priceLimit",
      "outputs": [
        {
          "internalType": "uint256",
          "name": "",
          "type": "uint256"
        }
      ],
      "payable": false,
      "stateMutability": "view",
      "type": "function"
    },
    {
      "constant": false,
      "inputs": [
        {
          "internalType": "address",
          "name": "newOwner",
          "type": "address"
        }
      ],
      "name": "transferOwnership",
      "outputs": [],
      "payable": false,
      "stateMutability": "nonpayable",
      "type": "function"
    },
    {
      "constant": true,
      "inputs": [
        {
          "internalType": "uint256",
          "name": "streamId",
          "type": "uint256"
        }
      ],
      "name": "isValid",
      "outputs": [
        {
          "internalType": "bool",
          "name": "",
          "type": "bool"
        }
      ],
      "payable": false,
      "stateMutability": "view",
      "type": "function"
    },
    {
      "inputs": [
        {
          "internalType": "uint256",
          "name": "_priceLimit",
          "type": "uint256"
        }
      ],
      "payable": false,
      "stateMutability": "nonpayable",
      "type": "constructor"
    },
    {
      "anonymous": false,
      "inputs": [
        {
          "indexed": true,
          "internalType": "uint256",
          "name": "fileId",
          "type": "uint256"
        },
        {
          "indexed": true,
          "internalType": "address",
          "name": "buyer",
          "type": "address"
        }
      ],
      "name": "Buy",
      "type": "event"
    },
    {
      "anonymous": false,
      "inputs": [
        {
          "indexed": true,
          "internalType": "uint256",
          "name": "fileId",
          "type": "uint256"
        },
        {
          "indexed": true,
          "internalType": "address",
          "name": "seller",
          "type": "address"
        }
      ],
      "name": "Sell",
      "type": "event"
    },
    {
      "anonymous": false,
      "inputs": [
        {
          "indexed": true,
          "internalType": "uint256",
          "name": "streamId",
          "type": "uint256"
        },
        {
          "indexed": false,
          "internalType": "uint256",
          "name": "exchangeRate",
          "type": "uint256"
        },
        {
          "indexed": false,
          "internalType": "uint256",
          "name": "senderSharePercentage",
          "type": "uint256"
        },
        {
          "indexed": false,
          "internalType": "uint256",
          "name": "recipientSharePercentage",
          "type": "uint256"
        }
      ],
      "name": "CreateCompoundingStream",
      "type": "event"
    },
    {
      "anonymous": false,
      "inputs": [
        {
          "indexed": true,
          "internalType": "uint256",
          "name": "streamId",
          "type": "uint256"
        },
        {
          "indexed": false,
          "internalType": "uint256",
          "name": "senderInterest",
          "type": "uint256"
        },
        {
          "indexed": false,
          "internalType": "uint256",
          "name": "recipientInterest",
          "type": "uint256"
        },
        {
          "indexed": false,
          "internalType": "uint256",
          "name": "sablierInterest",
          "type": "uint256"
        }
      ],
      "name": "PayInterest",
      "type": "event"
    },
    {
      "anonymous": false,
      "inputs": [
        {
          "indexed": true,
          "internalType": "address",
          "name": "tokenAddress",
          "type": "address"
        },
        {
          "indexed": true,
          "internalType": "uint256",
          "name": "amount",
          "type": "uint256"
        }
      ],
      "name": "TakeEarnings",
      "type": "event"
    },
    {
      "anonymous": false,
      "inputs": [
        {
          "indexed": true,
          "internalType": "uint256",
          "name": "fee",
          "type": "uint256"
        }
      ],
      "name": "UpdateFee",
      "type": "event"
    },
    {
      "anonymous": false,
      "inputs": [
        {
          "indexed": false,
          "internalType": "address",
          "name": "account",
          "type": "address"
        }
      ],
      "name": "Paused",
      "type": "event"
    },
    {
      "anonymous": false,
      "inputs": [
        {
          "indexed": false,
          "internalType": "address",
          "name": "account",
          "type": "address"
        }
      ],
      "name": "Unpaused",
      "type": "event"
    },
    {
      "anonymous": false,
      "inputs": [
        {
          "indexed": true,
          "internalType": "address",
          "name": "account",
          "type": "address"
        }
      ],
      "name": "PauserAdded",
      "type": "event"
    },
    {
      "anonymous": false,
      "inputs": [
        {
          "indexed": true,
          "internalType": "address",
          "name": "account",
          "type": "address"
        }
      ],
      "name": "PauserRemoved",
      "type": "event"
    },
    {
      "anonymous": false,
      "inputs": [
        {
          "indexed": true,
          "internalType": "address",
          "name": "previousOwner",
          "type": "address"
        },
        {
          "indexed": true,
          "internalType": "address",
          "name": "newOwner",
          "type": "address"
        }
      ],
      "name": "OwnershipTransferred",
      "type": "event"
    },
    {
      "anonymous": false,
      "inputs": [
        {
          "indexed": true,
          "internalType": "uint256",
          "name": "streamId",
          "type": "uint256"
        },
        {
          "indexed": true,
          "internalType": "address",
          "name": "sender",
          "type": "address"
        },
        {
          "indexed": true,
          "internalType": "address",
          "name": "recipient",
          "type": "address"
        },
        {
          "indexed": false,
          "internalType": "uint256",
          "name": "deposit",
          "type": "uint256"
        },
        {
          "indexed": false,
          "internalType": "address",
          "name": "tokenAddress",
          "type": "address"
        },
        {
          "indexed": false,
          "internalType": "uint256",
          "name": "startTime",
          "type": "uint256"
        },
        {
          "indexed": false,
          "internalType": "uint256",
          "name": "stopTime",
          "type": "uint256"
        }
      ],
      "name": "CreateStream",
      "type": "event"
    },
    {
      "anonymous": false,
      "inputs": [
        {
          "indexed": true,
          "internalType": "uint256",
          "name": "streamId",
          "type": "uint256"
        },
        {
          "indexed": true,
          "internalType": "address",
          "name": "recipient",
          "type": "address"
        },
        {
          "indexed": false,
          "internalType": "uint256",
          "name": "amount",
          "type": "uint256"
        }
      ],
      "name": "WithdrawFromStream",
      "type": "event"
    },
    {
      "anonymous": false,
      "inputs": [
        {
          "indexed": true,
          "internalType": "uint256",
          "name": "streamId",
          "type": "uint256"
        },
        {
          "indexed": true,
          "internalType": "address",
          "name": "sender",
          "type": "address"
        },
        {
          "indexed": true,
          "internalType": "address",
          "name": "recipient",
          "type": "address"
        },
        {
          "indexed": false,
          "internalType": "uint256",
          "name": "senderBalance",
          "type": "uint256"
        },
        {
          "indexed": false,
          "internalType": "uint256",
          "name": "recipientBalance",
          "type": "uint256"
        }
      ],
      "name": "CancelStream",
      "type": "event"
    },
    {
      "constant": false,
      "inputs": [
        {
          "internalType": "address",
          "name": "_paymentAsset",
          "type": "address"
        },
        {
          "internalType": "uint256",
          "name": "_price",
          "type": "uint256"
        },
        {
          "internalType": "string",
          "name": "_metadataHash",
          "type": "string"
        }
      ],
      "name": "sell",
      "outputs": [
        {
          "internalType": "uint256",
          "name": "",
          "type": "uint256"
        }
      ],
      "payable": false,
      "stateMutability": "nonpayable",
      "type": "function"
    },
    {
      "constant": false,
      "inputs": [
        {
          "internalType": "uint256",
          "name": "_fileId",
          "type": "uint256"
        }
      ],
      "name": "buy",
      "outputs": [
        {
          "internalType": "bool",
          "name": "",
          "type": "bool"
        }
      ],
      "payable": false,
      "stateMutability": "nonpayable",
      "type": "function"
    },
    {
      "constant": false,
      "inputs": [
        {
          "internalType": "uint256",
          "name": "_deposit",
          "type": "uint256"
        },
        {
          "internalType": "address",
          "name": "_token",
          "type": "address"
        },
        {
          "internalType": "uint256",
          "name": "_startTime",
          "type": "uint256"
        },
        {
          "internalType": "uint256",
          "name": "_stopTime",
          "type": "uint256"
        },
        {
          "internalType": "address",
          "name": "reciever",
          "type": "address"
        }
      ],
      "name": "createSubscription",
      "outputs": [],
      "payable": false,
      "stateMutability": "nonpayable",
      "type": "function"
    },
    {
      "constant": true,
      "inputs": [
        {
          "internalType": "uint256",
          "name": "_fileId",
          "type": "uint256"
        },
        {
          "internalType": "address",
          "name": "buyer",
          "type": "address"
        }
      ],
      "name": "isBuyer",
      "outputs": [
        {
          "internalType": "bool",
          "name": "",
          "type": "bool"
        }
      ],
      "payable": false,
      "stateMutability": "view",
      "type": "function"
    }
  ],
  "bytecode": "0x60806040523480156200001157600080fd5b5060405162005c1838038062005c18833981810160405260208110156200003757600080fd5b5051338062000092576040517f08c379a000000000000000000000000000000000000000000000000000000000815260040180806020018281038252602a81526020018062005bee602a913960400191505060405180910390fd5b620000a8336200015960201b620051481760201c565b620000be336200027660201b62002bf11760201c565b60ce80546001600160a01b0319166001600160a01b0392909216919091179055600160d155806200015057604080517f08c379a000000000000000000000000000000000000000000000000000000000815260206004820152601760248201527f5072696365204c696d69742063616e6e6f742062652030000000000000000000604482015290519081900360640190fd5b60d55562000567565b600054610100900460ff16806200017e57506200017e6001600160e01b036200036316565b806200018d575060005460ff16155b620001e4576040517f08c379a000000000000000000000000000000000000000000000000000000000815260040180806020018281038252602e81526020018062005bc0602e913960400191505060405180910390fd5b600054610100900460ff1615801562000210576000805460ff1961ff0019909116610100171660011790555b603380546001600160a01b0319166001600160a01b0384811691909117918290556040519116906000907f8be0079c531659141344cd1fd0a4f28419497f9722a3daafe3b4186f6b6457e0908290a3801562000272576000805461ff00191690555b5050565b600054610100900460ff16806200029b57506200029b6001600160e01b036200036316565b80620002aa575060005460ff16155b62000301576040517f08c379a000000000000000000000000000000000000000000000000000000000815260040180806020018281038252602e81526020018062005bc0602e913960400191505060405180910390fd5b600054610100900460ff161580156200032d576000805460ff1961ff0019909116610100171660011790555b62000343826200036960201b62004b851760201c565b6099805460ff19169055801562000272576000805461ff00191690555050565b303b1590565b600054610100900460ff16806200038e57506200038e6001600160e01b036200036316565b806200039d575060005460ff16155b620003f4576040517f08c379a000000000000000000000000000000000000000000000000000000000815260040180806020018281038252602e81526020018062005bc0602e913960400191505060405180910390fd5b600054610100900460ff1615801562000420576000805460ff1961ff0019909116610100171660011790555b62000434826001600160e01b036200046316565b6200044d576200044d826001600160e01b036200048616565b801562000272576000805461ff00191690555050565b600062000480826066620004d860201b6200367d1790919060201c565b92915050565b620004a18160666200050e60201b62004dd01790919060201c565b6040516001600160a01b038216907f6719d08c1888103bea251a4ed56406bd0c3e69723c8a1686e017e7bbe159b6f890600090a250565b60006001600160a01b038216620004ee57600080fd5b506001600160a01b03166000908152602091909152604090205460ff1690565b6001600160a01b0381166200052257600080fd5b6200053782826001600160e01b03620004d816565b156200054257600080fd5b6001600160a01b0316600090815260209190915260409020805460ff19166001179055565b61564980620005776000396000f3fe608060405234801561001057600080fd5b50600436106102415760003560e01c8063894e9a0d11610145578063cada70b0116100bd578063ddca3f431161008c578063f0e1ba2c11610071578063f0e1ba2c1461082c578063f2fde38b14610834578063f577a5001461085a57610241565b8063ddca3f43146107fe578063f046395a1461080657610241565b8063cada70b01461076d578063cc1b4bf614610799578063d2cba55c146107d9578063d96a094a146107e157610241565b80639012c4a811610114578063a82ccd4d116100f9578063a82ccd4d146106fe578063c1eb9ee01461071b578063c4d66de81461074757610241565b80639012c4a8146106c4578063a734d51b146106e157610241565b8063894e9a0d146105e75780638c9a3252146106575780638da5cb5b146106985780638f32d59b146106bc57610241565b80635c975abb116101d85780637a9b2c6c116101a75780638195aeaa1161018c5780638195aeaa1461056d57806382dc1ec4146105b95780638456cb59146105df57610241565b80637a9b2c6c146105425780638129fc1c1461056557610241565b80635c975abb146104585780636d97786e146104605780636db9241b146104e557806376d5724c1461050257610241565b80633f4ba83a116102145780633f4ba83a14610337578063439535191461034157806346fbf68e1461034957806347d52ef21461038357610241565b8063131b9c04146102465780631e99d5691461027e5780632b8a119d146102865780633656eec21461030b575b600080fd5b61026c6004803603602081101561025c57600080fd5b50356001600160a01b0316610877565b60408051918252519081900360200190f35b61026c610961565b6102a36004803603602081101561029c57600080fd5b5035610967565b604080516001600160a01b039c8d1681529a8c1660208c01528a810199909952969099166060890152608088019490945260a087019290925260c086015260e08501526101008401526101208301939093526101408201929092529051908190036101600190f35b61026c6004803603604081101561032157600080fd5b50803590602001356001600160a01b0316610b9e565b61033f610e85565b005b61026c610f77565b61036f6004803603602081101561035f57600080fd5b50356001600160a01b0316610f7d565b604080519115158252519081900360200190f35b6103a06004803603602081101561039957600080fd5b5035610f96565b60405180866001600160a01b03166001600160a01b03168152602001856001600160a01b03166001600160a01b0316815260200180602001848152602001838152602001828103825285818151815260200191508051906020019080838360005b83811015610419578181015183820152602001610401565b50505050905090810190601f1680156104465780820380516001836020036101000a031916815260200191505b50965050505050505060405180910390f35b61036f61105c565b61026c6004803603606081101561047657600080fd5b6001600160a01b03823516916020810135918101906060810160408201356401000000008111156104a657600080fd5b8201836020820111156104b857600080fd5b803590602001918460018302840111640100000000831117156104da57600080fd5b509092509050611066565b61036f600480360360208110156104fb57600080fd5b50356111c7565b61033f600480360360a081101561051857600080fd5b508035906001600160a01b0360208201358116916040810135916060820135916080013516611304565b61036f6004803603604081101561055857600080fd5b50803590602001356115a0565b61033f611860565b61026c600480360360e081101561058357600080fd5b506001600160a01b0381358116916020810135916040820135169060608101359060808101359060a08101359060c00135611907565b61033f600480360360208110156105cf57600080fd5b50356001600160a01b0316611ced565b61033f611d3c565b610604600480360360208110156105fd57600080fd5b5035611e03565b604080516001600160a01b03998a168152978916602089015287810196909652939096166060860152608085019190915260a084015260c083019390935260e08201929092529051908190036101000190f35b61067a6004803603604081101561066d57600080fd5b5080359060200135611ed9565b60408051938452602084019290925282820152519081900360600190f35b6106a0612632565b604080516001600160a01b039092168252519081900360200190f35b61036f612641565b61033f600480360360208110156106da57600080fd5b5035612667565b61036f600480360360208110156106f757600080fd5b5035612763565b61026c6004803603602081101561071457600080fd5b503561277b565b61033f6004803603604081101561073157600080fd5b506001600160a01b0381351690602001356128b7565b61033f6004803603602081101561075d57600080fd5b50356001600160a01b0316612bf1565b61036f6004803603604081101561078357600080fd5b50803590602001356001600160a01b0316612ca7565b61026c600480360360a08110156107af57600080fd5b506001600160a01b0381358116916020810135916040820135169060608101359060800135612cd6565b6106a0613378565b61036f600480360360208110156107f757600080fd5b5035613387565b61026c6135ba565b61036f6004803603602081101561081c57600080fd5b50356001600160a01b03166135c0565b61026c6135d5565b61033f6004803603602081101561084a57600080fd5b50356001600160a01b03166135db565b61036f6004803603602081101561087057600080fd5b50356135f5565b60ce5460408051632f52e59560e01b81526001600160a01b03848116600483015291516000939290921691632f52e59591602480820192602092909190829003018186803b1580156108c857600080fd5b505afa1580156108dc573d6000803e3d6000fd5b505050506040513d60208110156108f257600080fd5b5051610945576040805162461bcd60e51b815260206004820152601360248201527f746f6b656e206973206e6f742063546f6b656e00000000000000000000000000604482015290519081900360640190fd5b506001600160a01b0316600090815260cf602052604090205490565b60d15481565b60008060008060008060008060008060008b60d2600082815260200190815260200160002060070160149054906101000a900460ff166109e6576040805162461bcd60e51b81526020600482015260156024820152741cdd1c99585b48191bd95cc81b9bdd08195e1a5cdd605a1b604482015290519081900360640190fd5b60008d815260cd60205260409020600301548d9060ff16610a385760405162461bcd60e51b81526004018080602001828103825260218152602001806152746021913960400191505060405180910390fd5b60d260008f815260200190815260200160002060060160009054906101000a90046001600160a01b03169c5060d260008f815260200190815260200160002060050160009054906101000a90046001600160a01b03169b5060d260008f8152602001908152602001600020600001549a5060d260008f815260200190815260200160002060070160009054906101000a90046001600160a01b0316995060d260008f815260200190815260200160002060030154985060d260008f815260200190815260200160002060040154975060d260008f815260200190815260200160002060020154965060d260008f815260200190815260200160002060010154955060cd60008f815260200190815260200160002060000160000154945060cd60008f815260200190815260200160002060010160000154935060cd60008f8152602001908152602001600020600201600001549250505091939597999b90929496989a50565b600082815260d260205260408120600701548390600160a01b900460ff16610c05576040805162461bcd60e51b81526020600482015260156024820152741cdd1c99585b48191bd95cc81b9bdd08195e1a5cdd605a1b604482015290519081900360640190fd5b610c0d614ecc565b50600084815260d2602090815260409182902082516101208101845281548152600182015492810192909252600281015492820192909252600382015460608201526004820154608082015260058201546001600160a01b0390811660a08301526006830154811660c083015260079092015491821660e0820152600160a01b90910460ff161515610100820152610ca3614f35565b6000610cae8761277b565b9050610cbe818460200151613614565b6020840181905283826003811115610cd257fe5b6003811115610cdd57fe5b9052506000905082516003811115610cf157fe5b14610d2d5760405162461bcd60e51b81526004018080602001828103825260238152602001806155496023913960400191505060405180910390fd5b604083015183511115610dd257610d4c83600001518460400151613656565b6040840181905283826003811115610d6057fe5b6003811115610d6b57fe5b9052506000905082516003811115610d7f57fe5b14610d8657fe5b610d9882602001518360400151613656565b6020840181905283826003811115610dac57fe5b6003811115610db757fe5b9052506000905082516003811115610dcb57fe5b14610dd257fe5b8260a001516001600160a01b0316866001600160a01b03161415610dfe5750602001519250610e7e9050565b8260c001516001600160a01b0316866001600160a01b03161415610e7657610e2e83604001518360200151613656565b6060840181905283826003811115610e4257fe5b6003811115610e4d57fe5b9052506000905082516003811115610e6157fe5b14610e6857fe5b50606001519250610e7e9050565b600094505050505b5092915050565b610e95610e90613679565b610f7d565b610ed05760405162461bcd60e51b81526004018080602001828103825260308152602001806152b86030913960400191505060405180910390fd5b60995460ff16610f27576040805162461bcd60e51b815260206004820152601460248201527f5061757361626c653a206e6f7420706175736564000000000000000000000000604482015290519081900360640190fd5b6099805460ff191690557f5db9ee0a495bf2e6ff9c91a7834c1ba4fdd244a5e8aa4e537bd38aeae4b073aa610f5a613679565b604080516001600160a01b039092168252519081900360200190a1565b60d65481565b6000610f9060668363ffffffff61367d16565b92915050565b60d36020908152600091825260409182902080546001808301546002808501805488516101009582161595909502600019011691909104601f81018790048702840187019097528683526001600160a01b03938416969390911694919290918301828280156110465780601f1061101b57610100808354040283529160200191611046565b820191906000526020600020905b81548152906001019060200180831161102957829003601f168201915b5050505050908060030154908060040154905085565b60995460ff165b90565b60008360d55481106110a95760405162461bcd60e51b81526004018080602001828103825260228152602001806154e26022913960400191505060405180910390fd5b6040518060a00160405280336001600160a01b03168152602001876001600160a01b0316815260200185858080601f01602080910402602001604051908101604052809392919081815260200183838082843760009201829052509385525050506020808301899052604092830182905260d654825260d3815290829020835181546001600160a01b039182166001600160a01b03199182161783558584015160018401805491909316911617905591830151805161116e9260028501920190614f5e565b506060820151600382015560809091015160049091015560d6805460018101909155604051339082907f7f35571f7051df9198c8ad659e2617eeace2c702b2bf1c6bb53b21d1c644462d90600090a39695505050505050565b609a805460010190819055600082815260d260205260408120600701549091908390600160a01b900460ff1661123c576040805162461bcd60e51b81526020600482015260156024820152741cdd1c99585b48191bd95cc81b9bdd08195e1a5cdd605a1b604482015290519081900360640190fd5b600084815260d2602052604090206006015484906001600160a01b031633148061127f5750600081815260d260205260409020600501546001600160a01b031633145b6112ba5760405162461bcd60e51b815260040180806020018281038252603781526020018061556c6037913960400191505060405180910390fd5b600085815260cd602052604090206003015460ff166112e1576112dc856136b2565b6112ea565b6112ea85613a0e565b600193505050609a5481146112fe57600080fd5b50919050565b6001600160a01b0381166113495760405162461bcd60e51b81526004018080602001828103825260218152602001806154316021913960400191505060405180910390fd5b6001600160a01b0381163014156113915760405162461bcd60e51b81526004018080602001828103825260248152602001806155cd6024913960400191505060405180910390fd5b6001600160a01b0381163314156113ef576040805162461bcd60e51b815260206004820152601960248201527f63616e6e6f742073747265616d20746f20796f757273656c6600000000000000604482015290519081900360640190fd5b60008511611444576040805162461bcd60e51b815260206004820152600f60248201527f6465706f736974206973207a65726f0000000000000000000000000000000000604482015290519081900360640190fd5b4283116114825760405162461bcd60e51b815260040180806020018281038252602a8152602001806155a3602a913960400191505060405180910390fd5b8282116114c05760405162461bcd60e51b81526004018080602001828103825260248152602001806155f16024913960400191505060405180910390fd5b60006114d2838563ffffffff61402c16565b90508086116115125760405162461bcd60e51b815260040180806020018281038252603a81526020018061523a603a913960400191505060405180910390fd5b6000611524878363ffffffff61407516565b90506000611538888363ffffffff61402c16565b9050600061154985838a8a8a612cd6565b33600090815260d460209081526040808320600190810180548083018255908552838520018590556001600160a01b0399909916835282206002018054988901815582529020909501949094555050505050505050565b60995460009060ff16156115ee576040805162461bcd60e51b815260206004820152601060248201526f14185d5cd8589b194e881c185d5cd95960821b604482015290519081900360640190fd5b609a805460010190819055600084815260d260205260409020600701548490600160a01b900460ff16611660576040805162461bcd60e51b81526020600482015260156024820152741cdd1c99585b48191bd95cc81b9bdd08195e1a5cdd605a1b604482015290519081900360640190fd5b600085815260d2602052604090206006015485906001600160a01b03163314806116a35750600081815260d260205260409020600501546001600160a01b031633145b6116de5760405162461bcd60e51b815260040180806020018281038252603781526020018061556c6037913960400191505060405180910390fd5b60008511611733576040805162461bcd60e51b815260206004820152600e60248201527f616d6f756e74206973207a65726f000000000000000000000000000000000000604482015290519081900360640190fd5b61173b614ecc565b50600086815260d26020908152604080832081516101208101835281548152600182015493810193909352600281015491830191909152600381015460608301526004810154608083015260058101546001600160a01b0390811660a084018190526006830154821660c085015260079092015490811660e0840152600160a01b900460ff1615156101008301529091906117d7908990610b9e565b9050868110156118185760405162461bcd60e51b815260040180806020018281038252602481526020018061530f6024913960400191505060405180910390fd5b600088815260cd602052604090206003015460ff166118405761183b88886140b7565b61184a565b61184a888861435f565b6001955050505050609a548114610e7e57600080fd5b600054610100900460ff16806118795750611879614954565b80611887575060005460ff16155b6118c25760405162461bcd60e51b815260040180806020018281038252602e8152602001806154b4602e913960400191505060405180910390fd5b600054610100900460ff161580156118ed576000805460ff1961ff0019909116610100171660011790555b6001609a558015611904576000805461ff00191690555b50565b60995460009060ff1615611955576040805162461bcd60e51b815260206004820152601060248201526f14185d5cd8589b194e881c185d5cd95960821b604482015290519081900360640190fd5b60ce5460408051632f52e59560e01b81526001600160a01b03898116600483015291519190921691632f52e595916024808301926020929190829003018186803b1580156119a257600080fd5b505afa1580156119b6573d6000803e3d6000fd5b505050506040513d60208110156119cc57600080fd5b5051611a1f576040805162461bcd60e51b815260206004820152601960248201527f63546f6b656e206973206e6f742077686974656c697374656400000000000000604482015290519081900360640190fd5b611a27614fdc565b611a31848461495a565b6020830181905282826003811115611a4557fe5b6003811115611a5057fe5b9052506000905081516003811115611a6457fe5b14611ab6576040805162461bcd60e51b815260206004820152601b60248201527f73686172652073756d2063616c63756c6174696f6e206572726f720000000000604482015290519081900360640190fd5b8060200151606414611b0f576040805162461bcd60e51b815260206004820152601b60248201527f73686172657320646f206e6f742073756d20757020746f203130300000000000604482015290519081900360640190fd5b6000611b1e8a8a8a8a8a612cd6565b9050611b3185662386f26fc10000613614565b6060840181905283826003811115611b4557fe5b6003811115611b5057fe5b9052506000905082516003811115611b6457fe5b14611b6b57fe5b611b7c84662386f26fc10000613614565b6080840181905283826003811115611b9057fe5b6003811115611b9b57fe5b9052506000905082516003811115611baf57fe5b14611bb657fe5b6000886001600160a01b031663bd6d894d6040518163ffffffff1660e01b8152600401602060405180830381600087803b158015611bf357600080fd5b505af1158015611c07573d6000803e3d6000fd5b505050506040513d6020811015611c1d57600080fd5b50516040805160a08101825260808082018481528252825160208082018552606089810151835281850192835285518083018752938a01518452848601938452600181860181815260008b815260cd8552889020965151875593515190860155925151600285015590516003909301805460ff19169315159390931790925582518481529182018a9052818301899052915192935084927fa9bbfc8562a8e1e6b889a428f128c90ed60c6204c37e4fb4354a202b4db59204929181900390910190a2509998505050505050505050565b611cf8610e90613679565b611d335760405162461bcd60e51b81526004018080602001828103825260308152602001806152b86030913960400191505060405180910390fd5b61190481614980565b611d47610e90613679565b611d825760405162461bcd60e51b81526004018080602001828103825260308152602001806152b86030913960400191505060405180910390fd5b60995460ff1615611dcd576040805162461bcd60e51b815260206004820152601060248201526f14185d5cd8589b194e881c185d5cd95960821b604482015290519081900360640190fd5b6099805460ff191660011790557f62e78cea01bee320cd4e420270b5ea74000d11b0c9f74754ebdbfc544b05a258610f5a613679565b6000806000806000806000808860d2600082815260200190815260200160002060070160149054906101000a900460ff16611e7d576040805162461bcd60e51b81526020600482015260156024820152741cdd1c99585b48191bd95cc81b9bdd08195e1a5cdd605a1b604482015290519081900360640190fd5b5050506000968752505060d26020525050604090922060068101546005820154825460078401546003850154600486015460028701546001909701546001600160a01b039687169a958716995093975091909416949092909190565b600082815260d26020526040812060070154819081908590600160a01b900460ff16611f44576040805162461bcd60e51b81526020600482015260156024820152741cdd1c99585b48191bd95cc81b9bdd08195e1a5cdd605a1b604482015290519081900360640190fd5b600086815260cd602052604090206003015460ff16611f6c576000935083925082915061262a565b611f74614ecc565b50600086815260d2602090815260409182902082516101208101845281548152600182015492810192909252600281015492820192909252600382015460608201526004820154608082015260058201546001600160a01b0390811660a08301526006830154811660c083015260079092015491821660e0820152600160a01b90910460ff16151561010082015261200a61500c565b50600087815260cd6020908152604091829020825160a08101845281546080820190815281528351808401855260018301548152818401528351928301845260028201548352928301919091526003015460ff161515606082015261206d615046565b6120756150cf565b60405180602001604052808560e001516001600160a01b031663bd6d894d6040518163ffffffff1660e01b8152600401602060405180830381600087803b1580156120bf57600080fd5b505af11580156120d3573d6000803e3d6000fd5b505050506040513d60208110156120e957600080fd5b5051905283515181519192501061210e57506000965086955085945061262a92505050565b61211c8184600001516149c8565b602084018190528382600381111561213057fe5b600381111561213b57fe5b905250600090508251600381111561214f57fe5b1461215657fe5b61216482602001518a614a02565b604084018190528382600381111561217857fe5b600381111561218357fe5b905250600090508251600381111561219757fe5b146121e9576040805162461bcd60e51b815260206004820152601a60248201527f696e7465726573742063616c63756c6174696f6e206572726f72000000000000604482015290519081900360640190fd5b60d054670de0b6b3a7640000141561229b57612209826040015182614a6a565b61012084018190528382600381111561221e57fe5b600381111561222957fe5b905250600090508251600381111561223d57fe5b146122795760405162461bcd60e51b81526004018080602001828103825260218152602001806155286021913960400191505060405180910390fd5b60008061228a846101200151614a8d565b9199509750955061262a9350505050565b60d0546122c257604080516020810182526000815260c0840152820151606083015261239a565b60408083015181516020810190925260d05482526122df91614a9c565b60c08401819052838260038111156122f357fe5b60038111156122fe57fe5b905250600090508251600381111561231257fe5b1461234e5760405162461bcd60e51b815260040180806020018281038252602281526020018061539a6022913960400191505060405180910390fd5b61236082604001518360c001516149c8565b606084018190528382600381111561237457fe5b600381111561237f57fe5b905250600090508251600381111561239357fe5b1461239a57fe5b6123ac82606001518460200151614a9c565b60808401819052838260038111156123c057fe5b60038111156123cb57fe5b90525060009050825160038111156123df57fe5b1461241b5760405162461bcd60e51b81526004018080602001828103825260218152602001806153586021913960400191505060405180910390fd5b61242d826060015183608001516149c8565b60a084018190528382600381111561244157fe5b600381111561244c57fe5b905250600090508251600381111561246057fe5b1461246757fe5b612475826080015182614a6a565b60e084018190528382600381111561248957fe5b600381111561249457fe5b90525060009050825160038111156124a857fe5b146124fa576040805162461bcd60e51b815260206004820181905260248201527f73656e64657220696e74657265737420636f6e76657273696f6e206572726f72604482015290519081900360640190fd5b6125088260a0015182614a6a565b61010084018190528382600381111561251d57fe5b600381111561252857fe5b905250600090508251600381111561253c57fe5b146125785760405162461bcd60e51b815260040180806020018281038252602381526020018061540e6023913960400191505060405180910390fd5b6125868260c0015182614a6a565b61012084018190528382600381111561259b57fe5b60038111156125a657fe5b90525060009050825160038111156125ba57fe5b146125f65760405162461bcd60e51b81526004018080602001828103825260218152602001806155286021913960400191505060405180910390fd5b6126038260e00151614a8d565b612611836101000151614a8d565b61261f846101200151614a8d565b975097509750505050505b509250925092565b6033546001600160a01b031690565b6033546000906001600160a01b0316612658613679565b6001600160a01b031614905090565b61266f612641565b61267857600080fd5b60648111156126ce576040805162461bcd60e51b815260206004820152601f60248201527f6665652070657263656e7461676520686967686572207468616e203130302500604482015290519081900360640190fd5b6126d66150e2565b6126e782662386f26fc10000613614565b60208301819052828260038111156126fb57fe5b600381111561270657fe5b905250600090508151600381111561271a57fe5b1461272157fe5b60408051602080820183528301519081905260d0555182907f38e229a7f3f9c329892d08eb37c4e91ccac6d12c798d394990ca4f56028ec26690600090a25050565b600090815260cd602052604090206003015460ff1690565b600081815260d260205260408120600701548290600160a01b900460ff166127e2576040805162461bcd60e51b81526020600482015260156024820152741cdd1c99585b48191bd95cc81b9bdd08195e1a5cdd605a1b604482015290519081900360640190fd5b6127ea614ecc565b50600083815260d26020908152604091829020825161012081018452815481526001820154928101929092526002810154928201929092526003820154606082018190526004830154608083015260058301546001600160a01b0390811660a08401526006840154811660c084015260079093015492831660e0830152600160a01b90920460ff16151561010082015290421161288b5760009250506112fe565b80608001514210156128a45760600151420391506112fe565b6060810151608090910151039392505050565b6128bf612641565b6128c857600080fd5b609a80546001019081905560ce5460408051632f52e59560e01b81526001600160a01b03868116600483015291519190921691632f52e595916024808301926020929190829003018186803b15801561292057600080fd5b505afa158015612934573d6000803e3d6000fd5b505050506040513d602081101561294a57600080fd5b505161299d576040805162461bcd60e51b815260206004820152601960248201527f63546f6b656e206973206e6f742077686974656c697374656400000000000000604482015290519081900360640190fd5b600082116129f2576040805162461bcd60e51b815260206004820152600e60248201527f616d6f756e74206973207a65726f000000000000000000000000000000000000604482015290519081900360640190fd5b6001600160a01b038316600090815260cf6020526040902054821115612a495760405162461bcd60e51b815260040180806020018281038252602481526020018061530f6024913960400191505060405180910390fd5b612a516150f9565b6001600160a01b038416600090815260cf6020526040902054612a749084613656565b6001600160a01b038616600090815260cf6020526040902081905582826003811115612a9c57fe5b6003811115612aa757fe5b9052506000905081516003811115612abb57fe5b14612ac257fe5b60405183906001600160a01b038616907f13e8af02ad3e36f8d82fc8b86dcd67b7ed11f718f0e52fb245d2038eb71856ba90600090a3604080517fa9059cbb0000000000000000000000000000000000000000000000000000000081523360048201526024810185905290516001600160a01b0386169163a9059cbb9160448083019260209291908290030181600087803b158015612b6057600080fd5b505af1158015612b74573d6000803e3d6000fd5b505050506040513d6020811015612b8a57600080fd5b5051612bdd576040805162461bcd60e51b815260206004820152601660248201527f746f6b656e207472616e73666572206661696c75726500000000000000000000604482015290519081900360640190fd5b50609a548114612bec57600080fd5b505050565b600054610100900460ff1680612c0a5750612c0a614954565b80612c18575060005460ff16155b612c535760405162461bcd60e51b815260040180806020018281038252602e8152602001806154b4602e913960400191505060405180910390fd5b600054610100900460ff16158015612c7e576000805460ff1961ff0019909116610100171660011790555b612c8782614b85565b6099805460ff191690558015612ca3576000805461ff00191690555b5050565b600082815260d3602090815260408083206001600160a01b038516845260050190915290205460ff1692915050565b60995460009060ff1615612d24576040805162461bcd60e51b815260206004820152601060248201526f14185d5cd8589b194e881c185d5cd95960821b604482015290519081900360640190fd5b6001600160a01b038616612d7f576040805162461bcd60e51b815260206004820152601a60248201527f73747265616d20746f20746865207a65726f2061646472657373000000000000604482015290519081900360640190fd5b6001600160a01b038616301415612ddd576040805162461bcd60e51b815260206004820152601d60248201527f73747265616d20746f2074686520636f6e747261637420697473656c66000000604482015290519081900360640190fd5b6001600160a01b038616331415612e3b576040805162461bcd60e51b815260206004820152601460248201527f73747265616d20746f207468652063616c6c6572000000000000000000000000604482015290519081900360640190fd5b60008511612e90576040805162461bcd60e51b815260206004820152600f60248201527f6465706f736974206973207a65726f0000000000000000000000000000000000604482015290519081900360640190fd5b42831015612ecf5760405162461bcd60e51b81526004018080602001828103825260218152602001806153796021913960400191505060405180910390fd5b828211612f23576040805162461bcd60e51b815260206004820152601f60248201527f73746f702074696d65206265666f7265207468652073746172742074696d6500604482015290519081900360640190fd5b612f2b61510c565b612f358385613656565b6020830181905282826003811115612f4957fe5b6003811115612f5457fe5b9052506000905081516003811115612f6857fe5b14612f6f57fe5b8060200151861015612fc8576040805162461bcd60e51b815260206004820152601f60248201527f6465706f73697420736d616c6c6572207468616e2074696d652064656c746100604482015290519081900360640190fd5b80602001518681612fd557fe5b06156130125760405162461bcd60e51b81526004018080602001828103825260228152602001806153bc6022913960400191505060405180910390fd5b613020868260200151614c3d565b604083018190528282600381111561303457fe5b600381111561303f57fe5b905250600090508151600381111561305357fe5b1461305a57fe5b600060d154905060405180610120016040528088815260200183604001518152602001888152602001868152602001858152602001896001600160a01b03168152602001336001600160a01b03168152602001876001600160a01b031681526020016001151581525060d26000838152602001908152602001600020600082015181600001556020820151816001015560408201518160020155606082015181600301556080820151816004015560a08201518160050160006101000a8154816001600160a01b0302191690836001600160a01b0316021790555060c08201518160060160006101000a8154816001600160a01b0302191690836001600160a01b0316021790555060e08201518160070160006101000a8154816001600160a01b0302191690836001600160a01b031602179055506101008201518160070160146101000a81548160ff0219169083151502179055509050506131c060d154600161495a565b60d1819055838260038111156131d257fe5b60038111156131dd57fe5b90525060009050825160038111156131f157fe5b14613243576040805162461bcd60e51b815260206004820181905260248201527f6e6578742073747265616d2069642063616c63756c6174696f6e206572726f72604482015290519081900360640190fd5b604080516323b872dd60e01b81523360048201523060248201526044810189905290516001600160a01b038816916323b872dd9160648083019260209291908290030181600087803b15801561329857600080fd5b505af11580156132ac573d6000803e3d6000fd5b505050506040513d60208110156132c257600080fd5b5051613315576040805162461bcd60e51b815260206004820152601660248201527f746f6b656e207472616e73666572206661696c75726500000000000000000000604482015290519081900360640190fd5b604080518881526001600160a01b038881166020830152818301889052606082018790529151918a1691339184917f7b01d409597969366dc268d7f957a990d1ca3d3449baf8fb45db67351aecfe789181900360800190a4979650505050505050565b60ce546001600160a01b031681565b600081815260d36020526040812080548391906001600160a01b03163314156133f7576040805162461bcd60e51b815260206004820181905260248201527f53656c6c65722063616e6e6f7420627579207468656972206f776e2066696c65604482015290519081900360640190fd5b33600090815260058201602052604090205460ff161561345e576040805162461bcd60e51b815260206004820152601b60248201527f42757965722063616e6e6f74206275792066696c6520616761696e0000000000604482015290519081900360640190fd5b600084815260d36020526040902080546001600160a01b03163314156134cb576040805162461bcd60e51b815260206004820152601e60248201527f53656c6c65722063616e6e6f742062757920686973206f776e2066696c650000604482015290519081900360640190fd5b600181015481546003830154604080516323b872dd60e01b81523360048201526001600160a01b03938416602482015260448101929092525191909216916323b872dd9160648083019260209291908290030181600087803b15801561353057600080fd5b505af1158015613544573d6000803e3d6000fd5b505050506040513d602081101561355a57600080fd5b50506004810180546001908101909155336000818152600584016020526040808220805460ff19169094179093559151909187917f7534e9c9396820aad756ba27f82162930f80bef863aabdf311e7dce26a79bccd9190a3505050919050565b60d05481565b60d46020526000908152604090205460ff1681565b60d55481565b6135e3612641565b6135ec57600080fd5b61190481614c68565b600090815260d26020526040902060070154600160a01b900460ff1690565b600080836136275750600090508061364f565b8383028385828161363457fe5b04146136485750600291506000905061364f565b6000925090505b9250929050565b60008083831161366d57506000905081830361364f565b5060039050600061364f565b3390565b60006001600160a01b03821661369257600080fd5b506001600160a01b03166000908152602091909152604090205460ff1690565b6136ba614ecc565b50600081815260d26020908152604080832081516101208101835281548152600182015493810193909352600281015491830191909152600381015460608301526004810154608083015260058101546001600160a01b0390811660a08401526006820154811660c0840181905260079092015490811660e0840152600160a01b900460ff161515610100830152909190613756908490610b9e565b90506000613768848460a00151610b9e565b600085815260d26020526040812081815560018101829055600281018290556003810182905560048101919091556005810180546001600160a01b03199081169091556006820180549091169055600701805474ffffffffffffffffffffffffffffffffffffffffff1916905560e084015190915081156138c457806001600160a01b031663a9059cbb8560a00151846040518363ffffffff1660e01b815260040180836001600160a01b03166001600160a01b0316815260200182815260200192505050602060405180830381600087803b15801561384757600080fd5b505af115801561385b573d6000803e3d6000fd5b505050506040513d602081101561387157600080fd5b50516138c4576040805162461bcd60e51b815260206004820181905260248201527f726563697069656e7420746f6b656e207472616e73666572206661696c757265604482015290519081900360640190fd5b82156139ab57806001600160a01b031663a9059cbb8560c00151856040518363ffffffff1660e01b815260040180836001600160a01b03166001600160a01b0316815260200182815260200192505050602060405180830381600087803b15801561392e57600080fd5b505af1158015613942573d6000803e3d6000fd5b505050506040513d602081101561395857600080fd5b50516139ab576040805162461bcd60e51b815260206004820152601d60248201527f73656e64657220746f6b656e207472616e73666572206661696c757265000000604482015290519081900360640190fd5b8360a001516001600160a01b03168460c001516001600160a01b0316867fca3e6079b726e7728802a0537949e2d1c7762304fa641fb06eb56daf2ba8c6b98686604051808381526020018281526020019250505060405180910390a45050505050565b613a16614ecc565b50600081815260d2602090815260409182902082516101208101845281548152600182015492810192909252600281015492820192909252600382015460608201526004820154608082015260058201546001600160a01b0390811660a08301526006830154811660c083015260079092015491821660e0820152600160a01b90910460ff161515610100820152613aac614f35565b6000613abc848460c00151610b9e565b90506000613ace858560a00151610b9e565b90506000806000613adf8885611ed9565b925092509250613aef858461495a565b6020880181905287826003811115613b0357fe5b6003811115613b0e57fe5b9052506000905086516003811115613b2257fe5b14613b5e5760405162461bcd60e51b81526004018080602001828103825260248152602001806155046024913960400191505060405180910390fd5b613b688484613656565b6040880181905287826003811115613b7c57fe5b6003811115613b8757fe5b9052506000905086516003811115613b9b57fe5b14613bd75760405162461bcd60e51b815260040180806020018281038252603b815260200180615452603b913960400191505060405180910390fd5b613be5866040015182613656565b6060880181905287826003811115613bf957fe5b6003811115613c0457fe5b9052506000905086516003811115613c1857fe5b14613c545760405162461bcd60e51b815260040180806020018281038252602781526020018061548d6027913960400191505060405180910390fd5b60e08701516001600160a01b0316600090815260cf6020526040902054613c7b908261495a565b60e08901516001600160a01b0316600090815260cf6020526040902081905587826003811115613ca757fe5b6003811115613cb257fe5b9052506000905086516003811115613cc657fe5b14613d025760405162461bcd60e51b81526004018080602001828103825260238152602001806152956023913960400191505060405180910390fd5b600088815260d260209081526040808320838155600180820185905560028083018690556003808401879055600484018790556005840180546001600160a01b031990811690915560068501805490911690556007909301805474ffffffffffffffffffffffffffffffffffffffffff1916905560cd855292852085815590810185905591820193909355909101805460ff1916905560e08801519087015115613e8b57806001600160a01b031663a9059cbb8960c0015189602001516040518363ffffffff1660e01b815260040180836001600160a01b03166001600160a01b0316815260200182815260200192505050602060405180830381600087803b158015613e0e57600080fd5b505af1158015613e22573d6000803e3d6000fd5b505050506040513d6020811015613e3857600080fd5b5051613e8b576040805162461bcd60e51b815260206004820152601d60248201527f73656e64657220746f6b656e207472616e73666572206661696c757265000000604482015290519081900360640190fd5b606087015115613f7a57806001600160a01b031663a9059cbb8960a0015189606001516040518363ffffffff1660e01b815260040180836001600160a01b03166001600160a01b0316815260200182815260200192505050602060405180830381600087803b158015613efd57600080fd5b505af1158015613f11573d6000803e3d6000fd5b505050506040513d6020811015613f2757600080fd5b5051613f7a576040805162461bcd60e51b815260206004820181905260248201527f726563697069656e7420746f6b656e207472616e73666572206661696c757265604482015290519081900360640190fd5b8760a001516001600160a01b03168860c001516001600160a01b03168a7fca3e6079b726e7728802a0537949e2d1c7762304fa641fb06eb56daf2ba8c6b98a602001518b60600151604051808381526020018281526020019250505060405180910390a4604080518581526020810185905280820184905290518a917f5a8a03e48302e0bd2e011a3a2b54d1f849c55497f462f404bf52dce4290456b5919081900360600190a2505050505050505050565b600061406e83836040518060400160405280601e81526020017f536166654d6174683a207375627472616374696f6e206f766572666c6f770000815250614cd7565b9392505050565b600061406e83836040518060400160405280601881526020017f536166654d6174683a206d6f64756c6f206279207a65726f0000000000000000815250614d6e565b6140bf614ecc565b50600082815260d2602090815260409182902082516101208101845281548152600182015492810192909252600281015492820192909252600382015460608201526004820154608082015260058201546001600160a01b0390811660a08301526006830154811660c083015260079092015491821660e0820152600160a01b90910460ff1615156101008201526141556150f9565b614163826040015184613656565b600086815260d2602052604090206002018190558282600381111561418457fe5b600381111561418f57fe5b90525060009050815160038111156141a357fe5b146141aa57fe5b600084815260d2602052604090206002015461422e57600084815260d26020526040812081815560018101829055600281018290556003810182905560048101919091556005810180546001600160a01b03199081169091556006820180549091169055600701805474ffffffffffffffffffffffffffffffffffffffffff191690555b8160e001516001600160a01b031663a9059cbb8360a00151856040518363ffffffff1660e01b815260040180836001600160a01b03166001600160a01b0316815260200182815260200192505050602060405180830381600087803b15801561429657600080fd5b505af11580156142aa573d6000803e3d6000fd5b505050506040513d60208110156142c057600080fd5b5051614313576040805162461bcd60e51b815260206004820152601660248201527f746f6b656e207472616e73666572206661696c75726500000000000000000000604482015290519081900360640190fd5b8160a001516001600160a01b0316847f36c3ab437e6a424ed25dc4bfdeb62706aa06558660fab2dab229d2555adaf89c856040518082815260200191505060405180910390a350505050565b614367614ecc565b50600082815260d2602090815260409182902082516101208101845281548152600182015492810192909252600281015492820192909252600382015460608201526004820154608082015260058201546001600160a01b0390811660a08301526006830154811660c083015260079092015491821660e0820152600160a01b90910460ff1615156101008201526143fd61510c565b600080600061440c8787611ed9565b92509250925061441c8684613656565b602086018190528582600381111561443057fe5b600381111561443b57fe5b905250600090508451600381111561444f57fe5b1461448b5760405162461bcd60e51b81526004018080602001828103825260308152602001806153de6030913960400191505060405180910390fd5b614499846020015182613656565b60408601819052858260038111156144ad57fe5b60038111156144b857fe5b90525060009050845160038111156144cc57fe5b146145085760405162461bcd60e51b81526004018080602001828103825260278152602001806152e86027913960400191505060405180910390fd5b614516856040015187613656565b600089815260d2602052604090206002018190558582600381111561453757fe5b600381111561454257fe5b905250600090508451600381111561455657fe5b146145925760405162461bcd60e51b81526004018080602001828103825260258152602001806153336025913960400191505060405180910390fd5b600087815260d2602052604090206002015461463e57600087815260d260209081526040808320838155600180820185905560028083018690556003808401879055600484018790556005840180546001600160a01b031990811690915560068501805490911690556007909301805474ffffffffffffffffffffffffffffffffffffffffff1916905560cd9094529184208481559182018490559181019290925501805460ff191690555b60e08501516001600160a01b0316600090815260cf6020526040902054614665908261495a565b60e08701516001600160a01b0316600090815260cf602052604090208190558582600381111561469157fe5b600381111561469c57fe5b90525060009050845160038111156146b057fe5b146146ec5760405162461bcd60e51b81526004018080602001828103825260238152602001806152956023913960400191505060405180910390fd5b60e085015183156147d857806001600160a01b031663a9059cbb8760c00151866040518363ffffffff1660e01b815260040180836001600160a01b03166001600160a01b0316815260200182815260200192505050602060405180830381600087803b15801561475b57600080fd5b505af115801561476f573d6000803e3d6000fd5b505050506040513d602081101561478557600080fd5b50516147d8576040805162461bcd60e51b815260206004820152601d60248201527f73656e64657220746f6b656e207472616e73666572206661696c757265000000604482015290519081900360640190fd5b806001600160a01b031663a9059cbb8760a0015187604001516040518363ffffffff1660e01b815260040180836001600160a01b03166001600160a01b0316815260200182815260200192505050602060405180830381600087803b15801561484057600080fd5b505af1158015614854573d6000803e3d6000fd5b505050506040513d602081101561486a57600080fd5b50516148bd576040805162461bcd60e51b815260206004820181905260248201527f726563697069656e7420746f6b656e207472616e73666572206661696c757265604482015290519081900360640190fd5b8560a001516001600160a01b0316887f36c3ab437e6a424ed25dc4bfdeb62706aa06558660fab2dab229d2555adaf89c87604001516040518082815260200191505060405180910390a36040805185815260208101859052808201849052905189917f5a8a03e48302e0bd2e011a3a2b54d1f849c55497f462f404bf52dce4290456b5919081900360600190a25050505050505050565b303b1590565b6000808383018481106149725760009250905061364f565b50600291506000905061364f565b61499160668263ffffffff614dd016565b6040516001600160a01b038216907f6719d08c1888103bea251a4ed56406bd0c3e69723c8a1686e017e7bbe159b6f890600090a250565b60006149d26150cf565b6000806149e786600001518660000151613656565b60408051602081019091529081529097909650945050505050565b6000614a0c6150cf565b600080614a1d866000015186613614565b90925090506000826003811115614a3057fe5b14614a4f5750604080516020810190915260008152909250905061364f565b60408051602081019091529081526000969095509350505050565b6000614a746150cf565b83518351614a829190614e1c565b915091509250929050565b51670de0b6b3a7640000900490565b6000614aa66150cf565b600080614abb86600001518660000151613614565b90925090506000826003811115614ace57fe5b14614aed5750604080516020810190915260008152909250905061364f565b600080614b026706f05b59d3b200008461495a565b90925090506000826003811115614b1557fe5b14614b375750604080516020810190915260008152909450925061364f915050565b600080614b4c83670de0b6b3a7640000614c3d565b90925090506000826003811115614b5f57fe5b14614b6657fe5b604080516020810190915290815260009a909950975050505050505050565b600054610100900460ff1680614b9e5750614b9e614954565b80614bac575060005460ff16155b614be75760405162461bcd60e51b815260040180806020018281038252602e8152602001806154b4602e913960400191505060405180910390fd5b600054610100900460ff16158015614c12576000805460ff1961ff0019909116610100171660011790555b614c1b82610f7d565b614c2857614c2882614980565b8015612ca3576000805461ff00191690555050565b60008082614c51575060019050600061364f565b6000838581614c5c57fe5b04915091509250929050565b6001600160a01b038116614c7b57600080fd5b6033546040516001600160a01b038084169216907f8be0079c531659141344cd1fd0a4f28419497f9722a3daafe3b4186f6b6457e090600090a3603380546001600160a01b0319166001600160a01b0392909216919091179055565b60008184841115614d665760405162461bcd60e51b81526004018080602001828103825283818151815260200191508051906020019080838360005b83811015614d2b578181015183820152602001614d13565b50505050905090810190601f168015614d585780820380516001836020036101000a031916815260200191505b509250505060405180910390fd5b505050900390565b60008183614dbd5760405162461bcd60e51b8152602060048201818152835160248401528351909283926044909101919085019080838360008315614d2b578181015183820152602001614d13565b50828481614dc757fe5b06949350505050565b6001600160a01b038116614de357600080fd5b614ded828261367d565b15614df757600080fd5b6001600160a01b0316600090815260209190915260409020805460ff19166001179055565b6000614e266150cf565b600080614e3b86670de0b6b3a7640000613614565b90925090506000826003811115614e4e57fe5b14614e6d5750604080516020810190915260008152909250905061364f565b600080614e7a8388614c3d565b90925090506000826003811115614e8d57fe5b14614eaf5750604080516020810190915260008152909450925061364f915050565b604080516020810190915290815260009890975095505050505050565b604051806101200160405280600081526020016000815260200160008152602001600081526020016000815260200160006001600160a01b0316815260200160006001600160a01b0316815260200160006001600160a01b031681526020016000151581525090565b604080516080810190915280600081526020016000815260200160008152602001600081525090565b828054600181600116156101000203166002900490600052602060002090601f016020900481019282601f10614f9f57805160ff1916838001178555614fcc565b82800160010185558215614fcc579182015b82811115614fcc578251825591602001919060010190614fb1565b50614fd892915061512e565b5090565b6040805160a081019091528060008152602001600081526020016000815260200160008152602001600081525090565b604051806080016040528061501f6150cf565b815260200161502c6150cf565b81526020016150396150cf565b8152600060209091015290565b60408051610140810190915280600081526020016150626150cf565b815260200161506f6150cf565b815260200161507c6150cf565b81526020016150896150cf565b81526020016150966150cf565b81526020016150a36150cf565b81526020016150b06150cf565b81526020016150bd6150cf565b81526020016150ca6150cf565b905290565b6040518060200160405280600081525090565b604080518082019091526000808252602082015290565b60408051602081019091528060006150ca565b6040805160608101909152806000815260200160008152602001600081525090565b61106391905b80821115614fd85760008155600101615134565b600054610100900460ff16806151615750615161614954565b8061516f575060005460ff16155b6151aa5760405162461bcd60e51b815260040180806020018281038252602e8152602001806154b4602e913960400191505060405180910390fd5b600054610100900460ff161580156151d5576000805460ff1961ff0019909116610100171660011790555b603380546001600160a01b0319166001600160a01b0384811691909117918290556040519116906000907f8be0079c531659141344cd1fd0a4f28419497f9722a3daafe3b4186f6b6457e0908290a38015612ca3576000805461ff0019169055505056fe4465706f7369742073686f756c64206265206d6f7265207468616e2064656c746120617320737065636966696564206279204549502d31363230636f6d706f756e64696e672073747265616d20646f6573206e6f742065786973746561726e696e6773206164646974696f6e2063616c63756c6174696f6e206572726f72506175736572526f6c653a2063616c6c657220646f6573206e6f742068617665207468652050617573657220726f6c656e6574207769746864726177616c20616d6f756e742063616c63756c6174696f6e206572726f72616d6f756e7420657863656564732074686520617661696c61626c652062616c616e636562616c616e6365207375627472616374696f6e2063616c63756c6174696f6e206572726f7273656e64657220696e7465726573742063616c63756c6174696f6e206572726f7273746172742074696d65206265666f726520626c6f636b2e74696d657374616d707361626c69657220696e7465726573742063616c63756c6174696f6e206572726f726465706f736974206e6f74206d756c7469706c65206f662074696d652064656c7461616d6f756e7420776974686f75742073656e64657220696e7465726573742063616c63756c6174696f6e206572726f72726563697069656e7420696e74657265737420636f6e76657273696f6e206572726f7263616e6e6f742073747265616d20746f20746865207a65726f2061646472657373726563697069656e742062616c616e636520776974686f75742073656e64657220696e7465726573742063616c63756c6174696f6e206572726f726e657420726563697069656e742062616c616e63652063616c63756c6174696f6e206572726f72436f6e747261637420696e7374616e63652068617320616c7265616479206265656e20696e697469616c697a65645072696365206d757374206265206c657373207468616e2070726963654c696d69746e65742073656e6465722062616c616e63652063616c63756c6174696f6e206572726f727361626c69657220696e74657265737420636f6e76657273696f6e206572726f72726563697069656e742062616c616e63652063616c63756c6174696f6e206572726f7263616c6c6572206973206e6f74207468652073656e646572206f722074686520726563697069656e74206f66207468652073747265616d73746172742074696d652073686f756c6420626520616674657220626c6f636b2e74696d657374616d7063616e6e6f742073747265616d20746f2074686520636f6e747261637420697473656c6673746172742074696d652068617320746f206265206265666f72652073746f7074696d65a265627a7a72315820106cacce7a3312e4a56b7114f169fc179459883aa5cb6cb780a883a1d53e1c4d64736f6c634300050b0032436f6e747261637420696e7374616e63652068617320616c7265616479206265656e20696e697469616c697a656463546f6b656e4d616e6167657220636f6e747261637420697320746865207a65726f2061646472657373",
  "source": "pragma solidity 0.5.11;\r\n\r\nimport \"@openzeppelin/contracts-ethereum-package/contracts/token/ERC20/IERC20.sol\";\r\nimport \"@openzeppelin/contracts/math/SafeMath.sol\";\r\n\r\nimport \"./sablier/Sablier.sol\";\r\n\r\ncontract StorageMarketPlace is Sablier {\r\n    using SafeMath for uint256;\r\n\r\n    event Buy(uint256 indexed fileId, address indexed buyer);\r\n    event Sell(uint256 indexed fileId, address indexed seller);\r\n\r\n    // Struct for recording File metadata\r\n    struct File {\r\n        address seller;\r\n        address paymentAsset;\r\n        string metadataHash; // unique metadataHash\r\n        uint256 price;\r\n        uint256 numRetrievals;\r\n        mapping(address => bool) buyers;\r\n    }\r\n\r\n    // Struct to record the no of of subscriptions the user is involved in   \r\n    struct StreamInfo {\r\n        bool status;\r\n        // extra field cannot keep just an array in struct get this error TypeError: Internal or recursive type is not allowed for public state variables.\r\n        uint[]  subscribed;\r\n        uint[]  mySubscriptions;\r\n    }\r\n    \r\n    // Tracking the files with file id\r\n    mapping(uint256 => File) public Files;\r\n\r\n    // Tracking the subscriptions for a particular user\r\n    mapping(address => StreamInfo) public subscriptions;\r\n\r\n    uint256 public priceLimit;\r\n    uint256 public fileCount;\r\n\r\n    modifier isValidPrice(uint256 _price) {\r\n        require(_price < priceLimit, \"Price must be less than priceLimit\");\r\n        _;\r\n    }\r\n\r\n    modifier isValidBuy(uint256 _fileId) {\r\n        File storage file = Files[_fileId];\r\n        require(msg.sender != file.seller, \"Seller cannot buy their own file\");\r\n        require(\r\n            file.buyers[msg.sender] == false,\r\n            \"Buyer cannot buy file again\"\r\n        );\r\n        _;\r\n    }\r\n\r\n    constructor(uint256 _priceLimit) public Sablier(msg.sender) {\r\n        require(_priceLimit > 0, \"Price Limit cannot be 0\");\r\n        priceLimit = _priceLimit;\r\n    }\r\n\r\n   /**\r\n   * @dev Makes a file available for selling\r\n   * @param _paymentAsset - asset to be used for payment (currently DAI)\r\n   * @param _price - price of the Files\r\n   * @param _metadataHash - ipfs hash of the file metadata\r\n   */\r\n    function sell(\r\n        address _paymentAsset,\r\n        uint256 _price,\r\n        string calldata _metadataHash\r\n    ) external isValidPrice(_price) returns (uint256) {\r\n        Files[fileCount] = File(\r\n            msg.sender,\r\n            _paymentAsset,\r\n            _metadataHash,\r\n            _price,\r\n            0\r\n        );\r\n        uint256 currentFile = fileCount;\r\n        fileCount++;\r\n        emit Sell(currentFile, msg.sender);\r\n        return currentFile;\r\n    }\r\n\r\n   /**\r\n   * @dev Payment Function through which user pays the payment for the particular file and get's provate access to the exclusive content\r\n   * @param _fileId - file Id of the particular File\r\n   */\r\n    function buy(uint256 _fileId) external isValidBuy(_fileId) returns (bool) {\r\n        File storage file = Files[_fileId];\r\n        require(msg.sender != file.seller, \"Seller cannot buy his own file\");\r\n        IERC20(file.paymentAsset).transferFrom(\r\n            msg.sender,\r\n            file.seller,\r\n            file.price\r\n        );\r\n        file.numRetrievals++;\r\n        file.buyers[msg.sender] = true;\r\n        emit Buy(_fileId, msg.sender);\r\n    }\r\n\r\n   /**\r\n   * @dev Creates a Subscription for future content for that particular seller during a specific duration\r\n   * @param _deposit - Subscription amount\r\n   * @param _token - payment asset address\r\n   * @param _startTime - epoch start time of the duration\r\n   * @param _stopTime - epoch end time of the duration\r\n   * @param reciever - seller address whose subscription is being brought\r\n   */\r\n    function createSubscription(\r\n        uint256 _deposit,\r\n        address _token,\r\n        uint256 _startTime,\r\n        uint256 _stopTime,\r\n        address reciever\r\n    ) external {\r\n        require(reciever != address(0x00), \"cannot stream to the zero address\");\r\n        require(\r\n            reciever != address(this),\r\n            \"cannot stream to the contract itself\"\r\n        );\r\n        require(reciever != msg.sender, \"cannot stream to yourself\");\r\n        require(_deposit > 0, \"deposit is zero\");\r\n        require(\r\n            _startTime > block.timestamp,\r\n            \"start time should be after block.timestamp\"\r\n        );\r\n        require(_stopTime > _startTime, \"start time has to be before stoptime\");\r\n        uint256 delta = _stopTime.sub(_startTime);\r\n        require(\r\n            _deposit > delta,\r\n            \"Deposit should be more than delta as specified by EIP-1620\"\r\n        );\r\n        // THE Official implementation of the eip-1620 specifies that the deposit shopuld be a multiple of the delta just for the payament rate, the difference is negligible to be calculated efficiently specified in eip-1620 docs\r\n        // Check EIP-1620 for more details\r\n        uint256 remainder = _deposit.mod(delta);\r\n        uint256 actualDepositAmount = _deposit.sub(remainder);\r\n        uint256 streamId = createStream(\r\n            reciever,\r\n            actualDepositAmount,\r\n            _token,\r\n            _startTime,\r\n            _stopTime\r\n        );\r\n        \r\n        subscriptions[msg.sender].subscribed.push(streamId);\r\n        subscriptions[reciever].mySubscriptions.push(streamId);\r\n    }\r\n\r\n   /**\r\n   * @dev Check if the particular address is the buyer of that file\r\n   * @param _fileId - file id\r\n   * @param buyer - buyer address\r\n   */\r\n    function isBuyer(uint256 _fileId, address buyer)\r\n        public\r\n        view\r\n        returns (bool)\r\n    {\r\n        File storage file = Files[_fileId];\r\n        return file.buyers[buyer];\r\n    }\r\n\r\n    // function isSubscriber(address seller) public view returns (bool) {\r\n    //         BuyerSubscription[] storage buyerSubscriptions\r\n    //      = sellerToBuyer[seller];\r\n    // }\r\n\r\n}\r\n",
  "sourcePath": "G:/new/IPFS-ETH-MarketPlace/contracts/StorageMarket.sol",
  "compiler": {
    "name": "solc",
    "version": "0.5.11+commit.c082d0b4.Emscripten.clang"
  },
  "schemaVersion": "3.2.3",
  "updatedAt": "2020-08-01T15:25:58.891Z",
  "networkType": "ethereum",
  "devdoc": {
    "methods": {
      "balanceOf(uint256,address)": {
        "details": "Throws if the id does not point to a valid stream.\r",
        "params": {
          "streamId": "The id of the stream for whom to query the balance.\r",
          "who": "The address for whom to query the balance.\r"
        },
        "return": "The total funds allocated to `who` as uint256.\r"
      },
      "buy(uint256)": {
        "details": "Payment Function through which user pays the payment for the particular file and get's provate access to the exclusive content\r",
        "params": {
          "_fileId": "- file Id of the particular File\r"
        }
      },
      "cancelStream(uint256)": {
        "details": "Throws if the id does not point to a valid stream.\r Throws if the caller is not the sender or the recipient of the stream.\r Throws if there is a token transfer failure.\r",
        "params": {
          "streamId": "The id of the stream to cancel.\r"
        },
        "return": "bool true=success, otherwise false.\r"
      },
      "createCompoundingStream(address,uint256,address,uint256,uint256,uint256,uint256)": {
        "details": "Inherits all security checks from `createStream`.\r Throws if the cToken is not whitelisted.\r Throws if the sender share percentage and the recipient share percentage do not sum up to 100.\r Throws if the the sender share mantissa calculation has a math error.\r Throws if the the recipient share mantissa calculation has a math error.\r",
        "params": {
          "deposit": "The amount of money to be streamed.\r",
          "recipient": "The address towards which the money is streamed.\r",
          "recipientSharePercentage": "The recipient's share of the interest, as a percentage.\r",
          "senderSharePercentage": "The sender's share of the interest, as a percentage.\r",
          "startTime": "The unix timestamp for when the stream starts.\r",
          "stopTime": "The unix timestamp for when the stream stops.\r",
          "tokenAddress": "The ERC20 token to use as streaming currency.\r"
        },
        "return": "The uint256 id of the newly created compounding stream.\r"
      },
      "createStream(address,uint256,address,uint256,uint256)": {
        "details": "Throws if paused.\r Throws if the recipient is the zero address, the contract itself or the caller.\r Throws if the deposit is 0.\r Throws if the start time is before `block.timestamp`.\r Throws if the stop time is before the start time.\r Throws if the duration calculation has a math error.\r Throws if the deposit is smaller than the duration.\r Throws if the deposit is not a multiple of the duration.\r Throws if the rate calculation has a math error.\r Throws if the next stream id calculation has a math error.\r Throws if the contract is not allowed to transfer enough tokens.\r Throws if there is a token transfer failure.\r",
        "params": {
          "deposit": "The amount of money to be streamed.\r",
          "recipient": "The address towards which the money is streamed.\r",
          "startTime": "The unix timestamp for when the stream starts.\r",
          "stopTime": "The unix timestamp for when the stream stops.\r",
          "tokenAddress": "The ERC20 token to use as streaming currency.\r"
        },
        "return": "The uint256 id of the newly created stream.\r"
      },
      "createSubscription(uint256,address,uint256,uint256,address)": {
        "details": "Creates a Subscription for future content for that particular seller during a specific duration\r",
        "params": {
          "_deposit": "- Subscription amount\r",
          "_startTime": "- epoch start time of the duration\r",
          "_stopTime": "- epoch end time of the duration\r",
          "_token": "- payment asset address\r",
          "reciever": "- seller address whose subscription is being brought\r"
        }
      },
      "deltaOf(uint256)": {
        "details": "Throws if the id does not point to a valid stream.\r",
        "params": {
          "streamId": "The id of the stream for whom to query the delta.\r"
        },
        "return": "The time delta in seconds.\r"
      },
      "getCompoundingStream(uint256)": {
        "details": "Throws if the id does not point to a valid compounding stream.\r",
        "params": {
          "streamId": "The id of the compounding stream to query.\r"
        },
        "return": "The compounding stream object.\r"
      },
      "getEarnings(address)": {
        "params": {
          "tokenAddress": "The address of the token to get the earnings for.\r"
        },
        "return": "The amount of interest as uint256.\r"
      },
      "getStream(uint256)": {
        "details": "Throws if the id does not point to a valid stream.\r",
        "params": {
          "streamId": "The id of the stream to query.\r"
        },
        "return": "The stream object.\r"
      },
      "initialize(address)": {
        "details": "Initializes the contract in unpaused state. Assigns the Pauser role\r to the deployer.\r"
      },
      "interestOf(uint256,uint256)": {
        "details": "Throws if there is a math error. We do not assert the calculations which involve the current\r exchange rate, because we can't know what value we'll get back from the cToken contract.\r",
        "return": "The interest accrued by the sender, the recipient and sablier, respectively, as uint256s.\r"
      },
      "isBuyer(uint256,address)": {
        "details": "Check if the particular address is the buyer of that file\r",
        "params": {
          "_fileId": "- file id\r",
          "buyer": "- buyer address\r"
        }
      },
      "isCompoundingStream(uint256)": {
        "params": {
          "streamId": "The id of the compounding stream to check.\r"
        },
        "return": "bool true=it is compounding stream, otherwise false.\r"
      },
      "isOwner()": {
        "return": "true if `msg.sender` is the owner of the contract.\r"
      },
      "owner()": {
        "return": "the address of the owner.\r"
      },
      "pause()": {
        "details": "Called by a pauser to pause, triggers stopped state.\r"
      },
      "paused()": {
        "details": "Returns true if the contract is paused, and false otherwise.\r"
      },
      "sell(address,uint256,string)": {
        "details": "Makes a file available for selling\r",
        "params": {
          "_metadataHash": "- ipfs hash of the file metadata\r",
          "_paymentAsset": "- asset to be used for payment (currently DAI)\r",
          "_price": "- price of the Files\r"
        }
      },
      "takeEarnings(address,uint256)": {
        "details": "Throws if `amount` exceeds the available balance.\r",
        "params": {
          "amount": "The amount of tokens to withdraw.\r",
          "tokenAddress": "The address of the token to withdraw earnings for.\r"
        }
      },
      "transferOwnership(address)": {
        "details": "Allows the current owner to transfer control of the contract to a newOwner.\r",
        "params": {
          "newOwner": "The address to transfer ownership to.\r"
        }
      },
      "unpause()": {
        "details": "Called by a pauser to unpause, returns to normal state.\r"
      },
      "updateFee(uint256)": {
        "details": "Throws if the caller is not the owner of the contract.\r Throws if `feePercentage` is not lower or equal to 100.\r",
        "params": {
          "feePercentage": "The new fee as a percentage.\r"
        }
      },
      "withdrawFromStream(uint256,uint256)": {
        "details": "Throws if the id does not point to a valid stream.\r Throws if the caller is not the sender or the recipient of the stream.\r Throws if the amount exceeds the available balance.\r Throws if there is a token transfer failure.\r",
        "params": {
          "amount": "The amount of tokens to withdraw.\r",
          "streamId": "The id of the stream to withdraw tokens from.\r"
        },
        "return": "bool true=success, otherwise false.\r"
      }
    }
  },
  "userdoc": {
    "methods": {
      "balanceOf(uint256,address)": {
        "notice": "Returns the available funds for the given stream id and address.\r"
      },
      "cancelStream(uint256)": {
        "notice": "Cancels the stream and transfers the tokens back on a pro rata basis.\r"
      },
      "createCompoundingStream(address,uint256,address,uint256,uint256,uint256,uint256)": {
        "notice": "Creates a new compounding stream funded by `msg.sender` and paid towards `recipient`.\r"
      },
      "createStream(address,uint256,address,uint256,uint256)": {
        "notice": "Creates a new stream funded by `msg.sender` and paid towards `recipient`.\r"
      },
      "deltaOf(uint256)": {
        "notice": "Returns either the delta in seconds between `block.timestamp` and `startTime` or\r between `stopTime` and `startTime, whichever is smaller. If `block.timestamp` is before\r `startTime`, it returns 0.\r"
      },
      "getCompoundingStream(uint256)": {
        "notice": "Returns the compounding stream object with all its properties.\r"
      },
      "getEarnings(address)": {
        "notice": "Returns the amount of interest that has been accrued for the given token address.\r"
      },
      "getStream(uint256)": {
        "notice": "Returns the compounding stream with all its properties.\r"
      },
      "interestOf(uint256,uint256)": {
        "notice": "Computes the interest accrued by keeping the amount of tokens in the contract. Returns (0, 0, 0) if\r the stream is not a compounding stream.\r"
      },
      "isCompoundingStream(uint256)": {
        "notice": "Checks if the given id points to a compounding stream.\r"
      },
      "isValid(uint256)": {
        "notice": "* View Functions **"
      },
      "takeEarnings(address,uint256)": {
        "notice": "Withdraws the earnings for the given token address.\r"
      },
      "updateFee(uint256)": {
        "notice": "Updates the Sablier fee.\r"
      },
      "withdrawFromStream(uint256,uint256)": {
        "notice": "Withdraws from the contract to the recipient's account.\r"
      }
    }
  }
}