{
  "contractName": "StorageMarketPlace",
  "abi": [
    {
      "constant": true,
      "inputs": [
        {
          "internalType": "address",
          "name": "tokenAddress",
          "type": "address"
        }
      ],
      "name": "getEarnings",
      "outputs": [
        {
          "internalType": "uint256",
          "name": "",
          "type": "uint256"
        }
      ],
      "payable": false,
      "stateMutability": "view",
      "type": "function"
    },
    {
      "constant": true,
      "inputs": [],
      "name": "nextStreamId",
      "outputs": [
        {
          "internalType": "uint256",
          "name": "",
          "type": "uint256"
        }
      ],
      "payable": false,
      "stateMutability": "view",
      "type": "function"
    },
    {
      "constant": true,
      "inputs": [
        {
          "internalType": "uint256",
          "name": "streamId",
          "type": "uint256"
        }
      ],
      "name": "getCompoundingStream",
      "outputs": [
        {
          "internalType": "address",
          "name": "sender",
          "type": "address"
        },
        {
          "internalType": "address",
          "name": "recipient",
          "type": "address"
        },
        {
          "internalType": "uint256",
          "name": "deposit",
          "type": "uint256"
        },
        {
          "internalType": "address",
          "name": "tokenAddress",
          "type": "address"
        },
        {
          "internalType": "uint256",
          "name": "startTime",
          "type": "uint256"
        },
        {
          "internalType": "uint256",
          "name": "stopTime",
          "type": "uint256"
        },
        {
          "internalType": "uint256",
          "name": "remainingBalance",
          "type": "uint256"
        },
        {
          "internalType": "uint256",
          "name": "ratePerSecond",
          "type": "uint256"
        },
        {
          "internalType": "uint256",
          "name": "exchangeRateInitial",
          "type": "uint256"
        },
        {
          "internalType": "uint256",
          "name": "senderSharePercentage",
          "type": "uint256"
        },
        {
          "internalType": "uint256",
          "name": "recipientSharePercentage",
          "type": "uint256"
        }
      ],
      "payable": false,
      "stateMutability": "view",
      "type": "function"
    },
    {
      "constant": true,
      "inputs": [
        {
          "internalType": "uint256",
          "name": "streamId",
          "type": "uint256"
        },
        {
          "internalType": "address",
          "name": "who",
          "type": "address"
        }
      ],
      "name": "balanceOf",
      "outputs": [
        {
          "internalType": "uint256",
          "name": "balance",
          "type": "uint256"
        }
      ],
      "payable": false,
      "stateMutability": "view",
      "type": "function"
    },
    {
      "constant": false,
      "inputs": [],
      "name": "unpause",
      "outputs": [],
      "payable": false,
      "stateMutability": "nonpayable",
      "type": "function"
    },
    {
      "constant": true,
      "inputs": [],
      "name": "fileCount",
      "outputs": [
        {
          "internalType": "uint256",
          "name": "",
          "type": "uint256"
        }
      ],
      "payable": false,
      "stateMutability": "view",
      "type": "function"
    },
    {
      "constant": true,
      "inputs": [
        {
          "internalType": "address",
          "name": "account",
          "type": "address"
        }
      ],
      "name": "isPauser",
      "outputs": [
        {
          "internalType": "bool",
          "name": "",
          "type": "bool"
        }
      ],
      "payable": false,
      "stateMutability": "view",
      "type": "function"
    },
    {
      "constant": true,
      "inputs": [
        {
          "internalType": "uint256",
          "name": "",
          "type": "uint256"
        }
      ],
      "name": "Files",
      "outputs": [
        {
          "internalType": "address",
          "name": "seller",
          "type": "address"
        },
        {
          "internalType": "address",
          "name": "paymentAsset",
          "type": "address"
        },
        {
          "internalType": "string",
          "name": "metadataHash",
          "type": "string"
        },
        {
          "internalType": "uint256",
          "name": "price",
          "type": "uint256"
        }
      ],
      "payable": false,
      "stateMutability": "view",
      "type": "function"
    },
    {
      "constant": true,
      "inputs": [],
      "name": "paused",
      "outputs": [
        {
          "internalType": "bool",
          "name": "",
          "type": "bool"
        }
      ],
      "payable": false,
      "stateMutability": "view",
      "type": "function"
    },
    {
      "constant": false,
      "inputs": [
        {
          "internalType": "uint256",
          "name": "streamId",
          "type": "uint256"
        }
      ],
      "name": "cancelStream",
      "outputs": [
        {
          "internalType": "bool",
          "name": "",
          "type": "bool"
        }
      ],
      "payable": false,
      "stateMutability": "nonpayable",
      "type": "function"
    },
    {
      "constant": false,
      "inputs": [
        {
          "internalType": "uint256",
          "name": "streamId",
          "type": "uint256"
        },
        {
          "internalType": "uint256",
          "name": "amount",
          "type": "uint256"
        }
      ],
      "name": "withdrawFromStream",
      "outputs": [
        {
          "internalType": "bool",
          "name": "",
          "type": "bool"
        }
      ],
      "payable": false,
      "stateMutability": "nonpayable",
      "type": "function"
    },
    {
      "constant": false,
      "inputs": [],
      "name": "initialize",
      "outputs": [],
      "payable": false,
      "stateMutability": "nonpayable",
      "type": "function"
    },
    {
      "constant": false,
      "inputs": [
        {
          "internalType": "address",
          "name": "recipient",
          "type": "address"
        },
        {
          "internalType": "uint256",
          "name": "deposit",
          "type": "uint256"
        },
        {
          "internalType": "address",
          "name": "tokenAddress",
          "type": "address"
        },
        {
          "internalType": "uint256",
          "name": "startTime",
          "type": "uint256"
        },
        {
          "internalType": "uint256",
          "name": "stopTime",
          "type": "uint256"
        },
        {
          "internalType": "uint256",
          "name": "senderSharePercentage",
          "type": "uint256"
        },
        {
          "internalType": "uint256",
          "name": "recipientSharePercentage",
          "type": "uint256"
        }
      ],
      "name": "createCompoundingStream",
      "outputs": [
        {
          "internalType": "uint256",
          "name": "",
          "type": "uint256"
        }
      ],
      "payable": false,
      "stateMutability": "nonpayable",
      "type": "function"
    },
    {
      "constant": false,
      "inputs": [
        {
          "internalType": "address",
          "name": "account",
          "type": "address"
        }
      ],
      "name": "addPauser",
      "outputs": [],
      "payable": false,
      "stateMutability": "nonpayable",
      "type": "function"
    },
    {
      "constant": false,
      "inputs": [],
      "name": "pause",
      "outputs": [],
      "payable": false,
      "stateMutability": "nonpayable",
      "type": "function"
    },
    {
      "constant": true,
      "inputs": [
        {
          "internalType": "uint256",
          "name": "streamId",
          "type": "uint256"
        }
      ],
      "name": "getStream",
      "outputs": [
        {
          "internalType": "address",
          "name": "sender",
          "type": "address"
        },
        {
          "internalType": "address",
          "name": "recipient",
          "type": "address"
        },
        {
          "internalType": "uint256",
          "name": "deposit",
          "type": "uint256"
        },
        {
          "internalType": "address",
          "name": "tokenAddress",
          "type": "address"
        },
        {
          "internalType": "uint256",
          "name": "startTime",
          "type": "uint256"
        },
        {
          "internalType": "uint256",
          "name": "stopTime",
          "type": "uint256"
        },
        {
          "internalType": "uint256",
          "name": "remainingBalance",
          "type": "uint256"
        },
        {
          "internalType": "uint256",
          "name": "ratePerSecond",
          "type": "uint256"
        }
      ],
      "payable": false,
      "stateMutability": "view",
      "type": "function"
    },
    {
      "constant": false,
      "inputs": [
        {
          "internalType": "uint256",
          "name": "streamId",
          "type": "uint256"
        },
        {
          "internalType": "uint256",
          "name": "amount",
          "type": "uint256"
        }
      ],
      "name": "interestOf",
      "outputs": [
        {
          "internalType": "uint256",
          "name": "senderInterest",
          "type": "uint256"
        },
        {
          "internalType": "uint256",
          "name": "recipientInterest",
          "type": "uint256"
        },
        {
          "internalType": "uint256",
          "name": "sablierInterest",
          "type": "uint256"
        }
      ],
      "payable": false,
      "stateMutability": "nonpayable",
      "type": "function"
    },
    {
      "constant": true,
      "inputs": [],
      "name": "owner",
      "outputs": [
        {
          "internalType": "address",
          "name": "",
          "type": "address"
        }
      ],
      "payable": false,
      "stateMutability": "view",
      "type": "function"
    },
    {
      "constant": true,
      "inputs": [],
      "name": "isOwner",
      "outputs": [
        {
          "internalType": "bool",
          "name": "",
          "type": "bool"
        }
      ],
      "payable": false,
      "stateMutability": "view",
      "type": "function"
    },
    {
      "constant": false,
      "inputs": [
        {
          "internalType": "uint256",
          "name": "feePercentage",
          "type": "uint256"
        }
      ],
      "name": "updateFee",
      "outputs": [],
      "payable": false,
      "stateMutability": "nonpayable",
      "type": "function"
    },
    {
      "constant": true,
      "inputs": [
        {
          "internalType": "uint256",
          "name": "streamId",
          "type": "uint256"
        }
      ],
      "name": "isCompoundingStream",
      "outputs": [
        {
          "internalType": "bool",
          "name": "",
          "type": "bool"
        }
      ],
      "payable": false,
      "stateMutability": "view",
      "type": "function"
    },
    {
      "constant": true,
      "inputs": [
        {
          "internalType": "uint256",
          "name": "streamId",
          "type": "uint256"
        }
      ],
      "name": "deltaOf",
      "outputs": [
        {
          "internalType": "uint256",
          "name": "delta",
          "type": "uint256"
        }
      ],
      "payable": false,
      "stateMutability": "view",
      "type": "function"
    },
    {
      "constant": false,
      "inputs": [
        {
          "internalType": "address",
          "name": "tokenAddress",
          "type": "address"
        },
        {
          "internalType": "uint256",
          "name": "amount",
          "type": "uint256"
        }
      ],
      "name": "takeEarnings",
      "outputs": [],
      "payable": false,
      "stateMutability": "nonpayable",
      "type": "function"
    },
    {
      "constant": false,
      "inputs": [
        {
          "internalType": "address",
          "name": "sender",
          "type": "address"
        }
      ],
      "name": "initialize",
      "outputs": [],
      "payable": false,
      "stateMutability": "nonpayable",
      "type": "function"
    },
    {
      "constant": false,
      "inputs": [
        {
          "internalType": "address",
          "name": "recipient",
          "type": "address"
        },
        {
          "internalType": "uint256",
          "name": "deposit",
          "type": "uint256"
        },
        {
          "internalType": "address",
          "name": "tokenAddress",
          "type": "address"
        },
        {
          "internalType": "uint256",
          "name": "startTime",
          "type": "uint256"
        },
        {
          "internalType": "uint256",
          "name": "stopTime",
          "type": "uint256"
        }
      ],
      "name": "createStream",
      "outputs": [
        {
          "internalType": "uint256",
          "name": "",
          "type": "uint256"
        }
      ],
      "payable": false,
      "stateMutability": "nonpayable",
      "type": "function"
    },
    {
      "constant": true,
      "inputs": [],
      "name": "cTokenManager",
      "outputs": [
        {
          "internalType": "contract ICTokenManager",
          "name": "",
          "type": "address"
        }
      ],
      "payable": false,
      "stateMutability": "view",
      "type": "function"
    },
    {
      "constant": true,
      "inputs": [],
      "name": "fee",
      "outputs": [
        {
          "internalType": "uint256",
          "name": "mantissa",
          "type": "uint256"
        }
      ],
      "payable": false,
      "stateMutability": "view",
      "type": "function"
    },
    {
      "constant": true,
      "inputs": [
        {
          "internalType": "address",
          "name": "",
          "type": "address"
        }
      ],
      "name": "subscriptions",
      "outputs": [
        {
          "internalType": "bool",
          "name": "isEnabled",
          "type": "bool"
        },
        {
          "internalType": "uint256",
          "name": "minDurationInDays",
          "type": "uint256"
        },
        {
          "internalType": "uint256",
          "name": "amountPerDay",
          "type": "uint256"
        },
        {
          "internalType": "address",
          "name": "tokenAddress",
          "type": "address"
        }
      ],
      "payable": false,
      "stateMutability": "view",
      "type": "function"
    },
    {
      "constant": true,
      "inputs": [],
      "name": "priceLimit",
      "outputs": [
        {
          "internalType": "uint256",
          "name": "",
          "type": "uint256"
        }
      ],
      "payable": false,
      "stateMutability": "view",
      "type": "function"
    },
    {
      "constant": false,
      "inputs": [
        {
          "internalType": "address",
          "name": "newOwner",
          "type": "address"
        }
      ],
      "name": "transferOwnership",
      "outputs": [],
      "payable": false,
      "stateMutability": "nonpayable",
      "type": "function"
    },
    {
      "constant": true,
      "inputs": [
        {
          "internalType": "uint256",
          "name": "streamId",
          "type": "uint256"
        }
      ],
      "name": "isValid",
      "outputs": [
        {
          "internalType": "bool",
          "name": "",
          "type": "bool"
        }
      ],
      "payable": false,
      "stateMutability": "view",
      "type": "function"
    },
    {
      "inputs": [
        {
          "internalType": "uint256",
          "name": "_priceLimit",
          "type": "uint256"
        }
      ],
      "payable": false,
      "stateMutability": "nonpayable",
      "type": "constructor"
    },
    {
      "anonymous": false,
      "inputs": [
        {
          "indexed": true,
          "internalType": "uint256",
          "name": "fileId",
          "type": "uint256"
        },
        {
          "indexed": true,
          "internalType": "address",
          "name": "buyer",
          "type": "address"
        }
      ],
      "name": "Buy",
      "type": "event"
    },
    {
      "anonymous": false,
      "inputs": [
        {
          "indexed": true,
          "internalType": "uint256",
          "name": "fileId",
          "type": "uint256"
        },
        {
          "indexed": true,
          "internalType": "address",
          "name": "seller",
          "type": "address"
        }
      ],
      "name": "Sell",
      "type": "event"
    },
    {
      "anonymous": false,
      "inputs": [
        {
          "indexed": true,
          "internalType": "address",
          "name": "seller",
          "type": "address"
        },
        {
          "indexed": true,
          "internalType": "bool",
          "name": "isEnabled",
          "type": "bool"
        }
      ],
      "name": "SubscriptionInfoUpdated",
      "type": "event"
    },
    {
      "anonymous": false,
      "inputs": [
        {
          "indexed": true,
          "internalType": "address",
          "name": "buyer",
          "type": "address"
        },
        {
          "indexed": true,
          "internalType": "address",
          "name": "seller",
          "type": "address"
        },
        {
          "indexed": true,
          "internalType": "uint256",
          "name": "streamId",
          "type": "uint256"
        }
      ],
      "name": "SubscriptionCreated",
      "type": "event"
    },
    {
      "anonymous": false,
      "inputs": [
        {
          "indexed": true,
          "internalType": "address",
          "name": "seller",
          "type": "address"
        },
        {
          "indexed": true,
          "internalType": "uint256",
          "name": "streamId",
          "type": "uint256"
        },
        {
          "indexed": false,
          "internalType": "uint256",
          "name": "amount",
          "type": "uint256"
        }
      ],
      "name": "SubscriptionWithdrawal",
      "type": "event"
    },
    {
      "anonymous": false,
      "inputs": [
        {
          "indexed": true,
          "internalType": "address",
          "name": "buyer",
          "type": "address"
        },
        {
          "indexed": true,
          "internalType": "address",
          "name": "seller",
          "type": "address"
        },
        {
          "indexed": true,
          "internalType": "uint256",
          "name": "streamId",
          "type": "uint256"
        }
      ],
      "name": "SubscriptionCancelled",
      "type": "event"
    },
    {
      "anonymous": false,
      "inputs": [
        {
          "indexed": true,
          "internalType": "uint256",
          "name": "streamId",
          "type": "uint256"
        },
        {
          "indexed": false,
          "internalType": "uint256",
          "name": "exchangeRate",
          "type": "uint256"
        },
        {
          "indexed": false,
          "internalType": "uint256",
          "name": "senderSharePercentage",
          "type": "uint256"
        },
        {
          "indexed": false,
          "internalType": "uint256",
          "name": "recipientSharePercentage",
          "type": "uint256"
        }
      ],
      "name": "CreateCompoundingStream",
      "type": "event"
    },
    {
      "anonymous": false,
      "inputs": [
        {
          "indexed": true,
          "internalType": "uint256",
          "name": "streamId",
          "type": "uint256"
        },
        {
          "indexed": false,
          "internalType": "uint256",
          "name": "senderInterest",
          "type": "uint256"
        },
        {
          "indexed": false,
          "internalType": "uint256",
          "name": "recipientInterest",
          "type": "uint256"
        },
        {
          "indexed": false,
          "internalType": "uint256",
          "name": "sablierInterest",
          "type": "uint256"
        }
      ],
      "name": "PayInterest",
      "type": "event"
    },
    {
      "anonymous": false,
      "inputs": [
        {
          "indexed": true,
          "internalType": "address",
          "name": "tokenAddress",
          "type": "address"
        },
        {
          "indexed": true,
          "internalType": "uint256",
          "name": "amount",
          "type": "uint256"
        }
      ],
      "name": "TakeEarnings",
      "type": "event"
    },
    {
      "anonymous": false,
      "inputs": [
        {
          "indexed": true,
          "internalType": "uint256",
          "name": "fee",
          "type": "uint256"
        }
      ],
      "name": "UpdateFee",
      "type": "event"
    },
    {
      "anonymous": false,
      "inputs": [
        {
          "indexed": false,
          "internalType": "address",
          "name": "account",
          "type": "address"
        }
      ],
      "name": "Paused",
      "type": "event"
    },
    {
      "anonymous": false,
      "inputs": [
        {
          "indexed": false,
          "internalType": "address",
          "name": "account",
          "type": "address"
        }
      ],
      "name": "Unpaused",
      "type": "event"
    },
    {
      "anonymous": false,
      "inputs": [
        {
          "indexed": true,
          "internalType": "address",
          "name": "account",
          "type": "address"
        }
      ],
      "name": "PauserAdded",
      "type": "event"
    },
    {
      "anonymous": false,
      "inputs": [
        {
          "indexed": true,
          "internalType": "address",
          "name": "account",
          "type": "address"
        }
      ],
      "name": "PauserRemoved",
      "type": "event"
    },
    {
      "anonymous": false,
      "inputs": [
        {
          "indexed": true,
          "internalType": "address",
          "name": "previousOwner",
          "type": "address"
        },
        {
          "indexed": true,
          "internalType": "address",
          "name": "newOwner",
          "type": "address"
        }
      ],
      "name": "OwnershipTransferred",
      "type": "event"
    },
    {
      "anonymous": false,
      "inputs": [
        {
          "indexed": true,
          "internalType": "uint256",
          "name": "streamId",
          "type": "uint256"
        },
        {
          "indexed": true,
          "internalType": "address",
          "name": "sender",
          "type": "address"
        },
        {
          "indexed": true,
          "internalType": "address",
          "name": "recipient",
          "type": "address"
        },
        {
          "indexed": false,
          "internalType": "uint256",
          "name": "deposit",
          "type": "uint256"
        },
        {
          "indexed": false,
          "internalType": "address",
          "name": "tokenAddress",
          "type": "address"
        },
        {
          "indexed": false,
          "internalType": "uint256",
          "name": "startTime",
          "type": "uint256"
        },
        {
          "indexed": false,
          "internalType": "uint256",
          "name": "stopTime",
          "type": "uint256"
        }
      ],
      "name": "CreateStream",
      "type": "event"
    },
    {
      "anonymous": false,
      "inputs": [
        {
          "indexed": true,
          "internalType": "uint256",
          "name": "streamId",
          "type": "uint256"
        },
        {
          "indexed": true,
          "internalType": "address",
          "name": "recipient",
          "type": "address"
        },
        {
          "indexed": false,
          "internalType": "uint256",
          "name": "amount",
          "type": "uint256"
        }
      ],
      "name": "WithdrawFromStream",
      "type": "event"
    },
    {
      "anonymous": false,
      "inputs": [
        {
          "indexed": true,
          "internalType": "uint256",
          "name": "streamId",
          "type": "uint256"
        },
        {
          "indexed": true,
          "internalType": "address",
          "name": "sender",
          "type": "address"
        },
        {
          "indexed": true,
          "internalType": "address",
          "name": "recipient",
          "type": "address"
        },
        {
          "indexed": false,
          "internalType": "uint256",
          "name": "senderBalance",
          "type": "uint256"
        },
        {
          "indexed": false,
          "internalType": "uint256",
          "name": "recipientBalance",
          "type": "uint256"
        }
      ],
      "name": "CancelStream",
      "type": "event"
    },
    {
      "constant": false,
      "inputs": [
        {
          "internalType": "address",
          "name": "_paymentAsset",
          "type": "address"
        },
        {
          "internalType": "uint256",
          "name": "_price",
          "type": "uint256"
        },
        {
          "internalType": "string",
          "name": "_metadataHash",
          "type": "string"
        }
      ],
      "name": "sell",
      "outputs": [
        {
          "internalType": "uint256",
          "name": "",
          "type": "uint256"
        }
      ],
      "payable": false,
      "stateMutability": "nonpayable",
      "type": "function"
    },
    {
      "constant": false,
      "inputs": [
        {
          "internalType": "uint256",
          "name": "_fileId",
          "type": "uint256"
        }
      ],
      "name": "buy",
      "outputs": [
        {
          "internalType": "bool",
          "name": "",
          "type": "bool"
        }
      ],
      "payable": false,
      "stateMutability": "nonpayable",
      "type": "function"
    },
    {
      "constant": false,
      "inputs": [
        {
          "internalType": "uint256",
          "name": "_amountPerDay",
          "type": "uint256"
        },
        {
          "internalType": "uint256",
          "name": "_minDurationInDays",
          "type": "uint256"
        },
        {
          "internalType": "address",
          "name": "_tokenAddress",
          "type": "address"
        }
      ],
      "name": "updateSubscriptionInfo",
      "outputs": [],
      "payable": false,
      "stateMutability": "nonpayable",
      "type": "function"
    },
    {
      "constant": false,
      "inputs": [],
      "name": "disableSubscriptionInfo",
      "outputs": [],
      "payable": false,
      "stateMutability": "nonpayable",
      "type": "function"
    },
    {
      "constant": false,
      "inputs": [
        {
          "internalType": "uint256",
          "name": "_deposit",
          "type": "uint256"
        },
        {
          "internalType": "address",
          "name": "_token",
          "type": "address"
        },
        {
          "internalType": "uint256",
          "name": "_numDays",
          "type": "uint256"
        },
        {
          "internalType": "address",
          "name": "_seller",
          "type": "address"
        }
      ],
      "name": "createSubscription",
      "outputs": [],
      "payable": false,
      "stateMutability": "nonpayable",
      "type": "function"
    },
    {
      "constant": false,
      "inputs": [
        {
          "internalType": "uint256",
          "name": "_streamId",
          "type": "uint256"
        },
        {
          "internalType": "uint256",
          "name": "_amount",
          "type": "uint256"
        }
      ],
      "name": "withdrawFromSubscription",
      "outputs": [],
      "payable": false,
      "stateMutability": "nonpayable",
      "type": "function"
    },
    {
      "constant": false,
      "inputs": [
        {
          "internalType": "address",
          "name": "_seller",
          "type": "address"
        }
      ],
      "name": "cancelSubscription",
      "outputs": [],
      "payable": false,
      "stateMutability": "nonpayable",
      "type": "function"
    },
    {
      "constant": true,
      "inputs": [
        {
          "internalType": "uint256",
          "name": "_fileId",
          "type": "uint256"
        },
        {
          "internalType": "address",
          "name": "buyer",
          "type": "address"
        }
      ],
      "name": "isBuyer",
      "outputs": [
        {
          "internalType": "bool",
          "name": "",
          "type": "bool"
        }
      ],
      "payable": false,
      "stateMutability": "view",
      "type": "function"
    },
    {
      "constant": true,
      "inputs": [
        {
          "internalType": "address",
          "name": "_seller",
          "type": "address"
        },
        {
          "internalType": "address",
          "name": "_buyer",
          "type": "address"
        }
      ],
      "name": "isSubscriber",
      "outputs": [
        {
          "internalType": "bool",
          "name": "",
          "type": "bool"
        }
      ],
      "payable": false,
      "stateMutability": "view",
      "type": "function"
    }
  ],
  "bytecode": "0x60806040523480156200001157600080fd5b5060405162005fdc38038062005fdc833981810160405260208110156200003757600080fd5b5051338062000092576040517f08c379a000000000000000000000000000000000000000000000000000000000815260040180806020018281038252602a81526020018062005fb2602a913960400191505060405180910390fd5b620000a8336200015960201b620054811760201c565b620000be336200027660201b62002e2a1760201c565b60ce80546001600160a01b0319166001600160a01b0392909216919091179055600160d155806200015057604080517f08c379a000000000000000000000000000000000000000000000000000000000815260206004820152601760248201527f5072696365204c696d69742063616e6e6f742062652030000000000000000000604482015290519081900360640190fd5b60d55562000567565b600054610100900460ff16806200017e57506200017e6001600160e01b036200036316565b806200018d575060005460ff16155b620001e4576040517f08c379a000000000000000000000000000000000000000000000000000000000815260040180806020018281038252602e81526020018062005f84602e913960400191505060405180910390fd5b600054610100900460ff1615801562000210576000805460ff1961ff0019909116610100171660011790555b603380546001600160a01b0319166001600160a01b0384811691909117918290556040519116906000907f8be0079c531659141344cd1fd0a4f28419497f9722a3daafe3b4186f6b6457e0908290a3801562000272576000805461ff00191690555b5050565b600054610100900460ff16806200029b57506200029b6001600160e01b036200036316565b80620002aa575060005460ff16155b62000301576040517f08c379a000000000000000000000000000000000000000000000000000000000815260040180806020018281038252602e81526020018062005f84602e913960400191505060405180910390fd5b600054610100900460ff161580156200032d576000805460ff1961ff0019909116610100171660011790555b62000343826200036960201b62004fb71760201c565b6099805460ff19169055801562000272576000805461ff00191690555050565b303b1590565b600054610100900460ff16806200038e57506200038e6001600160e01b036200036316565b806200039d575060005460ff16155b620003f4576040517f08c379a000000000000000000000000000000000000000000000000000000000815260040180806020018281038252602e81526020018062005f84602e913960400191505060405180910390fd5b600054610100900460ff1615801562000420576000805460ff1961ff0019909116610100171660011790555b62000434826001600160e01b036200046316565b6200044d576200044d826001600160e01b036200048616565b801562000272576000805461ff00191690555050565b600062000480826066620004d860201b62003b3a1790919060201c565b92915050565b620004a18160666200050e60201b620051091790919060201c565b6040516001600160a01b038216907f6719d08c1888103bea251a4ed56406bd0c3e69723c8a1686e017e7bbe159b6f890600090a250565b60006001600160a01b038216620004ee57600080fd5b506001600160a01b03166000908152602091909152604090205460ff1690565b6001600160a01b0381166200052257600080fd5b6200053782826001600160e01b03620004d816565b156200054257600080fd5b6001600160a01b0316600090815260209190915260409020805460ff19166001179055565b615a0d80620005776000396000f3fe608060405234801561001057600080fd5b50600436106102c85760003560e01c80638da5cb5b1161017b578063cc1b4bf6116100d8578063ddca3f431161008c578063f0e1ba2c11610071578063f0e1ba2c1461098a578063f2fde38b14610992578063f577a500146109b8576102c8565b8063ddca3f431461092b578063f046395a14610933576102c8565b8063d6d712b9116100bd578063d6d712b9146108d4578063d855528e146108dc578063d96a094a1461090e576102c8565b8063cc1b4bf61461088c578063d2cba55c146108cc576102c8565b8063a82ccd4d1161012f578063c4d66de811610114578063c4d66de81461080c578063c5f7b35a14610832578063cada70b014610860576102c8565b8063a82ccd4d146107c3578063c1eb9ee0146107e0576102c8565b80639012c4a8116101605780639012c4a81461076357806393d81d5814610780578063a734d51b146107a6576102c8565b80638da5cb5b146107375780638f32d59b1461075b576102c8565b80636d97786e1161022957806382dc1ec4116101dd578063870a9a97116101c2578063870a9a9714610663578063894e9a0d146106865780638c9a3252146106f6576102c8565b806382dc1ec4146106355780638456cb591461065b576102c8565b80637a9b2c6c1161020e5780637a9b2c6c146105be5780638129fc1c146105e15780638195aeaa146105e9576102c8565b80636d97786e1461051c5780636db9241b146105a1576102c8565b80633f4ba83a1161028057806346fbf68e1161026557806346fbf68e1461040c57806347d52ef2146104465780635c975abb14610514576102c8565b80633f4ba83a146103fc5780634395351914610404576102c8565b8063287973fa116102b1578063287973fa1461030d5780632b8a119d1461034b5780633656eec2146103d0576102c8565b8063131b9c04146102cd5780631e99d56914610305575b600080fd5b6102f3600480360360208110156102e357600080fd5b50356001600160a01b03166109d5565b60408051918252519081900360200190f35b6102f3610abf565b6103496004803603608081101561032357600080fd5b508035906001600160a01b03602082013581169160408101359160609091013516610ac5565b005b6103686004803603602081101561036157600080fd5b5035610cf9565b604080516001600160a01b039c8d1681529a8c1660208c01528a810199909952969099166060890152608088019490945260a087019290925260c086015260e08501526101008401526101208301939093526101408201929092529051908190036101600190f35b6102f3600480360360408110156103e657600080fd5b50803590602001356001600160a01b0316610f30565b610349611217565b6102f3611309565b6104326004803603602081101561042257600080fd5b50356001600160a01b031661130f565b604080519115158252519081900360200190f35b6104636004803603602081101561045c57600080fd5b5035611328565b60405180856001600160a01b03166001600160a01b03168152602001846001600160a01b03166001600160a01b0316815260200180602001838152602001828103825284818151815260200191508051906020019080838360005b838110156104d65781810151838201526020016104be565b50505050905090810190601f1680156105035780820380516001836020036101000a031916815260200191505b509550505050505060405180910390f35b6104326113e8565b6102f36004803603606081101561053257600080fd5b6001600160a01b038235169160208101359181019060608101604082013564010000000081111561056257600080fd5b82018360208201111561057457600080fd5b8035906020019184600183028401116401000000008311171561059657600080fd5b5090925090506113f2565b610432600480360360208110156105b757600080fd5b5035611548565b610432600480360360408110156105d457600080fd5b5080359060200135611685565b610349611945565b6102f3600480360360e08110156105ff57600080fd5b506001600160a01b0381358116916020810135916040820135169060608101359060808101359060a08101359060c001356119ec565b6103496004803603602081101561064b57600080fd5b50356001600160a01b0316611dd2565b610349611e21565b6103496004803603604081101561067957600080fd5b5080359060200135611ee8565b6106a36004803603602081101561069c57600080fd5b5035611f88565b604080516001600160a01b03998a168152978916602089015287810196909652939096166060860152608085019190915260a084015260c083019390935260e08201929092529051908190036101000190f35b6107196004803603604081101561070c57600080fd5b508035906020013561205e565b60408051938452602084019290925282820152519081900360600190f35b61073f6127b7565b604080516001600160a01b039092168252519081900360200190f35b6104326127c6565b6103496004803603602081101561077957600080fd5b50356127ec565b6103496004803603602081101561079657600080fd5b50356001600160a01b03166128e8565b610432600480360360208110156107bc57600080fd5b503561299c565b6102f3600480360360208110156107d957600080fd5b50356129b4565b610349600480360360408110156107f657600080fd5b506001600160a01b038135169060200135612af0565b6103496004803603602081101561082257600080fd5b50356001600160a01b0316612e2a565b6104326004803603604081101561084857600080fd5b506001600160a01b0381358116916020013516612ee0565b6104326004803603604081101561087657600080fd5b50803590602001356001600160a01b0316612f1f565b6102f3600480360360a08110156108a257600080fd5b506001600160a01b0381358116916020810135916040820135169060608101359060800135612f4e565b61073f6135f0565b6103496135ff565b610349600480360360608110156108f257600080fd5b50803590602081013590604001356001600160a01b0316613644565b6104326004803603602081101561092457600080fd5b503561377e565b6102f361399e565b6109596004803603602081101561094957600080fd5b50356001600160a01b03166139a4565b6040805194151585526020850193909352838301919091526001600160a01b03166060830152519081900360800190f35b6102f36139d8565b610349600480360360208110156109a857600080fd5b50356001600160a01b03166139de565b610432600480360360208110156109ce57600080fd5b50356139f8565b60ce5460408051632f52e59560e01b81526001600160a01b03848116600483015291516000939290921691632f52e59591602480820192602092909190829003018186803b158015610a2657600080fd5b505afa158015610a3a573d6000803e3d6000fd5b505050506040513d6020811015610a5057600080fd5b5051610aa3576040805162461bcd60e51b815260206004820152601360248201527f746f6b656e206973206e6f742063546f6b656e00000000000000000000000000604482015290519081900360640190fd5b506001600160a01b0316600090815260cf602052604090205490565b60d15481565b6001600160a01b038116600090815260d4602090815260408083203384526004810190925290912054815460ff16610b2e5760405162461bcd60e51b815260040180806020018281038252602481526020018061565a6024913960400191505060405180910390fd5b610b37816139f8565b15610b735760405162461bcd60e51b815260040180806020018281038252602d815260200180615967602d913960400191505060405180910390fd5b8160010154841015610bb65760405162461bcd60e51b815260040180806020018281038252602381526020018061567e6023913960400191505060405180910390fd5b60038201546001600160a01b03868116911614610c045760405162461bcd60e51b81526004018080602001828103825260228152602001806159946022913960400191505060405180910390fd5b6002820154610c1a90859063ffffffff613a1716565b8614610c6d576040805162461bcd60e51b815260206004820152601860248201527f4465706f73697420616d6f756e7420696e636f72726563740000000000000000604482015290519081900360640190fd5b426000610c93610c86876201518063ffffffff613a1716565b839063ffffffff613a7716565b90506000610ca4868a8a8686612f4e565b3360008181526004880160205260408082208490555192935083926001600160a01b038a1692917f2eb629961acafe14e8322418dd8876662f9f38696815b5ff62645c0aaff358bf91a4505050505050505050565b60008060008060008060008060008060008b60d2600082815260200190815260200160002060070160149054906101000a900460ff16610d78576040805162461bcd60e51b81526020600482015260156024820152741cdd1c99585b48191bd95cc81b9bdd08195e1a5cdd605a1b604482015290519081900360640190fd5b60008d815260cd60205260409020600301548d9060ff16610dca5760405162461bcd60e51b81526004018080602001828103825260218152602001806155736021913960400191505060405180910390fd5b60d260008f815260200190815260200160002060060160009054906101000a90046001600160a01b03169c5060d260008f815260200190815260200160002060050160009054906101000a90046001600160a01b03169b5060d260008f8152602001908152602001600020600001549a5060d260008f815260200190815260200160002060070160009054906101000a90046001600160a01b0316995060d260008f815260200190815260200160002060030154985060d260008f815260200190815260200160002060040154975060d260008f815260200190815260200160002060020154965060d260008f815260200190815260200160002060010154955060cd60008f815260200190815260200160002060000160000154945060cd60008f815260200190815260200160002060010160000154935060cd60008f8152602001908152602001600020600201600001549250505091939597999b90929496989a50565b600082815260d260205260408120600701548390600160a01b900460ff16610f97576040805162461bcd60e51b81526020600482015260156024820152741cdd1c99585b48191bd95cc81b9bdd08195e1a5cdd605a1b604482015290519081900360640190fd5b610f9f615205565b50600084815260d2602090815260409182902082516101208101845281548152600182015492810192909252600281015492820192909252600382015460608201526004820154608082015260058201546001600160a01b0390811660a08301526006830154811660c083015260079092015491821660e0820152600160a01b90910460ff16151561010082015261103561526e565b6000611040876129b4565b9050611050818460200151613ad1565b602084018190528382600381111561106457fe5b600381111561106f57fe5b905250600090508251600381111561108357fe5b146110bf5760405162461bcd60e51b815260040180806020018281038252602381526020018061590d6023913960400191505060405180910390fd5b604083015183511115611164576110de83600001518460400151613b13565b60408401819052838260038111156110f257fe5b60038111156110fd57fe5b905250600090508251600381111561111157fe5b1461111857fe5b61112a82602001518360400151613b13565b602084018190528382600381111561113e57fe5b600381111561114957fe5b905250600090508251600381111561115d57fe5b1461116457fe5b8260a001516001600160a01b0316866001600160a01b0316141561119057506020015192506112109050565b8260c001516001600160a01b0316866001600160a01b03161415611208576111c083604001518360200151613b13565b60608401819052838260038111156111d457fe5b60038111156111df57fe5b90525060009050825160038111156111f357fe5b146111fa57fe5b506060015192506112109050565b600094505050505b5092915050565b611227611222613b36565b61130f565b6112625760405162461bcd60e51b81526004018080602001828103825260308152602001806155b76030913960400191505060405180910390fd5b60995460ff166112b9576040805162461bcd60e51b815260206004820152601460248201527f5061757361626c653a206e6f7420706175736564000000000000000000000000604482015290519081900360640190fd5b6099805460ff191690557f5db9ee0a495bf2e6ff9c91a7834c1ba4fdd244a5e8aa4e537bd38aeae4b073aa6112ec613b36565b604080516001600160a01b039092168252519081900360200190a1565b60d65481565b600061132260668363ffffffff613b3a16565b92915050565b60d36020908152600091825260409182902080546001808301546002808501805488516101009582161595909502600019011691909104601f81018790048702840187019097528683526001600160a01b03938416969390911694919290918301828280156113d85780601f106113ad576101008083540402835291602001916113d8565b820191906000526020600020905b8154815290600101906020018083116113bb57829003601f168201915b5050505050908060030154905084565b60995460ff165b90565b60008360d55481106114355760405162461bcd60e51b81526004018080602001828103825260228152602001806158a66022913960400191505060405180910390fd5b6040518060800160405280336001600160a01b03168152602001876001600160a01b0316815260200185858080601f0160208091040260200160405190810160405280939291908181526020018383808284376000920182905250938552505050602091820188905260d654815260d38252604090819020835181546001600160a01b039182166001600160a01b03199182161783558585015160018401805491909316911617905590830151805191926114f892600285019290910190615297565b506060919091015160039091015560d6805460018101909155604051339082907f7f35571f7051df9198c8ad659e2617eeace2c702b2bf1c6bb53b21d1c644462d90600090a39695505050505050565b609a805460010190819055600082815260d260205260408120600701549091908390600160a01b900460ff166115bd576040805162461bcd60e51b81526020600482015260156024820152741cdd1c99585b48191bd95cc81b9bdd08195e1a5cdd605a1b604482015290519081900360640190fd5b600084815260d2602052604090206006015484906001600160a01b03163314806116005750600081815260d260205260409020600501546001600160a01b031633145b61163b5760405162461bcd60e51b81526004018080602001828103825260378152602001806159306037913960400191505060405180910390fd5b600085815260cd602052604090206003015460ff166116625761165d85613b6f565b61166b565b61166b85613ecb565b600193505050609a54811461167f57600080fd5b50919050565b60995460009060ff16156116d3576040805162461bcd60e51b815260206004820152601060248201526f14185d5cd8589b194e881c185d5cd95960821b604482015290519081900360640190fd5b609a805460010190819055600084815260d260205260409020600701548490600160a01b900460ff16611745576040805162461bcd60e51b81526020600482015260156024820152741cdd1c99585b48191bd95cc81b9bdd08195e1a5cdd605a1b604482015290519081900360640190fd5b600085815260d2602052604090206006015485906001600160a01b03163314806117885750600081815260d260205260409020600501546001600160a01b031633145b6117c35760405162461bcd60e51b81526004018080602001828103825260378152602001806159306037913960400191505060405180910390fd5b60008511611818576040805162461bcd60e51b815260206004820152600e60248201527f616d6f756e74206973207a65726f000000000000000000000000000000000000604482015290519081900360640190fd5b611820615205565b50600086815260d26020908152604080832081516101208101835281548152600182015493810193909352600281015491830191909152600381015460608301526004810154608083015260058101546001600160a01b0390811660a084018190526006830154821660c085015260079092015490811660e0840152600160a01b900460ff1615156101008301529091906118bc908990610f30565b9050868110156118fd5760405162461bcd60e51b81526004018080602001828103825260248152602001806156366024913960400191505060405180910390fd5b600088815260cd602052604090206003015460ff166119255761192088886144e9565b61192f565b61192f8888614791565b6001955050505050609a54811461121057600080fd5b600054610100900460ff168061195e575061195e614d86565b8061196c575060005460ff16155b6119a75760405162461bcd60e51b815260040180806020018281038252602e815260200180615878602e913960400191505060405180910390fd5b600054610100900460ff161580156119d2576000805460ff1961ff0019909116610100171660011790555b6001609a5580156119e9576000805461ff00191690555b50565b60995460009060ff1615611a3a576040805162461bcd60e51b815260206004820152601060248201526f14185d5cd8589b194e881c185d5cd95960821b604482015290519081900360640190fd5b60ce5460408051632f52e59560e01b81526001600160a01b03898116600483015291519190921691632f52e595916024808301926020929190829003018186803b158015611a8757600080fd5b505afa158015611a9b573d6000803e3d6000fd5b505050506040513d6020811015611ab157600080fd5b5051611b04576040805162461bcd60e51b815260206004820152601960248201527f63546f6b656e206973206e6f742077686974656c697374656400000000000000604482015290519081900360640190fd5b611b0c615315565b611b168484614d8c565b6020830181905282826003811115611b2a57fe5b6003811115611b3557fe5b9052506000905081516003811115611b4957fe5b14611b9b576040805162461bcd60e51b815260206004820152601b60248201527f73686172652073756d2063616c63756c6174696f6e206572726f720000000000604482015290519081900360640190fd5b8060200151606414611bf4576040805162461bcd60e51b815260206004820152601b60248201527f73686172657320646f206e6f742073756d20757020746f203130300000000000604482015290519081900360640190fd5b6000611c038a8a8a8a8a612f4e565b9050611c1685662386f26fc10000613ad1565b6060840181905283826003811115611c2a57fe5b6003811115611c3557fe5b9052506000905082516003811115611c4957fe5b14611c5057fe5b611c6184662386f26fc10000613ad1565b6080840181905283826003811115611c7557fe5b6003811115611c8057fe5b9052506000905082516003811115611c9457fe5b14611c9b57fe5b6000886001600160a01b031663bd6d894d6040518163ffffffff1660e01b8152600401602060405180830381600087803b158015611cd857600080fd5b505af1158015611cec573d6000803e3d6000fd5b505050506040513d6020811015611d0257600080fd5b50516040805160a08101825260808082018481528252825160208082018552606089810151835281850192835285518083018752938a01518452848601938452600181860181815260008b815260cd8552889020965151875593515190860155925151600285015590516003909301805460ff19169315159390931790925582518481529182018a9052818301899052915192935084927fa9bbfc8562a8e1e6b889a428f128c90ed60c6204c37e4fb4354a202b4db59204929181900390910190a2509998505050505050505050565b611ddd611222613b36565b611e185760405162461bcd60e51b81526004018080602001828103825260308152602001806155b76030913960400191505060405180910390fd5b6119e981614db2565b611e2c611222613b36565b611e675760405162461bcd60e51b81526004018080602001828103825260308152602001806155b76030913960400191505060405180910390fd5b60995460ff1615611eb2576040805162461bcd60e51b815260206004820152601060248201526f14185d5cd8589b194e881c185d5cd95960821b604482015290519081900360640190fd5b6099805460ff191660011790557f62e78cea01bee320cd4e420270b5ea74000d11b0c9f74754ebdbfc544b05a2586112ec613b36565b611ef1826139f8565b611f42576040805162461bcd60e51b815260206004820152601460248201527f496e76616c696420537562736372697074696f6e000000000000000000000000604482015290519081900360640190fd5b611f4c8282611685565b50604080518281529051839133917fe1dfd962377bb946dbd031678f49ab5371851de0d2ad9821796041969ecc28759181900360200190a35050565b6000806000806000806000808860d2600082815260200190815260200160002060070160149054906101000a900460ff16612002576040805162461bcd60e51b81526020600482015260156024820152741cdd1c99585b48191bd95cc81b9bdd08195e1a5cdd605a1b604482015290519081900360640190fd5b5050506000968752505060d26020525050604090922060068101546005820154825460078401546003850154600486015460028701546001909701546001600160a01b039687169a958716995093975091909416949092909190565b600082815260d26020526040812060070154819081908590600160a01b900460ff166120c9576040805162461bcd60e51b81526020600482015260156024820152741cdd1c99585b48191bd95cc81b9bdd08195e1a5cdd605a1b604482015290519081900360640190fd5b600086815260cd602052604090206003015460ff166120f157600093508392508291506127af565b6120f9615205565b50600086815260d2602090815260409182902082516101208101845281548152600182015492810192909252600281015492820192909252600382015460608201526004820154608082015260058201546001600160a01b0390811660a08301526006830154811660c083015260079092015491821660e0820152600160a01b90910460ff16151561010082015261218f615345565b50600087815260cd6020908152604091829020825160a08101845281546080820190815281528351808401855260018301548152818401528351928301845260028201548352928301919091526003015460ff16151560608201526121f261537f565b6121fa615408565b60405180602001604052808560e001516001600160a01b031663bd6d894d6040518163ffffffff1660e01b8152600401602060405180830381600087803b15801561224457600080fd5b505af1158015612258573d6000803e3d6000fd5b505050506040513d602081101561226e57600080fd5b505190528351518151919250106122935750600096508695508594506127af92505050565b6122a1818460000151614dfa565b60208401819052838260038111156122b557fe5b60038111156122c057fe5b90525060009050825160038111156122d457fe5b146122db57fe5b6122e982602001518a614e34565b60408401819052838260038111156122fd57fe5b600381111561230857fe5b905250600090508251600381111561231c57fe5b1461236e576040805162461bcd60e51b815260206004820152601a60248201527f696e7465726573742063616c63756c6174696f6e206572726f72000000000000604482015290519081900360640190fd5b60d054670de0b6b3a764000014156124205761238e826040015182614e9c565b6101208401819052838260038111156123a357fe5b60038111156123ae57fe5b90525060009050825160038111156123c257fe5b146123fe5760405162461bcd60e51b81526004018080602001828103825260218152602001806158ec6021913960400191505060405180910390fd5b60008061240f846101200151614ebf565b919950975095506127af9350505050565b60d05461244757604080516020810182526000815260c0840152820151606083015261251f565b60408083015181516020810190925260d054825261246491614ece565b60c084018190528382600381111561247857fe5b600381111561248357fe5b905250600090508251600381111561249757fe5b146124d35760405162461bcd60e51b81526004018080602001828103825260228152602001806157086022913960400191505060405180910390fd5b6124e582604001518360c00151614dfa565b60608401819052838260038111156124f957fe5b600381111561250457fe5b905250600090508251600381111561251857fe5b1461251f57fe5b61253182606001518460200151614ece565b608084018190528382600381111561254557fe5b600381111561255057fe5b905250600090508251600381111561256457fe5b146125a05760405162461bcd60e51b81526004018080602001828103825260218152602001806156c66021913960400191505060405180910390fd5b6125b282606001518360800151614dfa565b60a08401819052838260038111156125c657fe5b60038111156125d157fe5b90525060009050825160038111156125e557fe5b146125ec57fe5b6125fa826080015182614e9c565b60e084018190528382600381111561260e57fe5b600381111561261957fe5b905250600090508251600381111561262d57fe5b1461267f576040805162461bcd60e51b815260206004820181905260248201527f73656e64657220696e74657265737420636f6e76657273696f6e206572726f72604482015290519081900360640190fd5b61268d8260a0015182614e9c565b6101008401819052838260038111156126a257fe5b60038111156126ad57fe5b90525060009050825160038111156126c157fe5b146126fd5760405162461bcd60e51b81526004018080602001828103825260238152602001806157a36023913960400191505060405180910390fd5b61270b8260c0015182614e9c565b61012084018190528382600381111561272057fe5b600381111561272b57fe5b905250600090508251600381111561273f57fe5b1461277b5760405162461bcd60e51b81526004018080602001828103825260218152602001806158ec6021913960400191505060405180910390fd5b6127888260e00151614ebf565b612796836101000151614ebf565b6127a4846101200151614ebf565b975097509750505050505b509250925092565b6033546001600160a01b031690565b6033546000906001600160a01b03166127dd613b36565b6001600160a01b031614905090565b6127f46127c6565b6127fd57600080fd5b6064811115612853576040805162461bcd60e51b815260206004820152601f60248201527f6665652070657263656e7461676520686967686572207468616e203130302500604482015290519081900360640190fd5b61285b61541b565b61286c82662386f26fc10000613ad1565b602083018190528282600381111561288057fe5b600381111561288b57fe5b905250600090508151600381111561289f57fe5b146128a657fe5b60408051602080820183528301519081905260d0555182907f38e229a7f3f9c329892d08eb37c4e91ccac6d12c798d394990ca4f56028ec26690600090a25050565b6001600160a01b038116600090815260d460209081526040808320338452600481019092529091205461291a816139f8565b6129555760405162461bcd60e51b815260040180806020018281038252602781526020018061574c6027913960400191505060405180910390fd5b61295e81611548565b5060405181906001600160a01b0385169033907f2a47f085432d570578d89b5af31bea93cab7ad5e04e171eb39a89307f88035d590600090a4505050565b600090815260cd602052604090206003015460ff1690565b600081815260d260205260408120600701548290600160a01b900460ff16612a1b576040805162461bcd60e51b81526020600482015260156024820152741cdd1c99585b48191bd95cc81b9bdd08195e1a5cdd605a1b604482015290519081900360640190fd5b612a23615205565b50600083815260d26020908152604091829020825161012081018452815481526001820154928101929092526002810154928201929092526003820154606082018190526004830154608083015260058301546001600160a01b0390811660a08401526006840154811660c084015260079093015492831660e0830152600160a01b90920460ff161515610100820152904211612ac457600092505061167f565b8060800151421015612add57606001514203915061167f565b6060810151608090910151039392505050565b612af86127c6565b612b0157600080fd5b609a80546001019081905560ce5460408051632f52e59560e01b81526001600160a01b03868116600483015291519190921691632f52e595916024808301926020929190829003018186803b158015612b5957600080fd5b505afa158015612b6d573d6000803e3d6000fd5b505050506040513d6020811015612b8357600080fd5b5051612bd6576040805162461bcd60e51b815260206004820152601960248201527f63546f6b656e206973206e6f742077686974656c697374656400000000000000604482015290519081900360640190fd5b60008211612c2b576040805162461bcd60e51b815260206004820152600e60248201527f616d6f756e74206973207a65726f000000000000000000000000000000000000604482015290519081900360640190fd5b6001600160a01b038316600090815260cf6020526040902054821115612c825760405162461bcd60e51b81526004018080602001828103825260248152602001806156366024913960400191505060405180910390fd5b612c8a615432565b6001600160a01b038416600090815260cf6020526040902054612cad9084613b13565b6001600160a01b038616600090815260cf6020526040902081905582826003811115612cd557fe5b6003811115612ce057fe5b9052506000905081516003811115612cf457fe5b14612cfb57fe5b60405183906001600160a01b038616907f13e8af02ad3e36f8d82fc8b86dcd67b7ed11f718f0e52fb245d2038eb71856ba90600090a3604080517fa9059cbb0000000000000000000000000000000000000000000000000000000081523360048201526024810185905290516001600160a01b0386169163a9059cbb9160448083019260209291908290030181600087803b158015612d9957600080fd5b505af1158015612dad573d6000803e3d6000fd5b505050506040513d6020811015612dc357600080fd5b5051612e16576040805162461bcd60e51b815260206004820152601660248201527f746f6b656e207472616e73666572206661696c75726500000000000000000000604482015290519081900360640190fd5b50609a548114612e2557600080fd5b505050565b600054610100900460ff1680612e435750612e43614d86565b80612e51575060005460ff16155b612e8c5760405162461bcd60e51b815260040180806020018281038252602e815260200180615878602e913960400191505060405180910390fd5b600054610100900460ff16158015612eb7576000805460ff1961ff0019909116610100171660011790555b612ec082614fb7565b6099805460ff191690558015612edc576000805461ff00191690555b5050565b6001600160a01b03808316600090815260d460209081526040808320938516835260048401909152812054909190612f17906139f8565b949350505050565b600082815260d3602090815260408083206001600160a01b038516845260040190915290205460ff1692915050565b60995460009060ff1615612f9c576040805162461bcd60e51b815260206004820152601060248201526f14185d5cd8589b194e881c185d5cd95960821b604482015290519081900360640190fd5b6001600160a01b038616612ff7576040805162461bcd60e51b815260206004820152601a60248201527f73747265616d20746f20746865207a65726f2061646472657373000000000000604482015290519081900360640190fd5b6001600160a01b038616301415613055576040805162461bcd60e51b815260206004820152601d60248201527f73747265616d20746f2074686520636f6e747261637420697473656c66000000604482015290519081900360640190fd5b6001600160a01b0386163314156130b3576040805162461bcd60e51b815260206004820152601460248201527f73747265616d20746f207468652063616c6c6572000000000000000000000000604482015290519081900360640190fd5b60008511613108576040805162461bcd60e51b815260206004820152600f60248201527f6465706f736974206973207a65726f0000000000000000000000000000000000604482015290519081900360640190fd5b428310156131475760405162461bcd60e51b81526004018080602001828103825260218152602001806156e76021913960400191505060405180910390fd5b82821161319b576040805162461bcd60e51b815260206004820152601f60248201527f73746f702074696d65206265666f7265207468652073746172742074696d6500604482015290519081900360640190fd5b6131a3615445565b6131ad8385613b13565b60208301819052828260038111156131c157fe5b60038111156131cc57fe5b90525060009050815160038111156131e057fe5b146131e757fe5b8060200151861015613240576040805162461bcd60e51b815260206004820152601f60248201527f6465706f73697420736d616c6c6572207468616e2074696d652064656c746100604482015290519081900360640190fd5b8060200151868161324d57fe5b061561328a5760405162461bcd60e51b815260040180806020018281038252602281526020018061572a6022913960400191505060405180910390fd5b61329886826020015161506f565b60408301819052828260038111156132ac57fe5b60038111156132b757fe5b90525060009050815160038111156132cb57fe5b146132d257fe5b600060d154905060405180610120016040528088815260200183604001518152602001888152602001868152602001858152602001896001600160a01b03168152602001336001600160a01b03168152602001876001600160a01b031681526020016001151581525060d26000838152602001908152602001600020600082015181600001556020820151816001015560408201518160020155606082015181600301556080820151816004015560a08201518160050160006101000a8154816001600160a01b0302191690836001600160a01b0316021790555060c08201518160060160006101000a8154816001600160a01b0302191690836001600160a01b0316021790555060e08201518160070160006101000a8154816001600160a01b0302191690836001600160a01b031602179055506101008201518160070160146101000a81548160ff02191690831515021790555090505061343860d1546001614d8c565b60d18190558382600381111561344a57fe5b600381111561345557fe5b905250600090508251600381111561346957fe5b146134bb576040805162461bcd60e51b815260206004820181905260248201527f6e6578742073747265616d2069642063616c63756c6174696f6e206572726f72604482015290519081900360640190fd5b604080516323b872dd60e01b81523360048201523060248201526044810189905290516001600160a01b038816916323b872dd9160648083019260209291908290030181600087803b15801561351057600080fd5b505af1158015613524573d6000803e3d6000fd5b505050506040513d602081101561353a57600080fd5b505161358d576040805162461bcd60e51b815260206004820152601660248201527f746f6b656e207472616e73666572206661696c75726500000000000000000000604482015290519081900360640190fd5b604080518881526001600160a01b038881166020830152818301889052606082018790529151918a1691339184917f7b01d409597969366dc268d7f957a990d1ca3d3449baf8fb45db67351aecfe789181900360800190a4979650505050505050565b60ce546001600160a01b031681565b33600081815260d46020526040808220805460ff1916815590519092907fe1c5e39aadaecf1068767dfb608ef78d06d994219f115d07e737cc2ef7b521d1908390a350565b6201518083116136855760405162461bcd60e51b815260040180806020018281038252602f815260200180615849602f913960400191505060405180910390fd5b620151808306156136c75760405162461bcd60e51b815260040180806020018281038252602881526020018061560e6028913960400191505060405180910390fd5b60018210156137075760405162461bcd60e51b81526004018080602001828103825260238152602001806159b66023913960400191505060405180910390fd5b33600081815260d460205260408082208054600160ff1990911681178255808201879055600282018890556003820180546001600160a01b0319166001600160a01b0388161790559151909391927fe1c5e39aadaecf1068767dfb608ef78d06d994219f115d07e737cc2ef7b521d191a350505050565b600081815260d36020526040812080548391906001600160a01b03163314156137ee576040805162461bcd60e51b815260206004820181905260248201527f53656c6c65722063616e6e6f7420627579207468656972206f776e2066696c65604482015290519081900360640190fd5b33600090815260048201602052604090205460ff1615613855576040805162461bcd60e51b815260206004820152601b60248201527f42757965722063616e6e6f74206275792066696c6520616761696e0000000000604482015290519081900360640190fd5b600084815260d36020526040902080546001600160a01b03163314156138c2576040805162461bcd60e51b815260206004820152601e60248201527f53656c6c65722063616e6e6f742062757920686973206f776e2066696c650000604482015290519081900360640190fd5b600181015481546003830154604080516323b872dd60e01b81523360048201526001600160a01b03938416602482015260448101929092525191909216916323b872dd9160648083019260209291908290030181600087803b15801561392757600080fd5b505af115801561393b573d6000803e3d6000fd5b505050506040513d602081101561395157600080fd5b5050336000818152600483016020526040808220805460ff191660011790555187917f7534e9c9396820aad756ba27f82162930f80bef863aabdf311e7dce26a79bccd91a3505050919050565b60d05481565b60d460205260009081526040902080546001820154600283015460039093015460ff9092169290916001600160a01b031684565b60d55481565b6139e66127c6565b6139ef57600080fd5b6119e98161509a565b600090815260d26020526040902060070154600160a01b900460ff1690565b600082613a2657506000611322565b82820282848281613a3357fe5b0414613a705760405162461bcd60e51b81526004018080602001828103825260218152602001806158286021913960400191505060405180910390fd5b9392505050565b600082820183811015613a70576040805162461bcd60e51b815260206004820152601b60248201527f536166654d6174683a206164646974696f6e206f766572666c6f770000000000604482015290519081900360640190fd5b60008083613ae457506000905080613b0c565b83830283858281613af157fe5b0414613b0557506002915060009050613b0c565b6000925090505b9250929050565b600080838311613b2a575060009050818303613b0c565b50600390506000613b0c565b3390565b60006001600160a01b038216613b4f57600080fd5b506001600160a01b03166000908152602091909152604090205460ff1690565b613b77615205565b50600081815260d26020908152604080832081516101208101835281548152600182015493810193909352600281015491830191909152600381015460608301526004810154608083015260058101546001600160a01b0390811660a08401526006820154811660c0840181905260079092015490811660e0840152600160a01b900460ff161515610100830152909190613c13908490610f30565b90506000613c25848460a00151610f30565b600085815260d26020526040812081815560018101829055600281018290556003810182905560048101919091556005810180546001600160a01b03199081169091556006820180549091169055600701805474ffffffffffffffffffffffffffffffffffffffffff1916905560e08401519091508115613d8157806001600160a01b031663a9059cbb8560a00151846040518363ffffffff1660e01b815260040180836001600160a01b03166001600160a01b0316815260200182815260200192505050602060405180830381600087803b158015613d0457600080fd5b505af1158015613d18573d6000803e3d6000fd5b505050506040513d6020811015613d2e57600080fd5b5051613d81576040805162461bcd60e51b815260206004820181905260248201527f726563697069656e7420746f6b656e207472616e73666572206661696c757265604482015290519081900360640190fd5b8215613e6857806001600160a01b031663a9059cbb8560c00151856040518363ffffffff1660e01b815260040180836001600160a01b03166001600160a01b0316815260200182815260200192505050602060405180830381600087803b158015613deb57600080fd5b505af1158015613dff573d6000803e3d6000fd5b505050506040513d6020811015613e1557600080fd5b5051613e68576040805162461bcd60e51b815260206004820152601d60248201527f73656e64657220746f6b656e207472616e73666572206661696c757265000000604482015290519081900360640190fd5b8360a001516001600160a01b03168460c001516001600160a01b0316867fca3e6079b726e7728802a0537949e2d1c7762304fa641fb06eb56daf2ba8c6b98686604051808381526020018281526020019250505060405180910390a45050505050565b613ed3615205565b50600081815260d2602090815260409182902082516101208101845281548152600182015492810192909252600281015492820192909252600382015460608201526004820154608082015260058201546001600160a01b0390811660a08301526006830154811660c083015260079092015491821660e0820152600160a01b90910460ff161515610100820152613f6961526e565b6000613f79848460c00151610f30565b90506000613f8b858560a00151610f30565b90506000806000613f9c888561205e565b925092509250613fac8584614d8c565b6020880181905287826003811115613fc057fe5b6003811115613fcb57fe5b9052506000905086516003811115613fdf57fe5b1461401b5760405162461bcd60e51b81526004018080602001828103825260248152602001806158c86024913960400191505060405180910390fd5b6140258484613b13565b604088018190528782600381111561403957fe5b600381111561404457fe5b905250600090508651600381111561405857fe5b146140945760405162461bcd60e51b815260040180806020018281038252603b8152602001806157c6603b913960400191505060405180910390fd5b6140a2866040015182613b13565b60608801819052878260038111156140b657fe5b60038111156140c157fe5b90525060009050865160038111156140d557fe5b146141115760405162461bcd60e51b81526004018080602001828103825260278152602001806158016027913960400191505060405180910390fd5b60e08701516001600160a01b0316600090815260cf60205260409020546141389082614d8c565b60e08901516001600160a01b0316600090815260cf602052604090208190558782600381111561416457fe5b600381111561416f57fe5b905250600090508651600381111561418357fe5b146141bf5760405162461bcd60e51b81526004018080602001828103825260238152602001806155946023913960400191505060405180910390fd5b600088815260d260209081526040808320838155600180820185905560028083018690556003808401879055600484018790556005840180546001600160a01b031990811690915560068501805490911690556007909301805474ffffffffffffffffffffffffffffffffffffffffff1916905560cd855292852085815590810185905591820193909355909101805460ff1916905560e0880151908701511561434857806001600160a01b031663a9059cbb8960c0015189602001516040518363ffffffff1660e01b815260040180836001600160a01b03166001600160a01b0316815260200182815260200192505050602060405180830381600087803b1580156142cb57600080fd5b505af11580156142df573d6000803e3d6000fd5b505050506040513d60208110156142f557600080fd5b5051614348576040805162461bcd60e51b815260206004820152601d60248201527f73656e64657220746f6b656e207472616e73666572206661696c757265000000604482015290519081900360640190fd5b60608701511561443757806001600160a01b031663a9059cbb8960a0015189606001516040518363ffffffff1660e01b815260040180836001600160a01b03166001600160a01b0316815260200182815260200192505050602060405180830381600087803b1580156143ba57600080fd5b505af11580156143ce573d6000803e3d6000fd5b505050506040513d60208110156143e457600080fd5b5051614437576040805162461bcd60e51b815260206004820181905260248201527f726563697069656e7420746f6b656e207472616e73666572206661696c757265604482015290519081900360640190fd5b8760a001516001600160a01b03168860c001516001600160a01b03168a7fca3e6079b726e7728802a0537949e2d1c7762304fa641fb06eb56daf2ba8c6b98a602001518b60600151604051808381526020018281526020019250505060405180910390a4604080518581526020810185905280820184905290518a917f5a8a03e48302e0bd2e011a3a2b54d1f849c55497f462f404bf52dce4290456b5919081900360600190a2505050505050505050565b6144f1615205565b50600082815260d2602090815260409182902082516101208101845281548152600182015492810192909252600281015492820192909252600382015460608201526004820154608082015260058201546001600160a01b0390811660a08301526006830154811660c083015260079092015491821660e0820152600160a01b90910460ff161515610100820152614587615432565b614595826040015184613b13565b600086815260d260205260409020600201819055828260038111156145b657fe5b60038111156145c157fe5b90525060009050815160038111156145d557fe5b146145dc57fe5b600084815260d2602052604090206002015461466057600084815260d26020526040812081815560018101829055600281018290556003810182905560048101919091556005810180546001600160a01b03199081169091556006820180549091169055600701805474ffffffffffffffffffffffffffffffffffffffffff191690555b8160e001516001600160a01b031663a9059cbb8360a00151856040518363ffffffff1660e01b815260040180836001600160a01b03166001600160a01b0316815260200182815260200192505050602060405180830381600087803b1580156146c857600080fd5b505af11580156146dc573d6000803e3d6000fd5b505050506040513d60208110156146f257600080fd5b5051614745576040805162461bcd60e51b815260206004820152601660248201527f746f6b656e207472616e73666572206661696c75726500000000000000000000604482015290519081900360640190fd5b8160a001516001600160a01b0316847f36c3ab437e6a424ed25dc4bfdeb62706aa06558660fab2dab229d2555adaf89c856040518082815260200191505060405180910390a350505050565b614799615205565b50600082815260d2602090815260409182902082516101208101845281548152600182015492810192909252600281015492820192909252600382015460608201526004820154608082015260058201546001600160a01b0390811660a08301526006830154811660c083015260079092015491821660e0820152600160a01b90910460ff16151561010082015261482f615445565b600080600061483e878761205e565b92509250925061484e8684613b13565b602086018190528582600381111561486257fe5b600381111561486d57fe5b905250600090508451600381111561488157fe5b146148bd5760405162461bcd60e51b81526004018080602001828103825260308152602001806157736030913960400191505060405180910390fd5b6148cb846020015182613b13565b60408601819052858260038111156148df57fe5b60038111156148ea57fe5b90525060009050845160038111156148fe57fe5b1461493a5760405162461bcd60e51b81526004018080602001828103825260278152602001806155e76027913960400191505060405180910390fd5b614948856040015187613b13565b600089815260d2602052604090206002018190558582600381111561496957fe5b600381111561497457fe5b905250600090508451600381111561498857fe5b146149c45760405162461bcd60e51b81526004018080602001828103825260258152602001806156a16025913960400191505060405180910390fd5b600087815260d26020526040902060020154614a7057600087815260d260209081526040808320838155600180820185905560028083018690556003808401879055600484018790556005840180546001600160a01b031990811690915560068501805490911690556007909301805474ffffffffffffffffffffffffffffffffffffffffff1916905560cd9094529184208481559182018490559181019290925501805460ff191690555b60e08501516001600160a01b0316600090815260cf6020526040902054614a979082614d8c565b60e08701516001600160a01b0316600090815260cf6020526040902081905585826003811115614ac357fe5b6003811115614ace57fe5b9052506000905084516003811115614ae257fe5b14614b1e5760405162461bcd60e51b81526004018080602001828103825260238152602001806155946023913960400191505060405180910390fd5b60e08501518315614c0a57806001600160a01b031663a9059cbb8760c00151866040518363ffffffff1660e01b815260040180836001600160a01b03166001600160a01b0316815260200182815260200192505050602060405180830381600087803b158015614b8d57600080fd5b505af1158015614ba1573d6000803e3d6000fd5b505050506040513d6020811015614bb757600080fd5b5051614c0a576040805162461bcd60e51b815260206004820152601d60248201527f73656e64657220746f6b656e207472616e73666572206661696c757265000000604482015290519081900360640190fd5b806001600160a01b031663a9059cbb8760a0015187604001516040518363ffffffff1660e01b815260040180836001600160a01b03166001600160a01b0316815260200182815260200192505050602060405180830381600087803b158015614c7257600080fd5b505af1158015614c86573d6000803e3d6000fd5b505050506040513d6020811015614c9c57600080fd5b5051614cef576040805162461bcd60e51b815260206004820181905260248201527f726563697069656e7420746f6b656e207472616e73666572206661696c757265604482015290519081900360640190fd5b8560a001516001600160a01b0316887f36c3ab437e6a424ed25dc4bfdeb62706aa06558660fab2dab229d2555adaf89c87604001516040518082815260200191505060405180910390a36040805185815260208101859052808201849052905189917f5a8a03e48302e0bd2e011a3a2b54d1f849c55497f462f404bf52dce4290456b5919081900360600190a25050505050505050565b303b1590565b600080838301848110614da457600092509050613b0c565b506002915060009050613b0c565b614dc360668263ffffffff61510916565b6040516001600160a01b038216907f6719d08c1888103bea251a4ed56406bd0c3e69723c8a1686e017e7bbe159b6f890600090a250565b6000614e04615408565b600080614e1986600001518660000151613b13565b60408051602081019091529081529097909650945050505050565b6000614e3e615408565b600080614e4f866000015186613ad1565b90925090506000826003811115614e6257fe5b14614e8157506040805160208101909152600081529092509050613b0c565b60408051602081019091529081526000969095509350505050565b6000614ea6615408565b83518351614eb49190615155565b915091509250929050565b51670de0b6b3a7640000900490565b6000614ed8615408565b600080614eed86600001518660000151613ad1565b90925090506000826003811115614f0057fe5b14614f1f57506040805160208101909152600081529092509050613b0c565b600080614f346706f05b59d3b2000084614d8c565b90925090506000826003811115614f4757fe5b14614f6957506040805160208101909152600081529094509250613b0c915050565b600080614f7e83670de0b6b3a764000061506f565b90925090506000826003811115614f9157fe5b14614f9857fe5b604080516020810190915290815260009a909950975050505050505050565b600054610100900460ff1680614fd05750614fd0614d86565b80614fde575060005460ff16155b6150195760405162461bcd60e51b815260040180806020018281038252602e815260200180615878602e913960400191505060405180910390fd5b600054610100900460ff16158015615044576000805460ff1961ff0019909116610100171660011790555b61504d8261130f565b61505a5761505a82614db2565b8015612edc576000805461ff00191690555050565b600080826150835750600190506000613b0c565b600083858161508e57fe5b04915091509250929050565b6001600160a01b0381166150ad57600080fd5b6033546040516001600160a01b038084169216907f8be0079c531659141344cd1fd0a4f28419497f9722a3daafe3b4186f6b6457e090600090a3603380546001600160a01b0319166001600160a01b0392909216919091179055565b6001600160a01b03811661511c57600080fd5b6151268282613b3a565b1561513057600080fd5b6001600160a01b0316600090815260209190915260409020805460ff19166001179055565b600061515f615408565b60008061517486670de0b6b3a7640000613ad1565b9092509050600082600381111561518757fe5b146151a657506040805160208101909152600081529092509050613b0c565b6000806151b3838861506f565b909250905060008260038111156151c657fe5b146151e857506040805160208101909152600081529094509250613b0c915050565b604080516020810190915290815260009890975095505050505050565b604051806101200160405280600081526020016000815260200160008152602001600081526020016000815260200160006001600160a01b0316815260200160006001600160a01b0316815260200160006001600160a01b031681526020016000151581525090565b604080516080810190915280600081526020016000815260200160008152602001600081525090565b828054600181600116156101000203166002900490600052602060002090601f016020900481019282601f106152d857805160ff1916838001178555615305565b82800160010185558215615305579182015b828111156153055782518255916020019190600101906152ea565b50615311929150615467565b5090565b6040805160a081019091528060008152602001600081526020016000815260200160008152602001600081525090565b6040518060800160405280615358615408565b8152602001615365615408565b8152602001615372615408565b8152600060209091015290565b604080516101408101909152806000815260200161539b615408565b81526020016153a8615408565b81526020016153b5615408565b81526020016153c2615408565b81526020016153cf615408565b81526020016153dc615408565b81526020016153e9615408565b81526020016153f6615408565b8152602001615403615408565b905290565b6040518060200160405280600081525090565b604080518082019091526000808252602082015290565b6040805160208101909152806000615403565b6040805160608101909152806000815260200160008152602001600081525090565b6113ef91905b80821115615311576000815560010161546d565b600054610100900460ff168061549a575061549a614d86565b806154a8575060005460ff16155b6154e35760405162461bcd60e51b815260040180806020018281038252602e815260200180615878602e913960400191505060405180910390fd5b600054610100900460ff1615801561550e576000805460ff1961ff0019909116610100171660011790555b603380546001600160a01b0319166001600160a01b0384811691909117918290556040519116906000907f8be0079c531659141344cd1fd0a4f28419497f9722a3daafe3b4186f6b6457e0908290a38015612edc576000805461ff0019169055505056fe636f6d706f756e64696e672073747265616d20646f6573206e6f742065786973746561726e696e6773206164646974696f6e2063616c63756c6174696f6e206572726f72506175736572526f6c653a2063616c6c657220646f6573206e6f742068617665207468652050617573657220726f6c656e6574207769746864726177616c20616d6f756e742063616c63756c6174696f6e206572726f72616d6f756e742076616c7565206d75737420626520646976697369626c6520627920312064617973616d6f756e7420657863656564732074686520617661696c61626c652062616c616e636553656c6c657220686173206e6f7420656e61626c656420737562736372697074696f6e734e756d626572206f662064617973206973206c657373207468616e206d696e696d756d62616c616e6365207375627472616374696f6e2063616c63756c6174696f6e206572726f7273656e64657220696e7465726573742063616c63756c6174696f6e206572726f7273746172742074696d65206265666f726520626c6f636b2e74696d657374616d707361626c69657220696e7465726573742063616c63756c6174696f6e206572726f726465706f736974206e6f74206d756c7469706c65206f662074696d652064656c7461427579657220646f65736e277420686f6c6420612076616c696420737562736372697074696f6e616d6f756e7420776974686f75742073656e64657220696e7465726573742063616c63756c6174696f6e206572726f72726563697069656e7420696e74657265737420636f6e76657273696f6e206572726f72726563697069656e742062616c616e636520776974686f75742073656e64657220696e7465726573742063616c63756c6174696f6e206572726f726e657420726563697069656e742062616c616e63652063616c63756c6174696f6e206572726f72536166654d6174683a206d756c7469706c69636174696f6e206f766572666c6f77616d6f756e742076616c75652063616e6e6f74206265206c657373207468616e2076616c7565206f66203120646179436f6e747261637420696e7374616e63652068617320616c7265616479206265656e20696e697469616c697a65645072696365206d757374206265206c657373207468616e2070726963654c696d69746e65742073656e6465722062616c616e63652063616c63756c6174696f6e206572726f727361626c69657220696e74657265737420636f6e76657273696f6e206572726f72726563697069656e742062616c616e63652063616c63756c6174696f6e206572726f7263616c6c6572206973206e6f74207468652073656e646572206f722074686520726563697069656e74206f66207468652073747265616d427579657220616c726561647920686f6c6473206120737562736372697074696f6e20666f722073656c6c6572546f6b656e41646472657373206e6f7420656e61626c65642062792073656c6c65726d696e4475726174696f6e2073686f756c642062652061746c65617374203120646179a265627a7a72315820d582f186523f2cde779f15569ca76225a6e3f0b1c99adc7632497e708d85880364736f6c634300050b0032436f6e747261637420696e7374616e63652068617320616c7265616479206265656e20696e697469616c697a656463546f6b656e4d616e6167657220636f6e747261637420697320746865207a65726f2061646472657373",
  "source": "pragma solidity 0.5.11;\n\nimport \"@openzeppelin/contracts-ethereum-package/contracts/token/ERC20/IERC20.sol\";\nimport \"@openzeppelin/contracts/math/SafeMath.sol\";\n\nimport \"./sablier/Sablier.sol\";\n\ncontract StorageMarketPlace is Sablier {\n    using SafeMath for uint256;\n\n    event Buy(uint256 indexed fileId, address indexed buyer);\n    event Sell(uint256 indexed fileId, address indexed seller);\n    event SubscriptionInfoUpdated(\n        address indexed seller,\n        bool indexed isEnabled\n    );\n    event SubscriptionCreated(\n        address indexed buyer,\n        address indexed seller,\n        uint256 indexed streamId\n    );\n    event SubscriptionWithdrawal(\n        address indexed seller,\n        uint256 indexed streamId,\n        uint256 amount\n    );\n    event SubscriptionCancelled(\n        address indexed buyer,\n        address indexed seller,\n        uint256 indexed streamId\n    );\n\n    // Struct for recording File metadata\n    struct File {\n        address seller;\n        address paymentAsset;\n        string metadataHash; // unique metadataHash\n        uint256 price;\n        mapping(address => bool) buyers;\n    }\n\n    // Struct to record the subscription price for each user\n    struct SubscriptionInfo {\n        bool isEnabled;\n        uint256 minDurationInDays;\n        uint256 amountPerDay;\n        address tokenAddress;\n        mapping(address => uint256) streams;\n    }\n\n    // Tracking the files with file id\n    mapping(uint256 => File) public Files;\n\n    // Tracking the subscriptions amounts for a particular seller\n    mapping(address => SubscriptionInfo) public subscriptions;\n\n    uint256 public priceLimit;\n    uint256 public fileCount;\n\n    modifier isValidPrice(uint256 _price) {\n        require(_price < priceLimit, \"Price must be less than priceLimit\");\n        _;\n    }\n\n    modifier isValidBuy(uint256 _fileId) {\n        File storage file = Files[_fileId];\n        require(msg.sender != file.seller, \"Seller cannot buy their own file\");\n        require(\n            file.buyers[msg.sender] == false,\n            \"Buyer cannot buy file again\"\n        );\n        _;\n    }\n\n    constructor(uint256 _priceLimit) public Sablier(msg.sender) {\n        require(_priceLimit > 0, \"Price Limit cannot be 0\");\n        priceLimit = _priceLimit;\n    }\n\n    /**\n     * @dev Makes a file available for selling\n     * @param _paymentAsset - asset to be used for payment (currently DAI)\n     * @param _price - price of the Files\n     * @param _metadataHash - ipfs hash of the file metadata\n     */\n    function sell(\n        address _paymentAsset,\n        uint256 _price,\n        string calldata _metadataHash\n    ) external isValidPrice(_price) returns (uint256) {\n        Files[fileCount] = File(\n            msg.sender,\n            _paymentAsset,\n            _metadataHash,\n            _price\n        );\n        uint256 currentFile = fileCount;\n        fileCount++;\n        emit Sell(currentFile, msg.sender);\n        return currentFile;\n    }\n\n    /**\n     * @dev Payment Function through which user pays the payment for the particular file and get's provate access to the exclusive content\n     * @param _fileId - file Id of the particular File\n     */\n    function buy(uint256 _fileId) external isValidBuy(_fileId) returns (bool) {\n        File storage file = Files[_fileId];\n        require(msg.sender != file.seller, \"Seller cannot buy his own file\");\n        IERC20(file.paymentAsset).transferFrom(\n            msg.sender,\n            file.seller,\n            file.price\n        );\n        file.buyers[msg.sender] = true;\n        emit Buy(_fileId, msg.sender);\n    }\n\n    function updateSubscriptionInfo(\n        uint256 _amountPerDay,\n        uint256 _minDurationInDays,\n        address _tokenAddress\n    ) external {\n        require(\n            _amountPerDay > 1 days,\n            \"amount value cannot be less than value of 1 day\"\n        );\n        require(\n            _amountPerDay % 1 days == 0,\n            \"amount value must be divisible by 1 days\"\n        );\n        require(_minDurationInDays >= 1, \"minDuration should be atleast 1 day\");\n        SubscriptionInfo storage subscription = subscriptions[msg.sender];\n        subscription.isEnabled = true;\n        subscription.minDurationInDays = _minDurationInDays;\n        subscription.amountPerDay = _amountPerDay;\n        subscription.tokenAddress = _tokenAddress;\n        emit SubscriptionInfoUpdated(msg.sender, true);\n    }\n\n    function disableSubscriptionInfo() external {\n        SubscriptionInfo storage subscription = subscriptions[msg.sender];\n        subscription.isEnabled = false;\n        emit SubscriptionInfoUpdated(msg.sender, false);\n    }\n\n    /**\n     * @dev Creates a Subscription for future content for that particular seller during a specific duration\n     * @param _deposit - Subscription amount\n     * @param _token - payment asset address\n     * @param _numDays - number of days of subscription\n     * @param _seller - seller address whose subscription is being brought\n     */\n    function createSubscription(\n        uint256 _deposit,\n        address _token,\n        uint256 _numDays,\n        address _seller\n    ) external {\n        SubscriptionInfo storage subscription = subscriptions[_seller];\n        uint256 _oldStreamId = subscription.streams[msg.sender];\n        require(subscription.isEnabled, \"Seller has not enabled subscriptions\");\n        require(\n            !isValid(_oldStreamId),\n            \"Buyer already holds a subscription for seller\"\n        );\n        require(\n            _numDays >= subscription.minDurationInDays,\n            \"Number of days is less than minimum\"\n        );\n        require(\n            _token == subscription.tokenAddress,\n            \"TokenAddress not enabled by seller\"\n        );\n        require(\n            _deposit == _numDays.mul(subscription.amountPerDay),\n            \"Deposit amount incorrect\"\n        );\n        uint256 _startTime = block.timestamp;\n        uint256 _stopTime = _startTime.add(_numDays.mul(1 days));\n        uint256 _streamId = createStream(\n            _seller,\n            _deposit,\n            _token,\n            _startTime,\n            _stopTime\n        );\n        subscription.streams[msg.sender] = _streamId;\n        emit SubscriptionCreated(msg.sender, _seller, _streamId);\n    }\n\n    function withdrawFromSubscription(uint256 _streamId, uint256 _amount)\n        external\n    {\n        require(isValid(_streamId), \"Invalid Subscription\");\n        withdrawFromStream(_streamId, _amount);\n        emit SubscriptionWithdrawal(msg.sender, _streamId, _amount);\n    }\n\n    function cancelSubscription(address _seller) external {\n        SubscriptionInfo storage subscription = subscriptions[_seller];\n        uint256 _streamId = subscription.streams[msg.sender];\n        require(isValid(_streamId), \"Buyer doesn't hold a valid subscription\");\n        cancelStream(_streamId);\n        emit SubscriptionCancelled(msg.sender, _seller, _streamId);\n    }\n\n    function isBuyer(uint256 _fileId, address buyer)\n        public\n        view\n        returns (bool)\n    {\n        File storage file = Files[_fileId];\n        return file.buyers[buyer];\n    }\n\n    function isSubscriber(address _seller, address _buyer)\n        public\n        view\n        returns (bool)\n    {\n        SubscriptionInfo storage subscription = subscriptions[_seller];\n        return isValid(subscription.streams[_buyer]);\n    }\n}\n",
  "sourcePath": "/media/dhiraj/code/hackfs/shopfs/dapp/contracts/StorageMarket.sol",
  "compiler": {
    "name": "solc",
    "version": "0.5.11+commit.c082d0b4.Emscripten.clang"
  },
  "schemaVersion": "3.2.3",
  "updatedAt": "2020-08-02T11:29:33.859Z",
  "devdoc": {
    "methods": {
      "balanceOf(uint256,address)": {
        "details": "Throws if the id does not point to a valid stream.",
        "params": {
          "streamId": "The id of the stream for whom to query the balance.",
          "who": "The address for whom to query the balance."
        },
        "return": "The total funds allocated to `who` as uint256."
      },
      "buy(uint256)": {
        "details": "Payment Function through which user pays the payment for the particular file and get's provate access to the exclusive content",
        "params": {
          "_fileId": "- file Id of the particular File"
        }
      },
      "cancelStream(uint256)": {
        "details": "Throws if the id does not point to a valid stream. Throws if the caller is not the sender or the recipient of the stream. Throws if there is a token transfer failure.",
        "params": {
          "streamId": "The id of the stream to cancel."
        },
        "return": "bool true=success, otherwise false."
      },
      "createCompoundingStream(address,uint256,address,uint256,uint256,uint256,uint256)": {
        "details": "Inherits all security checks from `createStream`. Throws if the cToken is not whitelisted. Throws if the sender share percentage and the recipient share percentage do not sum up to 100. Throws if the the sender share mantissa calculation has a math error. Throws if the the recipient share mantissa calculation has a math error.",
        "params": {
          "deposit": "The amount of money to be streamed.",
          "recipient": "The address towards which the money is streamed.",
          "recipientSharePercentage": "The recipient's share of the interest, as a percentage.",
          "senderSharePercentage": "The sender's share of the interest, as a percentage.",
          "startTime": "The unix timestamp for when the stream starts.",
          "stopTime": "The unix timestamp for when the stream stops.",
          "tokenAddress": "The ERC20 token to use as streaming currency."
        },
        "return": "The uint256 id of the newly created compounding stream."
      },
      "createStream(address,uint256,address,uint256,uint256)": {
        "details": "Throws if paused. Throws if the recipient is the zero address, the contract itself or the caller. Throws if the deposit is 0. Throws if the start time is before `block.timestamp`. Throws if the stop time is before the start time. Throws if the duration calculation has a math error. Throws if the deposit is smaller than the duration. Throws if the deposit is not a multiple of the duration. Throws if the rate calculation has a math error. Throws if the next stream id calculation has a math error. Throws if the contract is not allowed to transfer enough tokens. Throws if there is a token transfer failure.",
        "params": {
          "deposit": "The amount of money to be streamed.",
          "recipient": "The address towards which the money is streamed.",
          "startTime": "The unix timestamp for when the stream starts.",
          "stopTime": "The unix timestamp for when the stream stops.",
          "tokenAddress": "The ERC20 token to use as streaming currency."
        },
        "return": "The uint256 id of the newly created stream."
      },
      "createSubscription(uint256,address,uint256,address)": {
        "details": "Creates a Subscription for future content for that particular seller during a specific duration",
        "params": {
          "_deposit": "- Subscription amount",
          "_numDays": "- number of days of subscription",
          "_seller": "- seller address whose subscription is being brought",
          "_token": "- payment asset address"
        }
      },
      "deltaOf(uint256)": {
        "details": "Throws if the id does not point to a valid stream.",
        "params": {
          "streamId": "The id of the stream for whom to query the delta."
        },
        "return": "The time delta in seconds."
      },
      "getCompoundingStream(uint256)": {
        "details": "Throws if the id does not point to a valid compounding stream.",
        "params": {
          "streamId": "The id of the compounding stream to query."
        },
        "return": "The compounding stream object."
      },
      "getEarnings(address)": {
        "params": {
          "tokenAddress": "The address of the token to get the earnings for."
        },
        "return": "The amount of interest as uint256."
      },
      "getStream(uint256)": {
        "details": "Throws if the id does not point to a valid stream.",
        "params": {
          "streamId": "The id of the stream to query."
        },
        "return": "The stream object."
      },
      "initialize(address)": {
        "details": "Initializes the contract in unpaused state. Assigns the Pauser role to the deployer."
      },
      "interestOf(uint256,uint256)": {
        "details": "Throws if there is a math error. We do not assert the calculations which involve the current exchange rate, because we can't know what value we'll get back from the cToken contract.",
        "return": "The interest accrued by the sender, the recipient and sablier, respectively, as uint256s."
      },
      "isCompoundingStream(uint256)": {
        "params": {
          "streamId": "The id of the compounding stream to check."
        },
        "return": "bool true=it is compounding stream, otherwise false."
      },
      "isOwner()": {
        "return": "true if `msg.sender` is the owner of the contract."
      },
      "owner()": {
        "return": "the address of the owner."
      },
      "pause()": {
        "details": "Called by a pauser to pause, triggers stopped state."
      },
      "paused()": {
        "details": "Returns true if the contract is paused, and false otherwise."
      },
      "sell(address,uint256,string)": {
        "details": "Makes a file available for selling",
        "params": {
          "_metadataHash": "- ipfs hash of the file metadata",
          "_paymentAsset": "- asset to be used for payment (currently DAI)",
          "_price": "- price of the Files"
        }
      },
      "takeEarnings(address,uint256)": {
        "details": "Throws if `amount` exceeds the available balance.",
        "params": {
          "amount": "The amount of tokens to withdraw.",
          "tokenAddress": "The address of the token to withdraw earnings for."
        }
      },
      "transferOwnership(address)": {
        "details": "Allows the current owner to transfer control of the contract to a newOwner.",
        "params": {
          "newOwner": "The address to transfer ownership to."
        }
      },
      "unpause()": {
        "details": "Called by a pauser to unpause, returns to normal state."
      },
      "updateFee(uint256)": {
        "details": "Throws if the caller is not the owner of the contract. Throws if `feePercentage` is not lower or equal to 100.",
        "params": {
          "feePercentage": "The new fee as a percentage."
        }
      },
      "withdrawFromStream(uint256,uint256)": {
        "details": "Throws if the id does not point to a valid stream. Throws if the caller is not the sender or the recipient of the stream. Throws if the amount exceeds the available balance. Throws if there is a token transfer failure.",
        "params": {
          "amount": "The amount of tokens to withdraw.",
          "streamId": "The id of the stream to withdraw tokens from."
        },
        "return": "bool true=success, otherwise false."
      }
    }
  },
  "userdoc": {
    "methods": {
      "balanceOf(uint256,address)": {
        "notice": "Returns the available funds for the given stream id and address."
      },
      "cancelStream(uint256)": {
        "notice": "Cancels the stream and transfers the tokens back on a pro rata basis."
      },
      "createCompoundingStream(address,uint256,address,uint256,uint256,uint256,uint256)": {
        "notice": "Creates a new compounding stream funded by `msg.sender` and paid towards `recipient`."
      },
      "createStream(address,uint256,address,uint256,uint256)": {
        "notice": "Creates a new stream funded by `msg.sender` and paid towards `recipient`."
      },
      "deltaOf(uint256)": {
        "notice": "Returns either the delta in seconds between `block.timestamp` and `startTime` or between `stopTime` and `startTime, whichever is smaller. If `block.timestamp` is before `startTime`, it returns 0."
      },
      "getCompoundingStream(uint256)": {
        "notice": "Returns the compounding stream object with all its properties."
      },
      "getEarnings(address)": {
        "notice": "Returns the amount of interest that has been accrued for the given token address."
      },
      "getStream(uint256)": {
        "notice": "Returns the compounding stream with all its properties."
      },
      "interestOf(uint256,uint256)": {
        "notice": "Computes the interest accrued by keeping the amount of tokens in the contract. Returns (0, 0, 0) if the stream is not a compounding stream."
      },
      "isCompoundingStream(uint256)": {
        "notice": "Checks if the given id points to a compounding stream."
      },
      "isValid(uint256)": {
        "notice": "* View Functions **"
      },
      "takeEarnings(address,uint256)": {
        "notice": "Withdraws the earnings for the given token address."
      },
      "updateFee(uint256)": {
        "notice": "Updates the Sablier fee."
      },
      "withdrawFromStream(uint256,uint256)": {
        "notice": "Withdraws from the contract to the recipient's account."
      }
    }
  }
}