{
  "contractName": "StorageMarketPlace",
  "abi": [
    {
      "inputs": [
        {
          "internalType": "uint256",
          "name": "_priceLimit",
          "type": "uint256"
        }
      ],
      "stateMutability": "nonpayable",
      "type": "constructor"
    },
    {
      "inputs": [
        {
          "internalType": "uint256",
          "name": "",
          "type": "uint256"
        }
      ],
      "name": "Files",
      "outputs": [
        {
          "internalType": "address",
          "name": "seller",
          "type": "address"
        },
        {
          "internalType": "address",
          "name": "paymentAsset",
          "type": "address"
        },
        {
          "internalType": "string",
          "name": "metadataHash",
          "type": "string"
        },
        {
          "internalType": "uint256",
          "name": "price",
          "type": "uint256"
        },
        {
          "internalType": "uint256",
          "name": "numRetriveals",
          "type": "uint256"
        }
      ],
      "stateMutability": "view",
      "type": "function",
      "constant": true
    },
    {
      "inputs": [
        {
          "internalType": "address",
          "name": "",
          "type": "address"
        },
        {
          "internalType": "uint256",
          "name": "",
          "type": "uint256"
        }
      ],
      "name": "buyerInfo",
      "outputs": [
        {
          "internalType": "uint256",
          "name": "",
          "type": "uint256"
        }
      ],
      "stateMutability": "view",
      "type": "function",
      "constant": true
    },
    {
      "inputs": [],
      "name": "fileCount",
      "outputs": [
        {
          "internalType": "uint256",
          "name": "",
          "type": "uint256"
        }
      ],
      "stateMutability": "view",
      "type": "function",
      "constant": true
    },
    {
      "inputs": [
        {
          "internalType": "string",
          "name": "",
          "type": "string"
        }
      ],
      "name": "hashExists",
      "outputs": [
        {
          "internalType": "bool",
          "name": "",
          "type": "bool"
        }
      ],
      "stateMutability": "view",
      "type": "function",
      "constant": true
    },
    {
      "inputs": [],
      "name": "priceLimit",
      "outputs": [
        {
          "internalType": "uint256",
          "name": "",
          "type": "uint256"
        }
      ],
      "stateMutability": "view",
      "type": "function",
      "constant": true
    },
    {
      "inputs": [
        {
          "internalType": "address",
          "name": "_paymentAsset",
          "type": "address"
        },
        {
          "internalType": "uint256",
          "name": "_price",
          "type": "uint256"
        },
        {
          "internalType": "string",
          "name": "_metadataHash",
          "type": "string"
        }
      ],
      "name": "sell",
      "outputs": [
        {
          "internalType": "bool",
          "name": "",
          "type": "bool"
        }
      ],
      "stateMutability": "nonpayable",
      "type": "function"
    },
    {
      "inputs": [
        {
          "internalType": "uint256",
          "name": "_id",
          "type": "uint256"
        }
      ],
      "name": "buy",
      "outputs": [
        {
          "internalType": "bool",
          "name": "",
          "type": "bool"
        }
      ],
      "stateMutability": "nonpayable",
      "type": "function"
    }
  ],
  "bytecode": "0x608060405234801561001057600080fd5b50604051610e22380380610e228339818101604052602081101561003357600080fd5b8101908080519060200190929190505050600081116100ba576040517f08c379a00000000000000000000000000000000000000000000000000000000081526004018080602001828103825260178152602001807f50726f6365204c696d69742063616e6e6f74206265203000000000000000000081525060200191505060405180910390fd5b8060038190555050610d51806100d16000396000f3fe608060405234801561001057600080fd5b506004361061007d5760003560e01c80636d97786e1161005b5780636d97786e1461021d5780639871e510146102d8578063d96a094a146103ab578063f0e1ba2c146103f15761007d565b8063439535191461008257806347d52ef2146100a057806357cb5019146101bb575b600080fd5b61008a61040f565b6040518082815260200191505060405180910390f35b6100cc600480360360208110156100b657600080fd5b8101908080359060200190929190505050610415565b604051808673ffffffffffffffffffffffffffffffffffffffff1673ffffffffffffffffffffffffffffffffffffffff1681526020018573ffffffffffffffffffffffffffffffffffffffff1673ffffffffffffffffffffffffffffffffffffffff16815260200180602001848152602001838152602001828103825285818151815260200191508051906020019080838360005b8381101561017c578082015181840152602081019050610161565b50505050905090810190601f1680156101a95780820380516001836020036101000a031916815260200191505b50965050505050505060405180910390f35b610207600480360360408110156101d157600080fd5b81019080803573ffffffffffffffffffffffffffffffffffffffff16906020019092919080359060200190929190505050610523565b6040518082815260200191505060405180910390f35b6102be6004803603606081101561023357600080fd5b81019080803573ffffffffffffffffffffffffffffffffffffffff169060200190929190803590602001909291908035906020019064010000000081111561027a57600080fd5b82018360208201111561028c57600080fd5b803590602001918460018302840111640100000000831117156102ae57600080fd5b9091929391929390505050610551565b604051808215151515815260200191505060405180910390f35b610391600480360360208110156102ee57600080fd5b810190808035906020019064010000000081111561030b57600080fd5b82018360208201111561031d57600080fd5b8035906020019184600183028401116401000000008311171561033f57600080fd5b91908080601f016020809104026020016040519081016040528093929190818152602001838380828437600081840152601f19601f8201169050808301925050505050505091929192905050506108a8565b604051808215151515815260200191505060405180910390f35b6103d7600480360360208110156103c157600080fd5b81019080803590602001909291905050506108de565b604051808215151515815260200191505060405180910390f35b6103f9610bf8565b6040518082815260200191505060405180910390f35b60045481565b60006020528060005260406000206000915090508060000160009054906101000a900473ffffffffffffffffffffffffffffffffffffffff16908060010160009054906101000a900473ffffffffffffffffffffffffffffffffffffffff1690806002018054600181600116156101000203166002900480601f01602080910402602001604051908101604052809291908181526020018280546001816001161561010002031660029004801561050d5780601f106104e25761010080835404028352916020019161050d565b820191906000526020600020905b8154815290600101906020018083116104f057829003601f168201915b5050505050908060030154908060040154905085565b6002602052816000526040600020818154811061053c57fe5b90600052602060002001600091509150505481565b600082828080601f016020809104026020016040519081016040528093929190818152602001838380828437600081840152601f19601f820116905080830192505050505050506001816040518082805190602001908083835b602083106105ce57805182526020820191506020810190506020830392506105ab565b6001836020036101000a038019825116818451168082178552505050505050905001915050908152602001604051809103902060009054906101000a900460ff1615610682576040517f08c379a000000000000000000000000000000000000000000000000000000000815260040180806020018281038252601b8152602001807f43616e6e6f742075706c6f6164206578697374696e672066696c65000000000081525060200191505060405180910390fd5b60035485106106dc576040517f08c379a000000000000000000000000000000000000000000000000000000000815260040180806020018281038252602b815260200180610cf1602b913960400191505060405180910390fd5b6040518060a001604052803373ffffffffffffffffffffffffffffffffffffffff1681526020018773ffffffffffffffffffffffffffffffffffffffff16815260200185858080601f016020809104026020016040519081016040528093929190818152602001838380828437600081840152601f19601f8201169050808301925050505050505081526020018681526020016000815250600080600454815260200190815260200160002060008201518160000160006101000a81548173ffffffffffffffffffffffffffffffffffffffff021916908373ffffffffffffffffffffffffffffffffffffffff16021790555060208201518160010160006101000a81548173ffffffffffffffffffffffffffffffffffffffff021916908373ffffffffffffffffffffffffffffffffffffffff1602179055506040820151816002019080519060200190610832929190610bfe565b5060608201518160030155608082015181600401559050506001808585604051808383808284378083019250505092505050908152602001604051809103902060006101000a81548160ff0219169083151502179055506004600081548092919060010191905055506001915050949350505050565b6001818051602081018201805184825260208301602085012081835280955050505050506000915054906101000a900460ff1681565b60008060008084815260200190815260200160002090508060000160009054906101000a900473ffffffffffffffffffffffffffffffffffffffff1673ffffffffffffffffffffffffffffffffffffffff163373ffffffffffffffffffffffffffffffffffffffff1614156109bb576040517f08c379a000000000000000000000000000000000000000000000000000000000815260040180806020018281038252601e8152602001807f53656c6c65722063616e6e6f742062757920686973206f776e2066696c65000081525060200191505060405180910390fd5b8060010160009054906101000a900473ffffffffffffffffffffffffffffffffffffffff1673ffffffffffffffffffffffffffffffffffffffff166323b872dd338360000160009054906101000a900473ffffffffffffffffffffffffffffffffffffffff1684600301546040518463ffffffff1660e01b8152600401808473ffffffffffffffffffffffffffffffffffffffff1673ffffffffffffffffffffffffffffffffffffffff1681526020018373ffffffffffffffffffffffffffffffffffffffff1673ffffffffffffffffffffffffffffffffffffffff1681526020018281526020019350505050602060405180830381600087803b158015610ac257600080fd5b505af1158015610ad6573d6000803e3d6000fd5b505050506040513d6020811015610aec57600080fd5b81019080805190602001909291905050505080600401600081548092919060010191905055506000600260003373ffffffffffffffffffffffffffffffffffffffff1673ffffffffffffffffffffffffffffffffffffffff1681526020019081526020016000209050600081805490501115610b8f5780849080600181540180825580915050600190039060005260206000200160009091909190915055610bed565b604051806020016040528085815250600260003373ffffffffffffffffffffffffffffffffffffffff1673ffffffffffffffffffffffffffffffffffffffff168152602001908152602001600020906001610beb929190610c7e565b505b600192505050919050565b60035481565b828054600181600116156101000203166002900490600052602060002090601f016020900481019282601f10610c3f57805160ff1916838001178555610c6d565b82800160010185558215610c6d579182015b82811115610c6c578251825591602001919060010190610c51565b5b509050610c7a9190610ccb565b5090565b828054828255906000526020600020908101928215610cba579160200282015b82811115610cb9578251825591602001919060010190610c9e565b5b509050610cc79190610ccb565b5090565b610ced91905b80821115610ce9576000816000905550600101610cd1565b5090565b9056fe50726963652068617320746f206265206c657373207468616e206120736574207072696365206c696d6974a264697066735822122099eca8789580359f673325d177d75b7ed7359b3dd827aa7bb8071d1a3dc43a7264736f6c63430006000033",
  "source": "pragma solidity ^0.6.0;\n\n\n/**\n * @title ERC20 interface\n * @dev see https://eips.ethereum.org/EIPS/eip-20\n */\ninterface IERC20 {\n    function transfer(address to, uint256 value) external returns (bool);\n\n    function approve(address spender, uint256 value) external returns (bool);\n\n    function transferFrom(address from, address to, uint256 value) external returns (bool);\n\n    function totalSupply() external view returns (uint256);\n\n    function balanceOf(address who) external view returns (uint256);\n\n    function allowance(address owner, address spender) external view returns (uint256);\n\n    event Transfer(address indexed from, address indexed to, uint256 value);\n\n    event Approval(address indexed owner, address indexed spender, uint256 value);\n}\n\ncontract StorageMarketPlace {\n   \n    modifier isUploaded(string memory _hash) {\n        require(!hashExists[_hash], \"Cannot upload existing file\");\n        _;\n    }\n   \n\n    struct File {\n        address seller;\n        address paymentAsset;\n        string metadataHash; // unique metadataHash\n        uint price;\n        uint numRetriveals;\n    }\n    \n    mapping(uint => File) public Files;\n    mapping(string => bool) public hashExists;\n\n    // for tracking buyer and the files he brought\n    mapping(address => uint[]) public buyerInfo;\n\n    uint public priceLimit;\n    uint public fileCount;\n\n\n    constructor(uint _priceLimit) public {\n        require(_priceLimit > 0, \"Proce Limit cannot be 0\");\n        priceLimit = _priceLimit;\n    }\n   \n    function sell(address _paymentAsset, uint _price, string calldata _metadataHash) isUploaded(_metadataHash) external returns(bool) {\n        require(_price < priceLimit, \"Price has to be less than a set price limit\");\n        Files[fileCount] = File(msg.sender, _paymentAsset, _metadataHash, _price, 0);\n        hashExists[_metadataHash] = true;\n        fileCount ++;\n        return true;\n    }\n   \n    function buy(uint _id) external returns(bool) {\n        File storage file = Files[_id];\n        require(msg.sender != file.seller, \"Seller cannot buy his own file\");\n        IERC20(file.paymentAsset).transferFrom(msg.sender, file.seller, file.price);\n        file.numRetriveals ++;\n        uint[] storage buyerIds = buyerInfo[msg.sender];\n        // checking if the particular buyer exists or not\n        if (buyerIds.length > 0) {\n            buyerIds.push(_id);\n        } else {\n            // Initializing the the mapping with first id if buyer is buying 1st time\n            buyerInfo[msg.sender] = [_id];\n        }\n        return true;\n    }\n   \n   \n}\n",
  "sourcePath": "/media/dhiraj/code/hackfs/shopfs/IPFS-ETH-MarketPlace/contracts/StorageMarket.sol",
  "compiler": {
    "name": "solc",
    "version": "0.6.0+commit.26b70077.Emscripten.clang"
  },
  "schemaVersion": "3.2.2",
  "updatedAt": "2020-07-20T17:23:44.122Z",
  "networkType": "ethereum",
  "devdoc": {
    "methods": {}
  },
  "userdoc": {
    "methods": {}
  }
}