{
  "contractName": "StorageMarketPlace",
  "abi": [
    {
      "constant": true,
      "inputs": [
        {
          "internalType": "address",
          "name": "tokenAddress",
          "type": "address"
        }
      ],
      "name": "getEarnings",
      "outputs": [
        {
          "internalType": "uint256",
          "name": "",
          "type": "uint256"
        }
      ],
      "payable": false,
      "stateMutability": "view",
      "type": "function"
    },
    {
      "constant": true,
      "inputs": [],
      "name": "nextStreamId",
      "outputs": [
        {
          "internalType": "uint256",
          "name": "",
          "type": "uint256"
        }
      ],
      "payable": false,
      "stateMutability": "view",
      "type": "function"
    },
    {
      "constant": true,
      "inputs": [
        {
          "internalType": "uint256",
          "name": "streamId",
          "type": "uint256"
        }
      ],
      "name": "getCompoundingStream",
      "outputs": [
        {
          "internalType": "address",
          "name": "sender",
          "type": "address"
        },
        {
          "internalType": "address",
          "name": "recipient",
          "type": "address"
        },
        {
          "internalType": "uint256",
          "name": "deposit",
          "type": "uint256"
        },
        {
          "internalType": "address",
          "name": "tokenAddress",
          "type": "address"
        },
        {
          "internalType": "uint256",
          "name": "startTime",
          "type": "uint256"
        },
        {
          "internalType": "uint256",
          "name": "stopTime",
          "type": "uint256"
        },
        {
          "internalType": "uint256",
          "name": "remainingBalance",
          "type": "uint256"
        },
        {
          "internalType": "uint256",
          "name": "ratePerSecond",
          "type": "uint256"
        },
        {
          "internalType": "uint256",
          "name": "exchangeRateInitial",
          "type": "uint256"
        },
        {
          "internalType": "uint256",
          "name": "senderSharePercentage",
          "type": "uint256"
        },
        {
          "internalType": "uint256",
          "name": "recipientSharePercentage",
          "type": "uint256"
        }
      ],
      "payable": false,
      "stateMutability": "view",
      "type": "function"
    },
    {
      "constant": true,
      "inputs": [
        {
          "internalType": "uint256",
          "name": "streamId",
          "type": "uint256"
        },
        {
          "internalType": "address",
          "name": "who",
          "type": "address"
        }
      ],
      "name": "balanceOf",
      "outputs": [
        {
          "internalType": "uint256",
          "name": "balance",
          "type": "uint256"
        }
      ],
      "payable": false,
      "stateMutability": "view",
      "type": "function"
    },
    {
      "constant": false,
      "inputs": [],
      "name": "unpause",
      "outputs": [],
      "payable": false,
      "stateMutability": "nonpayable",
      "type": "function"
    },
    {
      "constant": true,
      "inputs": [],
      "name": "fileCount",
      "outputs": [
        {
          "internalType": "uint256",
          "name": "",
          "type": "uint256"
        }
      ],
      "payable": false,
      "stateMutability": "view",
      "type": "function"
    },
    {
      "constant": true,
      "inputs": [
        {
          "internalType": "address",
          "name": "account",
          "type": "address"
        }
      ],
      "name": "isPauser",
      "outputs": [
        {
          "internalType": "bool",
          "name": "",
          "type": "bool"
        }
      ],
      "payable": false,
      "stateMutability": "view",
      "type": "function"
    },
    {
      "constant": true,
      "inputs": [
        {
          "internalType": "uint256",
          "name": "",
          "type": "uint256"
        }
      ],
      "name": "Files",
      "outputs": [
        {
          "internalType": "address",
          "name": "seller",
          "type": "address"
        },
        {
          "internalType": "address",
          "name": "paymentAsset",
          "type": "address"
        },
        {
          "internalType": "string",
          "name": "metadataHash",
          "type": "string"
        },
        {
          "internalType": "uint256",
          "name": "price",
          "type": "uint256"
        }
      ],
      "payable": false,
      "stateMutability": "view",
      "type": "function"
    },
    {
      "constant": true,
      "inputs": [],
      "name": "paused",
      "outputs": [
        {
          "internalType": "bool",
          "name": "",
          "type": "bool"
        }
      ],
      "payable": false,
      "stateMutability": "view",
      "type": "function"
    },
    {
      "constant": false,
      "inputs": [
        {
          "internalType": "uint256",
          "name": "streamId",
          "type": "uint256"
        }
      ],
      "name": "cancelStream",
      "outputs": [
        {
          "internalType": "bool",
          "name": "",
          "type": "bool"
        }
      ],
      "payable": false,
      "stateMutability": "nonpayable",
      "type": "function"
    },
    {
      "constant": false,
      "inputs": [
        {
          "internalType": "uint256",
          "name": "streamId",
          "type": "uint256"
        },
        {
          "internalType": "uint256",
          "name": "amount",
          "type": "uint256"
        }
      ],
      "name": "withdrawFromStream",
      "outputs": [
        {
          "internalType": "bool",
          "name": "",
          "type": "bool"
        }
      ],
      "payable": false,
      "stateMutability": "nonpayable",
      "type": "function"
    },
    {
      "constant": false,
      "inputs": [],
      "name": "initialize",
      "outputs": [],
      "payable": false,
      "stateMutability": "nonpayable",
      "type": "function"
    },
    {
      "constant": false,
      "inputs": [
        {
          "internalType": "address",
          "name": "recipient",
          "type": "address"
        },
        {
          "internalType": "uint256",
          "name": "deposit",
          "type": "uint256"
        },
        {
          "internalType": "address",
          "name": "tokenAddress",
          "type": "address"
        },
        {
          "internalType": "uint256",
          "name": "startTime",
          "type": "uint256"
        },
        {
          "internalType": "uint256",
          "name": "stopTime",
          "type": "uint256"
        },
        {
          "internalType": "uint256",
          "name": "senderSharePercentage",
          "type": "uint256"
        },
        {
          "internalType": "uint256",
          "name": "recipientSharePercentage",
          "type": "uint256"
        }
      ],
      "name": "createCompoundingStream",
      "outputs": [
        {
          "internalType": "uint256",
          "name": "",
          "type": "uint256"
        }
      ],
      "payable": false,
      "stateMutability": "nonpayable",
      "type": "function"
    },
    {
      "constant": false,
      "inputs": [
        {
          "internalType": "address",
          "name": "account",
          "type": "address"
        }
      ],
      "name": "addPauser",
      "outputs": [],
      "payable": false,
      "stateMutability": "nonpayable",
      "type": "function"
    },
    {
      "constant": false,
      "inputs": [],
      "name": "pause",
      "outputs": [],
      "payable": false,
      "stateMutability": "nonpayable",
      "type": "function"
    },
    {
      "constant": true,
      "inputs": [
        {
          "internalType": "uint256",
          "name": "streamId",
          "type": "uint256"
        }
      ],
      "name": "getStream",
      "outputs": [
        {
          "internalType": "address",
          "name": "sender",
          "type": "address"
        },
        {
          "internalType": "address",
          "name": "recipient",
          "type": "address"
        },
        {
          "internalType": "uint256",
          "name": "deposit",
          "type": "uint256"
        },
        {
          "internalType": "address",
          "name": "tokenAddress",
          "type": "address"
        },
        {
          "internalType": "uint256",
          "name": "startTime",
          "type": "uint256"
        },
        {
          "internalType": "uint256",
          "name": "stopTime",
          "type": "uint256"
        },
        {
          "internalType": "uint256",
          "name": "remainingBalance",
          "type": "uint256"
        },
        {
          "internalType": "uint256",
          "name": "ratePerSecond",
          "type": "uint256"
        }
      ],
      "payable": false,
      "stateMutability": "view",
      "type": "function"
    },
    {
      "constant": false,
      "inputs": [
        {
          "internalType": "uint256",
          "name": "streamId",
          "type": "uint256"
        },
        {
          "internalType": "uint256",
          "name": "amount",
          "type": "uint256"
        }
      ],
      "name": "interestOf",
      "outputs": [
        {
          "internalType": "uint256",
          "name": "senderInterest",
          "type": "uint256"
        },
        {
          "internalType": "uint256",
          "name": "recipientInterest",
          "type": "uint256"
        },
        {
          "internalType": "uint256",
          "name": "sablierInterest",
          "type": "uint256"
        }
      ],
      "payable": false,
      "stateMutability": "nonpayable",
      "type": "function"
    },
    {
      "constant": true,
      "inputs": [],
      "name": "owner",
      "outputs": [
        {
          "internalType": "address",
          "name": "",
          "type": "address"
        }
      ],
      "payable": false,
      "stateMutability": "view",
      "type": "function"
    },
    {
      "constant": true,
      "inputs": [],
      "name": "isOwner",
      "outputs": [
        {
          "internalType": "bool",
          "name": "",
          "type": "bool"
        }
      ],
      "payable": false,
      "stateMutability": "view",
      "type": "function"
    },
    {
      "constant": false,
      "inputs": [
        {
          "internalType": "uint256",
          "name": "feePercentage",
          "type": "uint256"
        }
      ],
      "name": "updateFee",
      "outputs": [],
      "payable": false,
      "stateMutability": "nonpayable",
      "type": "function"
    },
    {
      "constant": true,
      "inputs": [
        {
          "internalType": "uint256",
          "name": "streamId",
          "type": "uint256"
        }
      ],
      "name": "isCompoundingStream",
      "outputs": [
        {
          "internalType": "bool",
          "name": "",
          "type": "bool"
        }
      ],
      "payable": false,
      "stateMutability": "view",
      "type": "function"
    },
    {
      "constant": true,
      "inputs": [
        {
          "internalType": "uint256",
          "name": "streamId",
          "type": "uint256"
        }
      ],
      "name": "deltaOf",
      "outputs": [
        {
          "internalType": "uint256",
          "name": "delta",
          "type": "uint256"
        }
      ],
      "payable": false,
      "stateMutability": "view",
      "type": "function"
    },
    {
      "constant": false,
      "inputs": [
        {
          "internalType": "address",
          "name": "tokenAddress",
          "type": "address"
        },
        {
          "internalType": "uint256",
          "name": "amount",
          "type": "uint256"
        }
      ],
      "name": "takeEarnings",
      "outputs": [],
      "payable": false,
      "stateMutability": "nonpayable",
      "type": "function"
    },
    {
      "constant": false,
      "inputs": [
        {
          "internalType": "address",
          "name": "sender",
          "type": "address"
        }
      ],
      "name": "initialize",
      "outputs": [],
      "payable": false,
      "stateMutability": "nonpayable",
      "type": "function"
    },
    {
      "constant": false,
      "inputs": [
        {
          "internalType": "address",
          "name": "recipient",
          "type": "address"
        },
        {
          "internalType": "uint256",
          "name": "deposit",
          "type": "uint256"
        },
        {
          "internalType": "address",
          "name": "tokenAddress",
          "type": "address"
        },
        {
          "internalType": "uint256",
          "name": "startTime",
          "type": "uint256"
        },
        {
          "internalType": "uint256",
          "name": "stopTime",
          "type": "uint256"
        }
      ],
      "name": "createStream",
      "outputs": [
        {
          "internalType": "uint256",
          "name": "",
          "type": "uint256"
        }
      ],
      "payable": false,
      "stateMutability": "nonpayable",
      "type": "function"
    },
    {
      "constant": true,
      "inputs": [],
      "name": "cTokenManager",
      "outputs": [
        {
          "internalType": "contract ICTokenManager",
          "name": "",
          "type": "address"
        }
      ],
      "payable": false,
      "stateMutability": "view",
      "type": "function"
    },
    {
      "constant": true,
      "inputs": [],
      "name": "fee",
      "outputs": [
        {
          "internalType": "uint256",
          "name": "mantissa",
          "type": "uint256"
        }
      ],
      "payable": false,
      "stateMutability": "view",
      "type": "function"
    },
    {
      "constant": true,
      "inputs": [
        {
          "internalType": "address",
          "name": "",
          "type": "address"
        }
      ],
      "name": "subscriptions",
      "outputs": [
        {
          "internalType": "bool",
          "name": "isEnabled",
          "type": "bool"
        },
        {
          "internalType": "uint256",
          "name": "minDurationInDays",
          "type": "uint256"
        },
        {
          "internalType": "uint256",
          "name": "amountPerDay",
          "type": "uint256"
        },
        {
          "internalType": "address",
          "name": "tokenAddress",
          "type": "address"
        }
      ],
      "payable": false,
      "stateMutability": "view",
      "type": "function"
    },
    {
      "constant": true,
      "inputs": [],
      "name": "priceLimit",
      "outputs": [
        {
          "internalType": "uint256",
          "name": "",
          "type": "uint256"
        }
      ],
      "payable": false,
      "stateMutability": "view",
      "type": "function"
    },
    {
      "constant": false,
      "inputs": [
        {
          "internalType": "address",
          "name": "newOwner",
          "type": "address"
        }
      ],
      "name": "transferOwnership",
      "outputs": [],
      "payable": false,
      "stateMutability": "nonpayable",
      "type": "function"
    },
    {
      "constant": true,
      "inputs": [
        {
          "internalType": "uint256",
          "name": "streamId",
          "type": "uint256"
        }
      ],
      "name": "isValid",
      "outputs": [
        {
          "internalType": "bool",
          "name": "",
          "type": "bool"
        }
      ],
      "payable": false,
      "stateMutability": "view",
      "type": "function"
    },
    {
      "inputs": [
        {
          "internalType": "uint256",
          "name": "_priceLimit",
          "type": "uint256"
        }
      ],
      "payable": false,
      "stateMutability": "nonpayable",
      "type": "constructor"
    },
    {
      "anonymous": false,
      "inputs": [
        {
          "indexed": true,
          "internalType": "uint256",
          "name": "fileId",
          "type": "uint256"
        },
        {
          "indexed": true,
          "internalType": "address",
          "name": "buyer",
          "type": "address"
        }
      ],
      "name": "Buy",
      "type": "event"
    },
    {
      "anonymous": false,
      "inputs": [
        {
          "indexed": true,
          "internalType": "uint256",
          "name": "fileId",
          "type": "uint256"
        },
        {
          "indexed": true,
          "internalType": "address",
          "name": "seller",
          "type": "address"
        }
      ],
      "name": "Sell",
      "type": "event"
    },
    {
      "anonymous": false,
      "inputs": [
        {
          "indexed": true,
          "internalType": "address",
          "name": "seller",
          "type": "address"
        },
        {
          "indexed": true,
          "internalType": "bool",
          "name": "isEnabled",
          "type": "bool"
        }
      ],
      "name": "SubscriptionInfoUpdated",
      "type": "event"
    },
    {
      "anonymous": false,
      "inputs": [
        {
          "indexed": true,
          "internalType": "address",
          "name": "buyer",
          "type": "address"
        },
        {
          "indexed": true,
          "internalType": "address",
          "name": "seller",
          "type": "address"
        },
        {
          "indexed": true,
          "internalType": "uint256",
          "name": "streamId",
          "type": "uint256"
        }
      ],
      "name": "SubscriptionCreated",
      "type": "event"
    },
    {
      "anonymous": false,
      "inputs": [
        {
          "indexed": true,
          "internalType": "address",
          "name": "seller",
          "type": "address"
        },
        {
          "indexed": true,
          "internalType": "uint256",
          "name": "streamId",
          "type": "uint256"
        },
        {
          "indexed": false,
          "internalType": "uint256",
          "name": "amount",
          "type": "uint256"
        }
      ],
      "name": "SubscriptionWithdrawal",
      "type": "event"
    },
    {
      "anonymous": false,
      "inputs": [
        {
          "indexed": true,
          "internalType": "address",
          "name": "buyer",
          "type": "address"
        },
        {
          "indexed": true,
          "internalType": "address",
          "name": "seller",
          "type": "address"
        },
        {
          "indexed": true,
          "internalType": "uint256",
          "name": "streamId",
          "type": "uint256"
        }
      ],
      "name": "SubscriptionCancelled",
      "type": "event"
    },
    {
      "anonymous": false,
      "inputs": [
        {
          "indexed": true,
          "internalType": "uint256",
          "name": "streamId",
          "type": "uint256"
        },
        {
          "indexed": false,
          "internalType": "uint256",
          "name": "exchangeRate",
          "type": "uint256"
        },
        {
          "indexed": false,
          "internalType": "uint256",
          "name": "senderSharePercentage",
          "type": "uint256"
        },
        {
          "indexed": false,
          "internalType": "uint256",
          "name": "recipientSharePercentage",
          "type": "uint256"
        }
      ],
      "name": "CreateCompoundingStream",
      "type": "event"
    },
    {
      "anonymous": false,
      "inputs": [
        {
          "indexed": true,
          "internalType": "uint256",
          "name": "streamId",
          "type": "uint256"
        },
        {
          "indexed": false,
          "internalType": "uint256",
          "name": "senderInterest",
          "type": "uint256"
        },
        {
          "indexed": false,
          "internalType": "uint256",
          "name": "recipientInterest",
          "type": "uint256"
        },
        {
          "indexed": false,
          "internalType": "uint256",
          "name": "sablierInterest",
          "type": "uint256"
        }
      ],
      "name": "PayInterest",
      "type": "event"
    },
    {
      "anonymous": false,
      "inputs": [
        {
          "indexed": true,
          "internalType": "address",
          "name": "tokenAddress",
          "type": "address"
        },
        {
          "indexed": true,
          "internalType": "uint256",
          "name": "amount",
          "type": "uint256"
        }
      ],
      "name": "TakeEarnings",
      "type": "event"
    },
    {
      "anonymous": false,
      "inputs": [
        {
          "indexed": true,
          "internalType": "uint256",
          "name": "fee",
          "type": "uint256"
        }
      ],
      "name": "UpdateFee",
      "type": "event"
    },
    {
      "anonymous": false,
      "inputs": [
        {
          "indexed": false,
          "internalType": "address",
          "name": "account",
          "type": "address"
        }
      ],
      "name": "Paused",
      "type": "event"
    },
    {
      "anonymous": false,
      "inputs": [
        {
          "indexed": false,
          "internalType": "address",
          "name": "account",
          "type": "address"
        }
      ],
      "name": "Unpaused",
      "type": "event"
    },
    {
      "anonymous": false,
      "inputs": [
        {
          "indexed": true,
          "internalType": "address",
          "name": "account",
          "type": "address"
        }
      ],
      "name": "PauserAdded",
      "type": "event"
    },
    {
      "anonymous": false,
      "inputs": [
        {
          "indexed": true,
          "internalType": "address",
          "name": "account",
          "type": "address"
        }
      ],
      "name": "PauserRemoved",
      "type": "event"
    },
    {
      "anonymous": false,
      "inputs": [
        {
          "indexed": true,
          "internalType": "address",
          "name": "previousOwner",
          "type": "address"
        },
        {
          "indexed": true,
          "internalType": "address",
          "name": "newOwner",
          "type": "address"
        }
      ],
      "name": "OwnershipTransferred",
      "type": "event"
    },
    {
      "anonymous": false,
      "inputs": [
        {
          "indexed": true,
          "internalType": "uint256",
          "name": "streamId",
          "type": "uint256"
        },
        {
          "indexed": true,
          "internalType": "address",
          "name": "sender",
          "type": "address"
        },
        {
          "indexed": true,
          "internalType": "address",
          "name": "recipient",
          "type": "address"
        },
        {
          "indexed": false,
          "internalType": "uint256",
          "name": "deposit",
          "type": "uint256"
        },
        {
          "indexed": false,
          "internalType": "address",
          "name": "tokenAddress",
          "type": "address"
        },
        {
          "indexed": false,
          "internalType": "uint256",
          "name": "startTime",
          "type": "uint256"
        },
        {
          "indexed": false,
          "internalType": "uint256",
          "name": "stopTime",
          "type": "uint256"
        }
      ],
      "name": "CreateStream",
      "type": "event"
    },
    {
      "anonymous": false,
      "inputs": [
        {
          "indexed": true,
          "internalType": "uint256",
          "name": "streamId",
          "type": "uint256"
        },
        {
          "indexed": true,
          "internalType": "address",
          "name": "recipient",
          "type": "address"
        },
        {
          "indexed": false,
          "internalType": "uint256",
          "name": "amount",
          "type": "uint256"
        }
      ],
      "name": "WithdrawFromStream",
      "type": "event"
    },
    {
      "anonymous": false,
      "inputs": [
        {
          "indexed": true,
          "internalType": "uint256",
          "name": "streamId",
          "type": "uint256"
        },
        {
          "indexed": true,
          "internalType": "address",
          "name": "sender",
          "type": "address"
        },
        {
          "indexed": true,
          "internalType": "address",
          "name": "recipient",
          "type": "address"
        },
        {
          "indexed": false,
          "internalType": "uint256",
          "name": "senderBalance",
          "type": "uint256"
        },
        {
          "indexed": false,
          "internalType": "uint256",
          "name": "recipientBalance",
          "type": "uint256"
        }
      ],
      "name": "CancelStream",
      "type": "event"
    },
    {
      "constant": false,
      "inputs": [
        {
          "internalType": "address",
          "name": "_paymentAsset",
          "type": "address"
        },
        {
          "internalType": "uint256",
          "name": "_price",
          "type": "uint256"
        },
        {
          "internalType": "string",
          "name": "_metadataHash",
          "type": "string"
        }
      ],
      "name": "sell",
      "outputs": [
        {
          "internalType": "uint256",
          "name": "",
          "type": "uint256"
        }
      ],
      "payable": false,
      "stateMutability": "nonpayable",
      "type": "function"
    },
    {
      "constant": false,
      "inputs": [
        {
          "internalType": "uint256",
          "name": "_fileId",
          "type": "uint256"
        }
      ],
      "name": "buy",
      "outputs": [
        {
          "internalType": "bool",
          "name": "",
          "type": "bool"
        }
      ],
      "payable": false,
      "stateMutability": "nonpayable",
      "type": "function"
    },
    {
      "constant": false,
      "inputs": [
        {
          "internalType": "uint256",
          "name": "_amountPerDay",
          "type": "uint256"
        },
        {
          "internalType": "uint256",
          "name": "_minDurationInDays",
          "type": "uint256"
        },
        {
          "internalType": "address",
          "name": "_tokenAddress",
          "type": "address"
        }
      ],
      "name": "updateSubscriptionInfo",
      "outputs": [],
      "payable": false,
      "stateMutability": "nonpayable",
      "type": "function"
    },
    {
      "constant": false,
      "inputs": [],
      "name": "disableSubscriptionInfo",
      "outputs": [],
      "payable": false,
      "stateMutability": "nonpayable",
      "type": "function"
    },
    {
      "constant": false,
      "inputs": [
        {
          "internalType": "uint256",
          "name": "_deposit",
          "type": "uint256"
        },
        {
          "internalType": "address",
          "name": "_token",
          "type": "address"
        },
        {
          "internalType": "uint256",
          "name": "_numDays",
          "type": "uint256"
        },
        {
          "internalType": "address",
          "name": "_seller",
          "type": "address"
        }
      ],
      "name": "createSubscription",
      "outputs": [],
      "payable": false,
      "stateMutability": "nonpayable",
      "type": "function"
    },
    {
      "constant": false,
      "inputs": [
        {
          "internalType": "uint256",
          "name": "_streamId",
          "type": "uint256"
        },
        {
          "internalType": "uint256",
          "name": "_amount",
          "type": "uint256"
        }
      ],
      "name": "withdrawFromSubscription",
      "outputs": [],
      "payable": false,
      "stateMutability": "nonpayable",
      "type": "function"
    },
    {
      "constant": false,
      "inputs": [
        {
          "internalType": "address",
          "name": "_seller",
          "type": "address"
        }
      ],
      "name": "cancelSubscription",
      "outputs": [],
      "payable": false,
      "stateMutability": "nonpayable",
      "type": "function"
    },
    {
      "constant": true,
      "inputs": [
        {
          "internalType": "uint256",
          "name": "_fileId",
          "type": "uint256"
        },
        {
          "internalType": "address",
          "name": "buyer",
          "type": "address"
        }
      ],
      "name": "isBuyer",
      "outputs": [
        {
          "internalType": "bool",
          "name": "",
          "type": "bool"
        }
      ],
      "payable": false,
      "stateMutability": "view",
      "type": "function"
    },
    {
      "constant": true,
      "inputs": [
        {
          "internalType": "address",
          "name": "_seller",
          "type": "address"
        },
        {
          "internalType": "address",
          "name": "_buyer",
          "type": "address"
        }
      ],
      "name": "isSubscriber",
      "outputs": [
        {
          "internalType": "bool",
          "name": "",
          "type": "bool"
        }
      ],
      "payable": false,
      "stateMutability": "view",
      "type": "function"
    }
  ],
  "bytecode": "0x60806040523480156200001157600080fd5b5060405162005e9338038062005e93833981810160405260208110156200003757600080fd5b5051338062000092576040517f08c379a000000000000000000000000000000000000000000000000000000000815260040180806020018281038252602a81526020018062005e69602a913960400191505060405180910390fd5b620000a8336200015960201b620053ae1760201c565b620000be336200027660201b62002d991760201c565b60ce80546001600160a01b0319166001600160a01b0392909216919091179055600160d155806200015057604080517f08c379a000000000000000000000000000000000000000000000000000000000815260206004820152601760248201527f5072696365204c696d69742063616e6e6f742062652030000000000000000000604482015290519081900360640190fd5b60d55562000567565b600054610100900460ff16806200017e57506200017e6001600160e01b036200036316565b806200018d575060005460ff16155b620001e4576040517f08c379a000000000000000000000000000000000000000000000000000000000815260040180806020018281038252602e81526020018062005e3b602e913960400191505060405180910390fd5b600054610100900460ff1615801562000210576000805460ff1961ff0019909116610100171660011790555b603380546001600160a01b0319166001600160a01b0384811691909117918290556040519116906000907f8be0079c531659141344cd1fd0a4f28419497f9722a3daafe3b4186f6b6457e0908290a3801562000272576000805461ff00191690555b5050565b600054610100900460ff16806200029b57506200029b6001600160e01b036200036316565b80620002aa575060005460ff16155b62000301576040517f08c379a000000000000000000000000000000000000000000000000000000000815260040180806020018281038252602e81526020018062005e3b602e913960400191505060405180910390fd5b600054610100900460ff161580156200032d576000805460ff1961ff0019909116610100171660011790555b62000343826200036960201b62004ee41760201c565b6099805460ff19169055801562000272576000805461ff00191690555050565b303b1590565b600054610100900460ff16806200038e57506200038e6001600160e01b036200036316565b806200039d575060005460ff16155b620003f4576040517f08c379a000000000000000000000000000000000000000000000000000000000815260040180806020018281038252602e81526020018062005e3b602e913960400191505060405180910390fd5b600054610100900460ff1615801562000420576000805460ff1961ff0019909116610100171660011790555b62000434826001600160e01b036200046316565b6200044d576200044d826001600160e01b036200048616565b801562000272576000805461ff00191690555050565b600062000480826066620004d860201b62003a671790919060201c565b92915050565b620004a18160666200050e60201b620050361790919060201c565b6040516001600160a01b038216907f6719d08c1888103bea251a4ed56406bd0c3e69723c8a1686e017e7bbe159b6f890600090a250565b60006001600160a01b038216620004ee57600080fd5b506001600160a01b03166000908152602091909152604090205460ff1690565b6001600160a01b0381166200052257600080fd5b6200053782826001600160e01b03620004d816565b156200054257600080fd5b6001600160a01b0316600090815260209190915260409020805460ff19166001179055565b6158c480620005776000396000f3fe608060405234801561001057600080fd5b50600436106102c85760003560e01c80638da5cb5b1161017b578063cc1b4bf6116100d8578063ddca3f431161008c578063f0e1ba2c11610071578063f0e1ba2c1461098a578063f2fde38b14610992578063f577a500146109b8576102c8565b8063ddca3f431461092b578063f046395a14610933576102c8565b8063d6d712b9116100bd578063d6d712b9146108d4578063d855528e146108dc578063d96a094a1461090e576102c8565b8063cc1b4bf61461088c578063d2cba55c146108cc576102c8565b8063a82ccd4d1161012f578063c4d66de811610114578063c4d66de81461080c578063c5f7b35a14610832578063cada70b014610860576102c8565b8063a82ccd4d146107c3578063c1eb9ee0146107e0576102c8565b80639012c4a8116101605780639012c4a81461076357806393d81d5814610780578063a734d51b146107a6576102c8565b80638da5cb5b146107375780638f32d59b1461075b576102c8565b80636d97786e1161022957806382dc1ec4116101dd578063870a9a97116101c2578063870a9a9714610663578063894e9a0d146106865780638c9a3252146106f6576102c8565b806382dc1ec4146106355780638456cb591461065b576102c8565b80637a9b2c6c1161020e5780637a9b2c6c146105be5780638129fc1c146105e15780638195aeaa146105e9576102c8565b80636d97786e1461051c5780636db9241b146105a1576102c8565b80633f4ba83a1161028057806346fbf68e1161026557806346fbf68e1461040c57806347d52ef2146104465780635c975abb14610514576102c8565b80633f4ba83a146103fc5780634395351914610404576102c8565b8063287973fa116102b1578063287973fa1461030d5780632b8a119d1461034b5780633656eec2146103d0576102c8565b8063131b9c04146102cd5780631e99d56914610305575b600080fd5b6102f3600480360360208110156102e357600080fd5b50356001600160a01b03166109d5565b60408051918252519081900360200190f35b6102f3610abf565b6103496004803603608081101561032357600080fd5b508035906001600160a01b03602082013581169160408101359160609091013516610ac5565b005b6103686004803603602081101561036157600080fd5b5035610c68565b604080516001600160a01b039c8d1681529a8c1660208c01528a810199909952969099166060890152608088019490945260a087019290925260c086015260e08501526101008401526101208301939093526101408201929092529051908190036101600190f35b6102f3600480360360408110156103e657600080fd5b50803590602001356001600160a01b0316610e9f565b610349611186565b6102f3611278565b6104326004803603602081101561042257600080fd5b50356001600160a01b031661127e565b604080519115158252519081900360200190f35b6104636004803603602081101561045c57600080fd5b5035611297565b60405180856001600160a01b03166001600160a01b03168152602001846001600160a01b03166001600160a01b0316815260200180602001838152602001828103825284818151815260200191508051906020019080838360005b838110156104d65781810151838201526020016104be565b50505050905090810190601f1680156105035780820380516001836020036101000a031916815260200191505b509550505050505060405180910390f35b610432611357565b6102f36004803603606081101561053257600080fd5b6001600160a01b038235169160208101359181019060608101604082013564010000000081111561056257600080fd5b82018360208201111561057457600080fd5b8035906020019184600183028401116401000000008311171561059657600080fd5b509092509050611361565b610432600480360360208110156105b757600080fd5b50356114b7565b610432600480360360408110156105d457600080fd5b50803590602001356115f4565b6103496118b4565b6102f3600480360360e08110156105ff57600080fd5b506001600160a01b0381358116916020810135916040820135169060608101359060808101359060a08101359060c0013561195b565b6103496004803603602081101561064b57600080fd5b50356001600160a01b0316611d41565b610349611d90565b6103496004803603604081101561067957600080fd5b5080359060200135611e57565b6106a36004803603602081101561069c57600080fd5b5035611ef7565b604080516001600160a01b03998a168152978916602089015287810196909652939096166060860152608085019190915260a084015260c083019390935260e08201929092529051908190036101000190f35b6107196004803603604081101561070c57600080fd5b5080359060200135611fcd565b60408051938452602084019290925282820152519081900360600190f35b61073f612726565b604080516001600160a01b039092168252519081900360200190f35b610432612735565b6103496004803603602081101561077957600080fd5b503561275b565b6103496004803603602081101561079657600080fd5b50356001600160a01b0316612857565b610432600480360360208110156107bc57600080fd5b503561290b565b6102f3600480360360208110156107d957600080fd5b5035612923565b610349600480360360408110156107f657600080fd5b506001600160a01b038135169060200135612a5f565b6103496004803603602081101561082257600080fd5b50356001600160a01b0316612d99565b6104326004803603604081101561084857600080fd5b506001600160a01b0381358116916020013516612e4f565b6104326004803603604081101561087657600080fd5b50803590602001356001600160a01b0316612e8e565b6102f3600480360360a08110156108a257600080fd5b506001600160a01b0381358116916020810135916040820135169060608101359060800135612ebd565b61073f61355f565b61034961356e565b610349600480360360608110156108f257600080fd5b50803590602081013590604001356001600160a01b03166135b3565b6104326004803603602081101561092457600080fd5b50356136ab565b6102f36138cb565b6109596004803603602081101561094957600080fd5b50356001600160a01b03166138d1565b6040805194151585526020850193909352838301919091526001600160a01b03166060830152519081900360800190f35b6102f3613905565b610349600480360360208110156109a857600080fd5b50356001600160a01b031661390b565b610432600480360360208110156109ce57600080fd5b5035613925565b60ce5460408051632f52e59560e01b81526001600160a01b03848116600483015291516000939290921691632f52e59591602480820192602092909190829003018186803b158015610a2657600080fd5b505afa158015610a3a573d6000803e3d6000fd5b505050506040513d6020811015610a5057600080fd5b5051610aa3576040805162461bcd60e51b815260206004820152601360248201527f746f6b656e206973206e6f742063546f6b656e00000000000000000000000000604482015290519081900360640190fd5b506001600160a01b0316600090815260cf602052604090205490565b60d15481565b6001600160a01b038116600090815260d4602090815260408083203384526004810190925290912054815460ff16610b2e5760405162461bcd60e51b815260040180806020018281038252602481526020018061555f6024913960400191505060405180910390fd5b610b3781613925565b15610b735760405162461bcd60e51b815260040180806020018281038252602481526020018061572b6024913960400191505060405180910390fd5b6002820154610b8990859063ffffffff61394416565b8614610bdc576040805162461bcd60e51b815260206004820152601860248201527f4465706f73697420616d6f756e7420696e636f72726563740000000000000000604482015290519081900360640190fd5b426000610c02610bf5876201518063ffffffff61394416565b839063ffffffff6139a416565b90506000610c13868a8a8686612ebd565b3360008181526004880160205260408082208490555192935083926001600160a01b038a1692917f2eb629961acafe14e8322418dd8876662f9f38696815b5ff62645c0aaff358bf91a4505050505050505050565b60008060008060008060008060008060008b60d2600082815260200190815260200160002060070160149054906101000a900460ff16610ce7576040805162461bcd60e51b81526020600482015260156024820152741cdd1c99585b48191bd95cc81b9bdd08195e1a5cdd605a1b604482015290519081900360640190fd5b60008d815260cd60205260409020600301548d9060ff16610d395760405162461bcd60e51b81526004018080602001828103825260218152602001806154a06021913960400191505060405180910390fd5b60d260008f815260200190815260200160002060060160009054906101000a90046001600160a01b03169c5060d260008f815260200190815260200160002060050160009054906101000a90046001600160a01b03169b5060d260008f8152602001908152602001600020600001549a5060d260008f815260200190815260200160002060070160009054906101000a90046001600160a01b0316995060d260008f815260200190815260200160002060030154985060d260008f815260200190815260200160002060040154975060d260008f815260200190815260200160002060020154965060d260008f815260200190815260200160002060010154955060cd60008f815260200190815260200160002060000160000154945060cd60008f815260200190815260200160002060010160000154935060cd60008f8152602001908152602001600020600201600001549250505091939597999b90929496989a50565b600082815260d260205260408120600701548390600160a01b900460ff16610f06576040805162461bcd60e51b81526020600482015260156024820152741cdd1c99585b48191bd95cc81b9bdd08195e1a5cdd605a1b604482015290519081900360640190fd5b610f0e615132565b50600084815260d2602090815260409182902082516101208101845281548152600182015492810192909252600281015492820192909252600382015460608201526004820154608082015260058201546001600160a01b0390811660a08301526006830154811660c083015260079092015491821660e0820152600160a01b90910460ff161515610100820152610fa461519b565b6000610faf87612923565b9050610fbf8184602001516139fe565b6020840181905283826003811115610fd357fe5b6003811115610fde57fe5b9052506000905082516003811115610ff257fe5b1461102e5760405162461bcd60e51b81526004018080602001828103825260238152602001806158136023913960400191505060405180910390fd5b6040830151835111156110d35761104d83600001518460400151613a40565b604084018190528382600381111561106157fe5b600381111561106c57fe5b905250600090508251600381111561108057fe5b1461108757fe5b61109982602001518360400151613a40565b60208401819052838260038111156110ad57fe5b60038111156110b857fe5b90525060009050825160038111156110cc57fe5b146110d357fe5b8260a001516001600160a01b0316866001600160a01b031614156110ff575060200151925061117f9050565b8260c001516001600160a01b0316866001600160a01b031614156111775761112f83604001518360200151613a40565b606084018190528382600381111561114357fe5b600381111561114e57fe5b905250600090508251600381111561116257fe5b1461116957fe5b5060600151925061117f9050565b600094505050505b5092915050565b611196611191613a63565b61127e565b6111d15760405162461bcd60e51b81526004018080602001828103825260308152602001806154e46030913960400191505060405180910390fd5b60995460ff16611228576040805162461bcd60e51b815260206004820152601460248201527f5061757361626c653a206e6f7420706175736564000000000000000000000000604482015290519081900360640190fd5b6099805460ff191690557f5db9ee0a495bf2e6ff9c91a7834c1ba4fdd244a5e8aa4e537bd38aeae4b073aa61125b613a63565b604080516001600160a01b039092168252519081900360200190a1565b60d65481565b600061129160668363ffffffff613a6716565b92915050565b60d36020908152600091825260409182902080546001808301546002808501805488516101009582161595909502600019011691909104601f81018790048702840187019097528683526001600160a01b03938416969390911694919290918301828280156113475780601f1061131c57610100808354040283529160200191611347565b820191906000526020600020905b81548152906001019060200180831161132a57829003601f168201915b5050505050908060030154905084565b60995460ff165b90565b60008360d55481106113a45760405162461bcd60e51b81526004018080602001828103825260228152602001806157ac6022913960400191505060405180910390fd5b6040518060800160405280336001600160a01b03168152602001876001600160a01b0316815260200185858080601f0160208091040260200160405190810160405280939291908181526020018383808284376000920182905250938552505050602091820188905260d654815260d38252604090819020835181546001600160a01b039182166001600160a01b0319918216178355858501516001840180549190931691161790559083015180519192611467926002850192909101906151c4565b506060919091015160039091015560d6805460018101909155604051339082907f7f35571f7051df9198c8ad659e2617eeace2c702b2bf1c6bb53b21d1c644462d90600090a39695505050505050565b609a805460010190819055600082815260d260205260408120600701549091908390600160a01b900460ff1661152c576040805162461bcd60e51b81526020600482015260156024820152741cdd1c99585b48191bd95cc81b9bdd08195e1a5cdd605a1b604482015290519081900360640190fd5b600084815260d2602052604090206006015484906001600160a01b031633148061156f5750600081815260d260205260409020600501546001600160a01b031633145b6115aa5760405162461bcd60e51b81526004018080602001828103825260378152602001806158366037913960400191505060405180910390fd5b600085815260cd602052604090206003015460ff166115d1576115cc85613a9c565b6115da565b6115da85613df8565b600193505050609a5481146115ee57600080fd5b50919050565b60995460009060ff1615611642576040805162461bcd60e51b815260206004820152601060248201526f14185d5cd8589b194e881c185d5cd95960821b604482015290519081900360640190fd5b609a805460010190819055600084815260d260205260409020600701548490600160a01b900460ff166116b4576040805162461bcd60e51b81526020600482015260156024820152741cdd1c99585b48191bd95cc81b9bdd08195e1a5cdd605a1b604482015290519081900360640190fd5b600085815260d2602052604090206006015485906001600160a01b03163314806116f75750600081815260d260205260409020600501546001600160a01b031633145b6117325760405162461bcd60e51b81526004018080602001828103825260378152602001806158366037913960400191505060405180910390fd5b60008511611787576040805162461bcd60e51b815260206004820152600e60248201527f616d6f756e74206973207a65726f000000000000000000000000000000000000604482015290519081900360640190fd5b61178f615132565b50600086815260d26020908152604080832081516101208101835281548152600182015493810193909352600281015491830191909152600381015460608301526004810154608083015260058101546001600160a01b0390811660a084018190526006830154821660c085015260079092015490811660e0840152600160a01b900460ff16151561010083015290919061182b908990610e9f565b90508681101561186c5760405162461bcd60e51b815260040180806020018281038252602481526020018061553b6024913960400191505060405180910390fd5b600088815260cd602052604090206003015460ff166118945761188f8888614416565b61189e565b61189e88886146be565b6001955050505050609a54811461117f57600080fd5b600054610100900460ff16806118cd57506118cd614cb3565b806118db575060005460ff16155b6119165760405162461bcd60e51b815260040180806020018281038252602e81526020018061577e602e913960400191505060405180910390fd5b600054610100900460ff16158015611941576000805460ff1961ff0019909116610100171660011790555b6001609a558015611958576000805461ff00191690555b50565b60995460009060ff16156119a9576040805162461bcd60e51b815260206004820152601060248201526f14185d5cd8589b194e881c185d5cd95960821b604482015290519081900360640190fd5b60ce5460408051632f52e59560e01b81526001600160a01b03898116600483015291519190921691632f52e595916024808301926020929190829003018186803b1580156119f657600080fd5b505afa158015611a0a573d6000803e3d6000fd5b505050506040513d6020811015611a2057600080fd5b5051611a73576040805162461bcd60e51b815260206004820152601960248201527f63546f6b656e206973206e6f742077686974656c697374656400000000000000604482015290519081900360640190fd5b611a7b615242565b611a858484614cb9565b6020830181905282826003811115611a9957fe5b6003811115611aa457fe5b9052506000905081516003811115611ab857fe5b14611b0a576040805162461bcd60e51b815260206004820152601b60248201527f73686172652073756d2063616c63756c6174696f6e206572726f720000000000604482015290519081900360640190fd5b8060200151606414611b63576040805162461bcd60e51b815260206004820152601b60248201527f73686172657320646f206e6f742073756d20757020746f203130300000000000604482015290519081900360640190fd5b6000611b728a8a8a8a8a612ebd565b9050611b8585662386f26fc100006139fe565b6060840181905283826003811115611b9957fe5b6003811115611ba457fe5b9052506000905082516003811115611bb857fe5b14611bbf57fe5b611bd084662386f26fc100006139fe565b6080840181905283826003811115611be457fe5b6003811115611bef57fe5b9052506000905082516003811115611c0357fe5b14611c0a57fe5b6000886001600160a01b031663bd6d894d6040518163ffffffff1660e01b8152600401602060405180830381600087803b158015611c4757600080fd5b505af1158015611c5b573d6000803e3d6000fd5b505050506040513d6020811015611c7157600080fd5b50516040805160a08101825260808082018481528252825160208082018552606089810151835281850192835285518083018752938a01518452848601938452600181860181815260008b815260cd8552889020965151875593515190860155925151600285015590516003909301805460ff19169315159390931790925582518481529182018a9052818301899052915192935084927fa9bbfc8562a8e1e6b889a428f128c90ed60c6204c37e4fb4354a202b4db59204929181900390910190a2509998505050505050505050565b611d4c611191613a63565b611d875760405162461bcd60e51b81526004018080602001828103825260308152602001806154e46030913960400191505060405180910390fd5b61195881614cdf565b611d9b611191613a63565b611dd65760405162461bcd60e51b81526004018080602001828103825260308152602001806154e46030913960400191505060405180910390fd5b60995460ff1615611e21576040805162461bcd60e51b815260206004820152601060248201526f14185d5cd8589b194e881c185d5cd95960821b604482015290519081900360640190fd5b6099805460ff191660011790557f62e78cea01bee320cd4e420270b5ea74000d11b0c9f74754ebdbfc544b05a25861125b613a63565b611e6082613925565b611eb1576040805162461bcd60e51b815260206004820152601460248201527f496e76616c696420537562736372697074696f6e000000000000000000000000604482015290519081900360640190fd5b611ebb82826115f4565b50604080518281529051839133917fe1dfd962377bb946dbd031678f49ab5371851de0d2ad9821796041969ecc28759181900360200190a35050565b6000806000806000806000808860d2600082815260200190815260200160002060070160149054906101000a900460ff16611f71576040805162461bcd60e51b81526020600482015260156024820152741cdd1c99585b48191bd95cc81b9bdd08195e1a5cdd605a1b604482015290519081900360640190fd5b5050506000968752505060d26020525050604090922060068101546005820154825460078401546003850154600486015460028701546001909701546001600160a01b039687169a958716995093975091909416949092909190565b600082815260d26020526040812060070154819081908590600160a01b900460ff16612038576040805162461bcd60e51b81526020600482015260156024820152741cdd1c99585b48191bd95cc81b9bdd08195e1a5cdd605a1b604482015290519081900360640190fd5b600086815260cd602052604090206003015460ff16612060576000935083925082915061271e565b612068615132565b50600086815260d2602090815260409182902082516101208101845281548152600182015492810192909252600281015492820192909252600382015460608201526004820154608082015260058201546001600160a01b0390811660a08301526006830154811660c083015260079092015491821660e0820152600160a01b90910460ff1615156101008201526120fe615272565b50600087815260cd6020908152604091829020825160a08101845281546080820190815281528351808401855260018301548152818401528351928301845260028201548352928301919091526003015460ff16151560608201526121616152ac565b612169615335565b60405180602001604052808560e001516001600160a01b031663bd6d894d6040518163ffffffff1660e01b8152600401602060405180830381600087803b1580156121b357600080fd5b505af11580156121c7573d6000803e3d6000fd5b505050506040513d60208110156121dd57600080fd5b5051905283515181519192501061220257506000965086955085945061271e92505050565b612210818460000151614d27565b602084018190528382600381111561222457fe5b600381111561222f57fe5b905250600090508251600381111561224357fe5b1461224a57fe5b61225882602001518a614d61565b604084018190528382600381111561226c57fe5b600381111561227757fe5b905250600090508251600381111561228b57fe5b146122dd576040805162461bcd60e51b815260206004820152601a60248201527f696e7465726573742063616c63756c6174696f6e206572726f72000000000000604482015290519081900360640190fd5b60d054670de0b6b3a7640000141561238f576122fd826040015182614dc9565b61012084018190528382600381111561231257fe5b600381111561231d57fe5b905250600090508251600381111561233157fe5b1461236d5760405162461bcd60e51b81526004018080602001828103825260218152602001806157f26021913960400191505060405180910390fd5b60008061237e846101200151614dec565b9199509750955061271e9350505050565b60d0546123b657604080516020810182526000815260c0840152820151606083015261248e565b60408083015181516020810190925260d05482526123d391614dfb565b60c08401819052838260038111156123e757fe5b60038111156123f257fe5b905250600090508251600381111561240657fe5b146124425760405162461bcd60e51b81526004018080602001828103825260228152602001806155ea6022913960400191505060405180910390fd5b61245482604001518360c00151614d27565b606084018190528382600381111561246857fe5b600381111561247357fe5b905250600090508251600381111561248757fe5b1461248e57fe5b6124a082606001518460200151614dfb565b60808401819052838260038111156124b457fe5b60038111156124bf57fe5b90525060009050825160038111156124d357fe5b1461250f5760405162461bcd60e51b81526004018080602001828103825260218152602001806155a86021913960400191505060405180910390fd5b61252182606001518360800151614d27565b60a084018190528382600381111561253557fe5b600381111561254057fe5b905250600090508251600381111561255457fe5b1461255b57fe5b612569826080015182614dc9565b60e084018190528382600381111561257d57fe5b600381111561258857fe5b905250600090508251600381111561259c57fe5b146125ee576040805162461bcd60e51b815260206004820181905260248201527f73656e64657220696e74657265737420636f6e76657273696f6e206572726f72604482015290519081900360640190fd5b6125fc8260a0015182614dc9565b61010084018190528382600381111561261157fe5b600381111561261c57fe5b905250600090508251600381111561263057fe5b1461266c5760405162461bcd60e51b81526004018080602001828103825260238152602001806156856023913960400191505060405180910390fd5b61267a8260c0015182614dc9565b61012084018190528382600381111561268f57fe5b600381111561269a57fe5b90525060009050825160038111156126ae57fe5b146126ea5760405162461bcd60e51b81526004018080602001828103825260218152602001806157f26021913960400191505060405180910390fd5b6126f78260e00151614dec565b612705836101000151614dec565b612713846101200151614dec565b975097509750505050505b509250925092565b6033546001600160a01b031690565b6033546000906001600160a01b031661274c613a63565b6001600160a01b031614905090565b612763612735565b61276c57600080fd5b60648111156127c2576040805162461bcd60e51b815260206004820152601f60248201527f6665652070657263656e7461676520686967686572207468616e203130302500604482015290519081900360640190fd5b6127ca615348565b6127db82662386f26fc100006139fe565b60208301819052828260038111156127ef57fe5b60038111156127fa57fe5b905250600090508151600381111561280e57fe5b1461281557fe5b60408051602080820183528301519081905260d0555182907f38e229a7f3f9c329892d08eb37c4e91ccac6d12c798d394990ca4f56028ec26690600090a25050565b6001600160a01b038116600090815260d460209081526040808320338452600481019092529091205461288981613925565b6128c45760405162461bcd60e51b815260040180806020018281038252602781526020018061562e6027913960400191505060405180910390fd5b6128cd816114b7565b5060405181906001600160a01b0385169033907f2a47f085432d570578d89b5af31bea93cab7ad5e04e171eb39a89307f88035d590600090a4505050565b600090815260cd602052604090206003015460ff1690565b600081815260d260205260408120600701548290600160a01b900460ff1661298a576040805162461bcd60e51b81526020600482015260156024820152741cdd1c99585b48191bd95cc81b9bdd08195e1a5cdd605a1b604482015290519081900360640190fd5b612992615132565b50600083815260d26020908152604091829020825161012081018452815481526001820154928101929092526002810154928201929092526003820154606082018190526004830154608083015260058301546001600160a01b0390811660a08401526006840154811660c084015260079093015492831660e0830152600160a01b90920460ff161515610100820152904211612a335760009250506115ee565b8060800151421015612a4c5760600151420391506115ee565b6060810151608090910151039392505050565b612a67612735565b612a7057600080fd5b609a80546001019081905560ce5460408051632f52e59560e01b81526001600160a01b03868116600483015291519190921691632f52e595916024808301926020929190829003018186803b158015612ac857600080fd5b505afa158015612adc573d6000803e3d6000fd5b505050506040513d6020811015612af257600080fd5b5051612b45576040805162461bcd60e51b815260206004820152601960248201527f63546f6b656e206973206e6f742077686974656c697374656400000000000000604482015290519081900360640190fd5b60008211612b9a576040805162461bcd60e51b815260206004820152600e60248201527f616d6f756e74206973207a65726f000000000000000000000000000000000000604482015290519081900360640190fd5b6001600160a01b038316600090815260cf6020526040902054821115612bf15760405162461bcd60e51b815260040180806020018281038252602481526020018061553b6024913960400191505060405180910390fd5b612bf961535f565b6001600160a01b038416600090815260cf6020526040902054612c1c9084613a40565b6001600160a01b038616600090815260cf6020526040902081905582826003811115612c4457fe5b6003811115612c4f57fe5b9052506000905081516003811115612c6357fe5b14612c6a57fe5b60405183906001600160a01b038616907f13e8af02ad3e36f8d82fc8b86dcd67b7ed11f718f0e52fb245d2038eb71856ba90600090a3604080517fa9059cbb0000000000000000000000000000000000000000000000000000000081523360048201526024810185905290516001600160a01b0386169163a9059cbb9160448083019260209291908290030181600087803b158015612d0857600080fd5b505af1158015612d1c573d6000803e3d6000fd5b505050506040513d6020811015612d3257600080fd5b5051612d85576040805162461bcd60e51b815260206004820152601660248201527f746f6b656e207472616e73666572206661696c75726500000000000000000000604482015290519081900360640190fd5b50609a548114612d9457600080fd5b505050565b600054610100900460ff1680612db25750612db2614cb3565b80612dc0575060005460ff16155b612dfb5760405162461bcd60e51b815260040180806020018281038252602e81526020018061577e602e913960400191505060405180910390fd5b600054610100900460ff16158015612e26576000805460ff1961ff0019909116610100171660011790555b612e2f82614ee4565b6099805460ff191690558015612e4b576000805461ff00191690555b5050565b6001600160a01b03808316600090815260d460209081526040808320938516835260048401909152812054909190612e8690613925565b949350505050565b600082815260d3602090815260408083206001600160a01b038516845260040190915290205460ff1692915050565b60995460009060ff1615612f0b576040805162461bcd60e51b815260206004820152601060248201526f14185d5cd8589b194e881c185d5cd95960821b604482015290519081900360640190fd5b6001600160a01b038616612f66576040805162461bcd60e51b815260206004820152601a60248201527f73747265616d20746f20746865207a65726f2061646472657373000000000000604482015290519081900360640190fd5b6001600160a01b038616301415612fc4576040805162461bcd60e51b815260206004820152601d60248201527f73747265616d20746f2074686520636f6e747261637420697473656c66000000604482015290519081900360640190fd5b6001600160a01b038616331415613022576040805162461bcd60e51b815260206004820152601460248201527f73747265616d20746f207468652063616c6c6572000000000000000000000000604482015290519081900360640190fd5b60008511613077576040805162461bcd60e51b815260206004820152600f60248201527f6465706f736974206973207a65726f0000000000000000000000000000000000604482015290519081900360640190fd5b428310156130b65760405162461bcd60e51b81526004018080602001828103825260218152602001806155c96021913960400191505060405180910390fd5b82821161310a576040805162461bcd60e51b815260206004820152601f60248201527f73746f702074696d65206265666f7265207468652073746172742074696d6500604482015290519081900360640190fd5b613112615372565b61311c8385613a40565b602083018190528282600381111561313057fe5b600381111561313b57fe5b905250600090508151600381111561314f57fe5b1461315657fe5b80602001518610156131af576040805162461bcd60e51b815260206004820152601f60248201527f6465706f73697420736d616c6c6572207468616e2074696d652064656c746100604482015290519081900360640190fd5b806020015186816131bc57fe5b06156131f95760405162461bcd60e51b815260040180806020018281038252602281526020018061560c6022913960400191505060405180910390fd5b613207868260200151614f9c565b604083018190528282600381111561321b57fe5b600381111561322657fe5b905250600090508151600381111561323a57fe5b1461324157fe5b600060d154905060405180610120016040528088815260200183604001518152602001888152602001868152602001858152602001896001600160a01b03168152602001336001600160a01b03168152602001876001600160a01b031681526020016001151581525060d26000838152602001908152602001600020600082015181600001556020820151816001015560408201518160020155606082015181600301556080820151816004015560a08201518160050160006101000a8154816001600160a01b0302191690836001600160a01b0316021790555060c08201518160060160006101000a8154816001600160a01b0302191690836001600160a01b0316021790555060e08201518160070160006101000a8154816001600160a01b0302191690836001600160a01b031602179055506101008201518160070160146101000a81548160ff0219169083151502179055509050506133a760d1546001614cb9565b60d1819055838260038111156133b957fe5b60038111156133c457fe5b90525060009050825160038111156133d857fe5b1461342a576040805162461bcd60e51b815260206004820181905260248201527f6e6578742073747265616d2069642063616c63756c6174696f6e206572726f72604482015290519081900360640190fd5b604080516323b872dd60e01b81523360048201523060248201526044810189905290516001600160a01b038816916323b872dd9160648083019260209291908290030181600087803b15801561347f57600080fd5b505af1158015613493573d6000803e3d6000fd5b505050506040513d60208110156134a957600080fd5b50516134fc576040805162461bcd60e51b815260206004820152601660248201527f746f6b656e207472616e73666572206661696c75726500000000000000000000604482015290519081900360640190fd5b604080518881526001600160a01b038881166020830152818301889052606082018790529151918a1691339184917f7b01d409597969366dc268d7f957a990d1ca3d3449baf8fb45db67351aecfe789181900360800190a4979650505050505050565b60ce546001600160a01b031681565b33600081815260d46020526040808220805460ff1916815590519092907fe1c5e39aadaecf1068767dfb608ef78d06d994219f115d07e737cc2ef7b521d1908390a350565b6201518083116135f45760405162461bcd60e51b815260040180806020018281038252602f81526020018061574f602f913960400191505060405180910390fd5b60018210156136345760405162461bcd60e51b815260040180806020018281038252602381526020018061586d6023913960400191505060405180910390fd5b33600081815260d460205260408082208054600160ff1990911681178255808201879055600282018890556003820180546001600160a01b0319166001600160a01b0388161790559151909391927fe1c5e39aadaecf1068767dfb608ef78d06d994219f115d07e737cc2ef7b521d191a350505050565b600081815260d36020526040812080548391906001600160a01b031633141561371b576040805162461bcd60e51b815260206004820181905260248201527f53656c6c65722063616e6e6f7420627579207468656972206f776e2066696c65604482015290519081900360640190fd5b33600090815260048201602052604090205460ff1615613782576040805162461bcd60e51b815260206004820152601b60248201527f42757965722063616e6e6f74206275792066696c6520616761696e0000000000604482015290519081900360640190fd5b600084815260d36020526040902080546001600160a01b03163314156137ef576040805162461bcd60e51b815260206004820152601e60248201527f53656c6c65722063616e6e6f742062757920686973206f776e2066696c650000604482015290519081900360640190fd5b600181015481546003830154604080516323b872dd60e01b81523360048201526001600160a01b03938416602482015260448101929092525191909216916323b872dd9160648083019260209291908290030181600087803b15801561385457600080fd5b505af1158015613868573d6000803e3d6000fd5b505050506040513d602081101561387e57600080fd5b5050336000818152600483016020526040808220805460ff191660011790555187917f7534e9c9396820aad756ba27f82162930f80bef863aabdf311e7dce26a79bccd91a3505050919050565b60d05481565b60d460205260009081526040902080546001820154600283015460039093015460ff9092169290916001600160a01b031684565b60d55481565b613913612735565b61391c57600080fd5b61195881614fc7565b600090815260d26020526040902060070154600160a01b900460ff1690565b60008261395357506000611291565b8282028284828161396057fe5b041461399d5760405162461bcd60e51b815260040180806020018281038252602181526020018061570a6021913960400191505060405180910390fd5b9392505050565b60008282018381101561399d576040805162461bcd60e51b815260206004820152601b60248201527f536166654d6174683a206164646974696f6e206f766572666c6f770000000000604482015290519081900360640190fd5b60008083613a1157506000905080613a39565b83830283858281613a1e57fe5b0414613a3257506002915060009050613a39565b6000925090505b9250929050565b600080838311613a57575060009050818303613a39565b50600390506000613a39565b3390565b60006001600160a01b038216613a7c57600080fd5b506001600160a01b03166000908152602091909152604090205460ff1690565b613aa4615132565b50600081815260d26020908152604080832081516101208101835281548152600182015493810193909352600281015491830191909152600381015460608301526004810154608083015260058101546001600160a01b0390811660a08401526006820154811660c0840181905260079092015490811660e0840152600160a01b900460ff161515610100830152909190613b40908490610e9f565b90506000613b52848460a00151610e9f565b600085815260d26020526040812081815560018101829055600281018290556003810182905560048101919091556005810180546001600160a01b03199081169091556006820180549091169055600701805474ffffffffffffffffffffffffffffffffffffffffff1916905560e08401519091508115613cae57806001600160a01b031663a9059cbb8560a00151846040518363ffffffff1660e01b815260040180836001600160a01b03166001600160a01b0316815260200182815260200192505050602060405180830381600087803b158015613c3157600080fd5b505af1158015613c45573d6000803e3d6000fd5b505050506040513d6020811015613c5b57600080fd5b5051613cae576040805162461bcd60e51b815260206004820181905260248201527f726563697069656e7420746f6b656e207472616e73666572206661696c757265604482015290519081900360640190fd5b8215613d9557806001600160a01b031663a9059cbb8560c00151856040518363ffffffff1660e01b815260040180836001600160a01b03166001600160a01b0316815260200182815260200192505050602060405180830381600087803b158015613d1857600080fd5b505af1158015613d2c573d6000803e3d6000fd5b505050506040513d6020811015613d4257600080fd5b5051613d95576040805162461bcd60e51b815260206004820152601d60248201527f73656e64657220746f6b656e207472616e73666572206661696c757265000000604482015290519081900360640190fd5b8360a001516001600160a01b03168460c001516001600160a01b0316867fca3e6079b726e7728802a0537949e2d1c7762304fa641fb06eb56daf2ba8c6b98686604051808381526020018281526020019250505060405180910390a45050505050565b613e00615132565b50600081815260d2602090815260409182902082516101208101845281548152600182015492810192909252600281015492820192909252600382015460608201526004820154608082015260058201546001600160a01b0390811660a08301526006830154811660c083015260079092015491821660e0820152600160a01b90910460ff161515610100820152613e9661519b565b6000613ea6848460c00151610e9f565b90506000613eb8858560a00151610e9f565b90506000806000613ec98885611fcd565b925092509250613ed98584614cb9565b6020880181905287826003811115613eed57fe5b6003811115613ef857fe5b9052506000905086516003811115613f0c57fe5b14613f485760405162461bcd60e51b81526004018080602001828103825260248152602001806157ce6024913960400191505060405180910390fd5b613f528484613a40565b6040880181905287826003811115613f6657fe5b6003811115613f7157fe5b9052506000905086516003811115613f8557fe5b14613fc15760405162461bcd60e51b815260040180806020018281038252603b8152602001806156a8603b913960400191505060405180910390fd5b613fcf866040015182613a40565b6060880181905287826003811115613fe357fe5b6003811115613fee57fe5b905250600090508651600381111561400257fe5b1461403e5760405162461bcd60e51b81526004018080602001828103825260278152602001806156e36027913960400191505060405180910390fd5b60e08701516001600160a01b0316600090815260cf60205260409020546140659082614cb9565b60e08901516001600160a01b0316600090815260cf602052604090208190558782600381111561409157fe5b600381111561409c57fe5b90525060009050865160038111156140b057fe5b146140ec5760405162461bcd60e51b81526004018080602001828103825260238152602001806154c16023913960400191505060405180910390fd5b600088815260d260209081526040808320838155600180820185905560028083018690556003808401879055600484018790556005840180546001600160a01b031990811690915560068501805490911690556007909301805474ffffffffffffffffffffffffffffffffffffffffff1916905560cd855292852085815590810185905591820193909355909101805460ff1916905560e0880151908701511561427557806001600160a01b031663a9059cbb8960c0015189602001516040518363ffffffff1660e01b815260040180836001600160a01b03166001600160a01b0316815260200182815260200192505050602060405180830381600087803b1580156141f857600080fd5b505af115801561420c573d6000803e3d6000fd5b505050506040513d602081101561422257600080fd5b5051614275576040805162461bcd60e51b815260206004820152601d60248201527f73656e64657220746f6b656e207472616e73666572206661696c757265000000604482015290519081900360640190fd5b60608701511561436457806001600160a01b031663a9059cbb8960a0015189606001516040518363ffffffff1660e01b815260040180836001600160a01b03166001600160a01b0316815260200182815260200192505050602060405180830381600087803b1580156142e757600080fd5b505af11580156142fb573d6000803e3d6000fd5b505050506040513d602081101561431157600080fd5b5051614364576040805162461bcd60e51b815260206004820181905260248201527f726563697069656e7420746f6b656e207472616e73666572206661696c757265604482015290519081900360640190fd5b8760a001516001600160a01b03168860c001516001600160a01b03168a7fca3e6079b726e7728802a0537949e2d1c7762304fa641fb06eb56daf2ba8c6b98a602001518b60600151604051808381526020018281526020019250505060405180910390a4604080518581526020810185905280820184905290518a917f5a8a03e48302e0bd2e011a3a2b54d1f849c55497f462f404bf52dce4290456b5919081900360600190a2505050505050505050565b61441e615132565b50600082815260d2602090815260409182902082516101208101845281548152600182015492810192909252600281015492820192909252600382015460608201526004820154608082015260058201546001600160a01b0390811660a08301526006830154811660c083015260079092015491821660e0820152600160a01b90910460ff1615156101008201526144b461535f565b6144c2826040015184613a40565b600086815260d260205260409020600201819055828260038111156144e357fe5b60038111156144ee57fe5b905250600090508151600381111561450257fe5b1461450957fe5b600084815260d2602052604090206002015461458d57600084815260d26020526040812081815560018101829055600281018290556003810182905560048101919091556005810180546001600160a01b03199081169091556006820180549091169055600701805474ffffffffffffffffffffffffffffffffffffffffff191690555b8160e001516001600160a01b031663a9059cbb8360a00151856040518363ffffffff1660e01b815260040180836001600160a01b03166001600160a01b0316815260200182815260200192505050602060405180830381600087803b1580156145f557600080fd5b505af1158015614609573d6000803e3d6000fd5b505050506040513d602081101561461f57600080fd5b5051614672576040805162461bcd60e51b815260206004820152601660248201527f746f6b656e207472616e73666572206661696c75726500000000000000000000604482015290519081900360640190fd5b8160a001516001600160a01b0316847f36c3ab437e6a424ed25dc4bfdeb62706aa06558660fab2dab229d2555adaf89c856040518082815260200191505060405180910390a350505050565b6146c6615132565b50600082815260d2602090815260409182902082516101208101845281548152600182015492810192909252600281015492820192909252600382015460608201526004820154608082015260058201546001600160a01b0390811660a08301526006830154811660c083015260079092015491821660e0820152600160a01b90910460ff16151561010082015261475c615372565b600080600061476b8787611fcd565b92509250925061477b8684613a40565b602086018190528582600381111561478f57fe5b600381111561479a57fe5b90525060009050845160038111156147ae57fe5b146147ea5760405162461bcd60e51b81526004018080602001828103825260308152602001806156556030913960400191505060405180910390fd5b6147f8846020015182613a40565b604086018190528582600381111561480c57fe5b600381111561481757fe5b905250600090508451600381111561482b57fe5b146148675760405162461bcd60e51b81526004018080602001828103825260278152602001806155146027913960400191505060405180910390fd5b614875856040015187613a40565b600089815260d2602052604090206002018190558582600381111561489657fe5b60038111156148a157fe5b90525060009050845160038111156148b557fe5b146148f15760405162461bcd60e51b81526004018080602001828103825260258152602001806155836025913960400191505060405180910390fd5b600087815260d2602052604090206002015461499d57600087815260d260209081526040808320838155600180820185905560028083018690556003808401879055600484018790556005840180546001600160a01b031990811690915560068501805490911690556007909301805474ffffffffffffffffffffffffffffffffffffffffff1916905560cd9094529184208481559182018490559181019290925501805460ff191690555b60e08501516001600160a01b0316600090815260cf60205260409020546149c49082614cb9565b60e08701516001600160a01b0316600090815260cf60205260409020819055858260038111156149f057fe5b60038111156149fb57fe5b9052506000905084516003811115614a0f57fe5b14614a4b5760405162461bcd60e51b81526004018080602001828103825260238152602001806154c16023913960400191505060405180910390fd5b60e08501518315614b3757806001600160a01b031663a9059cbb8760c00151866040518363ffffffff1660e01b815260040180836001600160a01b03166001600160a01b0316815260200182815260200192505050602060405180830381600087803b158015614aba57600080fd5b505af1158015614ace573d6000803e3d6000fd5b505050506040513d6020811015614ae457600080fd5b5051614b37576040805162461bcd60e51b815260206004820152601d60248201527f73656e64657220746f6b656e207472616e73666572206661696c757265000000604482015290519081900360640190fd5b806001600160a01b031663a9059cbb8760a0015187604001516040518363ffffffff1660e01b815260040180836001600160a01b03166001600160a01b0316815260200182815260200192505050602060405180830381600087803b158015614b9f57600080fd5b505af1158015614bb3573d6000803e3d6000fd5b505050506040513d6020811015614bc957600080fd5b5051614c1c576040805162461bcd60e51b815260206004820181905260248201527f726563697069656e7420746f6b656e207472616e73666572206661696c757265604482015290519081900360640190fd5b8560a001516001600160a01b0316887f36c3ab437e6a424ed25dc4bfdeb62706aa06558660fab2dab229d2555adaf89c87604001516040518082815260200191505060405180910390a36040805185815260208101859052808201849052905189917f5a8a03e48302e0bd2e011a3a2b54d1f849c55497f462f404bf52dce4290456b5919081900360600190a25050505050505050565b303b1590565b600080838301848110614cd157600092509050613a39565b506002915060009050613a39565b614cf060668263ffffffff61503616565b6040516001600160a01b038216907f6719d08c1888103bea251a4ed56406bd0c3e69723c8a1686e017e7bbe159b6f890600090a250565b6000614d31615335565b600080614d4686600001518660000151613a40565b60408051602081019091529081529097909650945050505050565b6000614d6b615335565b600080614d7c8660000151866139fe565b90925090506000826003811115614d8f57fe5b14614dae57506040805160208101909152600081529092509050613a39565b60408051602081019091529081526000969095509350505050565b6000614dd3615335565b83518351614de19190615082565b915091509250929050565b51670de0b6b3a7640000900490565b6000614e05615335565b600080614e1a866000015186600001516139fe565b90925090506000826003811115614e2d57fe5b14614e4c57506040805160208101909152600081529092509050613a39565b600080614e616706f05b59d3b2000084614cb9565b90925090506000826003811115614e7457fe5b14614e9657506040805160208101909152600081529094509250613a39915050565b600080614eab83670de0b6b3a7640000614f9c565b90925090506000826003811115614ebe57fe5b14614ec557fe5b604080516020810190915290815260009a909950975050505050505050565b600054610100900460ff1680614efd5750614efd614cb3565b80614f0b575060005460ff16155b614f465760405162461bcd60e51b815260040180806020018281038252602e81526020018061577e602e913960400191505060405180910390fd5b600054610100900460ff16158015614f71576000805460ff1961ff0019909116610100171660011790555b614f7a8261127e565b614f8757614f8782614cdf565b8015612e4b576000805461ff00191690555050565b60008082614fb05750600190506000613a39565b6000838581614fbb57fe5b04915091509250929050565b6001600160a01b038116614fda57600080fd5b6033546040516001600160a01b038084169216907f8be0079c531659141344cd1fd0a4f28419497f9722a3daafe3b4186f6b6457e090600090a3603380546001600160a01b0319166001600160a01b0392909216919091179055565b6001600160a01b03811661504957600080fd5b6150538282613a67565b1561505d57600080fd5b6001600160a01b0316600090815260209190915260409020805460ff19166001179055565b600061508c615335565b6000806150a186670de0b6b3a76400006139fe565b909250905060008260038111156150b457fe5b146150d357506040805160208101909152600081529092509050613a39565b6000806150e08388614f9c565b909250905060008260038111156150f357fe5b1461511557506040805160208101909152600081529094509250613a39915050565b604080516020810190915290815260009890975095505050505050565b604051806101200160405280600081526020016000815260200160008152602001600081526020016000815260200160006001600160a01b0316815260200160006001600160a01b0316815260200160006001600160a01b031681526020016000151581525090565b604080516080810190915280600081526020016000815260200160008152602001600081525090565b828054600181600116156101000203166002900490600052602060002090601f016020900481019282601f1061520557805160ff1916838001178555615232565b82800160010185558215615232579182015b82811115615232578251825591602001919060010190615217565b5061523e929150615394565b5090565b6040805160a081019091528060008152602001600081526020016000815260200160008152602001600081525090565b6040518060800160405280615285615335565b8152602001615292615335565b815260200161529f615335565b8152600060209091015290565b60408051610140810190915280600081526020016152c8615335565b81526020016152d5615335565b81526020016152e2615335565b81526020016152ef615335565b81526020016152fc615335565b8152602001615309615335565b8152602001615316615335565b8152602001615323615335565b8152602001615330615335565b905290565b6040518060200160405280600081525090565b604080518082019091526000808252602082015290565b6040805160208101909152806000615330565b6040805160608101909152806000815260200160008152602001600081525090565b61135e91905b8082111561523e576000815560010161539a565b600054610100900460ff16806153c757506153c7614cb3565b806153d5575060005460ff16155b6154105760405162461bcd60e51b815260040180806020018281038252602e81526020018061577e602e913960400191505060405180910390fd5b600054610100900460ff1615801561543b576000805460ff1961ff0019909116610100171660011790555b603380546001600160a01b0319166001600160a01b0384811691909117918290556040519116906000907f8be0079c531659141344cd1fd0a4f28419497f9722a3daafe3b4186f6b6457e0908290a38015612e4b576000805461ff0019169055505056fe636f6d706f756e64696e672073747265616d20646f6573206e6f742065786973746561726e696e6773206164646974696f6e2063616c63756c6174696f6e206572726f72506175736572526f6c653a2063616c6c657220646f6573206e6f742068617665207468652050617573657220726f6c656e6574207769746864726177616c20616d6f756e742063616c63756c6174696f6e206572726f72616d6f756e7420657863656564732074686520617661696c61626c652062616c616e636553656c6c657220686173206e6f7420656e61626c656420737562736372697074696f6e7362616c616e6365207375627472616374696f6e2063616c63756c6174696f6e206572726f7273656e64657220696e7465726573742063616c63756c6174696f6e206572726f7273746172742074696d65206265666f726520626c6f636b2e74696d657374616d707361626c69657220696e7465726573742063616c63756c6174696f6e206572726f726465706f736974206e6f74206d756c7469706c65206f662074696d652064656c7461427579657220646f65736e277420686f6c6420612076616c696420737562736372697074696f6e616d6f756e7420776974686f75742073656e64657220696e7465726573742063616c63756c6174696f6e206572726f72726563697069656e7420696e74657265737420636f6e76657273696f6e206572726f72726563697069656e742062616c616e636520776974686f75742073656e64657220696e7465726573742063616c63756c6174696f6e206572726f726e657420726563697069656e742062616c616e63652063616c63756c6174696f6e206572726f72536166654d6174683a206d756c7469706c69636174696f6e206f766572666c6f77427579657220616c726561647920686f6c64657273206120737562736372697074696f6e616d6f756e742076616c75652063616e6e6f74206265206c657373207468616e2076616c7565206f66203120646179436f6e747261637420696e7374616e63652068617320616c7265616479206265656e20696e697469616c697a65645072696365206d757374206265206c657373207468616e2070726963654c696d69746e65742073656e6465722062616c616e63652063616c63756c6174696f6e206572726f727361626c69657220696e74657265737420636f6e76657273696f6e206572726f72726563697069656e742062616c616e63652063616c63756c6174696f6e206572726f7263616c6c6572206973206e6f74207468652073656e646572206f722074686520726563697069656e74206f66207468652073747265616d6d696e4475726174696f6e2073686f756c642062652061746c65617374203120646179a265627a7a72315820a308512bb6d78be36ddedf2a6f855de423994aad818a60ef4db64ad89859137e64736f6c634300050b0032436f6e747261637420696e7374616e63652068617320616c7265616479206265656e20696e697469616c697a656463546f6b656e4d616e6167657220636f6e747261637420697320746865207a65726f2061646472657373",
  "source": "pragma solidity 0.5.11;\n\nimport \"@openzeppelin/contracts-ethereum-package/contracts/token/ERC20/IERC20.sol\";\nimport \"@openzeppelin/contracts/math/SafeMath.sol\";\n\nimport \"./sablier/Sablier.sol\";\n\ncontract StorageMarketPlace is Sablier {\n    using SafeMath for uint256;\n\n    event Buy(uint256 indexed fileId, address indexed buyer);\n    event Sell(uint256 indexed fileId, address indexed seller);\n    event SubscriptionInfoUpdated(\n        address indexed seller,\n        bool indexed isEnabled\n    );\n    event SubscriptionCreated(\n        address indexed buyer,\n        address indexed seller,\n        uint256 indexed streamId\n    );\n    event SubscriptionWithdrawal(\n        address indexed seller,\n        uint256 indexed streamId,\n        uint256 amount\n    );\n    event SubscriptionCancelled(\n        address indexed buyer,\n        address indexed seller,\n        uint256 indexed streamId\n    );\n\n    // Struct for recording File metadata\n    struct File {\n        address seller;\n        address paymentAsset;\n        string metadataHash; // unique metadataHash\n        uint256 price;\n        mapping(address => bool) buyers;\n    }\n\n    // Struct to record the subscription price for each user\n    struct SubscriptionInfo {\n        bool isEnabled;\n        uint256 minDurationInDays;\n        uint256 amountPerDay;\n        address tokenAddress;\n        mapping(address => uint256) streams;\n    }\n\n    // Tracking the files with file id\n    mapping(uint256 => File) public Files;\n\n    // Tracking the subscriptions amounts for a particular seller\n    mapping(address => SubscriptionInfo) public subscriptions;\n\n    uint256 public priceLimit;\n    uint256 public fileCount;\n\n    modifier isValidPrice(uint256 _price) {\n        require(_price < priceLimit, \"Price must be less than priceLimit\");\n        _;\n    }\n\n    modifier isValidBuy(uint256 _fileId) {\n        File storage file = Files[_fileId];\n        require(msg.sender != file.seller, \"Seller cannot buy their own file\");\n        require(\n            file.buyers[msg.sender] == false,\n            \"Buyer cannot buy file again\"\n        );\n        _;\n    }\n\n    constructor(uint256 _priceLimit) public Sablier(msg.sender) {\n        require(_priceLimit > 0, \"Price Limit cannot be 0\");\n        priceLimit = _priceLimit;\n    }\n\n    /**\n     * @dev Makes a file available for selling\n     * @param _paymentAsset - asset to be used for payment (currently DAI)\n     * @param _price - price of the Files\n     * @param _metadataHash - ipfs hash of the file metadata\n     */\n    function sell(\n        address _paymentAsset,\n        uint256 _price,\n        string calldata _metadataHash\n    ) external isValidPrice(_price) returns (uint256) {\n        Files[fileCount] = File(\n            msg.sender,\n            _paymentAsset,\n            _metadataHash,\n            _price\n        );\n        uint256 currentFile = fileCount;\n        fileCount++;\n        emit Sell(currentFile, msg.sender);\n        return currentFile;\n    }\n\n    /**\n     * @dev Payment Function through which user pays the payment for the particular file and get's provate access to the exclusive content\n     * @param _fileId - file Id of the particular File\n     */\n    function buy(uint256 _fileId) external isValidBuy(_fileId) returns (bool) {\n        File storage file = Files[_fileId];\n        require(msg.sender != file.seller, \"Seller cannot buy his own file\");\n        IERC20(file.paymentAsset).transferFrom(\n            msg.sender,\n            file.seller,\n            file.price\n        );\n        file.buyers[msg.sender] = true;\n        emit Buy(_fileId, msg.sender);\n    }\n\n    function updateSubscriptionInfo(\n        uint256 _amountPerDay,\n        uint256 _minDurationInDays,\n        address _tokenAddress\n    ) external {\n        require(\n            _amountPerDay > 1 days,\n            \"amount value cannot be less than value of 1 day\"\n        );\n        require(_minDurationInDays >= 1, \"minDuration should be atleast 1 day\");\n        SubscriptionInfo storage subscription = subscriptions[msg.sender];\n        subscription.isEnabled = true;\n        subscription.minDurationInDays = _minDurationInDays;\n        subscription.amountPerDay = _amountPerDay;\n        subscription.tokenAddress = _tokenAddress;\n        emit SubscriptionInfoUpdated(msg.sender, true);\n    }\n\n    function disableSubscriptionInfo() external {\n        SubscriptionInfo storage subscription = subscriptions[msg.sender];\n        subscription.isEnabled = false;\n        emit SubscriptionInfoUpdated(msg.sender, false);\n    }\n\n    /**\n     * @dev Creates a Subscription for future content for that particular seller during a specific duration\n     * @param _deposit - Subscription amount\n     * @param _token - payment asset address\n     * @param _numDays - number of days of subscription\n     * @param _seller - seller address whose subscription is being brought\n     */\n    function createSubscription(\n        uint256 _deposit,\n        address _token,\n        uint256 _numDays,\n        address _seller\n    ) external {\n        SubscriptionInfo storage subscription = subscriptions[_seller];\n        uint256 _oldStreamId = subscription.streams[msg.sender];\n        require(subscription.isEnabled, \"Seller has not enabled subscriptions\");\n        require(!isValid(_oldStreamId), \"Buyer already holders a subscription\");\n        require(\n            _deposit == _numDays.mul(subscription.amountPerDay),\n            \"Deposit amount incorrect\"\n        );\n        uint256 _startTime = block.timestamp;\n        uint256 _stopTime = _startTime.add(_numDays.mul(1 days));\n        uint256 _streamId = createStream(\n            _seller,\n            _deposit,\n            _token,\n            _startTime,\n            _stopTime\n        );\n        subscription.streams[msg.sender] = _streamId;\n        emit SubscriptionCreated(msg.sender, _seller, _streamId);\n    }\n\n    function withdrawFromSubscription(uint256 _streamId, uint256 _amount)\n        external\n    {\n        require(isValid(_streamId), \"Invalid Subscription\");\n        withdrawFromStream(_streamId, _amount);\n        emit SubscriptionWithdrawal(msg.sender, _streamId, _amount);\n    }\n\n    function cancelSubscription(address _seller) external {\n        SubscriptionInfo storage subscription = subscriptions[_seller];\n        uint256 _streamId = subscription.streams[msg.sender];\n        require(isValid(_streamId), \"Buyer doesn't hold a valid subscription\");\n        cancelStream(_streamId);\n        emit SubscriptionCancelled(msg.sender, _seller, _streamId);\n    }\n\n    function isBuyer(uint256 _fileId, address buyer)\n        public\n        view\n        returns (bool)\n    {\n        File storage file = Files[_fileId];\n        return file.buyers[buyer];\n    }\n\n    function isSubscriber(address _seller, address _buyer)\n        public\n        view\n        returns (bool)\n    {\n        SubscriptionInfo storage subscription = subscriptions[_seller];\n        return isValid(subscription.streams[_buyer]);\n    }\n}\n",
  "sourcePath": "/media/dhiraj/code/hackfs/shopfs/dapp/contracts/StorageMarket.sol",
  "compiler": {
    "name": "solc",
    "version": "0.5.11+commit.c082d0b4.Emscripten.clang"
  },
  "schemaVersion": "3.2.3",
  "updatedAt": "2020-08-02T09:49:52.512Z",
  "devdoc": {
    "methods": {
      "balanceOf(uint256,address)": {
        "details": "Throws if the id does not point to a valid stream.",
        "params": {
          "streamId": "The id of the stream for whom to query the balance.",
          "who": "The address for whom to query the balance."
        },
        "return": "The total funds allocated to `who` as uint256."
      },
      "buy(uint256)": {
        "details": "Payment Function through which user pays the payment for the particular file and get's provate access to the exclusive content",
        "params": {
          "_fileId": "- file Id of the particular File"
        }
      },
      "cancelStream(uint256)": {
        "details": "Throws if the id does not point to a valid stream. Throws if the caller is not the sender or the recipient of the stream. Throws if there is a token transfer failure.",
        "params": {
          "streamId": "The id of the stream to cancel."
        },
        "return": "bool true=success, otherwise false."
      },
      "createCompoundingStream(address,uint256,address,uint256,uint256,uint256,uint256)": {
        "details": "Inherits all security checks from `createStream`. Throws if the cToken is not whitelisted. Throws if the sender share percentage and the recipient share percentage do not sum up to 100. Throws if the the sender share mantissa calculation has a math error. Throws if the the recipient share mantissa calculation has a math error.",
        "params": {
          "deposit": "The amount of money to be streamed.",
          "recipient": "The address towards which the money is streamed.",
          "recipientSharePercentage": "The recipient's share of the interest, as a percentage.",
          "senderSharePercentage": "The sender's share of the interest, as a percentage.",
          "startTime": "The unix timestamp for when the stream starts.",
          "stopTime": "The unix timestamp for when the stream stops.",
          "tokenAddress": "The ERC20 token to use as streaming currency."
        },
        "return": "The uint256 id of the newly created compounding stream."
      },
      "createStream(address,uint256,address,uint256,uint256)": {
        "details": "Throws if paused. Throws if the recipient is the zero address, the contract itself or the caller. Throws if the deposit is 0. Throws if the start time is before `block.timestamp`. Throws if the stop time is before the start time. Throws if the duration calculation has a math error. Throws if the deposit is smaller than the duration. Throws if the deposit is not a multiple of the duration. Throws if the rate calculation has a math error. Throws if the next stream id calculation has a math error. Throws if the contract is not allowed to transfer enough tokens. Throws if there is a token transfer failure.",
        "params": {
          "deposit": "The amount of money to be streamed.",
          "recipient": "The address towards which the money is streamed.",
          "startTime": "The unix timestamp for when the stream starts.",
          "stopTime": "The unix timestamp for when the stream stops.",
          "tokenAddress": "The ERC20 token to use as streaming currency."
        },
        "return": "The uint256 id of the newly created stream."
      },
      "createSubscription(uint256,address,uint256,address)": {
        "details": "Creates a Subscription for future content for that particular seller during a specific duration",
        "params": {
          "_deposit": "- Subscription amount",
          "_numDays": "- number of days of subscription",
          "_seller": "- seller address whose subscription is being brought",
          "_token": "- payment asset address"
        }
      },
      "deltaOf(uint256)": {
        "details": "Throws if the id does not point to a valid stream.",
        "params": {
          "streamId": "The id of the stream for whom to query the delta."
        },
        "return": "The time delta in seconds."
      },
      "getCompoundingStream(uint256)": {
        "details": "Throws if the id does not point to a valid compounding stream.",
        "params": {
          "streamId": "The id of the compounding stream to query."
        },
        "return": "The compounding stream object."
      },
      "getEarnings(address)": {
        "params": {
          "tokenAddress": "The address of the token to get the earnings for."
        },
        "return": "The amount of interest as uint256."
      },
      "getStream(uint256)": {
        "details": "Throws if the id does not point to a valid stream.",
        "params": {
          "streamId": "The id of the stream to query."
        },
        "return": "The stream object."
      },
      "initialize(address)": {
        "details": "Initializes the contract in unpaused state. Assigns the Pauser role to the deployer."
      },
      "interestOf(uint256,uint256)": {
        "details": "Throws if there is a math error. We do not assert the calculations which involve the current exchange rate, because we can't know what value we'll get back from the cToken contract.",
        "return": "The interest accrued by the sender, the recipient and sablier, respectively, as uint256s."
      },
      "isCompoundingStream(uint256)": {
        "params": {
          "streamId": "The id of the compounding stream to check."
        },
        "return": "bool true=it is compounding stream, otherwise false."
      },
      "isOwner()": {
        "return": "true if `msg.sender` is the owner of the contract."
      },
      "owner()": {
        "return": "the address of the owner."
      },
      "pause()": {
        "details": "Called by a pauser to pause, triggers stopped state."
      },
      "paused()": {
        "details": "Returns true if the contract is paused, and false otherwise."
      },
      "sell(address,uint256,string)": {
        "details": "Makes a file available for selling",
        "params": {
          "_metadataHash": "- ipfs hash of the file metadata",
          "_paymentAsset": "- asset to be used for payment (currently DAI)",
          "_price": "- price of the Files"
        }
      },
      "takeEarnings(address,uint256)": {
        "details": "Throws if `amount` exceeds the available balance.",
        "params": {
          "amount": "The amount of tokens to withdraw.",
          "tokenAddress": "The address of the token to withdraw earnings for."
        }
      },
      "transferOwnership(address)": {
        "details": "Allows the current owner to transfer control of the contract to a newOwner.",
        "params": {
          "newOwner": "The address to transfer ownership to."
        }
      },
      "unpause()": {
        "details": "Called by a pauser to unpause, returns to normal state."
      },
      "updateFee(uint256)": {
        "details": "Throws if the caller is not the owner of the contract. Throws if `feePercentage` is not lower or equal to 100.",
        "params": {
          "feePercentage": "The new fee as a percentage."
        }
      },
      "withdrawFromStream(uint256,uint256)": {
        "details": "Throws if the id does not point to a valid stream. Throws if the caller is not the sender or the recipient of the stream. Throws if the amount exceeds the available balance. Throws if there is a token transfer failure.",
        "params": {
          "amount": "The amount of tokens to withdraw.",
          "streamId": "The id of the stream to withdraw tokens from."
        },
        "return": "bool true=success, otherwise false."
      }
    }
  },
  "userdoc": {
    "methods": {
      "balanceOf(uint256,address)": {
        "notice": "Returns the available funds for the given stream id and address."
      },
      "cancelStream(uint256)": {
        "notice": "Cancels the stream and transfers the tokens back on a pro rata basis."
      },
      "createCompoundingStream(address,uint256,address,uint256,uint256,uint256,uint256)": {
        "notice": "Creates a new compounding stream funded by `msg.sender` and paid towards `recipient`."
      },
      "createStream(address,uint256,address,uint256,uint256)": {
        "notice": "Creates a new stream funded by `msg.sender` and paid towards `recipient`."
      },
      "deltaOf(uint256)": {
        "notice": "Returns either the delta in seconds between `block.timestamp` and `startTime` or between `stopTime` and `startTime, whichever is smaller. If `block.timestamp` is before `startTime`, it returns 0."
      },
      "getCompoundingStream(uint256)": {
        "notice": "Returns the compounding stream object with all its properties."
      },
      "getEarnings(address)": {
        "notice": "Returns the amount of interest that has been accrued for the given token address."
      },
      "getStream(uint256)": {
        "notice": "Returns the compounding stream with all its properties."
      },
      "interestOf(uint256,uint256)": {
        "notice": "Computes the interest accrued by keeping the amount of tokens in the contract. Returns (0, 0, 0) if the stream is not a compounding stream."
      },
      "isCompoundingStream(uint256)": {
        "notice": "Checks if the given id points to a compounding stream."
      },
      "isValid(uint256)": {
        "notice": "* View Functions **"
      },
      "takeEarnings(address,uint256)": {
        "notice": "Withdraws the earnings for the given token address."
      },
      "updateFee(uint256)": {
        "notice": "Updates the Sablier fee."
      },
      "withdrawFromStream(uint256,uint256)": {
        "notice": "Withdraws from the contract to the recipient's account."
      }
    }
  }
}