{
  "contractName": "StorageMarketPlace",
  "abi": [
    {
      "inputs": [
        {
          "internalType": "uint256",
          "name": "_priceLimit",
          "type": "uint256"
        }
      ],
      "stateMutability": "nonpayable",
      "type": "constructor"
    },
    {
      "inputs": [
        {
          "internalType": "uint256",
          "name": "",
          "type": "uint256"
        }
      ],
      "name": "Files",
      "outputs": [
        {
          "internalType": "address",
          "name": "seller",
          "type": "address"
        },
        {
          "internalType": "address",
          "name": "paymentAsset",
          "type": "address"
        },
        {
          "internalType": "string",
          "name": "metadataHash",
          "type": "string"
        },
        {
          "internalType": "uint256",
          "name": "price",
          "type": "uint256"
        },
        {
          "internalType": "uint256",
          "name": "numRetrievals",
          "type": "uint256"
        }
      ],
      "stateMutability": "view",
      "type": "function"
    },
    {
      "inputs": [
        {
          "internalType": "address",
          "name": "",
          "type": "address"
        },
        {
          "internalType": "uint256",
          "name": "",
          "type": "uint256"
        }
      ],
      "name": "buyerInfo",
      "outputs": [
        {
          "internalType": "uint256",
          "name": "",
          "type": "uint256"
        }
      ],
      "stateMutability": "view",
      "type": "function"
    },
    {
      "inputs": [],
      "name": "fileCount",
      "outputs": [
        {
          "internalType": "uint256",
          "name": "",
          "type": "uint256"
        }
      ],
      "stateMutability": "view",
      "type": "function"
    },
    {
      "inputs": [
        {
          "internalType": "string",
          "name": "",
          "type": "string"
        }
      ],
      "name": "hashToFile",
      "outputs": [
        {
          "internalType": "uint256",
          "name": "",
          "type": "uint256"
        }
      ],
      "stateMutability": "view",
      "type": "function"
    },
    {
      "inputs": [],
      "name": "priceLimit",
      "outputs": [
        {
          "internalType": "uint256",
          "name": "",
          "type": "uint256"
        }
      ],
      "stateMutability": "view",
      "type": "function"
    },
    {
      "inputs": [
        {
          "internalType": "address",
          "name": "_paymentAsset",
          "type": "address"
        },
        {
          "internalType": "uint256",
          "name": "_price",
          "type": "uint256"
        },
        {
          "internalType": "string",
          "name": "_metadataHash",
          "type": "string"
        }
      ],
      "name": "sell",
      "outputs": [
        {
          "internalType": "bool",
          "name": "",
          "type": "bool"
        }
      ],
      "stateMutability": "nonpayable",
      "type": "function"
    },
    {
      "inputs": [
        {
          "internalType": "uint256",
          "name": "_id",
          "type": "uint256"
        }
      ],
      "name": "buy",
      "outputs": [
        {
          "internalType": "bool",
          "name": "",
          "type": "bool"
        }
      ],
      "stateMutability": "nonpayable",
      "type": "function"
    },
    {
      "inputs": [
        {
          "internalType": "string",
          "name": "_metadataHash",
          "type": "string"
        }
      ],
      "name": "getFileFromHash",
      "outputs": [
        {
          "components": [
            {
              "internalType": "address",
              "name": "seller",
              "type": "address"
            },
            {
              "internalType": "address",
              "name": "paymentAsset",
              "type": "address"
            },
            {
              "internalType": "string",
              "name": "metadataHash",
              "type": "string"
            },
            {
              "internalType": "uint256",
              "name": "price",
              "type": "uint256"
            },
            {
              "internalType": "uint256",
              "name": "numRetrievals",
              "type": "uint256"
            }
          ],
          "internalType": "struct StorageMarketPlace.File",
          "name": "file",
          "type": "tuple"
        }
      ],
      "stateMutability": "view",
      "type": "function"
    }
  ],
  "bytecode": "0x60806040523480156200001157600080fd5b5060405162001618380380620016188339818101604052620000379190810190620000a2565b600081116200007d576040517f08c379a0000000000000000000000000000000000000000000000000000000008152600401620000749062000110565b60405180910390fd5b806003819055505062000167565b6000815190506200009c816200014d565b92915050565b600060208284031215620000b557600080fd5b6000620000c5848285016200008b565b91505092915050565b6000620000dd60178362000132565b91507f5072696365204c696d69742063616e6e6f7420626520300000000000000000006000830152602082019050919050565b600060208201905081810360008301526200012b81620000ce565b9050919050565b600082825260208201905092915050565b6000819050919050565b620001588162000143565b81146200016457600080fd5b50565b6114a180620001776000396000f3fe608060405234801561001057600080fd5b50600436106100885760003560e01c80636d97786e1161005b5780636d97786e1461013f578063943fc11b1461016f578063d96a094a1461019f578063f0e1ba2c146101cf57610088565b806323fc43a91461008d57806343953519146100bd57806347d52ef2146100db57806357cb50191461010f575b600080fd5b6100a760048036036100a29190810190610deb565b6101ed565b6040516100b49190611272565b60405180910390f35b6100c561021b565b6040516100d29190611272565b60405180910390f35b6100f560048036036100f09190810190610e6d565b610221565b60405161010695949392919061117b565b60405180910390f35b61012960048036036101249190810190610d1a565b61032f565b6040516101369190611272565b60405180910390f35b61015960048036036101549190810190610d56565b61035d565b60405161016691906111d5565b60405180910390f35b61018960048036036101849190810190610e2c565b61066a565b6040516101969190611250565b60405180910390f35b6101b960048036036101b49190810190610e6d565b610816565b6040516101c691906111d5565b60405180910390f35b6101d7610a96565b6040516101e49190611272565b60405180910390f35b6001818051602081018201805184825260208301602085012081835280955050505050506000915090505481565b60045481565b60006020528060005260406000206000915090508060000160009054906101000a900473ffffffffffffffffffffffffffffffffffffffff16908060010160009054906101000a900473ffffffffffffffffffffffffffffffffffffffff1690806002018054600181600116156101000203166002900480601f0160208091040260200160405190810160405280929190818152602001828054600181600116156101000203166002900480156103195780601f106102ee57610100808354040283529160200191610319565b820191906000526020600020905b8154815290600101906020018083116102fc57829003601f168201915b5050505050908060030154908060040154905085565b6002602052816000526040600020818154811061034857fe5b90600052602060002001600091509150505481565b600082828080601f016020809104026020016040519081016040528093929190818152602001838380828437600081840152601f19601f8201169050808301925050505050505060006001826040516103b6919061112d565b908152602001604051809103902054905060008060008381526020019081526020016000209050600073ffffffffffffffffffffffffffffffffffffffff168160000160009054906101000a900473ffffffffffffffffffffffffffffffffffffffff1673ffffffffffffffffffffffffffffffffffffffff1614610470576040517f08c379a000000000000000000000000000000000000000000000000000000000815260040161046790611210565b60405180910390fd5b60035487106104b4576040517f08c379a00000000000000000000000000000000000000000000000000000000081526004016104ab90611230565b60405180910390fd5b6040518060a001604052803373ffffffffffffffffffffffffffffffffffffffff1681526020018973ffffffffffffffffffffffffffffffffffffffff16815260200187878080601f016020809104026020016040519081016040528093929190818152602001838380828437600081840152601f19601f8201169050808301925050505050505081526020018881526020016000815250600080600454815260200190815260200160002060008201518160000160006101000a81548173ffffffffffffffffffffffffffffffffffffffff021916908373ffffffffffffffffffffffffffffffffffffffff16021790555060208201518160010160006101000a81548173ffffffffffffffffffffffffffffffffffffffff021916908373ffffffffffffffffffffffffffffffffffffffff160217905550604082015181600201908051906020019061060a929190610a9c565b50606082015181600301556080820151816004015590505060045460018787604051610637929190611114565b90815260200160405180910390208190555060046000815480929190600101919050555060019350505050949350505050565b610672610b1c565b600080600184604051610685919061112d565b90815260200160405180910390205481526020019081526020016000206040518060a00160405290816000820160009054906101000a900473ffffffffffffffffffffffffffffffffffffffff1673ffffffffffffffffffffffffffffffffffffffff1673ffffffffffffffffffffffffffffffffffffffff1681526020016001820160009054906101000a900473ffffffffffffffffffffffffffffffffffffffff1673ffffffffffffffffffffffffffffffffffffffff1673ffffffffffffffffffffffffffffffffffffffff168152602001600282018054600181600116156101000203166002900480601f0160208091040260200160405190810160405280929190818152602001828054600181600116156101000203166002900480156107f25780601f106107c7576101008083540402835291602001916107f2565b820191906000526020600020905b8154815290600101906020018083116107d557829003601f168201915b50505050508152602001600382015481526020016004820154815250509050919050565b60008060008084815260200190815260200160002090508060000160009054906101000a900473ffffffffffffffffffffffffffffffffffffffff1673ffffffffffffffffffffffffffffffffffffffff163373ffffffffffffffffffffffffffffffffffffffff1614156108c0576040517f08c379a00000000000000000000000000000000000000000000000000000000081526004016108b7906111f0565b60405180910390fd5b8060010160009054906101000a900473ffffffffffffffffffffffffffffffffffffffff1673ffffffffffffffffffffffffffffffffffffffff166323b872dd338360000160009054906101000a900473ffffffffffffffffffffffffffffffffffffffff1684600301546040518463ffffffff1660e01b815260040161094993929190611144565b602060405180830381600087803b15801561096357600080fd5b505af1158015610977573d6000803e3d6000fd5b505050506040513d601f19601f8201168201806040525061099b9190810190610dc2565b5080600401600081548092919060010191905055506000600260003373ffffffffffffffffffffffffffffffffffffffff1673ffffffffffffffffffffffffffffffffffffffff1681526020019081526020016000209050600081805490501115610a2d5780849080600181540180825580915050600190039060005260206000200160009091909190915055610a8b565b604051806020016040528085815250600260003373ffffffffffffffffffffffffffffffffffffffff1673ffffffffffffffffffffffffffffffffffffffff168152602001908152602001600020906001610a89929190610b77565b505b600192505050919050565b60035481565b828054600181600116156101000203166002900490600052602060002090601f016020900481019282601f10610add57805160ff1916838001178555610b0b565b82800160010185558215610b0b579182015b82811115610b0a578251825591602001919060010190610aef565b5b509050610b189190610bc4565b5090565b6040518060a00160405280600073ffffffffffffffffffffffffffffffffffffffff168152602001600073ffffffffffffffffffffffffffffffffffffffff1681526020016060815260200160008152602001600081525090565b828054828255906000526020600020908101928215610bb3579160200282015b82811115610bb2578251825591602001919060010190610b97565b5b509050610bc09190610bc4565b5090565b610be691905b80821115610be2576000816000905550600101610bca565b5090565b90565b600081359050610bf881611426565b92915050565b600081519050610c0d8161143d565b92915050565b60008083601f840112610c2557600080fd5b8235905067ffffffffffffffff811115610c3e57600080fd5b602083019150836001820283011115610c5657600080fd5b9250929050565b600082601f830112610c6e57600080fd5b8135610c81610c7c826112ba565b61128d565b91508082526020830160208301858383011115610c9d57600080fd5b610ca88382846113d3565b50505092915050565b600082601f830112610cc257600080fd5b8135610cd5610cd0826112e6565b61128d565b91508082526020830160208301858383011115610cf157600080fd5b610cfc8382846113d3565b50505092915050565b600081359050610d1481611454565b92915050565b60008060408385031215610d2d57600080fd5b6000610d3b85828601610be9565b9250506020610d4c85828601610d05565b9150509250929050565b60008060008060608587031215610d6c57600080fd5b6000610d7a87828801610be9565b9450506020610d8b87828801610d05565b935050604085013567ffffffffffffffff811115610da857600080fd5b610db487828801610c13565b925092505092959194509250565b600060208284031215610dd457600080fd5b6000610de284828501610bfe565b91505092915050565b600060208284031215610dfd57600080fd5b600082013567ffffffffffffffff811115610e1757600080fd5b610e2384828501610c5d565b91505092915050565b600060208284031215610e3e57600080fd5b600082013567ffffffffffffffff811115610e5857600080fd5b610e6484828501610cb1565b91505092915050565b600060208284031215610e7f57600080fd5b6000610e8d84828501610d05565b91505092915050565b610e9f8161139d565b82525050565b610eae81611355565b82525050565b610ebd81611355565b82525050565b610ecc81611367565b82525050565b6000610ede838561134a565b9350610eeb8385846113d3565b82840190509392505050565b6000610f028261131d565b610f0c818561134a565b9350610f1c8185602086016113e2565b80840191505092915050565b6000610f3382611312565b610f3d8185611328565b9350610f4d8185602086016113e2565b610f5681611415565b840191505092915050565b6000610f6c82611312565b610f768185611339565b9350610f868185602086016113e2565b610f8f81611415565b840191505092915050565b6000610fa7601e83611339565b91507f53656c6c65722063616e6e6f742062757920686973206f776e2066696c6500006000830152602082019050919050565b6000610fe7601b83611339565b91507f43616e6e6f742075706c6f6164206578697374696e672066696c6500000000006000830152602082019050919050565b6000611027602b83611339565b91507f50726963652068617320746f206265206c657373207468616e2061207365742060008301527f7072696365206c696d69740000000000000000000000000000000000000000006020830152604082019050919050565b600060a0830160008301516110986000860182610ea5565b5060208301516110ab6020860182610ea5565b50604083015184820360408601526110c38282610f28565b91505060608301516110d860608601826110f6565b5060808301516110eb60808601826110f6565b508091505092915050565b6110ff81611393565b82525050565b61110e81611393565b82525050565b6000611121828486610ed2565b91508190509392505050565b60006111398284610ef7565b915081905092915050565b60006060820190506111596000830186610e96565b6111666020830185610eb4565b6111736040830184611105565b949350505050565b600060a0820190506111906000830188610eb4565b61119d6020830187610eb4565b81810360408301526111af8186610f61565b90506111be6060830185611105565b6111cb6080830184611105565b9695505050505050565b60006020820190506111ea6000830184610ec3565b92915050565b6000602082019050818103600083015261120981610f9a565b9050919050565b6000602082019050818103600083015261122981610fda565b9050919050565b600060208201905081810360008301526112498161101a565b9050919050565b6000602082019050818103600083015261126a8184611080565b905092915050565b60006020820190506112876000830184611105565b92915050565b6000604051905081810181811067ffffffffffffffff821117156112b057600080fd5b8060405250919050565b600067ffffffffffffffff8211156112d157600080fd5b601f19601f8301169050602081019050919050565b600067ffffffffffffffff8211156112fd57600080fd5b601f19601f8301169050602081019050919050565b600081519050919050565b600081519050919050565b600082825260208201905092915050565b600082825260208201905092915050565b600081905092915050565b600061136082611373565b9050919050565b60008115159050919050565b600073ffffffffffffffffffffffffffffffffffffffff82169050919050565b6000819050919050565b60006113a8826113af565b9050919050565b60006113ba826113c1565b9050919050565b60006113cc82611373565b9050919050565b82818337600083830152505050565b60005b838110156114005780820151818401526020810190506113e5565b8381111561140f576000848401525b50505050565b6000601f19601f8301169050919050565b61142f81611355565b811461143a57600080fd5b50565b61144681611367565b811461145157600080fd5b50565b61145d81611393565b811461146857600080fd5b5056fea2646970667358221220c2150bfd570bf727d7d0db497002acb6d12575ce0ea64eb113da531aab7fdc8464736f6c63430006000033",
  "source": "pragma solidity ^0.6.0;\npragma experimental ABIEncoderV2;\n\n\n/**\n * @title ERC20 interface\n * @dev see https://eips.ethereum.org/EIPS/eip-20\n */\ninterface IERC20 {\n    function transfer(address to, uint256 value) external returns (bool);\n\n    function approve(address spender, uint256 value) external returns (bool);\n\n    function transferFrom(address from, address to, uint256 value) external returns (bool);\n\n    function totalSupply() external view returns (uint256);\n\n    function balanceOf(address who) external view returns (uint256);\n\n    function allowance(address owner, address spender) external view returns (uint256);\n\n    event Transfer(address indexed from, address indexed to, uint256 value);\n\n    event Approval(address indexed owner, address indexed spender, uint256 value);\n}\n\ncontract StorageMarketPlace {\n   \n    modifier isUploaded(string memory _hash) {\n        uint fileId = hashToFile[_hash];\n        File storage existingFile = Files[fileId];\n        require(existingFile.seller == address(0), \"Cannot upload existing file\");\n        _;\n    }\n   \n\n    struct File {\n        address seller;\n        address paymentAsset;\n        string metadataHash; // unique metadataHash\n        uint price;\n        uint numRetrievals;\n    }\n    \n    mapping(uint => File) public Files;\n    mapping(string => uint) public hashToFile;\n\n    // for tracking buyer and the files he brought\n    mapping(address => uint[]) public buyerInfo;\n\n    uint public priceLimit;\n    uint public fileCount;\n\n\n    constructor(uint _priceLimit) public {\n        require(_priceLimit > 0, \"Price Limit cannot be 0\");\n        priceLimit = _priceLimit;\n    }\n   \n    function sell(address _paymentAsset, uint _price, string calldata _metadataHash) isUploaded(_metadataHash) external returns(bool) {\n        require(_price < priceLimit, \"Price has to be less than a set price limit\");\n        Files[fileCount] = File(msg.sender, _paymentAsset, _metadataHash, _price, 0);\n        hashToFile[_metadataHash] = fileCount;\n        fileCount ++;\n        return true;\n    }\n   \n    function buy(uint _id) external returns(bool) {\n        File storage file = Files[_id];\n        require(msg.sender != file.seller, \"Seller cannot buy his own file\");\n        IERC20(file.paymentAsset).transferFrom(msg.sender, file.seller, file.price);\n        file.numRetrievals ++;\n        uint[] storage buyerIds = buyerInfo[msg.sender];\n        // checking if the particular buyer exists or not\n        if (buyerIds.length > 0) {\n            buyerIds.push(_id);\n        } else {\n            // Initializing the the mapping with first id if buyer is buying 1st time\n            buyerInfo[msg.sender] = [_id];\n        }\n        return true;\n    }\n\n    function getFileFromHash(string memory _metadataHash) public view returns (File memory file) {\n        return Files[hashToFile[_metadataHash]];\n    }\n\n}\n",
  "sourcePath": "/media/dhiraj/code/hackfs/shopfs/IPFS-ETH-MarketPlace/contracts/StorageMarket.sol",
  "compiler": {
    "name": "solc",
    "version": "0.6.0+commit.26b70077.Emscripten.clang"
  },
  "schemaVersion": "3.2.2",
  "updatedAt": "2020-07-21T09:25:02.706Z",
  "devdoc": {
    "methods": {}
  },
  "userdoc": {
    "methods": {}
  }
}