{
  "contractName": "StorageMarketPlace",
  "abi": [
    {
      "constant": true,
      "inputs": [
        {
          "internalType": "address",
          "name": "tokenAddress",
          "type": "address"
        }
      ],
      "name": "getEarnings",
      "outputs": [
        {
          "internalType": "uint256",
          "name": "",
          "type": "uint256"
        }
      ],
      "payable": false,
      "stateMutability": "view",
      "type": "function"
    },
    {
      "constant": true,
      "inputs": [],
      "name": "nextStreamId",
      "outputs": [
        {
          "internalType": "uint256",
          "name": "",
          "type": "uint256"
        }
      ],
      "payable": false,
      "stateMutability": "view",
      "type": "function"
    },
    {
      "constant": true,
      "inputs": [
        {
          "internalType": "uint256",
          "name": "streamId",
          "type": "uint256"
        }
      ],
      "name": "getCompoundingStream",
      "outputs": [
        {
          "internalType": "address",
          "name": "sender",
          "type": "address"
        },
        {
          "internalType": "address",
          "name": "recipient",
          "type": "address"
        },
        {
          "internalType": "uint256",
          "name": "deposit",
          "type": "uint256"
        },
        {
          "internalType": "address",
          "name": "tokenAddress",
          "type": "address"
        },
        {
          "internalType": "uint256",
          "name": "startTime",
          "type": "uint256"
        },
        {
          "internalType": "uint256",
          "name": "stopTime",
          "type": "uint256"
        },
        {
          "internalType": "uint256",
          "name": "remainingBalance",
          "type": "uint256"
        },
        {
          "internalType": "uint256",
          "name": "ratePerSecond",
          "type": "uint256"
        },
        {
          "internalType": "uint256",
          "name": "exchangeRateInitial",
          "type": "uint256"
        },
        {
          "internalType": "uint256",
          "name": "senderSharePercentage",
          "type": "uint256"
        },
        {
          "internalType": "uint256",
          "name": "recipientSharePercentage",
          "type": "uint256"
        }
      ],
      "payable": false,
      "stateMutability": "view",
      "type": "function"
    },
    {
      "constant": true,
      "inputs": [
        {
          "internalType": "uint256",
          "name": "streamId",
          "type": "uint256"
        },
        {
          "internalType": "address",
          "name": "who",
          "type": "address"
        }
      ],
      "name": "balanceOf",
      "outputs": [
        {
          "internalType": "uint256",
          "name": "balance",
          "type": "uint256"
        }
      ],
      "payable": false,
      "stateMutability": "view",
      "type": "function"
    },
    {
      "constant": false,
      "inputs": [],
      "name": "unpause",
      "outputs": [],
      "payable": false,
      "stateMutability": "nonpayable",
      "type": "function"
    },
    {
      "constant": true,
      "inputs": [],
      "name": "fileCount",
      "outputs": [
        {
          "internalType": "uint256",
          "name": "",
          "type": "uint256"
        }
      ],
      "payable": false,
      "stateMutability": "view",
      "type": "function"
    },
    {
      "constant": true,
      "inputs": [
        {
          "internalType": "address",
          "name": "account",
          "type": "address"
        }
      ],
      "name": "isPauser",
      "outputs": [
        {
          "internalType": "bool",
          "name": "",
          "type": "bool"
        }
      ],
      "payable": false,
      "stateMutability": "view",
      "type": "function"
    },
    {
      "constant": true,
      "inputs": [
        {
          "internalType": "uint256",
          "name": "",
          "type": "uint256"
        }
      ],
      "name": "Files",
      "outputs": [
        {
          "internalType": "address",
          "name": "seller",
          "type": "address"
        },
        {
          "internalType": "address",
          "name": "paymentAsset",
          "type": "address"
        },
        {
          "internalType": "string",
          "name": "metadataHash",
          "type": "string"
        },
        {
          "internalType": "uint256",
          "name": "price",
          "type": "uint256"
        },
        {
          "internalType": "uint256",
          "name": "numRetrievals",
          "type": "uint256"
        }
      ],
      "payable": false,
      "stateMutability": "view",
      "type": "function"
    },
    {
      "constant": true,
      "inputs": [],
      "name": "paused",
      "outputs": [
        {
          "internalType": "bool",
          "name": "",
          "type": "bool"
        }
      ],
      "payable": false,
      "stateMutability": "view",
      "type": "function"
    },
    {
      "constant": true,
      "inputs": [
        {
          "internalType": "address",
          "name": "",
          "type": "address"
        },
        {
          "internalType": "uint256",
          "name": "",
          "type": "uint256"
        }
      ],
      "name": "sellerToBuyer",
      "outputs": [
        {
          "internalType": "address",
          "name": "buyer",
          "type": "address"
        },
        {
          "internalType": "uint256",
          "name": "amount",
          "type": "uint256"
        },
        {
          "internalType": "uint256",
          "name": "streamId",
          "type": "uint256"
        },
        {
          "internalType": "bool",
          "name": "isActive",
          "type": "bool"
        }
      ],
      "payable": false,
      "stateMutability": "view",
      "type": "function"
    },
    {
      "constant": false,
      "inputs": [
        {
          "internalType": "uint256",
          "name": "streamId",
          "type": "uint256"
        }
      ],
      "name": "cancelStream",
      "outputs": [
        {
          "internalType": "bool",
          "name": "",
          "type": "bool"
        }
      ],
      "payable": false,
      "stateMutability": "nonpayable",
      "type": "function"
    },
    {
      "constant": false,
      "inputs": [
        {
          "internalType": "uint256",
          "name": "streamId",
          "type": "uint256"
        },
        {
          "internalType": "uint256",
          "name": "amount",
          "type": "uint256"
        }
      ],
      "name": "withdrawFromStream",
      "outputs": [
        {
          "internalType": "bool",
          "name": "",
          "type": "bool"
        }
      ],
      "payable": false,
      "stateMutability": "nonpayable",
      "type": "function"
    },
    {
      "constant": false,
      "inputs": [],
      "name": "initialize",
      "outputs": [],
      "payable": false,
      "stateMutability": "nonpayable",
      "type": "function"
    },
    {
      "constant": false,
      "inputs": [
        {
          "internalType": "address",
          "name": "recipient",
          "type": "address"
        },
        {
          "internalType": "uint256",
          "name": "deposit",
          "type": "uint256"
        },
        {
          "internalType": "address",
          "name": "tokenAddress",
          "type": "address"
        },
        {
          "internalType": "uint256",
          "name": "startTime",
          "type": "uint256"
        },
        {
          "internalType": "uint256",
          "name": "stopTime",
          "type": "uint256"
        },
        {
          "internalType": "uint256",
          "name": "senderSharePercentage",
          "type": "uint256"
        },
        {
          "internalType": "uint256",
          "name": "recipientSharePercentage",
          "type": "uint256"
        }
      ],
      "name": "createCompoundingStream",
      "outputs": [
        {
          "internalType": "uint256",
          "name": "",
          "type": "uint256"
        }
      ],
      "payable": false,
      "stateMutability": "nonpayable",
      "type": "function"
    },
    {
      "constant": false,
      "inputs": [
        {
          "internalType": "address",
          "name": "account",
          "type": "address"
        }
      ],
      "name": "addPauser",
      "outputs": [],
      "payable": false,
      "stateMutability": "nonpayable",
      "type": "function"
    },
    {
      "constant": false,
      "inputs": [],
      "name": "pause",
      "outputs": [],
      "payable": false,
      "stateMutability": "nonpayable",
      "type": "function"
    },
    {
      "constant": true,
      "inputs": [
        {
          "internalType": "uint256",
          "name": "streamId",
          "type": "uint256"
        }
      ],
      "name": "getStream",
      "outputs": [
        {
          "internalType": "address",
          "name": "sender",
          "type": "address"
        },
        {
          "internalType": "address",
          "name": "recipient",
          "type": "address"
        },
        {
          "internalType": "uint256",
          "name": "deposit",
          "type": "uint256"
        },
        {
          "internalType": "address",
          "name": "tokenAddress",
          "type": "address"
        },
        {
          "internalType": "uint256",
          "name": "startTime",
          "type": "uint256"
        },
        {
          "internalType": "uint256",
          "name": "stopTime",
          "type": "uint256"
        },
        {
          "internalType": "uint256",
          "name": "remainingBalance",
          "type": "uint256"
        },
        {
          "internalType": "uint256",
          "name": "ratePerSecond",
          "type": "uint256"
        }
      ],
      "payable": false,
      "stateMutability": "view",
      "type": "function"
    },
    {
      "constant": false,
      "inputs": [
        {
          "internalType": "uint256",
          "name": "streamId",
          "type": "uint256"
        },
        {
          "internalType": "uint256",
          "name": "amount",
          "type": "uint256"
        }
      ],
      "name": "interestOf",
      "outputs": [
        {
          "internalType": "uint256",
          "name": "senderInterest",
          "type": "uint256"
        },
        {
          "internalType": "uint256",
          "name": "recipientInterest",
          "type": "uint256"
        },
        {
          "internalType": "uint256",
          "name": "sablierInterest",
          "type": "uint256"
        }
      ],
      "payable": false,
      "stateMutability": "nonpayable",
      "type": "function"
    },
    {
      "constant": true,
      "inputs": [],
      "name": "owner",
      "outputs": [
        {
          "internalType": "address",
          "name": "",
          "type": "address"
        }
      ],
      "payable": false,
      "stateMutability": "view",
      "type": "function"
    },
    {
      "constant": true,
      "inputs": [],
      "name": "isOwner",
      "outputs": [
        {
          "internalType": "bool",
          "name": "",
          "type": "bool"
        }
      ],
      "payable": false,
      "stateMutability": "view",
      "type": "function"
    },
    {
      "constant": false,
      "inputs": [
        {
          "internalType": "uint256",
          "name": "feePercentage",
          "type": "uint256"
        }
      ],
      "name": "updateFee",
      "outputs": [],
      "payable": false,
      "stateMutability": "nonpayable",
      "type": "function"
    },
    {
      "constant": true,
      "inputs": [
        {
          "internalType": "address",
          "name": "",
          "type": "address"
        },
        {
          "internalType": "uint256",
          "name": "",
          "type": "uint256"
        }
      ],
      "name": "buyerToSeller",
      "outputs": [
        {
          "internalType": "address",
          "name": "seller",
          "type": "address"
        },
        {
          "internalType": "uint256",
          "name": "amount",
          "type": "uint256"
        },
        {
          "internalType": "uint256",
          "name": "streamId",
          "type": "uint256"
        },
        {
          "internalType": "bool",
          "name": "isActive",
          "type": "bool"
        }
      ],
      "payable": false,
      "stateMutability": "view",
      "type": "function"
    },
    {
      "constant": true,
      "inputs": [
        {
          "internalType": "uint256",
          "name": "streamId",
          "type": "uint256"
        }
      ],
      "name": "isCompoundingStream",
      "outputs": [
        {
          "internalType": "bool",
          "name": "",
          "type": "bool"
        }
      ],
      "payable": false,
      "stateMutability": "view",
      "type": "function"
    },
    {
      "constant": true,
      "inputs": [
        {
          "internalType": "uint256",
          "name": "streamId",
          "type": "uint256"
        }
      ],
      "name": "deltaOf",
      "outputs": [
        {
          "internalType": "uint256",
          "name": "delta",
          "type": "uint256"
        }
      ],
      "payable": false,
      "stateMutability": "view",
      "type": "function"
    },
    {
      "constant": false,
      "inputs": [
        {
          "internalType": "address",
          "name": "tokenAddress",
          "type": "address"
        },
        {
          "internalType": "uint256",
          "name": "amount",
          "type": "uint256"
        }
      ],
      "name": "takeEarnings",
      "outputs": [],
      "payable": false,
      "stateMutability": "nonpayable",
      "type": "function"
    },
    {
      "constant": false,
      "inputs": [
        {
          "internalType": "address",
          "name": "sender",
          "type": "address"
        }
      ],
      "name": "initialize",
      "outputs": [],
      "payable": false,
      "stateMutability": "nonpayable",
      "type": "function"
    },
    {
      "constant": false,
      "inputs": [
        {
          "internalType": "address",
          "name": "recipient",
          "type": "address"
        },
        {
          "internalType": "uint256",
          "name": "deposit",
          "type": "uint256"
        },
        {
          "internalType": "address",
          "name": "tokenAddress",
          "type": "address"
        },
        {
          "internalType": "uint256",
          "name": "startTime",
          "type": "uint256"
        },
        {
          "internalType": "uint256",
          "name": "stopTime",
          "type": "uint256"
        }
      ],
      "name": "createStream",
      "outputs": [
        {
          "internalType": "uint256",
          "name": "",
          "type": "uint256"
        }
      ],
      "payable": false,
      "stateMutability": "nonpayable",
      "type": "function"
    },
    {
      "constant": true,
      "inputs": [],
      "name": "cTokenManager",
      "outputs": [
        {
          "internalType": "contract ICTokenManager",
          "name": "",
          "type": "address"
        }
      ],
      "payable": false,
      "stateMutability": "view",
      "type": "function"
    },
    {
      "constant": true,
      "inputs": [],
      "name": "fee",
      "outputs": [
        {
          "internalType": "uint256",
          "name": "mantissa",
          "type": "uint256"
        }
      ],
      "payable": false,
      "stateMutability": "view",
      "type": "function"
    },
    {
      "constant": true,
      "inputs": [],
      "name": "priceLimit",
      "outputs": [
        {
          "internalType": "uint256",
          "name": "",
          "type": "uint256"
        }
      ],
      "payable": false,
      "stateMutability": "view",
      "type": "function"
    },
    {
      "constant": false,
      "inputs": [
        {
          "internalType": "address",
          "name": "newOwner",
          "type": "address"
        }
      ],
      "name": "transferOwnership",
      "outputs": [],
      "payable": false,
      "stateMutability": "nonpayable",
      "type": "function"
    },
    {
      "inputs": [
        {
          "internalType": "uint256",
          "name": "_priceLimit",
          "type": "uint256"
        }
      ],
      "payable": false,
      "stateMutability": "nonpayable",
      "type": "constructor"
    },
    {
      "anonymous": false,
      "inputs": [
        {
          "indexed": true,
          "internalType": "uint256",
          "name": "fileId",
          "type": "uint256"
        },
        {
          "indexed": true,
          "internalType": "address",
          "name": "buyer",
          "type": "address"
        }
      ],
      "name": "Buy",
      "type": "event"
    },
    {
      "anonymous": false,
      "inputs": [
        {
          "indexed": true,
          "internalType": "uint256",
          "name": "fileId",
          "type": "uint256"
        },
        {
          "indexed": true,
          "internalType": "address",
          "name": "seller",
          "type": "address"
        }
      ],
      "name": "Sell",
      "type": "event"
    },
    {
      "anonymous": false,
      "inputs": [
        {
          "indexed": true,
          "internalType": "uint256",
          "name": "streamId",
          "type": "uint256"
        },
        {
          "indexed": false,
          "internalType": "uint256",
          "name": "exchangeRate",
          "type": "uint256"
        },
        {
          "indexed": false,
          "internalType": "uint256",
          "name": "senderSharePercentage",
          "type": "uint256"
        },
        {
          "indexed": false,
          "internalType": "uint256",
          "name": "recipientSharePercentage",
          "type": "uint256"
        }
      ],
      "name": "CreateCompoundingStream",
      "type": "event"
    },
    {
      "anonymous": false,
      "inputs": [
        {
          "indexed": true,
          "internalType": "uint256",
          "name": "streamId",
          "type": "uint256"
        },
        {
          "indexed": false,
          "internalType": "uint256",
          "name": "senderInterest",
          "type": "uint256"
        },
        {
          "indexed": false,
          "internalType": "uint256",
          "name": "recipientInterest",
          "type": "uint256"
        },
        {
          "indexed": false,
          "internalType": "uint256",
          "name": "sablierInterest",
          "type": "uint256"
        }
      ],
      "name": "PayInterest",
      "type": "event"
    },
    {
      "anonymous": false,
      "inputs": [
        {
          "indexed": true,
          "internalType": "address",
          "name": "tokenAddress",
          "type": "address"
        },
        {
          "indexed": true,
          "internalType": "uint256",
          "name": "amount",
          "type": "uint256"
        }
      ],
      "name": "TakeEarnings",
      "type": "event"
    },
    {
      "anonymous": false,
      "inputs": [
        {
          "indexed": true,
          "internalType": "uint256",
          "name": "fee",
          "type": "uint256"
        }
      ],
      "name": "UpdateFee",
      "type": "event"
    },
    {
      "anonymous": false,
      "inputs": [
        {
          "indexed": false,
          "internalType": "address",
          "name": "account",
          "type": "address"
        }
      ],
      "name": "Paused",
      "type": "event"
    },
    {
      "anonymous": false,
      "inputs": [
        {
          "indexed": false,
          "internalType": "address",
          "name": "account",
          "type": "address"
        }
      ],
      "name": "Unpaused",
      "type": "event"
    },
    {
      "anonymous": false,
      "inputs": [
        {
          "indexed": true,
          "internalType": "address",
          "name": "account",
          "type": "address"
        }
      ],
      "name": "PauserAdded",
      "type": "event"
    },
    {
      "anonymous": false,
      "inputs": [
        {
          "indexed": true,
          "internalType": "address",
          "name": "account",
          "type": "address"
        }
      ],
      "name": "PauserRemoved",
      "type": "event"
    },
    {
      "anonymous": false,
      "inputs": [
        {
          "indexed": true,
          "internalType": "address",
          "name": "previousOwner",
          "type": "address"
        },
        {
          "indexed": true,
          "internalType": "address",
          "name": "newOwner",
          "type": "address"
        }
      ],
      "name": "OwnershipTransferred",
      "type": "event"
    },
    {
      "anonymous": false,
      "inputs": [
        {
          "indexed": true,
          "internalType": "uint256",
          "name": "streamId",
          "type": "uint256"
        },
        {
          "indexed": true,
          "internalType": "address",
          "name": "sender",
          "type": "address"
        },
        {
          "indexed": true,
          "internalType": "address",
          "name": "recipient",
          "type": "address"
        },
        {
          "indexed": false,
          "internalType": "uint256",
          "name": "deposit",
          "type": "uint256"
        },
        {
          "indexed": false,
          "internalType": "address",
          "name": "tokenAddress",
          "type": "address"
        },
        {
          "indexed": false,
          "internalType": "uint256",
          "name": "startTime",
          "type": "uint256"
        },
        {
          "indexed": false,
          "internalType": "uint256",
          "name": "stopTime",
          "type": "uint256"
        }
      ],
      "name": "CreateStream",
      "type": "event"
    },
    {
      "anonymous": false,
      "inputs": [
        {
          "indexed": true,
          "internalType": "uint256",
          "name": "streamId",
          "type": "uint256"
        },
        {
          "indexed": true,
          "internalType": "address",
          "name": "recipient",
          "type": "address"
        },
        {
          "indexed": false,
          "internalType": "uint256",
          "name": "amount",
          "type": "uint256"
        }
      ],
      "name": "WithdrawFromStream",
      "type": "event"
    },
    {
      "anonymous": false,
      "inputs": [
        {
          "indexed": true,
          "internalType": "uint256",
          "name": "streamId",
          "type": "uint256"
        },
        {
          "indexed": true,
          "internalType": "address",
          "name": "sender",
          "type": "address"
        },
        {
          "indexed": true,
          "internalType": "address",
          "name": "recipient",
          "type": "address"
        },
        {
          "indexed": false,
          "internalType": "uint256",
          "name": "senderBalance",
          "type": "uint256"
        },
        {
          "indexed": false,
          "internalType": "uint256",
          "name": "recipientBalance",
          "type": "uint256"
        }
      ],
      "name": "CancelStream",
      "type": "event"
    },
    {
      "constant": false,
      "inputs": [
        {
          "internalType": "address",
          "name": "_paymentAsset",
          "type": "address"
        },
        {
          "internalType": "uint256",
          "name": "_price",
          "type": "uint256"
        },
        {
          "internalType": "string",
          "name": "_metadataHash",
          "type": "string"
        }
      ],
      "name": "sell",
      "outputs": [
        {
          "internalType": "uint256",
          "name": "",
          "type": "uint256"
        }
      ],
      "payable": false,
      "stateMutability": "nonpayable",
      "type": "function"
    },
    {
      "constant": false,
      "inputs": [
        {
          "internalType": "uint256",
          "name": "_fileId",
          "type": "uint256"
        }
      ],
      "name": "buy",
      "outputs": [
        {
          "internalType": "bool",
          "name": "",
          "type": "bool"
        }
      ],
      "payable": false,
      "stateMutability": "nonpayable",
      "type": "function"
    },
    {
      "constant": false,
      "inputs": [
        {
          "internalType": "uint256",
          "name": "_deposit",
          "type": "uint256"
        },
        {
          "internalType": "address",
          "name": "_token",
          "type": "address"
        },
        {
          "internalType": "uint256",
          "name": "_startTime",
          "type": "uint256"
        },
        {
          "internalType": "uint256",
          "name": "_stopTime",
          "type": "uint256"
        },
        {
          "internalType": "address",
          "name": "reciever",
          "type": "address"
        }
      ],
      "name": "createSubscription",
      "outputs": [],
      "payable": false,
      "stateMutability": "nonpayable",
      "type": "function"
    },
    {
      "constant": true,
      "inputs": [
        {
          "internalType": "uint256",
          "name": "_fileId",
          "type": "uint256"
        },
        {
          "internalType": "address",
          "name": "buyer",
          "type": "address"
        }
      ],
      "name": "isBuyer",
      "outputs": [
        {
          "internalType": "bool",
          "name": "",
          "type": "bool"
        }
      ],
      "payable": false,
      "stateMutability": "view",
      "type": "function"
    },
    {
      "constant": false,
      "inputs": [
        {
          "internalType": "uint256",
          "name": "_streamId",
          "type": "uint256"
        },
        {
          "internalType": "address",
          "name": "buyer",
          "type": "address"
        },
        {
          "internalType": "uint256",
          "name": "_amount",
          "type": "uint256"
        }
      ],
      "name": "withdraw",
      "outputs": [],
      "payable": false,
      "stateMutability": "nonpayable",
      "type": "function"
    },
    {
      "constant": false,
      "inputs": [
        {
          "internalType": "uint256",
          "name": "_streamId",
          "type": "uint256"
        },
        {
          "internalType": "address",
          "name": "seller",
          "type": "address"
        }
      ],
      "name": "cancelSubscription",
      "outputs": [],
      "payable": false,
      "stateMutability": "nonpayable",
      "type": "function"
    }
  ],
  "bytecode": "0x60806040523480156200001157600080fd5b506040516200617338038062006173833981810160405260208110156200003757600080fd5b5051338062000092576040517f08c379a000000000000000000000000000000000000000000000000000000000815260040180806020018281038252602a81526020018062006149602a913960400191505060405180910390fd5b620000a8336200015960201b620056a31760201c565b620000be336200027660201b62002fe61760201c565b60ce80546001600160a01b0319166001600160a01b0392909216919091179055600160d155806200015057604080517f08c379a000000000000000000000000000000000000000000000000000000000815260206004820152601760248201527f5072696365204c696d69742063616e6e6f742062652030000000000000000000604482015290519081900360640190fd5b60d65562000567565b600054610100900460ff16806200017e57506200017e6001600160e01b036200036316565b806200018d575060005460ff16155b620001e4576040517f08c379a000000000000000000000000000000000000000000000000000000000815260040180806020018281038252602e8152602001806200611b602e913960400191505060405180910390fd5b600054610100900460ff1615801562000210576000805460ff1961ff0019909116610100171660011790555b603380546001600160a01b0319166001600160a01b0384811691909117918290556040519116906000907f8be0079c531659141344cd1fd0a4f28419497f9722a3daafe3b4186f6b6457e0908290a3801562000272576000805461ff00191690555b5050565b600054610100900460ff16806200029b57506200029b6001600160e01b036200036316565b80620002aa575060005460ff16155b62000301576040517f08c379a000000000000000000000000000000000000000000000000000000000815260040180806020018281038252602e8152602001806200611b602e913960400191505060405180910390fd5b600054610100900460ff161580156200032d576000805460ff1961ff0019909116610100171660011790555b62000343826200036960201b620050e01760201c565b6099805460ff19169055801562000272576000805461ff00191690555050565b303b1590565b600054610100900460ff16806200038e57506200038e6001600160e01b036200036316565b806200039d575060005460ff16155b620003f4576040517f08c379a000000000000000000000000000000000000000000000000000000000815260040180806020018281038252602e8152602001806200611b602e913960400191505060405180910390fd5b600054610100900460ff1615801562000420576000805460ff1961ff0019909116610100171660011790555b62000434826001600160e01b036200046316565b6200044d576200044d826001600160e01b036200048616565b801562000272576000805461ff00191690555050565b600062000480826066620004d860201b62003bd81790919060201c565b92915050565b620004a18160666200050e60201b6200532b1790919060201c565b6040516001600160a01b038216907f6719d08c1888103bea251a4ed56406bd0c3e69723c8a1686e017e7bbe159b6f890600090a250565b60006001600160a01b038216620004ee57600080fd5b506001600160a01b03166000908152602091909152604090205460ff1690565b6001600160a01b0381166200052257600080fd5b6200053782826001600160e01b03620004d816565b156200054257600080fd5b6001600160a01b0316600090815260209190915260409020805460ff19166001179055565b615ba480620005776000396000f3fe608060405234801561001057600080fd5b50600436106102775760003560e01c80638456cb5911610160578063c1eb9ee0116100d8578063d96a094a1161008c578063e63697c811610071578063e63697c8146108f2578063f0e1ba2c14610924578063f2fde38b1461092c57610277565b8063d96a094a146108cd578063ddca3f43146108ea57610277565b8063cada70b0116100bd578063cada70b014610859578063cc1b4bf614610885578063d2cba55c146108c557610277565b8063c1eb9ee014610807578063c4d66de81461083357610277565b80638f32d59b1161012f57806394c652341161011457806394c65234146107a1578063a734d51b146107cd578063a82ccd4d146107ea57610277565b80638f32d59b1461077c5780639012c4a81461078457610277565b80638456cb591461069f578063894e9a0d146106a75780638c9a3252146107175780638da5cb5b1461075857610277565b80635c975abb116101f357806376d5724c116101c25780638129fc1c116101a75780638129fc1c146106255780638195aeaa1461062d57806382dc1ec41461067957610277565b806376d5724c146105c25780637a9b2c6c1461060257610277565b80635c975abb146104ba578063669518cf146104c25780636d97786e146105205780636db9241b146105a557610277565b80633656eec21161024a578063439535191161022f57806343953519146103a357806346fbf68e146103ab57806347d52ef2146103e557610277565b80633656eec21461036f5780633f4ba83a1461039b57610277565b80630ae095401461027c578063131b9c04146102aa5780631e99d569146102e25780632b8a119d146102ea575b600080fd5b6102a86004803603604081101561029257600080fd5b50803590602001356001600160a01b0316610952565b005b6102d0600480360360208110156102c057600080fd5b50356001600160a01b0316610a7f565b60408051918252519081900360200190f35b6102d0610b69565b6103076004803603602081101561030057600080fd5b5035610b6f565b604080516001600160a01b039c8d1681529a8c1660208c01528a810199909952969099166060890152608088019490945260a087019290925260c086015260e08501526101008401526101208301939093526101408201929092529051908190036101600190f35b6102d06004803603604081101561038557600080fd5b50803590602001356001600160a01b0316610da6565b6102a861108d565b6102d061117f565b6103d1600480360360208110156103c157600080fd5b50356001600160a01b0316611185565b604080519115158252519081900360200190f35b610402600480360360208110156103fb57600080fd5b503561119e565b60405180866001600160a01b03166001600160a01b03168152602001856001600160a01b03166001600160a01b0316815260200180602001848152602001838152602001828103825285818151815260200191508051906020019080838360005b8381101561047b578181015183820152602001610463565b50505050905090810190601f1680156104a85780820380516001836020036101000a031916815260200191505b50965050505050505060405180910390f35b6103d1611264565b6104ee600480360360408110156104d857600080fd5b506001600160a01b03813516906020013561126e565b604080516001600160a01b03909516855260208501939093528383019190915215156060830152519081900360800190f35b6102d06004803603606081101561053657600080fd5b6001600160a01b038235169160208101359181019060608101604082013564010000000081111561056657600080fd5b82018360208201111561057857600080fd5b8035906020019184600183028401116401000000008311171561059a57600080fd5b5090925090506112be565b6103d1600480360360208110156105bb57600080fd5b503561141f565b6102a8600480360360a08110156105d857600080fd5b508035906001600160a01b036020820135811691604081013591606082013591608001351661155c565b6103d16004803603604081101561061857600080fd5b508035906020013561197c565b6102a8611c3c565b6102d0600480360360e081101561064357600080fd5b506001600160a01b0381358116916020810135916040820135169060608101359060808101359060a08101359060c00135611ce3565b6102a86004803603602081101561068f57600080fd5b50356001600160a01b03166120c9565b6102a8612118565b6106c4600480360360208110156106bd57600080fd5b50356121df565b604080516001600160a01b03998a168152978916602089015287810196909652939096166060860152608085019190915260a084015260c083019390935260e08201929092529051908190036101000190f35b61073a6004803603604081101561072d57600080fd5b50803590602001356122b5565b60408051938452602084019290925282820152519081900360600190f35b610760612a0e565b604080516001600160a01b039092168252519081900360200190f35b6103d1612a1d565b6102a86004803603602081101561079a57600080fd5b5035612a43565b6104ee600480360360408110156107b757600080fd5b506001600160a01b038135169060200135612b3f565b6103d1600480360360208110156107e357600080fd5b5035612b58565b6102d06004803603602081101561080057600080fd5b5035612b70565b6102a86004803603604081101561081d57600080fd5b506001600160a01b038135169060200135612cac565b6102a86004803603602081101561084957600080fd5b50356001600160a01b0316612fe6565b6103d16004803603604081101561086f57600080fd5b50803590602001356001600160a01b031661309c565b6102d0600480360360a081101561089b57600080fd5b506001600160a01b03813581169160208101359160408201351690606081013590608001356130cb565b61076061376d565b6103d1600480360360208110156108e357600080fd5b503561377c565b6102d06139af565b6102a86004803603606081101561090857600080fd5b508035906001600160a01b0360208201351690604001356139b5565b6102d0613b4f565b6102a86004803603602081101561094257600080fd5b50356001600160a01b0316613b55565b6001600160a01b038116600090815260d46020908152604080832033845260d5909252822090915b82548110156109f257336001600160a01b031683828154811061099957fe5b60009182526020909120600490910201546001600160a01b031614156109ea5760008382815481106109c757fe5b60009182526020909120600490910201600301805460ff19169115159190911790555b60010161097a565b5060005b8154811015610a6e57836001600160a01b0316828281548110610a1557fe5b60009182526020909120600490910201546001600160a01b03161415610a66576000828281548110610a4357fe5b60009182526020909120600490910201600301805460ff19169115159190911790555b6001016109f6565b50610a788461141f565b5050505050565b60ce5460408051632f52e59560e01b81526001600160a01b03848116600483015291516000939290921691632f52e59591602480820192602092909190829003018186803b158015610ad057600080fd5b505afa158015610ae4573d6000803e3d6000fd5b505050506040513d6020811015610afa57600080fd5b5051610b4d576040805162461bcd60e51b815260206004820152601360248201527f746f6b656e206973206e6f742063546f6b656e00000000000000000000000000604482015290519081900360640190fd5b506001600160a01b0316600090815260cf602052604090205490565b60d15481565b60008060008060008060008060008060008b60d2600082815260200190815260200160002060070160149054906101000a900460ff16610bee576040805162461bcd60e51b81526020600482015260156024820152741cdd1c99585b48191bd95cc81b9bdd08195e1a5cdd605a1b604482015290519081900360640190fd5b60008d815260cd60205260409020600301548d9060ff16610c405760405162461bcd60e51b81526004018080602001828103825260218152602001806157cf6021913960400191505060405180910390fd5b60d260008f815260200190815260200160002060060160009054906101000a90046001600160a01b03169c5060d260008f815260200190815260200160002060050160009054906101000a90046001600160a01b03169b5060d260008f8152602001908152602001600020600001549a5060d260008f815260200190815260200160002060070160009054906101000a90046001600160a01b0316995060d260008f815260200190815260200160002060030154985060d260008f815260200190815260200160002060040154975060d260008f815260200190815260200160002060020154965060d260008f815260200190815260200160002060010154955060cd60008f815260200190815260200160002060000160000154945060cd60008f815260200190815260200160002060010160000154935060cd60008f8152602001908152602001600020600201600001549250505091939597999b90929496989a50565b600082815260d260205260408120600701548390600160a01b900460ff16610e0d576040805162461bcd60e51b81526020600482015260156024820152741cdd1c99585b48191bd95cc81b9bdd08195e1a5cdd605a1b604482015290519081900360640190fd5b610e15615427565b50600084815260d2602090815260409182902082516101208101845281548152600182015492810192909252600281015492820192909252600382015460608201526004820154608082015260058201546001600160a01b0390811660a08301526006830154811660c083015260079092015491821660e0820152600160a01b90910460ff161515610100820152610eab615490565b6000610eb687612b70565b9050610ec6818460200151613b6f565b6020840181905283826003811115610eda57fe5b6003811115610ee557fe5b9052506000905082516003811115610ef957fe5b14610f355760405162461bcd60e51b8152600401808060200182810382526023815260200180615aa46023913960400191505060405180910390fd5b604083015183511115610fda57610f5483600001518460400151613bb1565b6040840181905283826003811115610f6857fe5b6003811115610f7357fe5b9052506000905082516003811115610f8757fe5b14610f8e57fe5b610fa082602001518360400151613bb1565b6020840181905283826003811115610fb457fe5b6003811115610fbf57fe5b9052506000905082516003811115610fd357fe5b14610fda57fe5b8260a001516001600160a01b0316866001600160a01b0316141561100657506020015192506110869050565b8260c001516001600160a01b0316866001600160a01b0316141561107e5761103683604001518360200151613bb1565b606084018190528382600381111561104a57fe5b600381111561105557fe5b905250600090508251600381111561106957fe5b1461107057fe5b506060015192506110869050565b600094505050505b5092915050565b61109d611098613bd4565b611185565b6110d85760405162461bcd60e51b81526004018080602001828103825260308152602001806158136030913960400191505060405180910390fd5b60995460ff1661112f576040805162461bcd60e51b815260206004820152601460248201527f5061757361626c653a206e6f7420706175736564000000000000000000000000604482015290519081900360640190fd5b6099805460ff191690557f5db9ee0a495bf2e6ff9c91a7834c1ba4fdd244a5e8aa4e537bd38aeae4b073aa611162613bd4565b604080516001600160a01b039092168252519081900360200190a1565b60d75481565b600061119860668363ffffffff613bd816565b92915050565b60d36020908152600091825260409182902080546001808301546002808501805488516101009582161595909502600019011691909104601f81018790048702840187019097528683526001600160a01b039384169693909116949192909183018282801561124e5780601f106112235761010080835404028352916020019161124e565b820191906000526020600020905b81548152906001019060200180831161123157829003601f168201915b5050505050908060030154908060040154905085565b60995460ff165b90565b60d4602052816000526040600020818154811061128757fe5b600091825260209091206004909102018054600182015460028301546003909301546001600160a01b039092169450925060ff1684565b60008360d65481106113015760405162461bcd60e51b8152600401808060200182810382526022815260200180615a3d6022913960400191505060405180910390fd5b6040518060a00160405280336001600160a01b03168152602001876001600160a01b0316815260200185858080601f01602080910402602001604051908101604052809392919081815260200183838082843760009201829052509385525050506020808301899052604092830182905260d754825260d3815290829020835181546001600160a01b039182166001600160a01b0319918216178355858401516001840180549190931691161790559183015180516113c692600285019201906154b9565b506060820151600382015560809091015160049091015560d7805460018101909155604051339082907f7f35571f7051df9198c8ad659e2617eeace2c702b2bf1c6bb53b21d1c644462d90600090a39695505050505050565b609a805460010190819055600082815260d260205260408120600701549091908390600160a01b900460ff16611494576040805162461bcd60e51b81526020600482015260156024820152741cdd1c99585b48191bd95cc81b9bdd08195e1a5cdd605a1b604482015290519081900360640190fd5b600084815260d2602052604090206006015484906001600160a01b03163314806114d75750600081815260d260205260409020600501546001600160a01b031633145b6115125760405162461bcd60e51b8152600401808060200182810382526037815260200180615ac76037913960400191505060405180910390fd5b600085815260cd602052604090206003015460ff166115395761153485613c0d565b611542565b61154285613f69565b600193505050609a54811461155657600080fd5b50919050565b6001600160a01b0381166115a15760405162461bcd60e51b815260040180806020018281038252602181526020018061598c6021913960400191505060405180910390fd5b6001600160a01b0381163014156115e95760405162461bcd60e51b8152600401808060200182810382526024815260200180615b286024913960400191505060405180910390fd5b6001600160a01b038116331415611647576040805162461bcd60e51b815260206004820152601960248201527f63616e6e6f742073747265616d20746f20796f757273656c6600000000000000604482015290519081900360640190fd5b6000851161169c576040805162461bcd60e51b815260206004820152600f60248201527f6465706f736974206973207a65726f0000000000000000000000000000000000604482015290519081900360640190fd5b4283116116da5760405162461bcd60e51b815260040180806020018281038252602a815260200180615afe602a913960400191505060405180910390fd5b8282116117185760405162461bcd60e51b8152600401808060200182810382526024815260200180615b4c6024913960400191505060405180910390fd5b600061172a838563ffffffff61458716565b905080861161176a5760405162461bcd60e51b815260040180806020018281038252603a815260200180615795603a913960400191505060405180910390fd5b600061177c878363ffffffff6145d016565b90506000611790888363ffffffff61458716565b905060006117a185838a8a8a6130cb565b9050600060d46000876001600160a01b03166001600160a01b031681526020019081526020016000209050806040518060800160405280336001600160a01b031681526020018c8152602001848152602001600115158152509080600181540180825580915050906001820390600052602060002090600402016000909192909190915060008201518160000160006101000a8154816001600160a01b0302191690836001600160a01b03160217905550602082015181600101556040820151816002015560608201518160030160006101000a81548160ff021916908315150217905550505050600060d56000336001600160a01b03166001600160a01b031681526020019081526020016000209050806040518060800160405280896001600160a01b031681526020018d8152602001858152602001600115158152509080600181540180825580915050906001820390600052602060002090600402016000909192909190915060008201518160000160006101000a8154816001600160a01b0302191690836001600160a01b03160217905550602082015181600101556040820151816002015560608201518160030160006101000a81548160ff0219169083151502179055505050505050505050505050505050565b60995460009060ff16156119ca576040805162461bcd60e51b815260206004820152601060248201526f14185d5cd8589b194e881c185d5cd95960821b604482015290519081900360640190fd5b609a805460010190819055600084815260d260205260409020600701548490600160a01b900460ff16611a3c576040805162461bcd60e51b81526020600482015260156024820152741cdd1c99585b48191bd95cc81b9bdd08195e1a5cdd605a1b604482015290519081900360640190fd5b600085815260d2602052604090206006015485906001600160a01b0316331480611a7f5750600081815260d260205260409020600501546001600160a01b031633145b611aba5760405162461bcd60e51b8152600401808060200182810382526037815260200180615ac76037913960400191505060405180910390fd5b60008511611b0f576040805162461bcd60e51b815260206004820152600e60248201527f616d6f756e74206973207a65726f000000000000000000000000000000000000604482015290519081900360640190fd5b611b17615427565b50600086815260d26020908152604080832081516101208101835281548152600182015493810193909352600281015491830191909152600381015460608301526004810154608083015260058101546001600160a01b0390811660a084018190526006830154821660c085015260079092015490811660e0840152600160a01b900460ff161515610100830152909190611bb3908990610da6565b905086811015611bf45760405162461bcd60e51b815260040180806020018281038252602481526020018061586a6024913960400191505060405180910390fd5b600088815260cd602052604090206003015460ff16611c1c57611c178888614612565b611c26565b611c2688886148ba565b6001955050505050609a54811461108657600080fd5b600054610100900460ff1680611c555750611c55614eaf565b80611c63575060005460ff16155b611c9e5760405162461bcd60e51b815260040180806020018281038252602e815260200180615a0f602e913960400191505060405180910390fd5b600054610100900460ff16158015611cc9576000805460ff1961ff0019909116610100171660011790555b6001609a558015611ce0576000805461ff00191690555b50565b60995460009060ff1615611d31576040805162461bcd60e51b815260206004820152601060248201526f14185d5cd8589b194e881c185d5cd95960821b604482015290519081900360640190fd5b60ce5460408051632f52e59560e01b81526001600160a01b03898116600483015291519190921691632f52e595916024808301926020929190829003018186803b158015611d7e57600080fd5b505afa158015611d92573d6000803e3d6000fd5b505050506040513d6020811015611da857600080fd5b5051611dfb576040805162461bcd60e51b815260206004820152601960248201527f63546f6b656e206973206e6f742077686974656c697374656400000000000000604482015290519081900360640190fd5b611e03615537565b611e0d8484614eb5565b6020830181905282826003811115611e2157fe5b6003811115611e2c57fe5b9052506000905081516003811115611e4057fe5b14611e92576040805162461bcd60e51b815260206004820152601b60248201527f73686172652073756d2063616c63756c6174696f6e206572726f720000000000604482015290519081900360640190fd5b8060200151606414611eeb576040805162461bcd60e51b815260206004820152601b60248201527f73686172657320646f206e6f742073756d20757020746f203130300000000000604482015290519081900360640190fd5b6000611efa8a8a8a8a8a6130cb565b9050611f0d85662386f26fc10000613b6f565b6060840181905283826003811115611f2157fe5b6003811115611f2c57fe5b9052506000905082516003811115611f4057fe5b14611f4757fe5b611f5884662386f26fc10000613b6f565b6080840181905283826003811115611f6c57fe5b6003811115611f7757fe5b9052506000905082516003811115611f8b57fe5b14611f9257fe5b6000886001600160a01b031663bd6d894d6040518163ffffffff1660e01b8152600401602060405180830381600087803b158015611fcf57600080fd5b505af1158015611fe3573d6000803e3d6000fd5b505050506040513d6020811015611ff957600080fd5b50516040805160a08101825260808082018481528252825160208082018552606089810151835281850192835285518083018752938a01518452848601938452600181860181815260008b815260cd8552889020965151875593515190860155925151600285015590516003909301805460ff19169315159390931790925582518481529182018a9052818301899052915192935084927fa9bbfc8562a8e1e6b889a428f128c90ed60c6204c37e4fb4354a202b4db59204929181900390910190a2509998505050505050505050565b6120d4611098613bd4565b61210f5760405162461bcd60e51b81526004018080602001828103825260308152602001806158136030913960400191505060405180910390fd5b611ce081614edb565b612123611098613bd4565b61215e5760405162461bcd60e51b81526004018080602001828103825260308152602001806158136030913960400191505060405180910390fd5b60995460ff16156121a9576040805162461bcd60e51b815260206004820152601060248201526f14185d5cd8589b194e881c185d5cd95960821b604482015290519081900360640190fd5b6099805460ff191660011790557f62e78cea01bee320cd4e420270b5ea74000d11b0c9f74754ebdbfc544b05a258611162613bd4565b6000806000806000806000808860d2600082815260200190815260200160002060070160149054906101000a900460ff16612259576040805162461bcd60e51b81526020600482015260156024820152741cdd1c99585b48191bd95cc81b9bdd08195e1a5cdd605a1b604482015290519081900360640190fd5b5050506000968752505060d26020525050604090922060068101546005820154825460078401546003850154600486015460028701546001909701546001600160a01b039687169a958716995093975091909416949092909190565b600082815260d26020526040812060070154819081908590600160a01b900460ff16612320576040805162461bcd60e51b81526020600482015260156024820152741cdd1c99585b48191bd95cc81b9bdd08195e1a5cdd605a1b604482015290519081900360640190fd5b600086815260cd602052604090206003015460ff166123485760009350839250829150612a06565b612350615427565b50600086815260d2602090815260409182902082516101208101845281548152600182015492810192909252600281015492820192909252600382015460608201526004820154608082015260058201546001600160a01b0390811660a08301526006830154811660c083015260079092015491821660e0820152600160a01b90910460ff1615156101008201526123e6615567565b50600087815260cd6020908152604091829020825160a08101845281546080820190815281528351808401855260018301548152818401528351928301845260028201548352928301919091526003015460ff16151560608201526124496155a1565b61245161562a565b60405180602001604052808560e001516001600160a01b031663bd6d894d6040518163ffffffff1660e01b8152600401602060405180830381600087803b15801561249b57600080fd5b505af11580156124af573d6000803e3d6000fd5b505050506040513d60208110156124c557600080fd5b505190528351518151919250106124ea575060009650869550859450612a0692505050565b6124f8818460000151614f23565b602084018190528382600381111561250c57fe5b600381111561251757fe5b905250600090508251600381111561252b57fe5b1461253257fe5b61254082602001518a614f5d565b604084018190528382600381111561255457fe5b600381111561255f57fe5b905250600090508251600381111561257357fe5b146125c5576040805162461bcd60e51b815260206004820152601a60248201527f696e7465726573742063616c63756c6174696f6e206572726f72000000000000604482015290519081900360640190fd5b60d054670de0b6b3a76400001415612677576125e5826040015182614fc5565b6101208401819052838260038111156125fa57fe5b600381111561260557fe5b905250600090508251600381111561261957fe5b146126555760405162461bcd60e51b8152600401808060200182810382526021815260200180615a836021913960400191505060405180910390fd5b600080612666846101200151614fe8565b91995097509550612a069350505050565b60d05461269e57604080516020810182526000815260c08401528201516060830152612776565b60408083015181516020810190925260d05482526126bb91614ff7565b60c08401819052838260038111156126cf57fe5b60038111156126da57fe5b90525060009050825160038111156126ee57fe5b1461272a5760405162461bcd60e51b81526004018080602001828103825260228152602001806158f56022913960400191505060405180910390fd5b61273c82604001518360c00151614f23565b606084018190528382600381111561275057fe5b600381111561275b57fe5b905250600090508251600381111561276f57fe5b1461277657fe5b61278882606001518460200151614ff7565b608084018190528382600381111561279c57fe5b60038111156127a757fe5b90525060009050825160038111156127bb57fe5b146127f75760405162461bcd60e51b81526004018080602001828103825260218152602001806158b36021913960400191505060405180910390fd5b61280982606001518360800151614f23565b60a084018190528382600381111561281d57fe5b600381111561282857fe5b905250600090508251600381111561283c57fe5b1461284357fe5b612851826080015182614fc5565b60e084018190528382600381111561286557fe5b600381111561287057fe5b905250600090508251600381111561288457fe5b146128d6576040805162461bcd60e51b815260206004820181905260248201527f73656e64657220696e74657265737420636f6e76657273696f6e206572726f72604482015290519081900360640190fd5b6128e48260a0015182614fc5565b6101008401819052838260038111156128f957fe5b600381111561290457fe5b905250600090508251600381111561291857fe5b146129545760405162461bcd60e51b81526004018080602001828103825260238152602001806159696023913960400191505060405180910390fd5b6129628260c0015182614fc5565b61012084018190528382600381111561297757fe5b600381111561298257fe5b905250600090508251600381111561299657fe5b146129d25760405162461bcd60e51b8152600401808060200182810382526021815260200180615a836021913960400191505060405180910390fd5b6129df8260e00151614fe8565b6129ed836101000151614fe8565b6129fb846101200151614fe8565b975097509750505050505b509250925092565b6033546001600160a01b031690565b6033546000906001600160a01b0316612a34613bd4565b6001600160a01b031614905090565b612a4b612a1d565b612a5457600080fd5b6064811115612aaa576040805162461bcd60e51b815260206004820152601f60248201527f6665652070657263656e7461676520686967686572207468616e203130302500604482015290519081900360640190fd5b612ab261563d565b612ac382662386f26fc10000613b6f565b6020830181905282826003811115612ad757fe5b6003811115612ae257fe5b9052506000905081516003811115612af657fe5b14612afd57fe5b60408051602080820183528301519081905260d0555182907f38e229a7f3f9c329892d08eb37c4e91ccac6d12c798d394990ca4f56028ec26690600090a25050565b60d5602052816000526040600020818154811061128757fe5b600090815260cd602052604090206003015460ff1690565b600081815260d260205260408120600701548290600160a01b900460ff16612bd7576040805162461bcd60e51b81526020600482015260156024820152741cdd1c99585b48191bd95cc81b9bdd08195e1a5cdd605a1b604482015290519081900360640190fd5b612bdf615427565b50600083815260d26020908152604091829020825161012081018452815481526001820154928101929092526002810154928201929092526003820154606082018190526004830154608083015260058301546001600160a01b0390811660a08401526006840154811660c084015260079093015492831660e0830152600160a01b90920460ff161515610100820152904211612c80576000925050611556565b8060800151421015612c99576060015142039150611556565b6060810151608090910151039392505050565b612cb4612a1d565b612cbd57600080fd5b609a80546001019081905560ce5460408051632f52e59560e01b81526001600160a01b03868116600483015291519190921691632f52e595916024808301926020929190829003018186803b158015612d1557600080fd5b505afa158015612d29573d6000803e3d6000fd5b505050506040513d6020811015612d3f57600080fd5b5051612d92576040805162461bcd60e51b815260206004820152601960248201527f63546f6b656e206973206e6f742077686974656c697374656400000000000000604482015290519081900360640190fd5b60008211612de7576040805162461bcd60e51b815260206004820152600e60248201527f616d6f756e74206973207a65726f000000000000000000000000000000000000604482015290519081900360640190fd5b6001600160a01b038316600090815260cf6020526040902054821115612e3e5760405162461bcd60e51b815260040180806020018281038252602481526020018061586a6024913960400191505060405180910390fd5b612e46615654565b6001600160a01b038416600090815260cf6020526040902054612e699084613bb1565b6001600160a01b038616600090815260cf6020526040902081905582826003811115612e9157fe5b6003811115612e9c57fe5b9052506000905081516003811115612eb057fe5b14612eb757fe5b60405183906001600160a01b038616907f13e8af02ad3e36f8d82fc8b86dcd67b7ed11f718f0e52fb245d2038eb71856ba90600090a3604080517fa9059cbb0000000000000000000000000000000000000000000000000000000081523360048201526024810185905290516001600160a01b0386169163a9059cbb9160448083019260209291908290030181600087803b158015612f5557600080fd5b505af1158015612f69573d6000803e3d6000fd5b505050506040513d6020811015612f7f57600080fd5b5051612fd2576040805162461bcd60e51b815260206004820152601660248201527f746f6b656e207472616e73666572206661696c75726500000000000000000000604482015290519081900360640190fd5b50609a548114612fe157600080fd5b505050565b600054610100900460ff1680612fff5750612fff614eaf565b8061300d575060005460ff16155b6130485760405162461bcd60e51b815260040180806020018281038252602e815260200180615a0f602e913960400191505060405180910390fd5b600054610100900460ff16158015613073576000805460ff1961ff0019909116610100171660011790555b61307c826150e0565b6099805460ff191690558015613098576000805461ff00191690555b5050565b600082815260d3602090815260408083206001600160a01b038516845260050190915290205460ff1692915050565b60995460009060ff1615613119576040805162461bcd60e51b815260206004820152601060248201526f14185d5cd8589b194e881c185d5cd95960821b604482015290519081900360640190fd5b6001600160a01b038616613174576040805162461bcd60e51b815260206004820152601a60248201527f73747265616d20746f20746865207a65726f2061646472657373000000000000604482015290519081900360640190fd5b6001600160a01b0386163014156131d2576040805162461bcd60e51b815260206004820152601d60248201527f73747265616d20746f2074686520636f6e747261637420697473656c66000000604482015290519081900360640190fd5b6001600160a01b038616331415613230576040805162461bcd60e51b815260206004820152601460248201527f73747265616d20746f207468652063616c6c6572000000000000000000000000604482015290519081900360640190fd5b60008511613285576040805162461bcd60e51b815260206004820152600f60248201527f6465706f736974206973207a65726f0000000000000000000000000000000000604482015290519081900360640190fd5b428310156132c45760405162461bcd60e51b81526004018080602001828103825260218152602001806158d46021913960400191505060405180910390fd5b828211613318576040805162461bcd60e51b815260206004820152601f60248201527f73746f702074696d65206265666f7265207468652073746172742074696d6500604482015290519081900360640190fd5b613320615667565b61332a8385613bb1565b602083018190528282600381111561333e57fe5b600381111561334957fe5b905250600090508151600381111561335d57fe5b1461336457fe5b80602001518610156133bd576040805162461bcd60e51b815260206004820152601f60248201527f6465706f73697420736d616c6c6572207468616e2074696d652064656c746100604482015290519081900360640190fd5b806020015186816133ca57fe5b06156134075760405162461bcd60e51b81526004018080602001828103825260228152602001806159176022913960400191505060405180910390fd5b613415868260200151615198565b604083018190528282600381111561342957fe5b600381111561343457fe5b905250600090508151600381111561344857fe5b1461344f57fe5b600060d154905060405180610120016040528088815260200183604001518152602001888152602001868152602001858152602001896001600160a01b03168152602001336001600160a01b03168152602001876001600160a01b031681526020016001151581525060d26000838152602001908152602001600020600082015181600001556020820151816001015560408201518160020155606082015181600301556080820151816004015560a08201518160050160006101000a8154816001600160a01b0302191690836001600160a01b0316021790555060c08201518160060160006101000a8154816001600160a01b0302191690836001600160a01b0316021790555060e08201518160070160006101000a8154816001600160a01b0302191690836001600160a01b031602179055506101008201518160070160146101000a81548160ff0219169083151502179055509050506135b560d1546001614eb5565b60d1819055838260038111156135c757fe5b60038111156135d257fe5b90525060009050825160038111156135e657fe5b14613638576040805162461bcd60e51b815260206004820181905260248201527f6e6578742073747265616d2069642063616c63756c6174696f6e206572726f72604482015290519081900360640190fd5b604080516323b872dd60e01b81523360048201523060248201526044810189905290516001600160a01b038816916323b872dd9160648083019260209291908290030181600087803b15801561368d57600080fd5b505af11580156136a1573d6000803e3d6000fd5b505050506040513d60208110156136b757600080fd5b505161370a576040805162461bcd60e51b815260206004820152601660248201527f746f6b656e207472616e73666572206661696c75726500000000000000000000604482015290519081900360640190fd5b604080518881526001600160a01b038881166020830152818301889052606082018790529151918a1691339184917f7b01d409597969366dc268d7f957a990d1ca3d3449baf8fb45db67351aecfe789181900360800190a4979650505050505050565b60ce546001600160a01b031681565b600081815260d36020526040812080548391906001600160a01b03163314156137ec576040805162461bcd60e51b815260206004820181905260248201527f53656c6c65722063616e6e6f7420627579207468656972206f776e2066696c65604482015290519081900360640190fd5b33600090815260058201602052604090205460ff1615613853576040805162461bcd60e51b815260206004820152601b60248201527f42757965722063616e6e6f74206275792066696c6520616761696e0000000000604482015290519081900360640190fd5b600084815260d36020526040902080546001600160a01b03163314156138c0576040805162461bcd60e51b815260206004820152601e60248201527f53656c6c65722063616e6e6f742062757920686973206f776e2066696c650000604482015290519081900360640190fd5b600181015481546003830154604080516323b872dd60e01b81523360048201526001600160a01b03938416602482015260448101929092525191909216916323b872dd9160648083019260209291908290030181600087803b15801561392557600080fd5b505af1158015613939573d6000803e3d6000fd5b505050506040513d602081101561394f57600080fd5b50506004810180546001908101909155336000818152600584016020526040808220805460ff19169094179093559151909187917f7534e9c9396820aad756ba27f82162930f80bef863aabdf311e7dce26a79bccd9190a3505050919050565b60d05481565b60008111613a0a576040805162461bcd60e51b815260206004820152601760248201527f43616e6e6f742070617373203020617320616d6f756e74000000000000000000604482015290519081900360640190fd5b6000613a15846121df565b505095505050505050428110613b455733600090815260d4602090815260408083206001600160a01b038716845260d5909252822090915b8254811015613ac557856001600160a01b0316838281548110613a6c57fe5b60009182526020909120600490910201546001600160a01b03161415613abd576000838281548110613a9a57fe5b60009182526020909120600490910201600301805460ff19169115159190911790555b600101613a4d565b5060005b8154811015613b4157336001600160a01b0316828281548110613ae857fe5b60009182526020909120600490910201546001600160a01b03161415613b39576000828281548110613b1657fe5b60009182526020909120600490910201600301805460ff19169115159190911790555b600101613ac9565b5050505b610a78848361197c565b60d65481565b613b5d612a1d565b613b6657600080fd5b611ce0816151c3565b60008083613b8257506000905080613baa565b83830283858281613b8f57fe5b0414613ba357506002915060009050613baa565b6000925090505b9250929050565b600080838311613bc8575060009050818303613baa565b50600390506000613baa565b3390565b60006001600160a01b038216613bed57600080fd5b506001600160a01b03166000908152602091909152604090205460ff1690565b613c15615427565b50600081815260d26020908152604080832081516101208101835281548152600182015493810193909352600281015491830191909152600381015460608301526004810154608083015260058101546001600160a01b0390811660a08401526006820154811660c0840181905260079092015490811660e0840152600160a01b900460ff161515610100830152909190613cb1908490610da6565b90506000613cc3848460a00151610da6565b600085815260d26020526040812081815560018101829055600281018290556003810182905560048101919091556005810180546001600160a01b03199081169091556006820180549091169055600701805474ffffffffffffffffffffffffffffffffffffffffff1916905560e08401519091508115613e1f57806001600160a01b031663a9059cbb8560a00151846040518363ffffffff1660e01b815260040180836001600160a01b03166001600160a01b0316815260200182815260200192505050602060405180830381600087803b158015613da257600080fd5b505af1158015613db6573d6000803e3d6000fd5b505050506040513d6020811015613dcc57600080fd5b5051613e1f576040805162461bcd60e51b815260206004820181905260248201527f726563697069656e7420746f6b656e207472616e73666572206661696c757265604482015290519081900360640190fd5b8215613f0657806001600160a01b031663a9059cbb8560c00151856040518363ffffffff1660e01b815260040180836001600160a01b03166001600160a01b0316815260200182815260200192505050602060405180830381600087803b158015613e8957600080fd5b505af1158015613e9d573d6000803e3d6000fd5b505050506040513d6020811015613eb357600080fd5b5051613f06576040805162461bcd60e51b815260206004820152601d60248201527f73656e64657220746f6b656e207472616e73666572206661696c757265000000604482015290519081900360640190fd5b8360a001516001600160a01b03168460c001516001600160a01b0316867fca3e6079b726e7728802a0537949e2d1c7762304fa641fb06eb56daf2ba8c6b98686604051808381526020018281526020019250505060405180910390a45050505050565b613f71615427565b50600081815260d2602090815260409182902082516101208101845281548152600182015492810192909252600281015492820192909252600382015460608201526004820154608082015260058201546001600160a01b0390811660a08301526006830154811660c083015260079092015491821660e0820152600160a01b90910460ff161515610100820152614007615490565b6000614017848460c00151610da6565b90506000614029858560a00151610da6565b9050600080600061403a88856122b5565b92509250925061404a8584614eb5565b602088018190528782600381111561405e57fe5b600381111561406957fe5b905250600090508651600381111561407d57fe5b146140b95760405162461bcd60e51b8152600401808060200182810382526024815260200180615a5f6024913960400191505060405180910390fd5b6140c38484613bb1565b60408801819052878260038111156140d757fe5b60038111156140e257fe5b90525060009050865160038111156140f657fe5b146141325760405162461bcd60e51b815260040180806020018281038252603b8152602001806159ad603b913960400191505060405180910390fd5b614140866040015182613bb1565b606088018190528782600381111561415457fe5b600381111561415f57fe5b905250600090508651600381111561417357fe5b146141af5760405162461bcd60e51b81526004018080602001828103825260278152602001806159e86027913960400191505060405180910390fd5b60e08701516001600160a01b0316600090815260cf60205260409020546141d69082614eb5565b60e08901516001600160a01b0316600090815260cf602052604090208190558782600381111561420257fe5b600381111561420d57fe5b905250600090508651600381111561422157fe5b1461425d5760405162461bcd60e51b81526004018080602001828103825260238152602001806157f06023913960400191505060405180910390fd5b600088815260d260209081526040808320838155600180820185905560028083018690556003808401879055600484018790556005840180546001600160a01b031990811690915560068501805490911690556007909301805474ffffffffffffffffffffffffffffffffffffffffff1916905560cd855292852085815590810185905591820193909355909101805460ff1916905560e088015190870151156143e657806001600160a01b031663a9059cbb8960c0015189602001516040518363ffffffff1660e01b815260040180836001600160a01b03166001600160a01b0316815260200182815260200192505050602060405180830381600087803b15801561436957600080fd5b505af115801561437d573d6000803e3d6000fd5b505050506040513d602081101561439357600080fd5b50516143e6576040805162461bcd60e51b815260206004820152601d60248201527f73656e64657220746f6b656e207472616e73666572206661696c757265000000604482015290519081900360640190fd5b6060870151156144d557806001600160a01b031663a9059cbb8960a0015189606001516040518363ffffffff1660e01b815260040180836001600160a01b03166001600160a01b0316815260200182815260200192505050602060405180830381600087803b15801561445857600080fd5b505af115801561446c573d6000803e3d6000fd5b505050506040513d602081101561448257600080fd5b50516144d5576040805162461bcd60e51b815260206004820181905260248201527f726563697069656e7420746f6b656e207472616e73666572206661696c757265604482015290519081900360640190fd5b8760a001516001600160a01b03168860c001516001600160a01b03168a7fca3e6079b726e7728802a0537949e2d1c7762304fa641fb06eb56daf2ba8c6b98a602001518b60600151604051808381526020018281526020019250505060405180910390a4604080518581526020810185905280820184905290518a917f5a8a03e48302e0bd2e011a3a2b54d1f849c55497f462f404bf52dce4290456b5919081900360600190a2505050505050505050565b60006145c983836040518060400160405280601e81526020017f536166654d6174683a207375627472616374696f6e206f766572666c6f770000815250615232565b9392505050565b60006145c983836040518060400160405280601881526020017f536166654d6174683a206d6f64756c6f206279207a65726f00000000000000008152506152c9565b61461a615427565b50600082815260d2602090815260409182902082516101208101845281548152600182015492810192909252600281015492820192909252600382015460608201526004820154608082015260058201546001600160a01b0390811660a08301526006830154811660c083015260079092015491821660e0820152600160a01b90910460ff1615156101008201526146b0615654565b6146be826040015184613bb1565b600086815260d260205260409020600201819055828260038111156146df57fe5b60038111156146ea57fe5b90525060009050815160038111156146fe57fe5b1461470557fe5b600084815260d2602052604090206002015461478957600084815260d26020526040812081815560018101829055600281018290556003810182905560048101919091556005810180546001600160a01b03199081169091556006820180549091169055600701805474ffffffffffffffffffffffffffffffffffffffffff191690555b8160e001516001600160a01b031663a9059cbb8360a00151856040518363ffffffff1660e01b815260040180836001600160a01b03166001600160a01b0316815260200182815260200192505050602060405180830381600087803b1580156147f157600080fd5b505af1158015614805573d6000803e3d6000fd5b505050506040513d602081101561481b57600080fd5b505161486e576040805162461bcd60e51b815260206004820152601660248201527f746f6b656e207472616e73666572206661696c75726500000000000000000000604482015290519081900360640190fd5b8160a001516001600160a01b0316847f36c3ab437e6a424ed25dc4bfdeb62706aa06558660fab2dab229d2555adaf89c856040518082815260200191505060405180910390a350505050565b6148c2615427565b50600082815260d2602090815260409182902082516101208101845281548152600182015492810192909252600281015492820192909252600382015460608201526004820154608082015260058201546001600160a01b0390811660a08301526006830154811660c083015260079092015491821660e0820152600160a01b90910460ff161515610100820152614958615667565b600080600061496787876122b5565b9250925092506149778684613bb1565b602086018190528582600381111561498b57fe5b600381111561499657fe5b90525060009050845160038111156149aa57fe5b146149e65760405162461bcd60e51b81526004018080602001828103825260308152602001806159396030913960400191505060405180910390fd5b6149f4846020015182613bb1565b6040860181905285826003811115614a0857fe5b6003811115614a1357fe5b9052506000905084516003811115614a2757fe5b14614a635760405162461bcd60e51b81526004018080602001828103825260278152602001806158436027913960400191505060405180910390fd5b614a71856040015187613bb1565b600089815260d26020526040902060020181905585826003811115614a9257fe5b6003811115614a9d57fe5b9052506000905084516003811115614ab157fe5b14614aed5760405162461bcd60e51b815260040180806020018281038252602581526020018061588e6025913960400191505060405180910390fd5b600087815260d26020526040902060020154614b9957600087815260d260209081526040808320838155600180820185905560028083018690556003808401879055600484018790556005840180546001600160a01b031990811690915560068501805490911690556007909301805474ffffffffffffffffffffffffffffffffffffffffff1916905560cd9094529184208481559182018490559181019290925501805460ff191690555b60e08501516001600160a01b0316600090815260cf6020526040902054614bc09082614eb5565b60e08701516001600160a01b0316600090815260cf6020526040902081905585826003811115614bec57fe5b6003811115614bf757fe5b9052506000905084516003811115614c0b57fe5b14614c475760405162461bcd60e51b81526004018080602001828103825260238152602001806157f06023913960400191505060405180910390fd5b60e08501518315614d3357806001600160a01b031663a9059cbb8760c00151866040518363ffffffff1660e01b815260040180836001600160a01b03166001600160a01b0316815260200182815260200192505050602060405180830381600087803b158015614cb657600080fd5b505af1158015614cca573d6000803e3d6000fd5b505050506040513d6020811015614ce057600080fd5b5051614d33576040805162461bcd60e51b815260206004820152601d60248201527f73656e64657220746f6b656e207472616e73666572206661696c757265000000604482015290519081900360640190fd5b806001600160a01b031663a9059cbb8760a0015187604001516040518363ffffffff1660e01b815260040180836001600160a01b03166001600160a01b0316815260200182815260200192505050602060405180830381600087803b158015614d9b57600080fd5b505af1158015614daf573d6000803e3d6000fd5b505050506040513d6020811015614dc557600080fd5b5051614e18576040805162461bcd60e51b815260206004820181905260248201527f726563697069656e7420746f6b656e207472616e73666572206661696c757265604482015290519081900360640190fd5b8560a001516001600160a01b0316887f36c3ab437e6a424ed25dc4bfdeb62706aa06558660fab2dab229d2555adaf89c87604001516040518082815260200191505060405180910390a36040805185815260208101859052808201849052905189917f5a8a03e48302e0bd2e011a3a2b54d1f849c55497f462f404bf52dce4290456b5919081900360600190a25050505050505050565b303b1590565b600080838301848110614ecd57600092509050613baa565b506002915060009050613baa565b614eec60668263ffffffff61532b16565b6040516001600160a01b038216907f6719d08c1888103bea251a4ed56406bd0c3e69723c8a1686e017e7bbe159b6f890600090a250565b6000614f2d61562a565b600080614f4286600001518660000151613bb1565b60408051602081019091529081529097909650945050505050565b6000614f6761562a565b600080614f78866000015186613b6f565b90925090506000826003811115614f8b57fe5b14614faa57506040805160208101909152600081529092509050613baa565b60408051602081019091529081526000969095509350505050565b6000614fcf61562a565b83518351614fdd9190615377565b915091509250929050565b51670de0b6b3a7640000900490565b600061500161562a565b60008061501686600001518660000151613b6f565b9092509050600082600381111561502957fe5b1461504857506040805160208101909152600081529092509050613baa565b60008061505d6706f05b59d3b2000084614eb5565b9092509050600082600381111561507057fe5b1461509257506040805160208101909152600081529094509250613baa915050565b6000806150a783670de0b6b3a7640000615198565b909250905060008260038111156150ba57fe5b146150c157fe5b604080516020810190915290815260009a909950975050505050505050565b600054610100900460ff16806150f957506150f9614eaf565b80615107575060005460ff16155b6151425760405162461bcd60e51b815260040180806020018281038252602e815260200180615a0f602e913960400191505060405180910390fd5b600054610100900460ff1615801561516d576000805460ff1961ff0019909116610100171660011790555b61517682611185565b6151835761518382614edb565b8015613098576000805461ff00191690555050565b600080826151ac5750600190506000613baa565b60008385816151b757fe5b04915091509250929050565b6001600160a01b0381166151d657600080fd5b6033546040516001600160a01b038084169216907f8be0079c531659141344cd1fd0a4f28419497f9722a3daafe3b4186f6b6457e090600090a3603380546001600160a01b0319166001600160a01b0392909216919091179055565b600081848411156152c15760405162461bcd60e51b81526004018080602001828103825283818151815260200191508051906020019080838360005b8381101561528657818101518382015260200161526e565b50505050905090810190601f1680156152b35780820380516001836020036101000a031916815260200191505b509250505060405180910390fd5b505050900390565b600081836153185760405162461bcd60e51b815260206004820181815283516024840152835190928392604490910191908501908083836000831561528657818101518382015260200161526e565b5082848161532257fe5b06949350505050565b6001600160a01b03811661533e57600080fd5b6153488282613bd8565b1561535257600080fd5b6001600160a01b0316600090815260209190915260409020805460ff19166001179055565b600061538161562a565b60008061539686670de0b6b3a7640000613b6f565b909250905060008260038111156153a957fe5b146153c857506040805160208101909152600081529092509050613baa565b6000806153d58388615198565b909250905060008260038111156153e857fe5b1461540a57506040805160208101909152600081529094509250613baa915050565b604080516020810190915290815260009890975095505050505050565b604051806101200160405280600081526020016000815260200160008152602001600081526020016000815260200160006001600160a01b0316815260200160006001600160a01b0316815260200160006001600160a01b031681526020016000151581525090565b604080516080810190915280600081526020016000815260200160008152602001600081525090565b828054600181600116156101000203166002900490600052602060002090601f016020900481019282601f106154fa57805160ff1916838001178555615527565b82800160010185558215615527579182015b8281111561552757825182559160200191906001019061550c565b50615533929150615689565b5090565b6040805160a081019091528060008152602001600081526020016000815260200160008152602001600081525090565b604051806080016040528061557a61562a565b815260200161558761562a565b815260200161559461562a565b8152600060209091015290565b60408051610140810190915280600081526020016155bd61562a565b81526020016155ca61562a565b81526020016155d761562a565b81526020016155e461562a565b81526020016155f161562a565b81526020016155fe61562a565b815260200161560b61562a565b815260200161561861562a565b815260200161562561562a565b905290565b6040518060200160405280600081525090565b604080518082019091526000808252602082015290565b6040805160208101909152806000615625565b6040805160608101909152806000815260200160008152602001600081525090565b61126b91905b80821115615533576000815560010161568f565b600054610100900460ff16806156bc57506156bc614eaf565b806156ca575060005460ff16155b6157055760405162461bcd60e51b815260040180806020018281038252602e815260200180615a0f602e913960400191505060405180910390fd5b600054610100900460ff16158015615730576000805460ff1961ff0019909116610100171660011790555b603380546001600160a01b0319166001600160a01b0384811691909117918290556040519116906000907f8be0079c531659141344cd1fd0a4f28419497f9722a3daafe3b4186f6b6457e0908290a38015613098576000805461ff0019169055505056fe4465706f7369742073686f756c64206265206d6f7265207468616e2064656c746120617320737065636966696564206279204549502d31363230636f6d706f756e64696e672073747265616d20646f6573206e6f742065786973746561726e696e6773206164646974696f6e2063616c63756c6174696f6e206572726f72506175736572526f6c653a2063616c6c657220646f6573206e6f742068617665207468652050617573657220726f6c656e6574207769746864726177616c20616d6f756e742063616c63756c6174696f6e206572726f72616d6f756e7420657863656564732074686520617661696c61626c652062616c616e636562616c616e6365207375627472616374696f6e2063616c63756c6174696f6e206572726f7273656e64657220696e7465726573742063616c63756c6174696f6e206572726f7273746172742074696d65206265666f726520626c6f636b2e74696d657374616d707361626c69657220696e7465726573742063616c63756c6174696f6e206572726f726465706f736974206e6f74206d756c7469706c65206f662074696d652064656c7461616d6f756e7420776974686f75742073656e64657220696e7465726573742063616c63756c6174696f6e206572726f72726563697069656e7420696e74657265737420636f6e76657273696f6e206572726f7263616e6e6f742073747265616d20746f20746865207a65726f2061646472657373726563697069656e742062616c616e636520776974686f75742073656e64657220696e7465726573742063616c63756c6174696f6e206572726f726e657420726563697069656e742062616c616e63652063616c63756c6174696f6e206572726f72436f6e747261637420696e7374616e63652068617320616c7265616479206265656e20696e697469616c697a65645072696365206d757374206265206c657373207468616e2070726963654c696d69746e65742073656e6465722062616c616e63652063616c63756c6174696f6e206572726f727361626c69657220696e74657265737420636f6e76657273696f6e206572726f72726563697069656e742062616c616e63652063616c63756c6174696f6e206572726f7263616c6c6572206973206e6f74207468652073656e646572206f722074686520726563697069656e74206f66207468652073747265616d73746172742074696d652073686f756c6420626520616674657220626c6f636b2e74696d657374616d7063616e6e6f742073747265616d20746f2074686520636f6e747261637420697473656c6673746172742074696d652068617320746f206265206265666f72652073746f7074696d65a265627a7a723158206158e273d6b3f75cfd807cde475efcc41ed035299a46c5afbc23d571e8c8a9bb64736f6c634300050b0032436f6e747261637420696e7374616e63652068617320616c7265616479206265656e20696e697469616c697a656463546f6b656e4d616e6167657220636f6e747261637420697320746865207a65726f2061646472657373",
  "source": "pragma solidity 0.5.11;\n\nimport \"@openzeppelin/contracts-ethereum-package/contracts/token/ERC20/IERC20.sol\";\nimport \"@openzeppelin/contracts/math/SafeMath.sol\";\n\nimport \"./sablier/Sablier.sol\";\n\ncontract StorageMarketPlace is Sablier {\n    using SafeMath for uint256;\n\n    event Buy(uint256 indexed fileId, address indexed buyer);\n    event Sell(uint256 indexed fileId, address indexed seller);\n\n    struct File {\n        address seller;\n        address paymentAsset;\n        string metadataHash; // unique metadataHash\n        uint256 price;\n        uint256 numRetrievals;\n        mapping(address => bool) buyers;\n    }\n\n    struct BuyerSubscription {\n        address buyer;\n        uint256 amount;\n        uint256 streamId;\n        bool isActive;\n    }\n\n    struct SellerSubscription {\n        address seller;\n        uint256 amount;\n        uint256 streamId;\n        bool isActive;\n    }\n\n    mapping(uint256 => File) public Files;\n\n    // to track the subscriptions for a seller\n    mapping(address => BuyerSubscription[]) public sellerToBuyer;\n\n    // to track the subscriptions for a buyer\n    mapping(address => SellerSubscription[]) public buyerToSeller;\n\n\n    uint256 public priceLimit;\n    uint256 public fileCount;\n\n    modifier isValidPrice(uint256 _price) {\n        require(_price < priceLimit, \"Price must be less than priceLimit\");\n        _;\n    }\n\n    modifier isValidBuy(uint256 _fileId) {\n        File storage file = Files[_fileId];\n        require(msg.sender != file.seller, \"Seller cannot buy their own file\");\n        require(\n            file.buyers[msg.sender] == false,\n            \"Buyer cannot buy file again\"\n        );\n        _;\n    }\n\n    constructor(uint256 _priceLimit) public Sablier(msg.sender) {\n        require(_priceLimit > 0, \"Price Limit cannot be 0\");\n        priceLimit = _priceLimit;\n    }\n\n    function sell(\n        address _paymentAsset,\n        uint256 _price,\n        string calldata _metadataHash\n    ) external isValidPrice(_price) returns (uint256) {\n        Files[fileCount] = File(\n            msg.sender,\n            _paymentAsset,\n            _metadataHash,\n            _price,\n            0\n        );\n        uint256 currentFile = fileCount;\n        fileCount++;\n        emit Sell(currentFile, msg.sender);\n        return currentFile;\n    }\n\n    function buy(uint256 _fileId) external isValidBuy(_fileId) returns (bool) {\n        File storage file = Files[_fileId];\n        require(msg.sender != file.seller, \"Seller cannot buy his own file\");\n        IERC20(file.paymentAsset).transferFrom(\n            msg.sender,\n            file.seller,\n            file.price\n        );\n        file.numRetrievals++;\n        file.buyers[msg.sender] = true;\n        emit Buy(_fileId, msg.sender);\n    }\n\n    function createSubscription(\n        uint256 _deposit,\n        address _token,\n        uint256 _startTime,\n        uint256 _stopTime,\n        address reciever\n    ) external {\n        require(reciever != address(0x00), \"cannot stream to the zero address\");\n        require(\n            reciever != address(this),\n            \"cannot stream to the contract itself\"\n        );\n        require(reciever != msg.sender, \"cannot stream to yourself\");\n        require(_deposit > 0, \"deposit is zero\");\n        require(\n            _startTime > block.timestamp,\n            \"start time should be after block.timestamp\"\n        );\n        require(_stopTime > _startTime, \"start time has to be before stoptime\");\n        uint256 delta = _stopTime.sub(_startTime);\n        require(\n            _deposit > delta,\n            \"Deposit should be more than delta as specified by EIP-1620\"\n        );\n        // THE Official implementation of the eip-1620 specifies that the deposit shopuld be a multiple of the delta just for the payament rate, the difference is negligible to be calculated efficiently specified in eip-1620 docs\n        // Check EIP-1620 for more details\n        uint256 remainder = _deposit.mod(delta);\n        uint256 actualDepositAmount = _deposit.sub(remainder);\n        uint256 streamId = createStream(\n            reciever,\n            actualDepositAmount,\n            _token,\n            _startTime,\n            _stopTime\n        );\n        // Once stream is created update both mappings so that the subscription can be tracked easily from both sides\n\n\n            BuyerSubscription[] storage buyerSubscriptions\n         = sellerToBuyer[reciever];\n        buyerSubscriptions.push(\n            BuyerSubscription(msg.sender, _deposit, streamId, true)\n        );\n        SellerSubscription[] storage sellerSubscriptions = buyerToSeller[msg\n            .sender];\n        sellerSubscriptions.push(\n            SellerSubscription(reciever, _deposit, streamId, true)\n        );\n    }\n\n    function isBuyer(uint256 _fileId, address buyer)\n        public\n        view\n        returns (bool)\n    {\n        File storage file = Files[_fileId];\n        return file.buyers[buyer];\n    }\n\n    // function isSubscriber(address seller) public view returns (bool) {\n    //         BuyerSubscription[] storage buyerSubscriptions\n    //      = sellerToBuyer[seller];\n    // }\n\n    function withdraw(\n        uint256 _streamId,\n        address buyer,\n        uint256 _amount\n    ) public {\n        require(_amount > 0, \"Cannot pass 0 as amount\");\n        (, , , , , uint256 stopTime, , ) = getStream(_streamId);\n        // get stop time of the stream if stop time is <= now then stream has ended so mark false in is active to filter on ui and transfer the amount requested by seller if stream still active then onlt trnsfer\n        if (stopTime >= now) {\n            BuyerSubscription[] storage buyerSubscriptions = sellerToBuyer[msg\n                .sender];\n\n\n                SellerSubscription[] storage sellerSubscriptions\n             = buyerToSeller[buyer];\n            for (uint256 i = 0; i < buyerSubscriptions.length; i++) {\n                if (buyerSubscriptions[i].buyer == buyer) {\n                    buyerSubscriptions[i].isActive = false;\n                }\n            }\n            for (uint256 i = 0; i < sellerSubscriptions.length; i++) {\n                if (sellerSubscriptions[i].seller == msg.sender) {\n                    sellerSubscriptions[i].isActive = false;\n                }\n            }\n        }\n        withdrawFromStream(_streamId, _amount);\n    }\n\n    function cancelSubscription(uint256 _streamId, address seller) public {\n        // first making the isActive property false in order to filter on UI\n        BuyerSubscription[] storage buyerSubscriptions = sellerToBuyer[seller];\n        SellerSubscription[] storage sellerSubscriptions = buyerToSeller[msg\n            .sender];\n        for (uint256 i = 0; i < buyerSubscriptions.length; i++) {\n            if (buyerSubscriptions[i].buyer == msg.sender) {\n                buyerSubscriptions[i].isActive = false;\n            }\n        }\n        for (uint256 i = 0; i < sellerSubscriptions.length; i++) {\n            if (sellerSubscriptions[i].seller == seller) {\n                sellerSubscriptions[i].isActive = false;\n            }\n        }\n        cancelStream(_streamId);\n    }\n}\n",
  "sourcePath": "/media/dhiraj/code/hackfs/shopfs/IPFS-ETH-MarketPlace/contracts/StorageMarket.sol",
  "compiler": {
    "name": "solc",
    "version": "0.5.11+commit.c082d0b4.Emscripten.clang"
  },
  "schemaVersion": "3.2.3",
  "updatedAt": "2020-07-31T04:14:33.756Z",
  "devdoc": {
    "methods": {
      "balanceOf(uint256,address)": {
        "details": "Throws if the id does not point to a valid stream.",
        "params": {
          "streamId": "The id of the stream for whom to query the balance.",
          "who": "The address for whom to query the balance."
        },
        "return": "The total funds allocated to `who` as uint256."
      },
      "cancelStream(uint256)": {
        "details": "Throws if the id does not point to a valid stream. Throws if the caller is not the sender or the recipient of the stream. Throws if there is a token transfer failure.",
        "params": {
          "streamId": "The id of the stream to cancel."
        },
        "return": "bool true=success, otherwise false."
      },
      "createCompoundingStream(address,uint256,address,uint256,uint256,uint256,uint256)": {
        "details": "Inherits all security checks from `createStream`. Throws if the cToken is not whitelisted. Throws if the sender share percentage and the recipient share percentage do not sum up to 100. Throws if the the sender share mantissa calculation has a math error. Throws if the the recipient share mantissa calculation has a math error.",
        "params": {
          "deposit": "The amount of money to be streamed.",
          "recipient": "The address towards which the money is streamed.",
          "recipientSharePercentage": "The recipient's share of the interest, as a percentage.",
          "senderSharePercentage": "The sender's share of the interest, as a percentage.",
          "startTime": "The unix timestamp for when the stream starts.",
          "stopTime": "The unix timestamp for when the stream stops.",
          "tokenAddress": "The ERC20 token to use as streaming currency."
        },
        "return": "The uint256 id of the newly created compounding stream."
      },
      "createStream(address,uint256,address,uint256,uint256)": {
        "details": "Throws if paused. Throws if the recipient is the zero address, the contract itself or the caller. Throws if the deposit is 0. Throws if the start time is before `block.timestamp`. Throws if the stop time is before the start time. Throws if the duration calculation has a math error. Throws if the deposit is smaller than the duration. Throws if the deposit is not a multiple of the duration. Throws if the rate calculation has a math error. Throws if the next stream id calculation has a math error. Throws if the contract is not allowed to transfer enough tokens. Throws if there is a token transfer failure.",
        "params": {
          "deposit": "The amount of money to be streamed.",
          "recipient": "The address towards which the money is streamed.",
          "startTime": "The unix timestamp for when the stream starts.",
          "stopTime": "The unix timestamp for when the stream stops.",
          "tokenAddress": "The ERC20 token to use as streaming currency."
        },
        "return": "The uint256 id of the newly created stream."
      },
      "deltaOf(uint256)": {
        "details": "Throws if the id does not point to a valid stream.",
        "params": {
          "streamId": "The id of the stream for whom to query the delta."
        },
        "return": "The time delta in seconds."
      },
      "getCompoundingStream(uint256)": {
        "details": "Throws if the id does not point to a valid compounding stream.",
        "params": {
          "streamId": "The id of the compounding stream to query."
        },
        "return": "The compounding stream object."
      },
      "getEarnings(address)": {
        "params": {
          "tokenAddress": "The address of the token to get the earnings for."
        },
        "return": "The amount of interest as uint256."
      },
      "getStream(uint256)": {
        "details": "Throws if the id does not point to a valid stream.",
        "params": {
          "streamId": "The id of the stream to query."
        },
        "return": "The stream object."
      },
      "initialize(address)": {
        "details": "Initializes the contract in unpaused state. Assigns the Pauser role to the deployer."
      },
      "interestOf(uint256,uint256)": {
        "details": "Throws if there is a math error. We do not assert the calculations which involve the current exchange rate, because we can't know what value we'll get back from the cToken contract.",
        "return": "The interest accrued by the sender, the recipient and sablier, respectively, as uint256s."
      },
      "isCompoundingStream(uint256)": {
        "params": {
          "streamId": "The id of the compounding stream to check."
        },
        "return": "bool true=it is compounding stream, otherwise false."
      },
      "isOwner()": {
        "return": "true if `msg.sender` is the owner of the contract."
      },
      "owner()": {
        "return": "the address of the owner."
      },
      "pause()": {
        "details": "Called by a pauser to pause, triggers stopped state."
      },
      "paused()": {
        "details": "Returns true if the contract is paused, and false otherwise."
      },
      "takeEarnings(address,uint256)": {
        "details": "Throws if `amount` exceeds the available balance.",
        "params": {
          "amount": "The amount of tokens to withdraw.",
          "tokenAddress": "The address of the token to withdraw earnings for."
        }
      },
      "transferOwnership(address)": {
        "details": "Allows the current owner to transfer control of the contract to a newOwner.",
        "params": {
          "newOwner": "The address to transfer ownership to."
        }
      },
      "unpause()": {
        "details": "Called by a pauser to unpause, returns to normal state."
      },
      "updateFee(uint256)": {
        "details": "Throws if the caller is not the owner of the contract. Throws if `feePercentage` is not lower or equal to 100.",
        "params": {
          "feePercentage": "The new fee as a percentage."
        }
      },
      "withdrawFromStream(uint256,uint256)": {
        "details": "Throws if the id does not point to a valid stream. Throws if the caller is not the sender or the recipient of the stream. Throws if the amount exceeds the available balance. Throws if there is a token transfer failure.",
        "params": {
          "amount": "The amount of tokens to withdraw.",
          "streamId": "The id of the stream to withdraw tokens from."
        },
        "return": "bool true=success, otherwise false."
      }
    }
  },
  "userdoc": {
    "methods": {
      "balanceOf(uint256,address)": {
        "notice": "Returns the available funds for the given stream id and address."
      },
      "cancelStream(uint256)": {
        "notice": "Cancels the stream and transfers the tokens back on a pro rata basis."
      },
      "createCompoundingStream(address,uint256,address,uint256,uint256,uint256,uint256)": {
        "notice": "Creates a new compounding stream funded by `msg.sender` and paid towards `recipient`."
      },
      "createStream(address,uint256,address,uint256,uint256)": {
        "notice": "Creates a new stream funded by `msg.sender` and paid towards `recipient`."
      },
      "deltaOf(uint256)": {
        "notice": "Returns either the delta in seconds between `block.timestamp` and `startTime` or between `stopTime` and `startTime, whichever is smaller. If `block.timestamp` is before `startTime`, it returns 0."
      },
      "getCompoundingStream(uint256)": {
        "notice": "Returns the compounding stream object with all its properties."
      },
      "getEarnings(address)": {
        "notice": "Returns the amount of interest that has been accrued for the given token address."
      },
      "getStream(uint256)": {
        "notice": "Returns the compounding stream with all its properties."
      },
      "interestOf(uint256,uint256)": {
        "notice": "Computes the interest accrued by keeping the amount of tokens in the contract. Returns (0, 0, 0) if the stream is not a compounding stream."
      },
      "isCompoundingStream(uint256)": {
        "notice": "Checks if the given id points to a compounding stream."
      },
      "takeEarnings(address,uint256)": {
        "notice": "Withdraws the earnings for the given token address."
      },
      "updateFee(uint256)": {
        "notice": "Updates the Sablier fee."
      },
      "withdrawFromStream(uint256,uint256)": {
        "notice": "Withdraws from the contract to the recipient's account."
      }
    }
  }
}